S01900006275696C642F7470615F63622F6D61696E2E737265638F
S113000028C2000047C2000045C2000043C20000ED
S113001041C200003FC200003DC200003BC20000DC
S113002039C2000037C2000035C2000033C20000EC
S113003031C200002FC200002DC200002BC20000FC
S11300400C9436130C9418130C9422130C942C1344
S11300500C9401131FC200001DC200001BC200004B
S113006019C200000C94451115C200000C94BF1174
S113007011C200000C9440130DC200000BC200001A
S113008009C2000007C2000005C2000003C200004C
S11300900C94E512FFC100000C94F612FBC10000A1
S11300A0F9C10000F7C10000F5C10000F3C1000070
S11300B0F1C10000EFC10000EDC10000EBC1000080
S11300C0E9C10000E7C10000E5C10000E3C1000090
S11300D0E1C10000DFC10000DDC10000DBC10000A0
S11300E0D9C10000D7C10000D5C10000D3C10000B0
S11300F0D1C10000CFC10000CDC10000CBC10000C0
S1130100C9C100000C946D0B0C94FC0B0C94060CF0
S11301100C945C0BBFC10000BDC10000BBC100005A
S1130120B9C10000B7C10000B5C10000B3C10000EF
S1130130B1C1000000000000000000000000000049
S113014000000000000000000000000000000000AB
S1130150000000000000000000000000000000009B
S1130160000000000000000000000000000000008B
S1130170000000000000000000000000000000007B
S1130180000000000000000000000000000000006B
S1130190000000000000000000000000000000005B
S11301A0000000000000000000000000000000004B
S11301B0000000000000000000000000000000003B
S11301C0000000000000000000000000000000002B
S11301D0000000000000000000000000000000001B
S11301E0000000000000000000000000000000000B
S11301F000000000000000000000000000000000FB
S113020000000000000000000000000000000000EA
S113021000000000000000000000000000000000DA
S1130220FE0C000D400C140D420D690DB40DE50DCE
S1130230020E2B0E5D0E900EA70CC80CAC1297127A
S11302406C1263125A1250124C12341200020E062F
S11302500C0400002110422063308440A550C66085
S1130260E770088129914AA16BB18CC1ADD1CEE16F
S1130270EFF13112100273325222B5529442F772E6
S1130280D662399318837BB35AA3BDD39CC3FFF3BF
S1130290DEE36224433420040114E664C774A444F6
S11302A085546AA54BB528850995EEE5CFF5ACC50F
S11302B08DD55336722611163006D776F6669556C6
S11302C0B4465BB77AA719973887DFF7FEE79DD75F
S11302D0BCC7C448E5588668A77840086118022856
S11302E02338CCC9EDD98EE9AFF9488969990AA9AF
S11302F02BB9F55AD44AB77A966A711A500A333A26
S1130300122AFDDBDCCBBFFB9EEB799B588B3BBBFE
S11303101AABA66C877CE44CC55C222C033C600CB5
S1130320411CAEED8FFDECCDCDDD2AAD0BBD688D4E
S1130330499D977EB66ED55EF44E133E322E511E05
S1130340700E9FFFBEEFDDDFFCCF1BBF3AAF599F9E
S1130350788F8891A981CAB1EBA10CD12DC14EF13E
S11303606FE18010A100C230E320045025404670A4
S11303706760B9839893FBA3DAB33DC31CD37FE3CF
S11303805EF3B1029012F322D232354214527762F4
S11303905672EAB5CBA5A89589856EF54FE52CD59F
S11303A00DC5E234C324A014810466744764245444
S11303B00544DBA7FAB79987B8975FE77EF71DC7AF
S11303C03CD7D326F2369106B01657667676154694
S11303D034564CD96DC90EF92FE9C899E9898AB9FF
S11303E0ABA94458654806782768C018E1088238E4
S11303F0A3287DCB5CDB3FEB1EFBF98BD89BBBAB0F
S11304009ABB754A545A376A167AF10AD01AB32A33
S1130410923A2EFD0FED6CDD4DCDAABD8BADE89D5E
S1130420C98D267C076C645C454CA23C832CE01C83
S1130430C10C1FEF3EFF5DCF7CDF9BAFBABFD98FEE
S1130440F89F176E367E554E745E932EB23ED10ED3
S1130450F01E11241FBECFEFD1E8DEBFCDBF00E0F8
S11304600CBF12E0A0E0B2E0E8E1F1E300E00BBF72
S113047002C007900D92AA32B107D9F725E0AAE28B
S1130480B2E001C01D92AD35B207E1F70E94DB1363
S11304900C948A18B5CDDB01B695A795B695A795AA
S11304A0B695A79567707727242F30E0FB01E20FFC
S11304B0F31F399708F44BC06115710571F560E0BD
S11304C0483008F45FC0FC01EA0FFB1F542F58505A
S11304D02191052E01C0220F0A94EAF7622B5830AD
S11304E0B0F7742F77701196485046954695469507
S11304F0A40FB11D772309F443C0A80FB91F2C9191
S113050030E048E050E0471B510902C0359527957B
S11305104A95E2F7862F822B08954850460FE8E06B
S1130520F0E0E61BF70B21E030E001C0220FEA9572
S1130530EAF76FEF620FFC01EA0FFB1F20816223D1
S1130540042E01C0660F0A94EAF71196B9CFA80FDA
S1130550B91FEC91F0E088E090E0821B930B861BBE
S1130560970B02C0F595E7958A95E2F781E090E054
S1130570042E01C0880F0A94EAF781508E2308954F
S1130580862F0895742FB6CFCF92DF92EF92FF9209
S11305900F931F932FB7F89440916D027091E1006F
S11305A06091E2005091E3003091E400C72ED62E12
S11305B0E52EF32E3091E00033FF0DC04F5F7091B4
S11305C0E1006091E2005091E3003091E400C72E15
S11305D0D62EE52EF32E2FBF642F70E080E090E03E
S11305E03AE1660F771F881F991F3A95D1F7970153
S11305F0860146E036952795179507954A95D1F7D4
S1130600602B712B822B932B1F910F91FF90EF90F6
S1130610DF90CF9008959FB7F89480FF09C02D987C
S113062081FF09C02E9882FD09C02F9A9FBF0895AB
S11306302D9A81FDF7CF2E9A82FFF7CF2F989FBF77
S11306400895E2E5F2E06927660FF11DE60FF11D5A
S1130650C895982F802D3196C89590250895CF92EE
S1130660DF92EF92FF920F931F935091E10040911C
S1130670E2003091E3002091E400852F942FA32F12
S1130680B22F2091FB02222309F45AC04091F302B5
S11306905091F4026091F5027091F6026C017D01B3
S11306A0C41AD50AE60AF70A0091F7021091F80273
S11306B02091F9023091FA02C016D106E206F3063F
S11306C008F44DC0040F151F261F371F0093F302B3
S11306D01093F4022093F5023093F6021092F7027D
S11306E01092F8021092F9021092FA023091E1008D
S11306F02091E2009091E3008091E400432F522F77
S1130700692F782F4E5F5F4F6F4F7F4F7093F800C4
S11307106093F7005093F6004093F50081E08093D6
S1130720E0008091DF0081608093DF008FEF809391
S11307300A021F910F91FF90EF90DF90CF900895E0
S11307408091DF008E7F8093DF008FEF80930A0219
S11307501F910F91FF90EF90DF90CF9008958093B9
S1130760F3029093F402A093F502B093F6020C19ED
S11307701D092E093F090093F7021093F8022093F4
S1130780F9023093FA0237FF04C03695279517957E
S11307900795E090E100F090E200F091E300E09131
S11307A0E400A7016F2F7E2F4E5F5F4F6F4F7F4F87
S11307B06A017B01C81AD90AEA0AFB0AC016D106E3
S11307C0E206F30608F0A2CFB901A801480F591FA9
S11307D06A1F7B1F9BCFCF92DF92EF92FF920F9302
S11307E01F93D2DE00915E0210915F02209160029D
S11307F030916102C0905A02D0905B02E0905C029A
S1130800F0905D02C00ED11EE21EF31E6017710748
S11308108207930708F464C0C016D106E206F30603
S113082008F063C097018601061B170B280B390BD0
S113083001301105210542E0340708F477C06B014B
S11308407C014EEFF41AC0925E02D0925F02E092F5
S11308506002F0926102325000935A0210935B02DC
S113086020935C0230935D0200E010E020E030E869
S1130870DC01CB01880F991FAA1FBB1F880F991F8A
S1130880AA1FBB1F880F991FAA1FBB1F880F991F80
S1130890AA1FBB1F880F991FAA1FBB1F880F991F70
S11308A0AA1FBB1F8093F3029093F402A093F50256
S11308B0B093F6020093F7021093F8022093F90222
S11308C03093FA0281E08093FB028091FC0288233A
S11308D031F11F910F91FF90EF90DF90CF90089529
S11308E0C016D106E206F30630F46C157D058E05BC
S11308F09F0508F497CF00E010E09801C0925E02D3
S1130900D0925F02E0926002F092610210925A0269
S113091010925B0210925C0210925D02A9CF1F91AB
S11309200F91FF90EF90DF90CF9099CEF6E0000FFB
S1130930111F221F331FFA95D1F7E0CF80910304D2
S1130940811147C04EE15EE188E03FB7F894909191
S113095050029E7F9093500290917C0020917C00E5
S113096020917B00929596959695937021E009F0DD
S113097020E09091500220FB91F9252F220F220FA5
S11309809370922B9093500290917B00977F909359
S11309907B0090917C00907E942B90937C009091AE
S11309A07C009F7D90937C0090917C009F7390933A
S11309B07C00209150022170883079F08770886023
S11309C0806120FB85F98064806880937A003FBF52
S11309D008954FE15FE180E0B8CF809101049091E8
S11309E00204803841E69407A8F4803C40E394076D
S11309F098F4803448E1940788F481154CE0940716
S1130A0078F4811546E0940768F48115934060F00A
S1130A1082E0D5CF87E0D3CF86E0D1CF85E0CFCFBA
S1130A2084E0CDCF83E0CBCF80E0C9CF8091620258
S1130A3090916302892B11F085E0089581E090E0A4
S1130A409093FC038093FB0386E592E0909363020A
S1130A5080936202109253021092520281E08093BA
S1130A6054028091C00080648093C0008091C100D2
S1130A7080648093C10080915202909153029C0142
S1130A802F5F3F4F3093530220935202FC01EA5AE6
S1130A90FD4F80819FB7F8948093C6008091C00079
S1130AA080648093C0009FBF80E0089593E8980F0E
S1130AB0923018F080935602B9CF9091320291602F
S1130AC09093320290E2982790934D028DE78093A1
S1130AD05602ACCF9FB7F894809132028E7F8093F8
S1130AE032028EE7809356029FBFA0CF9FB7F8943F
S1130AF08091C5048F3F19F085E09FBF0895E09170
S1130B00B804EC30C9F38091B7048F3F61F0EE3044
S1130B1098F7F0E0E754FB4F8CE080838093B804AF
S1130B2080E09FBF08958CE08093B7048093B8045D
S1130B3080E0F7CF9FB7F8948091BB048F3F19F002
S1130B4085E09FBF0895E091B804E230C9F3809135
S1130B50B7048F3F61F0EE3098F7F0E0E754FB4FB5
S1130B6082E080838093B80480E09FBF089582E090
S1130B708093B7048093B80480E0F7CF8FB7F894DC
S1130B8090915502992311F08FBF08952FB7F894CF
S1130B909091BE049F3F49F095E02FBF9111F4CF8F
S1130BA091E0909355028FBF0895E091B804E53029
S1130BB099F39091B7049F3F59F0EE3068F7F0E055
S1130BC0E754FB4F95E090839093B80490E0E5CF11
S1130BD095E09093B7049093B80490E0DECF9091A1
S1130BE0370291113AC0811138C041E04093370275
S1130BF0809107028093360230914402832F8170E2
S1130C0080934C02809101029091020290933502EC
S1130C1080933402809143028093330280914A028C
S1130C208093F803232F21702427367EE22FF0E0EF
S1130C30EE0FFF1FED5FFD4F8081918190930202C3
S1130C4080930102322B309344028FB7F894909131
S1130C50C3049F3F71F08FBF08958091440280FFC9
S1130C6004C08B7F8093440208958D7F8093440257
S1130C700895E091B804EA3071F39091B7049F3F6E
S1130C8051F0EE3040F7F0E0E754FB4F9AE09083E8
S1130C909093B804E0CF9AE09093B7049093B8048B
S1130CA0DACF809147028A3021F081E080934502B7
S1130CB0089580914E028430C1F78FB7F8949091D3
S1130CC0C0049F3F21F08FBF109245020895E09128
S1130CD0B804E730C1F39091B7049F3F51F0EE3070
S1130CE090F7F0E0E754FB4F97E090839093B804BB
S1130CF0EACF97E09093B7049093B804E4CF1F939E
S1130D00CF93DF93C82FD62F90914E02913009F4E0
S1130D10AFC008F496C0923009F448C0933009F08B
S1130D206BC01091EE021F3F09F466C0882309F4DA
S1130D30DAC0123008F43DC08091660281112AC1E4
S1130D4020916A0230E0322F222781E090E0FC01FA
S1130D50EA59FD4F8281282B8091480290914902E3
S1130D608217930731F580E03ADF8091640284347E
S1130D7009F434C1109267021092660284E08093F1
S1130D804E021092EE02109264021092F20210923D
S1130D90490210924802809132028D7F8093320280
S1130DA080914502882309F448C022C0882309F4AD
S1130DB08BC0109267021092660284E080934E0208
S1130DC01092EE02109264021092F2021092490202
S1130DD010924802809132028D7F8093320281E02A
S1130DE0FEDE80914502882329F184E080934E023F
S1130DF0DF91CF911F9155CF109267021092660236
S1130E0084E080934E021092EE02109264021092DB
S1130E10F2021092490210924802809132028D7FB0
S1130E208093320281E0DBDE809145028111DDCFC7
S1130E30CC2319F081E080934E02DF91CF911F9172
S1130E4008958823D1F310926702109266021092DB
S1130E50EE02109264021092F20210924902109271
S1130E60480281E080934E02DF91CF911F91089553
S1130E708111E3CF8091480290914902E2DB909383
S1130E8049028093480282E080934E02D093640228
S1130E908DEB8D0F833008F0AFCF8091440280FD3D
S1130EA070C081FDA9CF8260809344028091440286
S1130EB0877E886080934402D0934A021092430252
S1130EC08FEF80930702B9CF6093F20280914802BA
S1130ED090914902B6DB909349028093480283E0E3
S1130EE080934E02AACF1230E0F120916702E22FE4
S1130EF0F0E0EA59FD4F628130914402832F8695D8
S1130F0086958695837090E08130910509F454C0EC
S1130F100297C9F4809143028832A8F4E091010257
S1130F20F0910202E80FF11D6083809143028F5F0C
S1130F308093430220916702E22FF0E0EA59FD4FCB
S1130F4062811091EE022F5F233098F5209367029F
S1130F50809148029091490274DB909349028093F6
S1130F60480280916602E82FF0E0EA59FD4FD283EF
S1130F708F5F833060F0109266021F5F1093EE0261
S1130F805CCF82FD39CF8460809344028FCF8093FD
S1130F906602F3CF9FEF980FE92FF0E0EA59FD4F77
S1130FA0228130E0322F2227911135C082E090E077
S1130FB0CECE10926702CCCF80914A02377E306148
S1130FC030934402833431F085E08093430260938C
S1130FD00702B9CF85E080934302B5CF2091F20296
S1130FE0E0914B0530914C0581E08E0F863070F412
S1130FF0982F391709F4BECEF0E0E55BFA4F22834F
S1131000863030F480934B05B9DDB4CE90E0F1CF57
S113101010924B05F9CF825090E099CE9FB7F89487
S1131020809147028A3039F080914E02843019F061
S11310309FBF89E00895809108028823C9F39FBF68
S11310408FB7F8949091BF049F3F19F08FBF80E051
S11310500895E091B804E630C9F39091B7049F3F36
S113106051F0EE3098F7F0E0E754FB4F96E09083B0
S11310709093B804EBCF96E09093B7049093B804A0
S1131080E5CF0F931F93CF93DF9370912D02472FDA
S11310907C3108F047C0272F30E0E1E1F4E08CE137
S11310A0DF011D928A95E9F721153105F9F0509178
S11310B02F02A1E1B4E080E090E008C07FEF740F5C
S11310C06D9301968217930768F4472FE52FF0E09C
S11310D0E250FD4F6081442399F35F5F5A3F71F7FB
S11310E050E0ECCF50932F0270932D02C5E0D4E072
S11310F08FEF80930B0480930A0484E6809310049A
S113110080916B0290916C02892B49F19FB7F894FE
S11311108091C4048F3F81F09FBFDF91CF911F91D5
S11311200F910895E1E1F4E08CE1DF011D928A95CD
S1131130E9F72CE130E0BBCFE091B804EB3061F388
S11311408091B7048F3F09F44AC0EE3028F7F0E0ED
S1131150E754FB4F8BE080838093B804DDCFD093BA
S11311606C02C0936B028CE180930E04809109029F
S1131170882399F2109209021092300480912D0470
S1131180843409F46AC005E480912E04882329F18B
S113119042E062E070E08FE294E07DD9B0E18B9FA1
S11311A0C001112410912F04107C182B44E064E03A
S11311B070E08FE294E06FD9812B10922E0420917D
S11311C03F0230914002232B81F081E08093090299
S11311D010926C0210926B0299CF80E0F0CF8BE0FA
S11311E08093B7048093B80497CF9FB7F894109274
S11311F0380225E020933D0210923C02D093420233
S1131200C093410222E030E03093400220933F0239
S113121010923A0210923B0228E220933E029FBFB2
S11312209FB7F894209147022A30C9F09FBF9FB717
S1131230F89420914905211114C021E02093490517
S113124080934A050093ED0281E09FBF81110BC09A
S11312501092400210923F02B8CF04E495CF9FBF92
S1131260F7CF80E0F2CFDF91CF911F910F9186CC21
S1131270CF93DF931F92CDB7DEB790912C029111DB
S113128004C090912D029D3718F52FB7F8949091D2
S11312902D029A3FB0F430912E02E32FF0E0E25099
S11312A0FD4F80833F5F3A3FD1F030932E029F5F22
S11312B090932D022FBF80E090E00F90DF91CF91AB
S11312C008952FBF8FEF9FEF0F90DF91CF91089577
S11312D091E090932C028983D4DE8981D6CF109239
S11312E02E02E5CF10920902E0916B02F0916C029C
S11312F0309721F08091040480FF04C081E0809342
S113130009020895858190E0982F88272681822BF1
S113131071857D3148F08FB7F8949091BD049F3F5B
S113132009F46FC08FBF08958683958313A680A5A3
S1131330843409F47AC065E481A5882309F45FC084
S113134052A5852F90E09C013595279535952795D5
S11313503595279535952795237040E1249F900175
S11313601124082E892F000C881F990B000C881F4C
S1131370991F482F4295440F440F407C422B5F70C5
S1131380452B11A680913F0290914002892B19F6BA
S11313908FB7F8941092380295E090933D02109222
S11313A03C02F0934202E093410222E030E03093A9
S11313B0400220933F0210923A0210923B02745F63
S11313C070933E028FBF9FB7F894809147028A3092
S11313D071F19FBF9FB7F8948091490581112DC089
S11313E081E08093490540934A056093ED029FBFD5
S11313F081112BC01092400210923F028CCF40E02A
S1131400C1CFE091B804E43009F48CCF9091B704D3
S11314109F3FA9F0EE3008F085CFF0E0E754FB4F92
S113142094E090839093B8047DCF64E485CF9FBF0C
S11314301092400210923F026ECF80E0D8CF94E029
S11314409093B7049093B8046DCF98CBCF93DF9368
S11314501F92CDB7DEB720910902211107C0209158
S11314606B0230916C022817390721F00F90DF913D
S1131470CF91089510926C0210926B02698332DF4F
S11314806981611107C080912D0281111EC01092E3
S11314902C02ECCF8FB7F8949091C4049F3F11F0C5
S11314A08FBFE4CFE091B804EB30D1F39091B7044F
S11314B09F3F79F0EE30A0F7F0E0E754FB4F9BE05C
S11314C090839093B8048FBFD1CF0F90DF91CF91C9
S11314D0D8CD9BE09093B7049093B8048FBFC6CF48
S11314E04F925F926F927F92BF92CF92DF92EF9270
S11314F0FF920F931F93CF93DF93E1E7F2E0C0E0F5
S1131500D0E0B084B1FE13C040805180628073800B
S1131510C480D580E680F7808B019C0104191509ED
S1131520260937090C151D052E053F0560F5219682
S11315303996C330D10529F78FB7F8949091BB043D
S11315409F3F79F08FBFDF91CF911F910F91FF9053
S1131550EF90DF90CF90BF907F906F905F904F900F
S11315600895E091B804E23069F39091B7049F3F85
S113157071F1EE3038F7F0E0E754FB4F92E09083DE
S11315809093B804DFCFB0FC28C0D301C2018C0D06
S11315909D1DAE1DBF1D80839183A283B383C13083
S11315A0D9F1C230F1F48FB7F89490912A029923BB
S11315B009F44CC09091FD02992339F09091700286
S11315C090FD03C09160909370028FBFB5CF92E0FD
S11315D09093B7049093B804B5CFE894B1F8B0866B
S11315E0DECF9FB7F8948091B9048F3F11F09FBF6D
S11315F0A3CFE091B804EE23D1F38091B7048F3FD9
S113160009F44CC0EE3098F7F0E0E754FB4F108239
S11316101092B8049FBF90CF80913902882309F4B7
S11316208BCF8FB7F89460913C028FBF1092390230
S11316301092400210923F02809141029091420226
S113164020913A02211178CF01DF76CF91E0909377
S11316502A021092FD028FBF9FB7F89480917A00FE
S1131660806880937A008FEF80930A029FBFCFB780
S1131670F89480910002813011F0CFBF5DCF80914A
S11316802A02813089F08230C1F78091FD02809373
S1131690000283E080932A02CFBF4ECF1092B7049A
S11316A01092B8049FBF48CF21DACFBF45CF8FB780
S11316B0F89408958FBF08951F920F920FB60F925A
S11316C011248F9380916D028F5F80936D028F91AF
S11316D00F900FBE0F901F9018951F920F920FB688
S11316E00F9211240BB60F922F933F934F935F9356
S11316F06F937F938F939F93AF93BF93EF93FF93D6
S11317008091DF008E7F8093DF008FEF80930A0249
S113171081E08093FC028091FB028823A1F1409137
S1131720F3025091F4026091F5027091F602F09187
S1131730E100E091E2003091E3002091E4008F2F7A
S11317409E2FA32FB22F841B950BA60BB70B409192
S1131750F7025091F8026091F9027091FA0284172D
S11317609507A607B70778F01092FB0280915A02FA
S113177090915B02A0915C02B0915D02892B8A2B4F
S11317808B2BC1F028D81092FC020E942F03FF91EA
S1131790EF91BF91AF919F918F917F916F915F91E5
S11317A04F913F912F910F900BBE0F900FBE0F9052
S11317B01F9018958FB7F8949091BA049F3F11F039
S11317C08FBFE1CFE091B804E130D1F39091B70439
S11317D09F3F59F0EE30A0F7F0E0E754FB4F91E063
S11317E090839093B8048FBFCECF91E09093B704C9
S11317F09093B8048FBFC7CF1F920F920FB60F926A
S113180011240F900FBE0F901F9018951F920F92E6
S11318100FB60F9211240F900FBE0F901F901895C2
S11318209FB7F89480912C02813081F080912D0231
S1131830811104C09FBF81E090E0089581E080930E
S11318402C029FBF1EDC80E090E008959FBF80E0E3
S113185090E008958F929F92AF92BF92CF92DF92C1
S1131860EF92FF920F931F93CF93DF9390E08E300C
S1131870910508F05FC0FC01E05FFE4F0C94D815A1
S11318800E94C4022FB7F8941092FB022FBFE1E725
S1131890F2E0C0E088248A94982CA82C0FE7B02E9C
S11318A0208521FF1AC000811181228133816B01BF
S11318B07C01C01AD10AE20AF30A04811581268147
S11318C037810C191D092E093F09081519052A0528
S11318D03B051CF448015901C1E0399622E0EC387B
S11318E0F207F1F6CC2331F1181419041A041B047D
S11318F00CF08DC08092FD039092FE03A092FF0332
S1131900B092000421E020934F02CFB7F894609383
S11319105E0270935F0280936002909361028092F2
S11319205A0290925B02A0925C02B0925D020E9405
S1131930EB03CFBFDF91CF911F910F91FF90EF90F9
S1131940DF90CF90BF90AF909F908F9008958FB706
S1131950F8949091FD029093000293E090932A02F0
S11319608FBF809100028111E5CF81E080936502F1
S113197010920304DF91CF911F910F91FF90EF908C
S1131980DF90CF90BF90AF909F908F900C949E0467
S1131990109265020091F0021091F102809103040B
S11319A08111C8CFCFB7F89480912A02833009F40B
S11319B000C3CFBF1F930F9389E192E09F938F934E
S11319C00E94E5152DDF0F900F900F900F900B30B4
S11319D0110508F0ECC20630110508F0C2C281E01E
S11319E0DF91CF911F910F91FF90EF90DF90CF90F7
S11319F0BF90AF909F908F900C940B03A8959ACFB3
S1131A0080914F02882309F4DAC10E94C402DF9155
S1131A10CF911F910F91FF90EF90DF90CF90BF90E7
S1131A20AF909F908F905CCD20910404222309F401
S1131A3081CF81E091E05BE007C0990F883009F421
S1131A4079CF209104048F5F3FEF380F492F422351
S1131A50A1F3E32FF0E0EE0FFF1FE559FD4F1182D4
S1131A601082492F40954223409304043111E5CF5D
S1131A702FB7F8943091C4043F3F09F458C22FBFE4
S1131A80990FDFCFC0910902EC2FF0E0EE0FFF1F9A
S1131A90E559FD4F1182108225DCC1114BCF8FB760
S1131AA0F8949091C4049F3F91F4E091B804EB3012
S1131AB071F09091B7049F3F09F431C3EE3038F4CC
S1131AC0F0E0E754FB4F9BE090839093B8048FBF02
S1131AD031CF2FB7F894109255029091470288EFB6
S1131AE0890F823050F410924702E0914B02F0E0EB
S1131AF0EE0FFF1FE95BFA4F10822FBF823008F40C
S1131B0029C1992309F4A1C390E0CFB7F894809137
S1131B1047028A3009F447C2CFBF992309F40ACF98
S1131B208FB7F89410925405109253051092460200
S1131B3091E0909347028FBF0E946A05882309F4BD
S1131B40F9CE8FB7F89499E0909347028FBFDF9155
S1131B50CF911F910F91FF90EF90DF90CF90BF90A6
S1131B60AF909F908F900AC88091C1008F7B809323
S1131B70C1008091C1008F778093C1001092EF0261
S1131B80109254028091C10088608093C1009FEF3D
S1131B9090930A028091C10080618093C100909368
S1131BA00A028091C10080688093C1008FB7F894C5
S1131BB01092470210924E02109208028FBF81E0E9
S1131BC08093310210923002B5CE8FB7F894909181
S1131BD0C1049F3F09F07BCFE091B804E83009F4D9
S1131BE076CF9091B7049F3F09F463C2EE3008F0BA
S1131BF06ECFF0E0E754FB4F98E090839093B804E5
S1131C008FBF98CE8091C100877F8093C1009FEFE2
S1131C1090930A028091C1008F7E8093C1009093BB
S1131C200A028FB7F89491E0909308028FBF109244
S1131C30310280913002882309F47CCEDF91CF9168
S1131C401F910F91FF90EF90DF90CF90BF90AF90D6
S1131C509F908F90E3C98FB7F89420913802109227
S1131C6038028FBF80913F0290914002029709F0A1
S1131C7061CE222309F45ECE80913B02882309F4CD
S1131C80F1C11092400210923F0210923B028091E7
S1131C9041029091420220913A0221114BCE63E01D
S1131CA0DF91CF911F910F91FF90EF90DF90CF9034
S1131CB0BF90AF909F908F90C9CB9FB7F89430910D
S1131CC03602C0913402D091350220913302109132
S1131CD04C028091F8039FBF8454823008F4AEC054
S1131CE080913902882339F080913F02909140021B
S1131CF0029709F438C18FB7F894E12FF0E0EE0FA2
S1131D00FF1FED5FFD4FD183C083909144021111F9
S1131D10D9C09D7F90934402109237028FBF0ACEA0
S1131D20C5E0D4E08FEF80930B0480930A0484E62B
S1131D308093100480916B0290916C02892B09F4BA
S1131D404EC19FB7F8948091C4048F3F09F47BC0BF
S1131D509FBFF0CD2FB7F894809159028F5F809385
S1131D6059028091EC02833409F483C031E0983045
S1131D7009F48FC081E02FBF2FB7F89490914502EA
S1131D802FBF992309F4A2C09FB7F8942AE02093A7
S1131D9047029FBF90E0882309F4B7CE8FB7F89429
S1131DA030933C0221E0209338028FBF8FB7F89420
S1131DB02091C2042F3F09F46FC08FBFA6CE40917B
S1131DC0FD035091FE036091FF0370910004EFB78F
S1131DD0F89480915A0290915B02A0915C02B091B8
S1131DE05D0200915E0210915F02209160023091C9
S1131DF06102800F911FA21FB31FEFBF4093FD0329
S1131E005093FE036093FF037093000410924F02FB
S1131E10CFB7F89480935E0290935F02A093600220
S1131E20B093610240935A0250935B0260935C0248
S1131E3070935D020E94EB03CFBFE7CD2C3008F412
S1131E405ACF3AA758CFE091B804EB3009F480CFC9
S1131E508091B7048F3F09F448C1EE3008F078CF81
S1131E60F0E0E754FB4F8BE080838093B8049FBF7E
S1131E7061CD80914C0590914B05981739F08F5F97
S1131E8080934C05863010F010924C0580E030E0D1
S1131E9072CF30E081E06FCFE091B804E93009F40B
S1131EA08CCF2091B7042F3F09F47AC1EE3008F0AB
S1131EB084CFF0E0E754FB4F29E020832093B8045B
S1131EC08FBF23CE9B7F9093440226CF9FB7F89475
S1131ED050914705609149059FBF4FB7F8942091F1
S1131EE04B0590914C054FBF2917A9F1511133C0EF
S1131EF09FB7F89422E0209347055FB7F894409188
S1131F004B0520914C055FBF421709F4ECC0E091EA
S1131F104C05F0E0E55BFA4F22812093480523E469
S1131F202093EC0210924B029FBF91E034CFE091DA
S1131F30B804EB3009F4A3CD3091B7043F3F09F462
S1131F40CBC0EE3008F09BCDF0E0E754FB4F50835C
S1131F505093B80494CD6150623008F4B1C090E05D
S1131F601ACF83E03DCD809182028D7F80938202DF
S1131F70E0914102F091420281E083A7109239027C
S1131F801092400210923F028FB7F89460913C0285
S1131F908FBF809141029091420220913A02211117
S1131FA0AACE54DAA8CE0E945106CFBFC3CC8FE08C
S1131FB017CD809100028111FCCCF0907002F110D9
S1131FC000C181E08093000210922A0280917A007D
S1131FD08F7780937A008FEF80930A02EACCD093B4
S1131FE06C02C0936B028CE180930E048091090211
S1131FF0882309F49FCC1092090210923004809136
S11320002D04843409F4CAC005E480912E04882385
S113201009F467C042E062E070E08FE294E00E945D
S11320204B0220E1829FC001112410912F04107CE7
S1132030182B44E064E070E08FE294E00E944B02CD
S1132040812B10922E0420913F0230914002232BC9
S113205009F46CC081E08093090210926C02109222
S11320606B026FCE0E94C40260937A0270937B026B
S113207080937C0290937D0282E090E0A0E0B0E047
S113208080937E0290937F02A0938002B09381029A
S11320908091820281608260809382028FB7F8947B
S11320A09091BB049F3F41F18FBF81E0809339023F
S11320B041CC98E09093B7049093B8048FBF3ACC86
S11320C09FB7F8942091ED022093EC0221E0209335
S11320D04B029FBF91E05FCE5093B7045093B80476
S11320E0CECC80E0B0CF20E018CF8BE08093B70453
S11320F08093B8049FBF1ECCE091B804E230A1F2F3
S11321009091B7049F3F09F456C0EE3068F6F0E0B2
S1132110E754FB4F92E090839093B804C5CF9BE0C3
S11321209093B7049093B8048FBF04CC9FB7F894EE
S11321301092380225E020933D0210923C02D09385
S11321404202C093410222E030E0309340022093E7
S11321503F0210923A0210923B0228E220933E0280
S11321609FBF9FB7F894209147022A3001F19FBF87
S11321709FB7F8942091490521111BC021E02093B9
S1132180490580934A050093ED0281E09FBF8111C8
S1132190DECC1092400210923F025CCF04E435CFB3
S11321A029E02093B7042093B8048FBFAECC9FBF1F
S11321B0F0CF80E0EBCF92E09093B7049093B80413
S11321C073CF60912B0270E0CB010196A1E0B0E0E7
S11321D01AC0D82F482F46954695469550E0FA01E7
S11321E0E059FD4FE081282F27706D0102C0CC0C0F
S11321F0DD1C2A95E2F79601FC2DFE23E9F468170D
S1132200790771F001968130910519F7EF2DF1E00E
S113221021E030E040E050E0D0E080E090E0EDCF1D
S1132220DFEFD093FD028FEF8093000281E0809373
S11322302A020E947605BDCBDA01A059BD4F209534
S11322402E232C93D0932B02ECCF30E080E094CD5E
S11322508091B7048F3FA1F0282F30E0295C3B4FD9
S1132260F901EE57FF4F90819093B7049F3F51F0CF
S1132270F901EE57FF4F9FEF9083ECDA81E0089568
S113228080E008959093B804F3CF1F920F920FB695
S11322900F9211240BB60F922F933F934F935F939A
S11322A06F937F938F939F93AF93BF93EF93FF931A
S11322B08091C00087FD13C0FF91EF91BF91AF9152
S11322C09F918F917F916F915F914F913F912F914A
S11322D00F900BBE0F900FBE0F901F90189560913A
S11322E0C60080916E0290916F02009751F1209187
S11322F0350430913604A9014F5F5F4F5093360483
S113230040933504FC01E20FF31F608320913504F0
S11323103091360480915505909156052817390758
S113232058F210926F0210926E028091EF02833085
S113233019F28091C1008F778093C1001092EF024F
S1132340BBCF6E3779F0809132026D37A1F081FFF7
S113235005C08D7F8093320280E2682780E00E946E
S11323607F06AACF809108028111A6CF60E081E0A8
S11323700E947F06A1CF8260809332029DCF789421
S11323801F920F920FB60F9211240BB60F92FF9269
S11323900F931F932F933F934F935F936F937F9369
S11323A08F939F93AF93BF93CF93DF93EF93FF9359
S11323B020916202309163022115310509F466C04F
S11323C080915202909153024091FB035091FC037F
S11323D08417950768F5AC014F5F5F4F5093530224
S11323E040935202F901E80FF91F80819FB7F894D6
S11323F08093C6008091C00080648093C0009FBF1A
S1132400FF91EF91DF91CF91BF91AF919F918F9108
S11324107F916F915F914F913F912F911F910F91F8
S1132420FF900F900BBE0F900FBE0F901F9018954A
S11324301092630210926202109254028091C100C1
S11324408F7B8093C1001FB7F8948091320280FD86
S113245012C08091470290E0FC013197E830F10509
S113246038F089E0809347020E94BE051FBFC8CFA1
S1132470E25EFE4F9DC38E7F8093320280914D02B7
S1132480809356020E9416051FBFBACF8091C100E7
S11324908F7B8093C100B4CF88E080934702E4CF60
S11324A00E946A05082F87E0809347020111D9CF63
S11324B01FBFA6CF809154050E945605082F86E0C1
S11324C080934702F3CF809153050E945605082F4D
S11324D085E080934702EACFE0914B02F0E0EE0FF3
S11324E0FF1FE85BFA4F80810E945605082FF09089
S11324F04B02CF2DD0E0CC0FDD1FFE01E85BFA4F7D
S1132500608180915305909154050E94210390931A
S1132510540580935305809146028F5F8093460251
S113252091E0F91671F184E080934702BFCF809166
S113253059020E945605082F83E080934702609158
S1132540590280915305909154050E942103909360
S1132550540580935305AACF8091EC020E9456053E
S1132560082F82E0809347026091EC02809153052A
S1132570909154050E942103909354058093530530
S113258095CF90913D02E0914102F0914202E90F12
S1132590F11D30819F5F90933D0220913E022917E7
S11325A090F492E09093490520E0FE01E95BFA4F34
S11325B09081923009F4B7CF8F3F09F4B4CFC85B50
S11325C0DA4F288373CF232FF0CF1F920F920FB6C9
S11325D00F9211248F938091C80087FD8091CE00C3
S11325E08F910F900FBE0F901F90189578941F92A3
S11325F00F920FB60F9211240F900FBE0F901F90E1
S113260018951F920F920FB60F9211248F939F93D8
S113261080915702909158020196909358028093AA
S113262057029F918F910F900FBE0F901F90189596
S11326301F920F920FB60F9211240F900FBE0F909E
S11326401F9018951F920F920FB60F9211240F909E
S11326500FBE0F901F9018951F920F920FB60F92F6
S113266011240F900FBE0F901F9018951F920F9278
S11326700FB60F9211240F900FBE0F901F90189554
S11326801F920F920FB60F9211240BB60F922F9335
S11326903F934F935F936F937F938F939F93AF93E6
S11326A0BF93EF93FF938091780090917900789491
S11326B03FB7F8942091500221FB442740F9217040
S11326C03FBF2223B9F18FB7F89490917C00909189
S11326D07C0090917B008FBF2FB7F89480917A0093
S11326E086FB992790F9877F806190FB86F98F7725
S11326F080937A00877F80618F7B8F7780937A00C5
S1132700877F80618F7B806880937A002FBFFF91E1
S1132710EF91BF91AF919F918F917F916F915F9155
S11327204F913F912F910F900BBE0F900FBE0F90C2
S11327301F90189520917A00277F20937A0020918A
S11327406502213039F0223011F7442389F01092C8
S11327506502DDCF442361F09093F1028093F0028F
S11327608FB7F8949091C6049F3F59F08FBFCFCF95
S11327708DE790E0019701960197E1F70E949E048E
S1132780C6CFE091B804ED3089F39091B7049F3F30
S113279059F0EE3058F7F0E0E754FB4F9DE090839A
S11327A09093B8048FBFB3CF9DE09093B7049093F8
S11327B0B8048FBFACCF1FB7F89484B78ABD14BEDA
S11327C088E10FB6F89480936000109260000FBE09
S11327D04EE050E06FEF70E089EB94E0EFD18FEFC3
S11327E08093B7048093B80480913501806180930D
S11327F035018091340180618093340180913301EB
S11328008061809333018091320180618093320131
S113281085B7806885BF85B7806885BF80E8809369
S113282061001092610081E08093810090E29093B6
S1132830B6008093B10042E38091B2008111FCCFD5
S113284020918400309185008091B2008034E1F7BA
S11328508091840090918500821B930B90930204D5
S113286080930104415041F71092B100109281000D
S11328701092B6008091B6008370E1F780918000D9
S11328808C7F8093800080918100807E8260809321
S1132890810080916F00816080936F0080E280935B
S11328A0B6008091DC0080638093DC009FEF9093FE
S11328B00A028091DF0088608093DF008091DF004E
S11328C08E7F8093DF0090930A028091DC008E7FDC
S11328D08093DC0080E0877F8F7E8F7D8F7B8F7776
S11328E080937A008091390182608093390188E174
S11328F00FB6F89480936000109260000FBE29E236
S113290088E190E00FB6F894A895809360000FBE1C
S113291020936000259A269A279A2D9A2E9A2F9A08
S113292097DC8111FDCF109270028BE092E09093BE
S11329305A0580935905D2E0C6E060910104709174
S1132940020480E090E024E8C22E23E0D22EE12CA1
S1132950F12CA70196010AD1215031093093C50009
S11329602093C400D093C000C093C2001092C10051
S1132970609101047091020480E090E0A701960147
S1132980F5D0215031092093CC003093CD00D09361
S1132990C800C093CA001092C90084E490E09093E8
S11329A0FA038093F90310924705109249058AE0CF
S11329B080934702109246021092EC021092590240
S11329C010925405109253051092550210924B0226
S11329D0109267021092660294E090934E02109255
S11329E0EE02109264021092F202109249021092C6
S11329F0480210924C0510924B0510922C02E3EF02
S1132A00F2E0DF011D928A95E9F722DC8111FDCF06
S1132A101FBF78940E940E080E94C4026093710242
S1132A2070937202809373029093740280EA9FE021
S1132A30A0E0B0E08093750290937602A0937702B1
S1132A40B0937802809179028E7F826080937902BC
S1132A500E949A050E94C4026093830270938402C8
S1132A60809385029093860288EE93E0A0E0B0E024
S1132A708093870290938802A0938902B0938A027C
S1132A8080918B028E7F826080938B020E949A05D4
S1132A90CFEF07C0F901EE57FF4FC0834FBF0E942D
S1132AA02A0C4FB7F8948091B7048F3F79F0282F00
S1132AB030E0295C3B4FF901EE57FF4F9081909332
S1132AC0B7049F3F39F79093B804E4CF80910A028A
S1132AD087FD11C083B7816083BF78948895F8948B
S1132AE083B78E7F83BF8091B7048F3F01F78091B6
S1132AF00A0287FFEFCF80917A0087FD35C095E009
S1132B0080916F008E7271F5892F9091C10093FDB1
S1132B1022C02091C10024FD1EC09091C90093FDE4
S1132B201AC09091C90094FD16C0863008F085E063
S1132B309091DC0095FD14C0E5E08E1708F4E82FB1
S1132B40E0930A0283B7F0E0E45BFD4FE491807FF9
S1132B50E82BE3BFBFCF80E09091DC0095FFECCF82
S1132B60E3E0EBCF80E0D1CF91E0CACFA1E21A2E0F
S1132B70AA1BBB1BFD010DC0AA1FBB1FEE1FFF1F1D
S1132B80A217B307E407F50720F0A21BB30BE40B6D
S1132B90F50B661F771F881F991F1A9469F76095B4
S1132BA07095809590959B01AC01BD01CF0108956E
S1132BB0EE0FFF1F0590F491E02D1994DC0101C084
S1132BC06D9341505040E0F70895CF93DF93CDB714
S1132BD0DEB7FE01369661917191AF01809159057E
S1132BE090915A0503D0DF91CF9108952F923F928F
S1132BF04F925F926F927F928F929F92AF92BF9209
S1132C00CF92DF92EF92FF920F931F93CF93DF93B4
S1132C10CDB7DEB72C970FB6F894DEBF0FBECDBF8D
S1132C207C016B018A01FC0117821682838181FF7A
S1132C30B0C1CE0101964C01F7019381F60193FDD9
S1132C40859193FF81916F01882309F49EC1853298
S1132C5039F493FD859193FF81916F01853221F4BD
S1132C60B70190E0C7D1E8CF512C312C20E02032BD
S1132C70A0F48B3269F030F4803259F0833269F475
S1132C8020612CC08D3239F0803339F4216026C0A4
S1132C902260246023C0286021C027FD27C030EDB6
S1132CA0380F3A3078F426FF06C0FAE05F9E300D04
S1132CB01124532E13C08AE0389E300D1124332E74
S1132CC020620CC08E3221F426FD5FC1206406C050
S1132CD08C3611F4206802C0883641F4F60193FD65
S1132CE0859193FF81916F018111C1CF982F9F7DB1
S1132CF09554933028F40C5F1F4FFFE3F9830DC004
S1132D00833631F0833771F0833509F057C021C021
S1132D10F801808189830E5F1F4F44244394512C12
S1132D20540114C03801F2E06F0E711CF801A08048
S1132D30B18026FF03C0652D70E002C06FEF7FEF06
S1132D40C5012C874CD12C0183012C852F77222E91
S1132D5016C03801F2E06F0E711CF801A080B1803A
S1132D6026FF03C0652D70E002C06FEF7FEFC50141
S1132D702C872AD12C012C852068222E830123FC48
S1132D8019C0832D90E048165906A0F4B70180E2DB
S1132D9090E030D13A94F5CFF50127FC859127FED8
S1132DA081915F01B70190E025D131103A94F1E0AF
S1132DB04F1A51084114510479F7DEC0843611F0DA
S1132DC0893631F5F80127FF07C06081718182815E
S1132DD093810C5F1F4F08C060817181882777FD44
S1132DE08095982F0E5F1F4F2F76B22E97FF09C044
S1132DF090958095709561957F4F8F4F9F4F206878
S1132E00B22E2AE030E0A40127D1A82EA81843C08E
S1132E10853729F42F7EB22E2AE030E025C0F22F28
S1132E20F97FBF2E8F36C1F018F4883579F0ADC024
S1132E30803719F0883721F0A8C02F2F2061B22ED7
S1132E40B4FE0DC08B2D8460B82E09C024FF0AC0C7
S1132E509F2F9660B92E06C028E030E005C020E11F
S1132E6030E002C020E132E0F801B7FE07C0608123
S1132E707181828193810C5F1F4F06C060817181D3
S1132E8080E090E00E5F1F4FA401E6D0A82EA818A2
S1132E90FB2DFF77BF2EB6FE0BC02B2D2E7FA51466
S1132EA050F4B4FE0AC0B2FC08C02B2D2E7E05C01F
S1132EB07A2C2B2D03C07A2C01C0752C24FF0DC055
S1132EC0FE01EA0DF11D8081803311F4297E09C0D1
S1132ED022FF06C07394739404C0822F867809F08D
S1132EE0739423FD12C020FF06C05A2C731418F4E7
S1132EF0530C5718732C731460F4B70180E290E0FC
S1132F002C8778D073942C85F6CF731410F437186B
S1132F1001C0312C24FF11C0B70180E390E02C875D
S1132F2069D02C8522FF16C021FF03C088E590E0FC
S1132F3002C088E790E0B7010CC0822F867851F078
S1132F4021FD02C080E201C08BE227FD8DE2B701C2
S1132F5090E050D0A51430F4B70180E390E04AD05B
S1132F605A94F8CFAA94F401EA0DF11D8081B701B7
S1132F7090E040D0A110F6CF332009F45DCEB70124
S1132F8080E290E037D03A94F7CFF70186819781B9
S1132F9002C08FEF9FEF2C960FB6F894DEBF0FBEE2
S1132FA0CDBFDF91CF911F910F91FF90EF90DF90F4
S1132FB0CF90BF90AF909F908F907F906F905F90D5
S1132FC04F903F902F900895FC0105906150704000
S1132FD00110D8F7809590958E0F9F1F0895FC01DE
S1132FE06150704001900110D8F7809590958E0F34
S1132FF09F1F08950F931F93CF93DF93182F092FCB
S1133000EB018B8181FD03C08FEF9FEF20C082FF16
S113301010C04E815F812C813D81421753077CF49F
S1133020E881F9819F012F5F3F4F39832883108303
S113303006C0E885F985812F1995892B29F72E81FA
S11330403F812F5F3F4F3F832E83812F902FDF914E
S1133050CF911F910F910895FA01AA27283051F1B9
S1133060203181F1E8946F936E7F6E5F7F4F8F4FB5
S11330709F4FAF4FB1E03ED0B4E03CD0670F781F14
S1133080891F9A1FA11D680F791F8A1F911DA11DF9
S11330906A0F711D811D911DA11D20D009F4689432
S11330A03F912AE0269F11243019305D3193DEF6DA
S11330B0CF010895462F4770405D4193B3E00FD090
S11330C0C9F7F6CF462F4F70405D4A3318F0495D7B
S11330D031FD4052419302D0A9F7EACFB4E0A6955E
S11330E09795879577956795BA95C9F70097610580
S11330F0710508959B01AC010A2E069457954795D6
S113310037952795BA95C9F7620F731F841F951FCA
S10B3110A01D0895F894FFCFFF
S1133118018C028C02BC02FF0101FF0000000200C6
S1133128000000380900000000566F6C7461676580
S10D3138206973203A2564200A0080
S9030000FC
