:100000002FC200004CC200004AC2000048C20000DB
:1000100046C2000044C2000042C2000040C20000CC
:100020003EC200003CC200003AC2000038C20000DC
:1000300036C2000034C2000032C2000030C20000EC
:100040000C949F1D0C94811D0C948B1D0C94951D7C
:100050000C946A1D24C2000022C2000020C20000CD
:100060000C9456130C94AE1B1AC200000C94281C5E
:1000700016C2000014C2000012C2000010C200002C
:100080000EC200000CC200000AC2000008C200003C
:100090000C944E1D04C200000C945F1D00C20000B1
:1000A000FEC10000FCC10000FAC10000F8C1000060
:1000B000F6C10000F4C10000F2C10000F0C1000070
:1000C000EEC10000ECC10000EAC10000E8C1000080
:1000D000E6C10000E4C10000E2C10000E0C1000090
:1000E000DEC100000C943A1EDAC100000C940B1E15
:1000F0000C94DA1D0C949C1ED2C100000C94A91D16
:100100000C946B1E0C944F120C94E2120C941C1362
:100110000C943E12C4C10000C2C10000C0C1000066
:1001200000000000000000000000000000000000CF
:1001300000000000000000000000000000000000BF
:1001400000000000000000000000000000000000AF
:10015000000000000000000000000000000000009F
:10016000000000000000000000000000000000008F
:10017000000000000000000000000000000000007F
:10018000000000000000000000000000000000006F
:10019000000000000000000000000000000000005F
:1001A000000000000000000000000000000000004F
:1001B000000000000000000000000000000000003F
:1001C000000000000000000000000000000000002F
:1001D000000000000000000000000000000000001F
:1001E000000000000000000000000000000000000F
:1001F00000000000000000000000000000000000FF
:1002000000000000000000000000000000000000EE
:1002100000000000000000000000000000000000DE
:10022000F6179F1743172F1701171618D61684169F
:100230005316DF15AF151B16E81595155E1511152C
:10024000E81420153614BC14F917151D001DD51C13
:10025000CC1CC31CB91CB51C9D1C00020E060C0452
:1002600000002110422063308440A550C660E77032
:10027000088129914AA16BB18CC1ADD1CEE1EFF1DA
:100280003112100273325222B5529442F772D66282
:10029000399318837BB35AA3BDD39CC3FFF3DEE32A
:1002A0006224433420040114E664C774A4448554D2
:1002B0006AA54BB528850995EEE5CFF5ACC58DD57A
:1002C0005336722611163006D776F6669556B44622
:1002D0005BB77AA719973887DFF7FEE79DD7BCC7CA
:1002E000C448E5588668A778400861180228233872
:1002F000CCC9EDD98EE9AFF9488969990AA92BB91A
:10030000F55AD44AB77A966A711A500A333A122AC1
:10031000FDDBDCCBBFFB9EEB799B588B3BBB1AAB69
:10032000A66C877CE44CC55C222C033C600C411C11
:10033000AEED8FFDECCDCDDD2AAD0BBD688D499DB9
:10034000977EB66ED55EF44E133E322E511E700E61
:100350009FFFBEEFDDDFFCCF1BBF3AAF599F788F09
:100360008891A981CAB1EBA10CD12DC14EF16FE1E9
:100370008010A100C230E320045025404670676021
:10038000B9839893FBA3DAB33DC31CD37FE35EF339
:10039000B1029012F322D232354214527762567271
:1003A000EAB5CBA5A89589856EF54FE52CD50DC589
:1003B000E234C324A01481046674476424540544C1
:1003C000DBA7FAB79987B8975FE77EF71DC73CD7D9
:1003D000D326F2369106B016576676761546345611
:1003E0004CD96DC90EF92FE9C899E9898AB9ABA929
:1003F0004458654806782768C018E1088238A32861
:100400007DCB5CDB3FEB1EFBF98BD89BBBAB9ABB78
:10041000754A545A376A167AF10AD01AB32A923AB0
:100420002EFD0FED6CDD4DCDAABD8BADE89DC98DC8
:10043000267C076C645C454CA23C832CE01CC10C00
:100440001FEF3EFF5DCF7CDF9BAFBABFD98FF89F18
:10045000176E367E554E745E932EB23ED10EF01E50
:1004600011241FBECFEFD1E4DEBFCDBF12E0A0E06C
:10047000B2E0E0EBF8E400E00BBF02C007900D92A1
:10048000A234B107D9F726E0A2E4B2E001C01D9280
:10049000AD3EB207E1F70E94CD1E0C945624B0CDBC
:1004A000CF92DF92EF92FF920F931F932FB7F894A2
:1004B0004091D6028FB7F8947091E1006091E2000C
:1004C0005091E3003091E4008FBFC72ED62EE52E69
:1004D000F32E3091E00033FF10C04F5F8FB7F894D8
:1004E0007091E1006091E2005091E3003091E400EE
:1004F0008FBFC72ED62EE52EF32E2FBF642F70E0B0
:1005000080E090E02AE1660F771F881F991F2A95E7
:10051000D1F79701860146E03695279517950795FF
:100520004A95D1F7602B712B822B932B1F910F9142
:10053000FF90EF90DF90CF900895FC01278130E08D
:10054000322F22278681282B4FB7F89480910602FC
:10055000909107024FBF2817390729F02F3F3F4FCF
:1005600011F080E00895258130E0322F2227848128
:10057000282B8FB7F894409105028FBF50E081E09F
:100580002417350779F380E0EDCFFC01228130E0BC
:10059000322F22278181282B25FF05C027743C7C20
:1005A0002134384811F080E00895278130E0322F5F
:1005B00022278681282B8FB7F8944091060250910C
:1005C00007028FBF81E02417350771F380E0ECCF7D
:1005D0000F931F93FB01AFB7F8942FB7F894709166
:1005E000E1006091E2005091E3004091E4002FBFF0
:1005F000072F162F252F342FAF01BC014230510594
:100600006105710520F442E050E060E070E0400FC9
:10061000511F621F731F7093F4006093F300509397
:10062000F2004093F10082E08093E0008091DF00CF
:1006300082608093DF008FEF80931402AFBF1F9121
:100640000F910895E0E6F2E06927660FF11DE60FCD
:10065000F11DC895982F802D3196C8959025089545
:10066000CF92DF92EF92FF920F931F93CF93DF937E
:10067000EC0180917402882351F085E0DF91CF91E5
:100680001F910F91FF90EF90DF90CF900895809190
:100690009C02853091F78091A1038111EECF8CA54A
:1006A00083FF2FC08FA58F709091D902891751F0C9
:1006B0008093D902806C809345018091D902806C2F
:1006C000809345018A8190E0982F88272981822B89
:1006D00087749C7C81349848E1F089E080934201E2
:1006E0008CA5488185FD0FC000E010E0409380019B
:1006F000809141018F71893011F186E08093420130
:10070000BCCF80E0D1CF8BEF840F8E01080F111D7D
:10071000EDCF209146012F7130E04091BC048091D3
:100720006D0290E0840F911D95958795959587951D
:1007300095958795821793070CF49FCFCECF8CA504
:1007400082FF76C08DA5882309F489C080914D0170
:100750008C7F816080934D0180914D018C7F816001
:1007600080934D01A198BE016F5F7F4F42508FB7BC
:10077000F894EFB7F8945091E1003091E2002091A5
:10078000E3009091E400EFBFC52ED32EE22EF92EA8
:1007900092E0909342018FBF8BE0C80ED11CE11C08
:1007A000F11C0115110509F468C0F801208181814F
:1007B00090E0A0E0B0E0DC0199278827B22B2381EC
:1007C000822B2281922B8C199D09AE09BF0983834C
:1007D0009283A183B08350E081E891E00E94A1213F
:1007E00086E080934201F8018081418150E060E021
:1007F00070E0BA0155274427782B8381482B8281EA
:10080000582B4C0D5D1D6E1D7F1D438352836183EC
:1008100070838CA582608CA7C8A6D9A6EAA6FBA681
:1008200086E080939C0284E08093740280E026CF6F
:100830009FB7F894809101029FBF837090914D0102
:100840009C7F982B90934D0190914D019C7F982B0C
:1008500090934D01823009F085CFA19A84CF809189
:100860004D018C7F826080934D0180914D018C7F82
:10087000826080934D01A19A76CF50E081E891E0AB
:100880000E94A12186E080934201C3CFCF92DF92E4
:10089000EF92FF920F931F938FB7F8945091E1005E
:1008A0004091E2003091E3002091E4008FBF852F5A
:1008B000942FA32FB22F20916B03222309F470C031
:1008C00040916303509164036091650370916603E6
:1008D0006C017D01C41AD50AE60AF70A0091670384
:1008E000109168032091690330916A03C016D10604
:1008F000E206F30608F463C0040F151F261F371F16
:10090000009363031093640320936503309366039D
:1009100010926703109268031092690310926A03A1
:1009200000E010E098014FB7F894E090E100F090FB
:10093000E200F091E300E091E4004FBFA7016F2FC8
:100940007E2F4E5F5F4F6F4F7F4F6A017B01C81A4A
:10095000D90AEA0AFB0AC016D106E206F30630F409
:10096000B901A801480F591F6A1F7B1F7093F80037
:100970006093F7005093F6004093F50081E0809378
:10098000E0008091DF0081608093DF008FEF809333
:1009900014021F910F91FF90EF90DF90CF90089578
:1009A0008091DF008E7F8093DF008FEF80931402B1
:1009B0001F910F91FF90EF90DF90CF90089580935B
:1009C000630390936403A0936503B09366030C19CB
:1009D0001D092E093F0900936703109368032093B4
:1009E000690330936A0337FF9ECF36952795179595
:1009F000079599CFCF92DF92EF92FF920F931F93BB
:100A00004FDD009194021091950220919602309151
:100A10009702C0908F02D0909002E0909102F090E7
:100A20009202C00ED11EE21EF31E601771078207EC
:100A3000930708F464C0C016D106E206F30608F076
:100A400063C097018601061B170B280B390B013079
:100A50001105210542E0340708F477C06B017C01E1
:100A60004EEFF41AC0929402D0929502E092960250
:100A7000F0929702325000938F02109390022093CD
:100A800091023093920200E010E020E030E8DC01B7
:100A9000CB01880F991FAA1FBB1F880F991FAA1F80
:100AA000BB1F880F991FAA1FBB1F880F991FAA1F62
:100AB000BB1F880F991FAA1FBB1F880F991FAA1F52
:100AC000BB1F8093630390936403A0936503B0936B
:100AD00066030093670310936803209369033093C0
:100AE0006A0381E080936B0380916C03882331F16A
:100AF0001F910F91FF90EF90DF90CF900895C01657
:100B0000D106E206F30630F46C157D058E059F05CF
:100B100008F497CF00E010E09801C0929402D092C0
:100B20009502E0929602F092970210928F02109234
:100B300090021092910210929202A9CF1F910F91F0
:100B4000FF90EF90DF90CF90A1CEE6E0000F111F55
:100B5000221F331FEA95D1F7E0CF80919802909140
:100B60009902892B11F085E0089581E090E090933F
:100B7000A6048093A5048AE892E09093990280935A
:100B80009802109283021092820281E08093840284
:100B90008091C00080648093C0008091C100806417
:100BA0008093C10080918202909183029C012F5F0B
:100BB0003F4F3093830220938202FC01E657FD4FA2
:100BC00080819FB7F8948093C6008091C0008064B4
:100BD0008093C0009FBF80E0089593E8980F923003
:100BE00018F080938A02B9CF90914A029160909355
:100BF0004A0290E2982790936F028DE780938A02D1
:100C0000ACCF9FB7F89480914A028E7F80934A02BE
:100C10008EE780938A029FBFA0CFBC014FB7F894A4
:100C200080915E0390915F039C012F5E3E4F309355
:100C30005F0320935E034FBF2FB7F89430911506E2
:100C40003F3F29F02FBF0E94252144960895E0914F
:100C50000206E231B9F3309101063F3F71F0E53110
:100C600088F7F0E0ED5FF94F32E130833093020610
:100C70002FBF0E9425214496089532E1309301064A
:100C800030930206DFCF8FB7F894909185029923B5
:100C900011F08FBF08952FB7F89490910A069F3FE7
:100CA00049F095E02FBF9111F4CF91E09093850228
:100CB0008FBF0895E0910206E73099F39091010605
:100CC0009F3F59F0E53168F7F0E0ED5FF94F97E0AD
:100CD00090839093020690E0E5CF97E09093010611
:100CE0009093020690E0DECF90914F0291113AC0AE
:100CF000811138C041E040934F02809110028093EF
:100D00004E0230915C02832F817080936E0280913D
:100D10000A0290910B0290934D0280934C028091B5
:100D20005B0280934B0280916B0280939D04232F82
:100D300021702427367EE22FF0E0EE0FFF1FE45FE4
:100D4000FD4F8081918190930B0280930A02322B98
:100D500030935C028FB7F89490910F069F3F71F02B
:100D60008FBF089580915C0280FF04C08B7F8093C9
:100D70005C0208958D7F80935C020895E0910206E5
:100D8000EC3071F3909101069F3F51F0E53140F74F
:100D9000F0E0ED5FF94F9CE0908390930206E0CF86
:100DA0009CE09093010690930206DACF8091620254
:100DB0008A3021F081E080935D0208958091730272
:100DC0008430C1F78FB7F89490910C069F3F21F0C3
:100DD0008FBF10925D020895E0910206E930C1F3E1
:100DE000909101069F3F51F0E53190F7F0E0ED5F03
:100DF000F94F99E0908390930206EACF99E090939F
:100E0000010690930206E4CF1F93CF93DF93C82F80
:100E1000D62F90917302913009F4AFC008F496C0B8
:100E2000923009F448C0933009F06BC01091590317
:100E30001F3F09F466C0882309F4DAC0123008F4B1
:100E40003DC08091CD0281112AC12091D10230E0B4
:100E5000322F222781E090E0FC01E353FD4F828195
:100E6000282B80916302909164028217930731F5D9
:100E700080E03ADF80919A02843409F434C1109200
:100E8000CE021092CD0284E0809373021092590337
:100E900010929A0210926003109264021092630200
:100EA00080914A028D7F80934A0280915D0288235F
:100EB00009F448C022C0882309F48BC01092CE02E6
:100EC0001092CD0284E08093730210925903109225
:100ED0009A02109260031092640210926302809151
:100EE0004A028D7F80934A0281E0FEDE80915D029E
:100EF000882329F184E080937302DF91CF911F91C1
:100F000055CF1092CE021092CD0284E080937302EE
:100F10001092590310929A02109260031092640288
:100F20001092630280914A028D7F80934A0281E091
:100F3000DBDE80915D028111DDCFCC2319F081E0F1
:100F400080937302DF91CF911F9108958823D1F38D
:100F50001092CE021092CD021092590310929A0272
:100F600010926003109264021092630281E08093F9
:100F70007302DF91CF911F9108958111E3CF80918A
:100F80006302909164025EDB90936402809363023B
:100F900082E080937302D0939A028DEB8D0F8330A1
:100FA00008F0AFCF80915C0280FD70C081FDA9CFB9
:100FB000826080935C0280915C02877E886080936F
:100FC0005C02D0936B0210925B028FEF8093100251
:100FD000B9CF60936003809163029091640232DB29
:100FE000909364028093630283E080937302AACF9C
:100FF0001230E0F12091CE02E22FF0E0E353FD4FFA
:10100000628130915C02832F8695869586958370E8
:1010100090E08130910509F454C00297C9F48091A1
:101020005B028832A8F4E0910A02F0910B02E80F0B
:10103000F11D608380915B028F5F80935B02209142
:10104000CE02E22FF0E0E353FD4F6281109159038D
:101050002F5F233098F52093CE0280916302909108
:101060006402F0DA90936402809363028091CD026F
:10107000E82FF0E0E353FD4FD2838F5F833060F0C1
:101080001092CD021F5F109359035CCF82FD39CFC0
:10109000846080935C028FCF8093CD02F3CF9FEF6B
:1010A000980FE92FF0E0E353FD4F228130E0322F1B
:1010B0002227911135C082E090E0CECE1092CE0270
:1010C000CCCF80916B02377E306130935C028334E9
:1010D00031F085E080935B0260931002B9CF85E028
:1010E00080935B02B5CF20916003E091A20630911E
:1010F000A30681E08E0F863070F4982F391709F41B
:10110000BECEF0E0EE55F94F2283863030F4809366
:10111000A206B9DDB4CE90E0F1CF1092A206F9CFCD
:10112000825090E099CE9FB7F8948091430282302C
:1011300019F09FBF81E00895809102028111F9CFDB
:10114000809104028F3F79F1E82FF0E0ED56FD4FDA
:101150002081209304022F3F19F12FEF20838093E9
:10116000020281E0809343028FB7F8942091110628
:101170002F3F21F08FBF9FBF80E00895E0910206CE
:10118000EE30C1F3209101062F3F91F0E53190F749
:10119000F0E0ED5FF94F2EE0208320930206EACFC6
:1011A00020930302DACF8093020210924302E3CF2E
:1011B0002EE02093010620930206DCCF9FB7F8941F
:1011C000809162028A3039F080917302843019F084
:1011D0009FBF89E00895809111028823C9F39FBFC2
:1011E0008FB7F89490910B069F3F19F08FBF80E066
:1011F0000895E0910206E830C9F3909101069F3FFF
:1012000051F0E53198F7F0E0ED5FF94F98E0908309
:1012100090930206EBCF98E090930106909302061C
:10122000E5CF10921202E091D402F091D5023097EE
:1012300021F08091BD0480FF04C081E08093120200
:101240000895858190E0982F88272681822B7185CB
:101250007D3148F08FB7F894909109069F3F09F4CB
:101260006FC08FBF08958683958313A680A58434AD
:1012700009F47AC065E481A5882309F45FC052A50A
:10128000852F90E09C0135952795359527953595C7
:10129000279535952795237040E1249F90011124CF
:1012A000082E892F000C881F990B000C881F991F8E
:1012B000482F4295440F440F407C422B5F70452BD2
:1012C00011A68091570290915802892B19F68FB779
:1012D000F8941092500295E09093550210925402A7
:1012E000F0935A02E093590222E030E03093580222
:1012F000209357021092520210925302745F70931F
:1013000056028FBF9FB7F894809162028A3071F1C4
:101310009FBF9FB7F89480919B0681112DC081E0FB
:1013200080939B0640939C06609357039FBF811157
:101330002BC010925802109257028CCF40E0C1CFC0
:10134000E0910206E63009F48CCF909101069F3FB0
:10135000A9F0E53108F085CFF0E0ED5FF94F96E0B8
:101360009083909302067DCF64E485CF9FBF109257
:101370005802109257026ECF80E0D8CF96E090933B
:101380000106909302066DCF7ECC3F924F925F9202
:101390006F927F928F929F92AF92BF92CF92DF9285
:1013A000EF92FF920F931F93CF93DF93FF24F39459
:1013B000B0E1CB2ECFE0AC2ED4E0ED2EDD24DA94DC
:1013C00013E0B12E0DE5802E86E0782E9DE0692E8B
:1013D00020E8922E23C0893009F4BDC19FEF980FF9
:1013E000933008F4FFC0873009F4E9C1883009F46C
:1013F00010C18823D9F080917002823009F4DBC0DB
:10140000809156038230A9F18FB7F89490917602BB
:10141000913009F475C0F09276028FBF8091A103DC
:10142000811183C0809174028111D5CF80919C027B
:10143000853009F78091A1038111DDCF8091710280
:101440008111D9CF80917F028111D5CF8091560330
:101450008111D1CF80917E02823069F6F0927E02B6
:101460008FB7F894909113069F3F09F430C48FBF53
:10147000C2CF1092560380919B02813029F6609171
:10148000D2027091D3028FB7F8945091E10040914D
:10149000E2003091E3002091E4008FBF852F942F6C
:1014A00020917F02203809F4A2C12B01481A590A61
:1014B00027FD62C1C0917C02D0917D0280917102B2
:1014C000882309F49BC3822F15E08F77813009F4BC
:1014D000D2C327FD77C310927F021093BE04F0920F
:1014E0007E028FB7F894909113069F3F09F455C37D
:1014F0008FBF8FB7F89490917602913009F08BCF1F
:10150000109276028FBFDF91CF911F910F91FF90C4
:10151000EF90DF90CF90BF90AF909F908F907F9093
:101520006F905F904F903F9008958FB7F8943091EF
:10153000E9004091EA005091EB006091EC002091AD
:10154000A1031092A1038FBF8091740227FDF4C004
:10155000843009F48BC025FF06C0863009F466C0CC
:10156000882309F465C0853009F46FC020FF05C0E9
:1015700090919C02923009F442C123FF55CF8630EE
:1015800009F052CF809155018F778093550180915A
:1015900055018F778093550110927402809141011B
:1015A000877009F443CF8091410180919C0285307E
:1015B00009F021CF3FCF109270028091700381110A
:1015C0001FCF1092710210927F021092BE04E0921F
:1015D0007E028FB7F894909113069F3F09F4DAC00A
:1015E0008FBF0ECF2EEF280F223008F43DC192306E
:1015F00009F069C1813009F424C1823009F0F6CEC6
:1016000080919C02833009F0F6CE10924E01D09268
:101610001402109274028FB7F894909112069F3FB3
:1016200009F495C18FBF80917402E3CE10927402C9
:10163000203209F465C1E091E006F091E10684A54D
:10164000897E84A785E08093740224FFA0C08091E6
:1016500046019091BC048F71890F96959695891BD0
:101660008093BC0489E08093740280CF21FF7ECFF9
:101670009FB7F894809142029FBF882321F0823067
:1016800009F4BAC2A19885E080939C02109274027A
:1016900080917102833009F4E7C2E091AA06F091CB
:1016A000AB06828190E0982F88277181872B85FF78
:1016B000AEC087749C7C8134984809F0A8C08781AB
:1016C00090E0982F88277681872B019609F49FC098
:1016D0008091700281119BC010927003F092700291
:1016E0007FB7F8948FB7F894D091E100C091E200F1
:1016F000F091E300E091E4008FBF8D2F9C2FAF2F7E
:10170000BE2FCE96A11DB11DB093F000A093EF00A7
:101710009093EE008093ED00E092E0008091DF0076
:1017200084608093DF00D09214027FBF82E08093B8
:101730007102809174020FCF982F9B7F933009F430
:1017400079C08A3009F004CF85E080939C02109222
:10175000740280E000CF40917B018091460187FDBB
:101760000AC185E080939C021092740280919C02D1
:10177000853009F040CE5ECE141415040CF09ACEDC
:10178000822F8F77813009F476C215E01FC28091D5
:101790007402ECCEE0910206E03109F421CF909181
:1017A00001069F3F09F44BC3E53108F019CFF0E083
:1017B000ED5FF94FC082C09202068FBF21CE8091AB
:1017C0009C02813029F080919806806480934801C2
:1017D0008091980680648093480180919C028530B6
:1017E00009F017CFE0929C0280917402FFCD109215
:1017F0007F0280917E02823009F006CE70CE9EEF8D
:10180000980F923008F0B9CEB0929C02B6CE1092EA
:10181000710210927F021092BE04E0927E028FB796
:10182000F894909113069F3F09F40BC28FBF8091EB
:10183000740291CE85E080939C0288E080937402CC
:101840008ACE90919C02933009F0D5CD90934D01B2
:1018500090934D01999AA19890913901926090933B
:10186000390180939C02D5CE20919C02213009F44D
:10187000D7C1833009F0BBCE233009F0B8CE8091B8
:10188000980680648093480180924E01D0921402A1
:101890008FB7F894F0926D038FBF9FB7F894809143
:1018A00042029FBF882309F4F8C180934D019091B3
:1018B0004A01907F976090934A01999A823009F487
:1018C00004C2A198F2C190919C02953009F092CE89
:1018D000B0924D01B0924D01999AA1988FB7F894AA
:1018E00010926D038FBFB092420110924E01109280
:1018F000A103D0921402B0929C02809174027ACE1D
:10190000809146018F7170916D02982F970F769597
:101910007695971B90936D02E091E006F091E106B9
:1019200094A5792F726074A730A741A752A763A727
:1019300030914D0132FD58C134B3369531703F2599
:1019400035A79660977F906194A787A77BCEE0919B
:101950000206EF3009F466CE909101069F3F09F42C
:1019600074C2E53108F05ECEF0E0ED5FF94FA08281
:10197000A092020657CE8DEF840F873208F0F1CE89
:101980008091E0069091E106FC014193CF01425025
:1019900050E060E871E00E94A1210091E006109102
:1019A000E106D80111968C918770823009F48BC2C0
:1019B000F801808182508B3008F4D3CE9FB7F89421
:1019C000809108029FBF811184C29FB7F89481E083
:1019D00020919C04233008F080E09FBF882309F405
:1019E000C0CE809171020091E0061091E106E09175
:1019F0007B01F0E0E058FE4F90812801D8019E96CF
:101A00009C939E9795E090939C021092740211967D
:101A10009C9111979770923009F47AC1882309F448
:101A2000ACC18FB7F8943091E1002091E200909121
:101A3000E3009091E4008FBFC901C92FD82FC801DE
:101A40000E94C5028111E696D093D302C093D202C0
:101A50008FB7F8945091E1004091E2003091E3009B
:101A60002091E4008FBF852F942FBE01681B790B56
:101A7000161617064CF480917F02811145C18091A2
:101A80005603882309F403C2D80119966C9119975B
:101A900070E0762F662718968C91682B2091720241
:101AA000422F50E0FA01EE0FFF1FE955FB4F8081F6
:101AB00091816817790709F497C190915803E7EA73
:101AC000F4E0ADE9B6E020E030E0312C80E0A9019F
:101AD000C191D1916C177D0709F4D6C14D91592F51
:101AE000541B851710F4322E852F2F5F3F4F253062
:101AF000310569F730927202432D50E0FA01EE0F82
:101B0000FF1FE955FB4F718360839F5F90935803DC
:101B1000FA01E356F94F9083FA01EE51F94F108222
:101B2000292F2F772F3709F478C190E020E0D801D2
:101B300013968C91FA01992309F4DEC0E256FB4F0B
:101B40009081891719F180839FB7F89480919C0444
:101B50008330D8F4E091B904E80FE33008F0E350A3
:101B6000F0E0EE0FFF1FEB59FD4F20813181118313
:101B700000838F5F80939C048FB7F8944091140684
:101B80004F3F09F467C18FBF29019FBF8091740245
:101B90005092E1064092E00629CCE0910206E03145
:101BA00009F4A6CC909101069F3F09F467C1E53185
:101BB00008F09ECCF0E0ED5FF94FC082C0920206C3
:101BC0008FBF97CC141415040CF085CC90927F0233
:101BD000F0929B02F0925603B201882777FD809520
:101BE000982F0E94E80279CC30914D01331F3327A2
:101BF000331F35A79660A6CEA19A45CDCE010E948F
:101C00003003182F811158C08CA58E7F8CA7F092BD
:101C10007102D093AB06C093AA06B0927F02F4CBB8
:101C2000D0924F0190924E01809139018D7F809327
:101C30003901D092140282E080939C028091740258
:101C4000D9CCE0910206E03109F4F0CD9091010683
:101C50009F3FB1F1E53108F0E9CDF0E0ED5FF94FDC
:101C6000C082C0920206E2CD10927102822F807271
:101C700025FDDECC7BCC2078226020937F028CE88F
:101C800090E00E940D06F0929B02F0925603BC0178
:101C900080E090E00E94E802B7CB60924D01809115
:101CA0004A01807F836080934A0170924201E092F2
:101CB0009C02809174029ECC80917F02282F05CCDB
:101CC000C0920106C0920206B1CDA19AEECFE0917A
:101CD0000206E03109F4CBCB909101069F3F09F455
:101CE00011C1E53108F0C3CBF0E0ED5FF94FC082E0
:101CF000C09202068FBF7FCBEE51F94F2160208347
:101D0000FA01E256FB4F1FCF806880937F02BCCE62
:101D1000823011F080E03CCFE091AA06F091AB0652
:101D200013969C9183819813F5CF8091DF008B7F70
:101D30008093DF00D092140210927002E091AA0604
:101D4000F091AB0684A5816084A7809171028823FD
:101D500009F41CCF1092710210927F021092BE04FF
:101D6000E0927E028FB7F894909113069F3F09F49A
:101D7000B6C08FBF809174020BCF9FB7F89480914B
:101D800009029FBF882309F44CCEC8010E94C502F6
:101D9000882309F446CE85E080939D0282E08093FB
:101DA0009E0210929F02F80183818093A0029FB748
:101DB000F894809101029FBF82FD76C081E0F80116
:101DC00095A5911101C080E08093CA028091C9025B
:101DD00084608093C9028DE992E00E9430038111F2
:101DE00020CEB09271021DCE90915803FA01E356B5
:101DF000F94F8081891751F09F5F9093580390832A
:101E0000892F8F778F3769F0422F50E0FA01EE511A
:101E1000F94F2081922F91708ACE8F3708F485CEAA
:101E2000232DEDE9F6E0392F307880818F67981304
:101E30003083319676E0E23AF707B9F7E5CFC09202
:101E40000106C09202068FBFDBCAA0920106A092D3
:101E50000206E8CBE0910206E13109F494CE40910C
:101E600001064F3F51F1E53108F08DCEF0E0ED5F16
:101E7000F94F41E140834093020685CEC0920106AE
:101E8000C09202068FBF35CB20937202AFCFF09283
:101E90009B02F0925603882777FD8095982F0E9429
:101EA000E80290927F02F0CD81708093CA02809107
:101EB000C90284608093C9028ECF41E1409301063C
:101EC0004093020660CE80917102823009F049CCC5
:101ED0008ECDC8010E949D02811177CD42CCE09148
:101EE0000206E03109F445CF909101069F3F81F051
:101EF000E53108F03ECFF0E0ED5FF94FC082C092CF
:101F0000020637CFC0920106C09202068FBF73CA85
:101F1000C0920106C09202062CCF9FB7F894809120
:101F20007602882329F08068809376029FBF089507
:101F300081E0809376029FBF28CA9FB7F894809172
:101F40007602815080937602803811F09FBF089509
:101F500081E0809376029FBF18CACF93DF931F92D0
:101F6000CDB7DEB79FB7F894809176028F5F8093EC
:101F700076029FBF80917E02882341F085E08983AD
:101F8000DCDF89810F90DF91CF91089580917402F9
:101F90008111F4CF80919C02853011F489E0EFCF5C
:101FA00083E080937402B9DF85E080937E0280E055
:101FB000E6CF70914502472F7C3108F043C0272FB0
:101FC00030E0EBE5F5E08CE1DF011D928A95E9F761
:101FD00021153105F9F050914702ABE5B5E080E0FD
:101FE00090E008C07FEF740F6D93019682179307FE
:101FF00068F4472FE52FF0E0EE55FC4F6081442355
:1020000099F35F5F5A3F71F750E0ECCF509347026E
:10201000709345022FE435E08FEF80935505809350
:10202000540584E680935A058091D4029091D5029C
:10203000892B29F19FB7F894809110068F3F61F0AA
:102040009FBF0895EBE5F5E08CE1DF011D928A95D5
:10205000E9F72CE130E0BFCFE0910206ED3081F3EB
:10206000809101068F3F09F459C0E53148F7F0E04F
:10207000ED5FF94F8DE0808380930206E1CF3093CE
:10208000D5022093D4028CE18093580580911202EE
:10209000882309F440C01092120210927A058091B0
:1020A0007705843409F477C075E480917805882336
:1020B00099F160917905862F90E0AC01559547958F
:1020C0005595479555954795559547954370B0E17A
:1020D0004B9FA0011124082E892F000C881F990BFB
:1020E000000C881F991F582F5295550F550F507C83
:1020F000542B6F70562B1092780580915702909157
:102100005802892B89F081E0809312021092D50247
:102110001092D4028FCF089550E0EFCF8DE08093DE
:102120000106809302068CCF8FB7F894109250026C
:1021300095E0909355021092540230935A022093E6
:10214000590222E030E03093580220935702109257
:1021500052021092530298E2909356028FBF8FB7AB
:10216000F894909162029A30C1F08FBF9FB7F894B3
:1021700080919B06811113C081E080939B06509350
:102180009C06709357039FBF81110BC01092580299
:1021900010925702B8CF74E488CF8FBFF7CF80E09A
:1021A000F2CF0C944306CF93DF931F92CDB7DEB7E7
:1021B00090914402911104C0909145029D3718F509
:1021C0002FB7F894909145029A3FB0F430914602AF
:1021D000E32FF0E0EE55FC4F80833F5F3A3FD1F0B4
:1021E000309346029F5F909345022FBF80E090E0BE
:1021F0000F90DF91CF9108952FBF8FEF9FEF0F903A
:10220000DF91CF91089591E0909344028983D1DECC
:102210008981D6CF10924602E5CFCF93DF931F92EC
:10222000CDB7DEB720911202211107C02091D40250
:102230003091D5022817390721F00F90DF91CF9107
:1022400008951092D5021092D40269830E94110958
:102250006981611107C08091450281111EC01092F1
:102260004402EBCF8FB7F894909110069F3F11F086
:102270008FBFE3CFE0910206ED30D1F390910106DC
:102280009F3F79F0E531A0F7F0E0ED5FF94F9DE079
:102290009083909302068FBFD0CF0F90DF91CF91A4
:1022A00088CE9DE090930106909302068FBFC5CF24
:1022B0004F925F926F927F92BF92CF92DF92EF9296
:1022C000FF920F931F93CF93DF93EAEDF2E0C0E00C
:1022D000D0E0B084B1FE13C0408051806280738032
:1022E000C480D580E680F7808B019C010419150914
:1022F000260937090C151D052E053F0560F52196A9
:102300003996C330D10529F78FB7F8949091050617
:102310009F3F79F08FBFDF91CF911F910F91FF9079
:10232000EF90DF90CF90BF907F906F905F904F9035
:102330000895E0910206E23069F3909101069F3F13
:10234000D9F1E53138F7F0E0ED5FF94F92E0908395
:1023500090930206DFCFB0FC35C0D301C2018C0DD3
:102360009D1DAE1DBF1D80839183A283B383C130A9
:1023700009F446C0C23051F58091BA049091BB0473
:102380000196883E23E0920708F054C09093BB0466
:102390008093BA0480915E028111B6CF8DE793E0FD
:1023A000892B09F4B1CF9091BA048091BB0490932A
:1023B0007E0380937D03A8CF92E0909301069093D3
:1023C0000206A8CFE894B1F8B086D1CF9FB7F894B1
:1023D000809103068F3F11F09FBF96CFE0910206D8
:1023E000EE23D1F3809101068F3F49F1E531A0F74B
:1023F000F0E0ED5FF94F1082109202069FBF84CF8C
:1024000080915102882309F47FCF8FB7F8946091AF
:1024100054028FBF1092510210925802109257022C
:102420008091590290915A022091520221116CCF51
:10243000F4DE6ACF1092BB041092BA04ABCF1092B4
:102440000106109202069FBF5FCFE82FF0E0EE0F6B
:10245000FF1FEB54FB4F1182108291E0909300021A
:10246000811103C06157734009F0089510925E0214
:1024700008958FB7F89408958FBF08951F920F9213
:102480000FB60F9211248F938091D6028F5F8093A5
:10249000D6028F910F900FBE0F901F9018951F922C
:1024A0000F920FB60F9211240BB60F922F933F93FA
:1024B0004F935F936F937F938F939F93AF93BF934C
:1024C000EF93FF938091DF008E7F8093DF008FEF8B
:1024D0008093140281E080936C0380916B038823C6
:1024E000C1F1409163035091640360916503709161
:1024F00066038FB7F894F091E100E091E20030912B
:10250000E3002091E4008FBF8F2F9E2FA32FB22FC7
:10251000841B950BA60BB70B409167035091680382
:102520006091690370916A0384179507A607B7073E
:1025300080F010926B0380918F0290919002A09195
:102540009102B0919202892B8A2B8B2BC9F00E94A9
:10255000FA0410926C030E944604FF91EF91BF9120
:10256000AF919F918F917F916F915F914F913F912B
:102570002F910F900BBE0F900FBE0F901F901895CC
:102580008FB7F894909104069F3F11F08FBFE1CF71
:10259000E0910206E130D1F3909101069F3F59F09E
:1025A000E531A0F7F0E0ED5FF94F91E09083909373
:1025B00002068FBFCECF91E0909301069093020662
:1025C0008FBFC7CF1F920F920FB60F9211240BB679
:1025D0000F922F933F934F935F936F937F938F93BC
:1025E0009F93AF93BF93EF93FF938091DF008D7F15
:1025F0008093DF008FEF8093140278948FB7F89464
:1026000090915603913019F492E0909356038FBF46
:1026100084DCFF91EF91BF91AF919F918F917F915A
:102620006F915F914F913F912F910F900BBE0F9043
:102630000FBE0F901F9018951F920F920FB60F921A
:1026400011240BB60F922F933F934F935F936F9389
:102650007F938F939F93AF93BF93EF93FF9380915B
:10266000DF008B7F8093DF008FEF809314027894DC
:102670008FB7F89490917002913019F492E0909392
:1026800070028FBF4ADCFF91EF91BF91AF919F9194
:102690008F917F916F915F914F913F912F910F900B
:1026A0000BBE0F900FBE0F901F9018951F920F92A8
:1026B0000FB60F9211240BB60F922F933F934F93A7
:1026C0005F936F937F938F939F93AF93EF93FF935A
:1026D0002EB580917A0290917B02009739F0E091BB
:1026E0006E03F0916F03E80FF91F208380916E0352
:1026F00090916F03019690936F0380936E038CB556
:102700008F778CBD8FEF8093140280916E03909130
:102710006F03E0916103F09162038E179F0718F138
:1027200010927B0210927A02109281021092800223
:10273000109262031092610310926F0310926E0365
:102740008EB5FF91EF91AF919F918F917F916F9196
:102750005F914F913F912F910F900BBE0F900FBE45
:102760000F901F9018952091800230918102409126
:102770007A0250917B02BC01665F7F4FE617F70734
:10278000A0F16150710986179707C0F52115310531
:1027900039F1F901E80FF91FE081EEBD0DB407FE34
:1027A000FDCFAEB54115510521F0FA01E80FF91F33
:1027B000A08301968617970748F38CB580688CBD77
:1027C0008FEF8093140221153105B1F0F901E60F66
:1027D000F71F80818EBD70936F0360936E03B1CF3E
:1027E0001EBC0DB407FEFDCFDCCFBF0161507109E7
:1027F0008617970758F202C01EBCEDCFBC01DDCF93
:102800009FB7F89480914402813081F08091450215
:10281000811104C09FBF81E090E0089581E0809322
:1028200044029FBFC6DB80E090E008959FBF80E038
:1028300090E008952F923F924F925F926F927F9215
:102840008F929F92AF92BF92CF92DF92EF92FF92C0
:102850000F931F93CF93DF9390E08531910508F09C
:1028600078C0FC01E05FFE4F0C945B21EFB7F89459
:102870008091860290918702A0918802B09189028E
:102880001C012D019C01A20160E070E080E090E05D
:1028900003E00E94612151016201E12CF12C00E072
:1028A00010E00E94982159016A017B01F82F192F2D
:1028B00003E00E9461210F2F0E94982159016A01B3
:1028C0007B01F82F192F03E00E9461210F2F0E9436
:1028D000982159016A017B01F82F192F03E00E940A
:1028E00061210F2F0E94982159016A017B01F82F65
:1028F000192F03E00E9461210F2F0E94982101E00F
:102900000E94612129013A0100E20E947C214901D3
:102910005A01D301C201B695A79597958795880D61
:10292000991DAA1DBB1DB7FF04C0BF770196A11D4D
:10293000B11D8093860290938702A0938802B09382
:102940008902EFBF2FB7F89490935F0380935E03E3
:102950002FBFDF91CF911F910F91FF90EF90DF90EC
:10296000CF90BF90AF909F908F907F906F905F902F
:102970004F903F902F90089580918E02882349F3C5
:1029800070915E02482F21E031E017C0E52FF0E0A2
:10299000EE0FFF1FEB54FB4F80819181118210825B
:1029A000632F60956423511106C48157934009F445
:1029B000E3C4330F462F2F5F842F5FEF520F942F06
:1029C000932321F7330F283009F441C4482FF3CF64
:1029D0009FB7F894809176028F5F809376029FBFB5
:1029E000C0917E02C13009F43BC410927E02A5DA88
:1029F000C0915C03D0915D038A858F3309F0A9CF24
:102A00000E949308809100028111A3CF8091B504A8
:102A10009091B604C817D90709F09BCFBE0180E09A
:102A2000F2C280917E0210927E02853009F4CBC4FE
:102A30009AEF980F923008F48CCF80937E0289CF62
:102A40008FB7F89490919C04992309F4BFC005E2D4
:102A500012E0B7E0FB2E0FC08093B90480919C0474
:102A6000815080939C049FBF8FB7F89490919C04F1
:102A7000992309F4ABC0E091B904F0E0EE0FFF1F19
:102A8000EB59FD4FC081D1818FBF8A858F3309F407
:102A900027C3CE010E949D029FB7F8948091B9048C
:102AA000E82FF0E0EE0FFF1FEB59FD4FD183C083FD
:102AB0008F5F833088F21092B904D0CF8FB7F8942B
:102AC00092E0909343028FBF80910202811141CF27
:102AD000E0917702F09178028FE382878091600223
:102AE0008F5F8093600283839FB7F8948091760212
:102AF0008F5F809376029FBF80917E02882309F4C6
:102B0000F3C41BDA0E9493086091770270917802F7
:102B10008091000281111DCF8091B5049091B6047F
:102B20006817790709F015CF7ACF2FE435E08FEFDA
:102B3000809355058093540584E680935A058091CF
:102B4000D4029091D502892B09F476C49FB7F894EA
:102B5000809110068F3F09F4ADC29FBFFACE8091DD
:102B6000C100877F8093C1009FEF909314028091F2
:102B7000C1008F7E8093C100909314028FB7F894A8
:102B800091E0909311028FBF109249028091480208
:102B9000882309F4DECEDF91CF911F910F91FF9032
:102BA000EF90DF90CF90BF90AF909F908F907F90ED
:102BB0006F905F904F903F902F900C94DE088FB7EE
:102BC000F89490910D069F3F09F45EC28FBFC1CE6D
:102BD0009FB7F89430914E02C0914C02D0914D02B3
:102BE00020914B0210916E0280919D049FBF8454EE
:102BF000823008F460C380915102882339F08091BB
:102C0000570290915802029709F4B8C38FB7F8940D
:102C1000E12FF0E0EE0FFF1FE45FFD4FD183C08393
:102C200090915C02111118C39D7F90935C021092E9
:102C30004F028FBF8ECE8FB7F89420915002109222
:102C400050028FBF8091570290915802029709F06D
:102C500080CE222309F47DCE80915302882309F48B
:102C600068C4109258021092570210925302809139
:102C7000590290915A022091520221116ACE63E0CA
:102C8000DF91CF911F910F91FF90EF90DF90CF9048
:102C9000BF90AF909F908F907F906F905F904F907C
:102CA0003F902F90BACA8091C1008F7B8093C10062
:102CB0008091C1008F778093C10010925B031092C6
:102CC00084028091C10088608093C1009FEF90933F
:102CD00014028091C10080618093C100909314021E
:102CE0008091C10080688093C1008FB7F8941092E2
:102CF000620210927302109211028FBF81E08093E2
:102D000049021092480225CE2FB7F89410928502FE
:102D10009091620288EF890F823050F41092620223
:102D2000E0916C02F0E0EE0FFF1FE756F94F1082C2
:102D30002FBF823008F441C2992309F4EFC490E018
:102D4000CFB7F894809162028A3009F438C3CFBFBC
:102D5000992309F4FECD8FB7F8941092AD06109226
:102D6000AC061092610291E0909362028FBF0E94C4
:102D70000106882309F4EDCD8FB7F89499E090937C
:102D800062028FBFDF91CF911F910F91FF90EF9063
:102D9000DF90CF90BF90AF909F908F907F906F907B
:102DA0005F904F903F902F900C944306C091120279
:102DB000EC2FF0E0EE0FFF1FEC52FD4F118210825E
:102DC0000E941109C111C5CD8FB7F89490911006DA
:102DD0009F3F09F0FBCEE0910206ED3009F4F6CEFC
:102DE000909101069F3F09F43AC4E53108F0EECE18
:102DF000F0E0ED5FF94F9DE09083909302068FBF66
:102E0000A8CD2FB7F89482E080935F028CB58F7BBA
:102E10008CBD8FEF80931402229A2398219A9A9A5C
:102E20002098289A9CB590619CBD9CB59F779CBDCD
:102E3000809314029CB5977F9CBD9CB59B7F9CBDE5
:102E40009CB590649CBD809314029DB591609DBD1E
:102E50009CB59C7F9CBD809314022FBF7ACD8FB709
:102E6000F89410927B0210927A02109281021092D2
:102E70008002109262031092610310926F0310920D
:102E80006E038FBF66CD0E9450022FB7F894109248
:102E90006B032FBFEAEDF2E020E044244A94542C67
:102EA000642CAFE77A2E308531FF1AC0C080D18004
:102EB000E280F3804B015C018C189D08AE08BF08CE
:102EC000C480D580E680F780C818D908EA08FB08D6
:102ED000C414D504E604F7041CF42601370121E0EC
:102EE000399632E0E53FF307F1F6222309F431CDBC
:102EF00014141504160417040CF065C04092B104B4
:102F00005092B2046092B3047092B40421E0209312
:102F10007502CFB7F89460939402709395028093F2
:102F200096029093970240928F0250929002609284
:102F30009102709292020E94FA04CFBF0ACD809152
:102F4000750281113EC04091B1045091B20460916C
:102F5000B3047091B4042FB7F89480918F029091CC
:102F60009002A0919102B0919202C0909402D090F0
:102F70009502E0909602F09097028C0D9D1DAE1D7B
:102F8000BF1D2FBF4093B1045093B2046093B304AC
:102F90007093B40410927502CFB7F89480939402A2
:102FA00090939502A0939602B093970240938F025C
:102FB0005093900260939102709392020E94FA04DF
:102FC000CFBF0E945002DF91CF911F910F91FF90D0
:102FD000EF90DF90CF90BF90AF909F908F907F90B9
:102FE0006F905F904F903F902F9062C981E08FB9B2
:102FF000B0CC80910002E82FF0E0EE0FFF1FEB5401
:10300000FB4F60817181DF91CF911F910F91FF90F4
:10301000EF90DF90CF90BF90AF909F908F907F9078
:103020006F905F904F903F902F900FCA2091BD04FA
:10303000222309F48ECC81E091E05DE007C0990F76
:10304000883009F486CC2091BD048F5F4FEF480F84
:10305000392F3223A1F3E42FF0E0EE0FFF1FEC52E3
:10306000FD4F11821082392F309532233093BD04E9
:103070004111E5CF2FB7F894309110063F3F09F486
:1030800061C12FBF990FDFCFE0910206EA3009F44A
:103090009DCD909101069F3F09F475C2E53108F07E
:1030A00095CDF0E0ED5FF94F9AE0908390930206A2
:1030B0008FBF4FCCE0910206ED3009F44ECD8091E8
:1030C00001068F3F09F4C4C2E53108F046CDF0E0B7
:1030D000ED5FF94F8DE08083809302069FBF39CC6E
:1030E0005B8568818F8190E0982F88272E81822BC5
:1030F0004FB7F89420910602309107024FBF821714
:10310000930719F0019609F0C7CC563009F0C4CCEA
:10311000613109F0C1CC8CA584FDE0C18E8590E0C1
:10312000982F88272F85E0909806822B9F938F9366
:103130008C8590E0982F88272D85822B9F938F93E5
:103140001F92EF921F930F930E94B12159DB91E0E0
:103150009E0D2DB73EB7285F3F4F0FB6F8943EBF88
:103160000FBE2DBF983108F09BE02FB7F8948091E7
:1031700076028F5F809376022FBF80917E02882334
:1031800009F43AC20E949D0F8D8580FFA5C12D983C
:103190008C8590E0982F88272D85822B81FF9AC1FE
:1031A000A5988C8590E0982F88272D85822B82FD0D
:1031B000E8C1A09A71CC862F05CC2FB7F8948091E6
:1031C0008D028F5F80938D0280915503833409F4C3
:1031D000A9C031E0983021F181E02FBF2FB7F894DA
:1031E00090915D022FBF992309F46AC09FB7F894AC
:1031F0002AE0209362029FBF90E0882309F4A0CDCB
:103200008FB7F8943093540221E0209350028FBF7F
:103210008FB7F89420910E062F3F29F08FBF90CDE5
:1032200030E081E0DACFE0910206EB30B9F3209193
:1032300001062F3F09F451C2E53180F7F0E0ED5F60
:10324000F94F2BE02083209302068FBF79CD809326
:103250008E0270935E027DCB9B7F90935C02E7CCE5
:1032600080915A038F5F80935A03863008F0BDCB5C
:1032700080915C0390915D0320917F02222309F4E9
:103280009AC185E08093BE0482E080937E02DF9144
:10329000CF911F910F91FF90EF90DF90CF90BF9053
:1032A000AF909F908F907F906F905F904F903F90E6
:1032B0002F900C949D0F2C3008F4A8CC3AA7A6CCE4
:1032C0009FB7F8945091990660919B069FBF4FB7A6
:1032D000F8942091A2069091A3064FBF291709F4F4
:1032E00045C0511143C09FB7F89422E0209399063E
:1032F0005FB7F8944091A2062091A3065FBF4217E2
:1033000009F476C1E091A306F0E0EE55F94F228171
:1033100020939A0623E42093550310926C029FBFDA
:1033200091E06BCF8091A3069091A206981739F097
:103330008F5F8093A306863010F01092A30680E082
:1033400030E04BCFE0910206ED3009F49ACE309197
:1033500001063F3F09F42AC1E53108F092CEF0E0C2
:10336000ED5FF94F5083509302068BCE615062306F
:1033700008F410C190E041CF70E01BCB8091EB02CC
:103380008D7F8093EB02E0915902F0915A0281E027
:1033900083A71092510210925802109257028FB7D1
:1033A000F894609154028FBF8091590290915A0213
:1033B0002091520221112ACC0E940D1127CC0E948B
:1033C000D606CFBFC6CA0E9450026093EC0270932B
:1033D000ED028093EE029093EF0288EE93E0A0E07E
:1033E000B0E08093F0029093F102A093F202B093C8
:1033F000F3028091F4028E7F82608093F4028FB793
:10340000F894909105069F3F09F0E0CBE091020609
:10341000E23009F4DBCB909101069F3F09F46AC1C9
:10342000E53108F0D3CBF0E0ED5FF94F92E0908307
:10343000909302068FBF8DCA3093D5022093D40299
:103440008CE18093580580911202882309F481CA87
:103450001092120210927A0580917705843409F453
:1034600043C165E480917805882309F4C3C0709155
:103470007905872F90E0AC0155954795559547956F
:1034800055954795559547954370E0E14E9FA001AE
:103490001124082E892F000C881F990B000C881FFF
:1034A000991F582F5295550F550F507C542B7F70F4
:1034B000572B109278058091570290915802892BD2
:1034C00009F4D4C081E0809312021092D5021092C8
:1034D000D4023CCBA59A65CE2D9A5ACE2FA52F8724
:1034E0001E8680E090E01FCEF0935D03E0935C03C6
:1034F00081E080937E0210925A038FB7F8949091E6
:1035000013069F3F11F08FBFC2CEE0910206E0315B
:10351000D1F3909101069F3F09F4F3C0E53198F78C
:10352000F0E0ED5FF94F90E19083909302068FBF3A
:10353000AECE0E9450026093E3027093E402809347
:10354000E5029093E60282E090E0A0E0B0E0809394
:10355000E7029093E802A093E902B093EA02809117
:10356000EB02816082608093EB028FB7F8949091B8
:1035700005069F3F09F457C08FBF81E08093510239
:10358000E8C9A09889CA9AE0909301069093020630
:103590008FBFDFC99FB7F89420915703209355033D
:1035A00021E020936C029FBF91E027CE509301064B
:1035B0005093020666CD20915603211162CE90935E
:1035C0007D0280937C02C0937F0286E391E00E949B
:1035D0000D06C0939B02C0935603BC0180E090E0AF
:1035E0000E94E8021092BE0483E080937E024FCED8
:1035F00020E08ECE50E05FCF85EF890F803108F05C
:10360000C1CD809174028111BDCD8091980698172B
:1036100009F4B8CD90939806F09274020E948D0F31
:10362000F0927E02AFCDE0910206E23009F4A4CF21
:10363000909101069F3F09F46BC0E53108F09CCFE3
:10364000F0E0ED5FF94F92E090839093020694CF03
:103650008DE080930106809302069FBF7AC99DE0AA
:1036600090930106909302068FBF73C94FB7F894E9
:103670001092500285E080935502109254023093CC
:103680005A022093590282E090E09093580280936E
:103690005702109252021092530288E2809356020F
:1036A0004FBF8FB7F894909162029A30F9F08FBFB4
:1036B0009FB7F89480919B0681111AC081E0809396
:1036C0009B0650939C06609357039FBF81115ACB72
:1036D0001092580210925702F5CE2BE0209301066B
:1036E000209302068FBF2CCB64E4BCCE8FBFF0CFFB
:1036F00080E0EBCF92E090930106909302068FBF9B
:1037000028C990E190930106909302068FBFBFCD28
:1037100092E090930106909302062ECF30E080E075
:103720005DCD809101068F3FA1F0282F30E02F570B
:103730003A4FF901EE57FF4F9081909301069F3F5A
:1037400051F0F901EE57FF4F9FEF908373D881E05E
:10375000089580E0089590930206F3CF1F920F9290
:103760000FB60F9211240BB60F922F933F934F93E6
:103770005F936F937F938F939F93AF93BF93EF93D9
:10378000FF938091C00087FD13C0FF91EF91BF911F
:10379000AF919F918F917F916F915F914F913F91E9
:1037A0002F910F900BBE0F900FBE0F901F9018958A
:1037B0006091C6008091D7029091D802009751F194
:1037C00020917F0530918005A9014F5F5F4F509395
:1037D000800540937F05FC01E20FF31F6083209179
:1037E0007F05309180058091AE069091AF06281735
:1037F000390758F21092D8021092D70280915B03D9
:10380000833019F28091C1008F778093C1001092AC
:103810005B03BBCF6E3779F080914A026D37A1F020
:1038200081FF05C08D7F80934A0280E2682780E097
:103830000E940407AACF809111028111A6CF60E0F7
:1038400081E00E940407A1CF826080934A029DCF4D
:1038500078941F920F920FB60F9211240BB60F920D
:10386000FF920F931F932F933F934F935F936F9309
:103870007F938F939F93AF93BF93CF93DF93EF93F8
:10388000FF9320919802309199022115310509F496
:1038900066C080918202909183024091A50450916C
:1038A000A6048417950768F5AC014F5F5F4F5093EE
:1038B000830240938202F901E80FF91F80819FB7CC
:1038C000F8948093C6008091C00080648093C0000B
:1038D0009FBFFF91EF91DF91CF91BF91AF919F91EA
:1038E0008F917F916F915F914F913F912F911F9198
:1038F0000F91FF900F900BBE0F900FBE0F901F9077
:103900001895109299021092980210928402809158
:10391000C1008F7B8093C1001FB7F89480914A0249
:1039200080FD12C08091620290E0FC013197E83086
:10393000F10538F089E0809362020E9443061FBFC0
:10394000C8CFEB5DFE4FB7C48E7F80934A02809153
:103950006F0280938A020E94AD051FBFBACF80918B
:10396000C1008F7B8093C100B4CF88E08093620256
:10397000E4CF0E940106082F87E0809362020111C4
:10398000D9CF1FBFA6CF8091AD060E94ED05082FAD
:1039900086E080936202F3CF8091AC060E94ED0531
:1039A000082F85E080936202EACFE0916C02F0E09C
:1039B000EE0FFF1FE656F94F80810E94ED05082F9C
:1039C000F0906C02CF2DD0E0CC0FDD1FFE01E6564B
:1039D000F94F60818091AC069091AD060E94220360
:1039E0009093AD068093AC06809161028F5F8093C7
:1039F000610291E0F91671F184E080936202BFCF19
:103A000080918D020E94ED05082F83E08093620271
:103A100060918D028091AC069091AD060E942203C8
:103A20009093AD068093AC06AACF809155030E9477
:103A3000ED05082F82E0809362026091550380912A
:103A4000AC069091AD060E9422039093AD06809340
:103A5000AC0695CF90915502E0915902F0915A022F
:103A6000E90FF11D30819F5F90935502209156021E
:103A7000291790F492E090939B0620E0FE01E75610
:103A8000F94F9081923009F4B7CF8F3F09F4B4CF4A
:103A9000C656D94F288373CF232FF0CF1F920F9292
:103AA0000FB60F9211248F938091C80087FD8091EB
:103AB000CE008F910F900FBE0F901F9018957894A5
:103AC0001F920F920FB60F9211240F900FBE0F90FE
:103AD0001F9018951F920F920FB60F9211248F937B
:103AE0009F9380918B0290918C02019690938C020F
:103AF00080938B029F918F910F900FBE0F901F901C
:103B000018951F920F920FB60F9211240F900FBEAF
:103B10000F901F9018951F920F920FB60F921124BD
:103B20000F900FBE0F901F9018951F920F920FB617
:103B30000F9211240F900FBE0F901F9018951F9297
:103B40000F920FB60F9211240F900FBE0F901F907F
:103B5000189578941F920F920FB60F9211240BB6FE
:103B60000F922F933F934F935F936F937F938F9316
:103B70009F93AF93BF93EF93FF939FB7F894809178
:103B8000A10382608093A1039FBF0E948D0FFF91CC
:103B9000EF91BF91AF919F918F917F916F915F91C5
:103BA0004F913F912F910F900BBE0F900FBE0F9032
:103BB0001F90189578941F920F920FB60F921124B0
:103BC0000BB60F922F933F934F935F936F937F9317
:103BD0008F939F93AF93BF93EF93FF939FB7F89407
:103BE0008091A10380618093A1039FBF0E948D0FEC
:103BF000FF91EF91BF91AF919F918F917F916F91C5
:103C00005F914F913F912F910F900BBE0F900FBE80
:103C10000F901F9018951F920F920FB60F921124BC
:103C20000BB60F922F933F934F935F936F937F93B6
:103C30008F939F93AF93BF93EF93FF938091A103D3
:103C400080628093A10378940E948D0FF894FF9175
:103C5000EF91BF91AF919F918F917F916F915F9104
:103C60004F913F912F910F900BBE0F900FBE0F9071
:103C70001F90189578941F920F920FB60F921124EF
:103C80000BB60F922F933F934F935F936F937F9356
:103C90008F939F93AF93BF93EF93FF939FB7F89446
:103CA0008091A10380688093A1039FBF0E948D0F24
:103CB000FF91EF91BF91AF919F918F917F916F9104
:103CC0005F914F913F912F910F900BBE0F900FBEC0
:103CD0000F901F90189578941F920F920FB60F9225
:103CE00011240BB60F922F933F934F935F936F93D3
:103CF0007F938F939F93AF93BF93EF93FF939FB760
:103D0000F8948091A10381608093A1039FBF0E94DA
:103D10008D0FFF91EF91BF91AF919F918F917F9107
:103D20006F915F914F913F912F910F900BBE0F902C
:103D30000FBE0F901F90189578941F920F920FB698
:103D40000F9211240BB60F922F933F934F935F93D3
:103D50006F937F938F939F93AF93BF93EF93FF9353
:103D60009FB7F8948091A10388608093A1039FBFBF
:103D70000E948D0FFF91EF91BF91AF919F918F9115
:103D80007F916F915F914F913F912F910F900BBE5B
:103D90000F900FBE0F901F9018950FB7F89484B72F
:103DA0008ABD14BE88E10FB6F8948093600010922B
:103DB00060000FBE45E150E06FEF70E083E096E0F9
:103DC000C9D28FEF809301068093020680EB96E0C4
:103DD0009093E1068093E0061092BC048AE58093FC
:103DE0006D028091350180618093350180913401AD
:103DF000806180933401809133018061809333012D
:103E00008091320180618093320185B7806885BFDF
:103E100085B7806885BF80E880936100109261005B
:103E200081E08093810090E29093B6008093B1008E
:103E300042E38091B2008111FCCF20918400309147
:103E400085008091B2008034E1F7809184009091E8
:103E50008500821B930B9093B8048093B704415064
:103E600041F71092B100109281001092B60080913B
:103E7000B6008370E1F78091DF008B7F8093DF00D5
:103E80009FEF909314028091DC008B7F8093DC0085
:103E90008091DF008D7F8093DF00909314028091EA
:103EA000DC008D7F8093DC00809180008C7F80938C
:103EB000800080918100807E82608093810080916B
:103EC0006F00816080936F0080E28093B6008091E4
:103ED000DC0080638093DC00909314028091DF000B
:103EE00088608093DF008091DF008E7F8093DF0009
:103EF000909314028091DC008E7F8093DC00809A86
:103F000081E08FB9259A9D9A989A2D9AA59AA09AA0
:103F100008DC8111FDCF87EC8093490183E0809319
:103F20004D01999AA19880EC809345011092D90295
:103F30008BE08093980680914401806280934401D5
:103F40008091980680648093480180913901826055
:103F5000809339018091DC0088608093DC0081E0EF
:103F600080939C022091230230912402C901019682
:103F7000A0E0B0E08093860290938702A09388022D
:103F8000B09389028FEB94E0909366028093650270
:103F90008FEE94E090936802809367028FE195E042
:103FA00090936A02809369028FEF9FEF9093A80429
:103FB0008093A7049093AA048093A9049093AC04DF
:103FC0008093AB049093AE048093AD049093B004BF
:103FD0008093AF042295207F20936002CFEFC0939F
:103FE000930285E192E09093EA068093E90612E05D
:103FF000D6E06091B7047091B80480E090E0B4E836
:10400000CB2EB3E0DB2EE12CF12CA701960131D1B0
:10401000215031093093C5002093C4001093C00093
:10402000D093C2001092C1006091B7047091B8049F
:1040300080E090E0A70196011CD121503109209326
:10404000CC003093CD001093C800D093CA001092DA
:10405000C90084E490E09093A4048093A304109298
:10406000990610929B068AE0809362021092610288
:104070001092550310928D021092AD061092AC066C
:104080001092850210926C021092CE021092CD0214
:1040900094E0909373021092590310929A02109236
:1040A000600310926402109263021092A3061092B1
:1040B000A20610924402C0937902E3E6F3E0DF0126
:1040C0001D928A95E9F72DDB8111FDCF0FBF789402
:1040D0000E94DE080E9450026093DA027093DB02B5
:1040E0008093DC029093DD028EE791E0A0E0B0E0E7
:1040F0008093DE029093DF02A093E002B093E1028E
:104100008091E2028E7F82608093E2029FB7F894F2
:10411000809105068F3F09F47EC09FBF0E94AD0FBE
:10412000CFEF07C0F901EE57FF4FC0834FBF0E948A
:104130001A144FB7F894809101068F3F79F0282F19
:1041400030E02F573A4FF901EE57FF4F908190938F
:1041500001069F3F39F790930206E4CF8091140245
:1041600087FD11C083B7816083BF78948895F894E8
:1041700083B78E7F83BF809101068F3F01F78091C7
:10418000140287FFEFCF80914E0187FD42C095E07A
:1041900080916F008E72D9F5892F963008F085E0F6
:1041A0009091C10093FD28C09091C10094FD24C05E
:1041B0009091C90093FD20C09091C90094FD1CC04E
:1041C000863008F085E00CB406FC1AC0863008F092
:1041D00085E09091DC0095FD18C0E5E08E1708F4AD
:1041E000E82FE093140283B7F0E0E65AFD4FE49124
:1041F000807FE82BE3BFB6CF80E00CB406FEE6CFAD
:1042000080E09091DC0095FFE8CFE3E0E7CF80E02D
:10421000C7CF92E0BDCFE0910206E23009F47DCF36
:10422000809101068F3F59F0E53108F076CFF0E03C
:10423000ED5FF94F82E08083809302066ECF82E0CB
:10424000809301068093020668CFAA1BBB1B51E135
:1042500007C0AA1FBB1FA617B70710F0A61BB70BF6
:10426000881F991F5A95A9F780959095BC01CD019B
:104270000895A1E21A2EAA1BBB1BFD010DC0AA1FA7
:10428000BB1FEE1FFF1FA217B307E407F50720F0BF
:10429000A21BB30BE40BF50B661F771F881F991F3A
:1042A0001A9469F760957095809590959B01AC0183
:1042B000BD01CF010895EE0FFF1F0590F491E02D91
:1042C00009940F93083090F0982F872F762F652F41
:1042D000542F432F322F22270850F4CF220F331FA1
:1042E000441F551F661F771F881F991F0A95B2F735
:1042F0000F91089597FB10F8169400080F9308305B
:1043000098F00850232F342F452F562F672F782FE2
:10431000892F902DF4CF059497958795779567957C
:1043200057954795379527950A95AAF70F910895C0
:104330002A193B094C095D096E097F09800B910B15
:104340000895FB01DC0102C001900D9241505040E4
:10435000D8F70895DC0101C06D9341505040E0F75B
:104360000895CF93DF93CDB7DEB7FE013596619107
:104370007191AF018091E9069091EA0603D0DF9137
:10438000CF9108952F923F924F925F926F927F92BA
:104390008F929F92AF92BF92CF92DF92EF92FF9255
:1043A0000F931F93CF93DF93CDB7DEB72C970FB644
:1043B000F894DEBF0FBECDBF7C016B018A01FC010A
:1043C00017821682838181FFB0C1CE0101964C0114
:1043D000F7019381F60193FD859193FF81916F0120
:1043E000882309F49EC1853239F493FD859193FFAA
:1043F00081916F01853221F4B70190E0C7D1E8CFF8
:10440000512C312C20E02032A0F48B3269F030F4B2
:10441000803259F0833269F420612CC08D3239F03A
:10442000803339F4216026C02260246023C02860D4
:1044300021C027FD27C030ED380F3A3078F426FF31
:1044400006C0FAE05F9E300D1124532E13C08AE09F
:10445000389E300D1124332E20620CC08E3221F490
:1044600026FD5FC1206406C08C3611F4206802C0AE
:10447000883641F4F60193FD859193FF81916F0198
:104480008111C1CF982F9F7D9554933028F40C5FF4
:104490001F4FFFE3F9830DC0833631F0833771F08E
:1044A000833509F057C021C0F801808189830E5FF0
:1044B0001F4F44244394512C540114C03801F2E09E
:1044C0006F0E711CF801A080B18026FF03C0652D1E
:1044D00070E002C06FEF7FEFC5012C874CD12C013B
:1044E00083012C852F77222E16C03801F2E06F0E43
:1044F000711CF801A080B18026FF03C0652D70E01B
:1045000002C06FEF7FEFC5012C872AD12C012C85CB
:104510002068222E830123FC19C0832D90E04816C9
:104520005906A0F4B70180E290E030D13A94F5CF7B
:10453000F50127FC859127FE81915F01B70190E08D
:1045400025D131103A94F1E04F1A51084114510429
:1045500079F7DEC0843611F0893631F5F80127FF8E
:1045600007C060817181828193810C5F1F4F08C0F9
:1045700060817181882777FD8095982F0E5F1F4F8E
:104580002F76B22E97FF09C0909580957095619512
:104590007F4F8F4F9F4F2068B22E2AE030E0A4015A
:1045A00027D1A82EA81843C0853729F42F7EB22E14
:1045B0002AE030E025C0F22FF97FBF2E8F36C1F000
:1045C00018F4883579F0ADC0803719F0883721F0BC
:1045D000A8C02F2F2061B22EB4FE0DC08B2D846099
:1045E000B82E09C024FF0AC09F2F9660B92E06C0BE
:1045F00028E030E005C020E130E002C020E132E0F8
:10460000F801B7FE07C060817181828193810C5FE0
:104610001F4F06C06081718180E090E00E5F1F4FE8
:10462000A401E6D0A82EA818FB2DFF77BF2EB6FE5A
:104630000BC02B2D2E7FA51450F4B4FE0AC0B2FC83
:1046400008C02B2D2E7E05C07A2C2B2D03C07A2C72
:1046500001C0752C24FF0DC0FE01EA0DF11D808103
:10466000803311F4297E09C022FF06C0739473942D
:1046700004C0822F867809F0739423FD12C020FFB6
:1046800006C05A2C731418F4530C5718732C731457
:1046900060F4B70180E290E02C8778D073942C8589
:1046A000F6CF731410F4371801C0312C24FF11C059
:1046B000B70180E390E02C8769D02C8522FF16C0DB
:1046C00021FF03C088E590E002C088E790E0B701D1
:1046D0000CC0822F867851F021FD02C080E201C01B
:1046E0008BE227FD8DE2B70190E050D0A51430F4A5
:1046F000B70180E390E04AD05A94F8CFAA94F4012D
:10470000EA0DF11D8081B70190E040D0A110F6CFF5
:10471000332009F45DCEB70180E290E037D03A94BF
:10472000F7CFF7018681978102C08FEF9FEF2C961C
:104730000FB6F894DEBF0FBECDBFDF91CF911F91B2
:104740000F91FF90EF90DF90CF90BF90AF909F9030
:104750008F907F906F905F904F903F902F90089533
:10476000FC010590615070400110D8F7809590953C
:104770008E0F9F1F0895FC01615070400190011041
:10478000D8F7809590958E0F9F1F08950F931F93D4
:10479000CF93DF93182F092FEB018B8181FD03C08D
:1047A0008FEF9FEF20C082FF10C04E815F812C8170
:1047B0003D81421753077CF4E881F9819F012F5F07
:1047C0003F4F39832883108306C0E885F985812F00
:1047D0000995892B29F72E813F812F5F3F4F3F831A
:1047E0002E83812F902FDF91CF911F910F910895EC
:1047F000FA01AA27283051F1203181F1E8946F9312
:104800006E7F6E5F7F4F8F4F9F4FAF4FB1E03ED0B7
:10481000B4E03CD0670F781F891F9A1FA11D680F55
:10482000791F8A1F911DA11D6A0F711D811D911D88
:10483000A11D20D009F468943F912AE0269F1124FD
:104840003019305D3193DEF6CF010895462F477061
:10485000405D4193B3E00FD0C9F7F6CF462F4F70BC
:10486000405D4A3318F0495D31FD4052419302D01A
:10487000A9F7EACFB4E0A6959795879577956795C0
:10488000BA95C9F700976105710508959B01AC01C0
:104890000A2E06945795479537952795BA95C9F7E7
:1048A000620F731F841F951FA01D0895F894FFCFFA
:1048B0000102FFFFFF2201000101F502F5022503BD
:1048C000FF0101FFFF0000000200000000D3100004
:1048D00000000001006368616E6E656C3A2564201B
:1048E000636F756E743A256420525353493A2564B8
:0248F0000A00BC
:00000001FF
