S01900006275696C642F7470615F63622F6D61696E2E737265638F
S11300002DC200004CC200004AC2000048C20000D9
S113001046C2000044C2000042C2000040C20000C8
S11300203EC200003CC200003AC2000038C20000D8
S113003036C2000034C2000032C2000030C20000E8
S11300400C94A91D0C948B1D0C94951D0C949F1D50
S11300500C94741D24C2000022C2000020C20000BF
S11300601EC200000C94B81B1AC200000C94321C6F
S113007016C2000014C2000012C2000010C2000028
S11300800EC200000CC200000AC2000008C2000038
S11300900C94581D04C200000C94691D00C2000099
S11300A0FEC10000FCC10000FAC10000F8C100005C
S11300B0F6C10000F4C10000F2C10000F0C100006C
S11300C0EEC10000ECC10000EAC10000E8C100007C
S11300D0E6C10000E4C10000E2C10000E0C100008C
S11300E0DEC100000C94441EDAC100000C94151EFD
S11300F00C94E41D0C94A61ED2C100000C94B31DF4
S11301000C94751E0C9434130C94C7130C940114A2
S11301100C942313C4C10000C2C10000C0C100007C
S1130120BEC10000BCC10000BAC10000B8C10000DB
S1130130B6C1000000000000000000000000000044
S113014000000000000000000000000000000000AB
S1130150000000000000000000000000000000009B
S1130160000000000000000000000000000000008B
S1130170000000000000000000000000000000007B
S1130180000000000000000000000000000000006B
S1130190000000000000000000000000000000005B
S11301A0000000000000000000000000000000004B
S11301B0000000000000000000000000000000003B
S11301C0000000000000000000000000000000002B
S11301D0000000000000000000000000000000001B
S11301E0000000000000000000000000000000000B
S11301F000000000000000000000000000000000FB
S113020000000000000000000000000000000000EA
S113021000000000000000000000000000000000DA
S113022085158715D514A115CF15F71549167A1616
S11302309716C716001733174D1785179417BD1750
S1130240F917421568151F1D0A1DDF1CD61CCD1C8D
S1130250C31CBF1CA71C00020E060C0400002110C6
S1130260422063308440A550C660E770088129911C
S11302704AA16BB18CC1ADD1CEE1EFF131121002C4
S113028073325222B5529442F772D662399318836C
S11302907BB35AA3BDD39CC3FFF3DEE36224433490
S11302A020040114E664C774A44485546AA54BB5BC
S11302B028850995EEE5CFF5ACC58DD55336722664
S11302C011163006D776F6669556B4465BB77AA70C
S11302D019973887DFF7FEE79DD7BCC7C448E558B0
S11302E08668A7784008611802282338CCC9EDD95C
S11302F08EE9AFF9488969990AA92BB9F55AD44A04
S1130300B77A966A711A500A333A122AFDDBDCCBAB
S1130310BFFB9EEB799B588B3BBB1AABA66C877CCF
S1130320E44CC55C222C033C600C411CAEED8FFDFB
S1130330ECCDCDDD2AAD0BBD688D499D977EB66EA3
S1130340D55EF44E133E322E511E700E9FFFBEEF4B
S1130350DDDFFCCF1BBF3AAF599F788F8891A9810D
S1130360CAB1EBA10CD12DC14EF16FE18010A100F7
S1130370C230E3200450254046706760B9839893E7
S1130380FBA3DAB33DC31CD37FE35EF3B102901247
S1130390F322D2323542145277625672EAB5CBA5B3
S11303A0A89589856EF54FE52CD50DC5E234C32497
S11303B0A01481046674476424540544DBA7FAB787
S11303C09987B8975FE77EF71DC73CD7D326F236E7
S11303D09106B01657667676154634564CD96DC9D3
S11303E00EF92FE9C899E9898AB9ABA94458654837
S11303F006782768C018E1088238A3287DCB5CDB27
S11304003FEB1EFBF98BD89BBBAB9ABB754A545A86
S1130410376A167AF10AD01AB32A923A2EFD0FEDF2
S11304206CDD4DCDAABD8BADE89DC98D267C076CD6
S1130430645C454CA23C832CE01CC10C1FEF3EFFC6
S11304405DCF7CDF9BAFBABFD98FF89F176E367E26
S1130450554E745E932EB23ED10EF01E11241FBE73
S1130460CFEFD1E8DEBFCDBF00E00CBF12E0A0E0CB
S1130470B2E0E8E8F8E400E00BBF02C007900D9298
S1130480AC36B107D9F727E0ACE6B2E001C01D9263
S1130490AB30B207E1F70E94D71E0C944224B0CDD2
S11304A0CF92DF92EF92FF920F931F932FB7F8949E
S11304B04091FA028FB7F8947091E1006091E200E4
S11304C05091E3003091E4008FBFC72ED62EE52E65
S11304D0F32E3091E00033FF10C04F5F8FB7F894D4
S11304E07091E1006091E2005091E3003091E400EA
S11304F08FBFC72ED62EE52EF32E2FBF642F70E0AC
S113050080E090E02AE1660F771F881F991F2A95E3
S1130510D1F79701860146E03695279517950795FB
S11305204A95D1F7602B712B822B932B1F910F913E
S1130530FF90EF90DF90CF900895FC01278130E089
S1130540322F22278681282B4FB7F89480910602F8
S1130550909107024FBF2817390729F02F3F3F4FCB
S113056011F080E00895258130E0322F2227848124
S1130570282B8FB7F894409105028FBF50E081E09B
S11305802417350779F380E0EDCFFC01228130E0B8
S1130590322F22278181282B25FF05C027743C7C1C
S11305A02134384811F080E00895278130E0322F5B
S11305B022278681282B8FB7F89440910602509108
S11305C007028FBF81E02417350771F380E0ECCF79
S11305D00F931F93FB01AFB7F8942FB7F894709162
S11305E0E1006091E2005091E3004091E4002FBFEC
S11305F0072F162F252F342FAF01BC014230510590
S11306006105710520F442E050E060E070E0400FC5
S1130610511F621F731F7093F4006093F300509393
S1130620F2004093F10082E08093E0008091DF00CB
S113063082608093DF008FEF80931302AFBF1F911E
S11306400F910895ECE5F2E06927660FF11DE60FBE
S1130650F11DC895982F802D3196C8959025089541
S1130660CF92DF92EF92FF920F931F93CF93DF937A
S1130670EC0180919D02882351F085E0DF91CF91B8
S11306801F910F91FF90EF90DF90CF90089580918C
S1130690C002853091F78091C1038111EECF8CA502
S11306A083FF29C08FA58F709091FD02891721F0D7
S11306B08093FD02809345018A8190E0982F8827DA
S11306C02981822B87749C7C81349848E1F089E0ED
S11306D0809342018CA5488185FD0FC000E010E0A5
S11306E040938001809141018F71893011F186E03E
S11306F080934201C2CF80E0D7CF8BEF840F8E016D
S1130700080F111DEDCF209146012F7130E040916B
S1130710DC048091960290E0840F911D9595879555
S11307209595879595958795821793070CF4A5CF92
S1130730CECF8CA582FF70C08DA5882309F47DC01F
S113074080914D018C7F816080934D01A198BE0101
S11307506F5F7F4F42508FB7F894EFB7F894509182
S1130760E1003091E2002091E3009091E400EFBFBA
S1130770C52ED32EE22EF92E92E0909342018FBF24
S11307808BE0C80ED11CE11CF11C0115110509F404
S11307905CC0F8012081818190E0A0E0B0E0DC0140
S11307A099278827B22B2381822B2281922B8C19A3
S11307B09D09AE09BF0983839283A183B08350E06E
S11307C081E891E00E948D2186E080934201F80146
S11307D08081418150E060E070E0BA0155274427F0
S11307E0782B8381482B8281582B4C0D5D1D6E1D07
S11307F07F1D43835283618370838CA582608CA7A1
S1130800C8A6D9A6EAA6FBA686E08093C00284E027
S113081080939D0280E032CF8FB7F89490910102CB
S11308208FBF937080914D018C7F892B80934D01F4
S1130830923009F08BCFA19A8ACF80914D018C7FA1
S1130840826080934D01A19A82CF50E081E891E0CB
S11308500E948D2186E080934201CFCFCF92DF9218
S1130860EF92FF920F931F938FB7F8945091E1008A
S11308704091E2003091E3002091E4008FBF852F86
S1130880942FA32FB22F20918D03222309F470C03B
S1130890409185035091860360918703709188038A
S11308A06C017D01C41AD50AE60AF70A009189038E
S11308B010918A0320918B0330918C03C016D106CA
S11308C0E206F30608F463C0040F151F261F371F42
S11308D00093850310938603209387033093880342
S11308E01092890310928A0310928B0310928C0346
S11308F000E010E098014FB7F894E090E100F09028
S1130900E200F091E300E091E4004FBFA7016F2FF4
S11309107E2F4E5F5F4F6F4F7F4F6A017B01C81A76
S1130920D90AEA0AFB0AC016D106E206F30630F435
S1130930B901A801480F591F6A1F7B1F7093F80063
S11309406093F7005093F6004093F50081E08093A4
S1130950E0008091DF0081608093DF008FEF80935F
S113096013021F910F91FF90EF90DF90CF900895A5
S11309708091DF008E7F8093DF008FEF80931302DE
S11309801F910F91FF90EF90DF90CF900895809387
S1130990850390938603A0938703B09388030C196F
S11309A01D092E093F090093890310938A0320939C
S11309B08B0330938C0337FF9ECF3695279517957D
S11309C0079599CFCF92DF92EF92FF920F931F93E7
S11309D067DD0091B8021091B9022091BA023091FA
S11309E0BB02C090B402D090B502E090B602F09081
S11309F0B702C00ED11EE21EF31E601771078207F4
S1130A00930708F464C0C016D106E206F30608F0A2
S1130A1063C097018601061B170B280B390B0130A5
S1130A201105210542E0340708F477C06B017C010D
S1130A304EEFF41AC092B802D092B902E092BA0210
S1130A40F092BB0232500093B4021093B50220938B
S1130A50B6023093B70200E010E020E030E8DC0199
S1130A60CB01880F991FAA1FBB1F880F991FAA1FAC
S1130A70BB1F880F991FAA1FBB1F880F991FAA1F8E
S1130A80BB1F880F991FAA1FBB1F880F991FAA1F7E
S1130A90BB1F8093850390938603A0938703B09331
S1130AA088030093890310938A0320938B03309364
S1130AB08C0381E080938D0380918E03882331F130
S1130AC01F910F91FF90EF90DF90CF900895C01683
S1130AD0D106E206F30630F46C157D058E059F05FC
S1130AE008F497CF00E010E09801C092B802D092C9
S1130AF0B902E092BA02F092BB021092B4021092D0
S1130B00B5021092B6021092B702A9CF1F910F91AD
S1130B10FF90EF90DF90CF90A1CEE6E0000F111F81
S1130B20221F331FEA95D1F7E0CF8091BC02909148
S1130B30BD02892B11F085E0089581E090E0909347
S1130B40C6048093C5048FEA92E09093BD0280931B
S1130B50BC021092A8021092A70281E08093A9021D
S1130B608091C00080648093C0008091C100806443
S1130B708093C1008091A7029091A8029C012F5FED
S1130B803F4F3093A8022093A702FC01E155FD4F8B
S1130B9080819FB7F8948093C6008091C0008064E0
S1130BA08093C0009FBF80E0089593E8980F92302F
S1130BB018F08093AF02B9CF909174029160909332
S1130BC0740290E29827909398028DE78093AF0285
S1130BD0ACCF9FB7F894809174028E7F8093740297
S1130BE08EE78093AF029FBFA0CF9FB7F894809108
S1130BF025068F3F19F085E09FBF0895E0912206F6
S1130C00E230C9F3809121068F3F61F0E33198F718
S1130C10F0E0ED5DF94F82E080838093220680E06E
S1130C209FBF089582E0809321068093220680E08E
S1130C30F7CFBC014FB7F89480918203909183035E
S1130C409C012F5E3E4F30938303209382034FBF5A
S1130C502FB7F894309133063F3F29F02FBF0E94FD
S1130C60112144960895E0912206E031B9F33091C0
S1130C7021063F3F71F0E33188F7F0E0ED5DF94F75
S1130C8030E13083309322062FBF0E941121449615
S1130C90089530E13093210630932206DFCF8FB7D9
S1130CA0F8949091AA02992311F08FBF08952FB759
S1130CB0F894909128069F3F49F095E02FBF911139
S1130CC0F4CF91E09093AA028FBF0895E091220699
S1130CD0E53099F3909121069F3F59F0E33168F78D
S1130CE0F0E0ED5DF94F95E090839093220690E05B
S1130CF0E5CF95E0909321069093220690E0DECF15
S1130D009091790291113AC0811138C041E0409329
S1130D107902809110028093780230918602832FA9
S1130D2081708093970280910A0290910B029093B4
S1130D307702809376028091850280937502809178
S1130D4094028093BD04232F21702427367EE22F42
S1130D50F0E0EE0FFF1FE45FFD4F808191819093DF
S1130D600B0280930A02322B309386028FB7F894D9
S1130D7090912D069F3F71F08FBF08958091860258
S1130D8080FF04C08B7F8093860208958D7F8093BB
S1130D9086020895E0912206EA3071F390912106CB
S1130DA09F3F51F0E33140F7F0E0ED5DF94F9AE0F9
S1130DB0908390932206E0CF9AE09093210690933B
S1130DC02206DACF80918B028A3021F081E0809371
S1130DD08702089580919C028430C1F78FB7F894FC
S1130DE090912A069F3F21F08FBF109287020895A9
S1130DF0E0912206E730C1F3909121069F3F51F024
S1130E00E33190F7F0E0ED5DF94F97E09083909334
S1130E102206EACF97E09093210690932206E4CF2E
S1130E201F93CF93DF93C82FD62F90919C029130BC
S1130E3009F4AFC008F496C0923009F448C0933066
S1130E4009F06BC010917D031F3F09F466C088232D
S1130E5009F4DAC0123008F43DC08091F102811126
S1130E602AC12091F50230E0322F222781E090E060
S1130E70FC01EF50FD4F8281282B80918C029091D0
S1130E808D028217930731F580E03ADF8091BE022C
S1130E90843409F434C11092F2021092F10284E015
S1130EA080939C0210927D031092BE0210928403E0
S1130EB010928D0210928C02809174028D7F809327
S1130EC0740280918702882309F448C022C08823D1
S1130ED009F48BC01092F2021092F10284E0809324
S1130EE09C0210927D031092BE0210928403109211
S1130EF08D0210928C02809174028D7F8093740213
S1130F0081E0FEDE80918702882329F184E08093CA
S1130F109C02DF91CF911F9155CF1092F202109253
S1130F20F10284E080939C0210927D031092BE0231
S1130F301092840310928D0210928C02809174029C
S1130F408D7F8093740281E0DBDE809187028111C2
S1130F50DDCFCC2319F081E080939C02DF91CF9107
S1130F601F9108958823D1F31092F2021092F10296
S1130F7010927D031092BE021092840310928D028F
S1130F8010928C0281E080939C02DF91CF911F919B
S1130F9008958111E3CF80918C0290918D0252DBF0
S1130FA090938D0280938C0282E080939C02D09374
S1130FB0BE028DEB8D0F833008F0AFCF8091860297
S1130FC080FD70C081FDA9CF8260809386028091EC
S1130FD08602877E886080938602D0939402109262
S1130FE085028FEF80931002B9CF609384038091C0
S1130FF08C0290918D0226DB90938D0280938C025B
S113100083E080939C02AACF1230E0F12091F20297
S1131010E22FF0E0EF50FD4F628130918602832F82
S1131020869586958695837090E08130910509F4C4
S113103054C00297C9F4809185028832A8F4E091E3
S11310400A02F0910B02E80FF11D60838091850282
S11310508F5F809385022091F202E22FF0E0EF503F
S1131060FD4F628110917D032F5F233098F520930B
S1131070F20280918C0290918D02E4DA90938D02B9
S113108080938C028091F102E82FF0E0EF50FD4F45
S1131090D2838F5F833060F01092F1021F5F109350
S11310A07D035CCF82FD39CF8460809386028FCF2D
S11310B08093F102F3CF9FEF980FE92FF0E0EF5008
S11310C0FD4F228130E0322F2227911135C082E07A
S11310D090E0CECE1092F202CCCF80919402377E73
S11310E0306130938602833431F085E08093850249
S11310F060931002B9CF85E080938502B5CF20912B
S11311008403E091C0063091C10681E08E0F8630E1
S113111070F4982F391709F4BECEF0E0E054F94F7B
S11311202283863030F48093C006B9DDB4CE90E0DB
S1131130F1CF1092C006F9CF825090E099CE9FB7BC
S1131140F89480916D02823019F09FBF81E0089578
S1131150809102028111F9CF809104028F3F79F1CD
S1131160E82FF0E0EE55FD4F2081209304022F3F3D
S113117019F12FEF20838093020281E080936D02A6
S11311808FB7F89420912F062F3F21F08FBF9FBF78
S113119080E00895E0912206EC30C1F3209121060D
S11311A02F3F91F0E33190F7F0E0ED5DF94F2CE043
S11311B0208320932206EACF20930302DACF809380
S11311C0020210926D02E3CF2CE0209321062093BB
S11311D02206DCCF9FB7F89480918B028A3039F0D5
S11311E080919C02843019F09FBF89E0089580911A
S11311F011028823C9F39FBF8FB7F89490912906F1
S11312009F3F19F08FBF80E00895E0912206E630F9
S1131210C9F3909121069F3F51F0E33198F7F0E034
S1131220ED5DF94F96E0908390932206EBCF96E024
S11312309093210690932206E5CF10921202E0913A
S1131240F802F091F902309721F08091DD0480FFDB
S113125004C081E0809312020895858190E0982F64
S113126088272681822B71857D3148F08FB7F894C9
S1131270909127069F3F09F46FC08FBF089586831E
S1131280958313A680A5843409F47AC065E481A506
S1131290882309F45FC052A5852F90E09C01359501
S11312A02795359527953595279535952795237059
S11312B040E1249F90011124082E892F000C881FDF
S11312C0990B000C881F991F482F4295440F440F17
S11312D0407C422B5F70452B11A680918102909136
S11312E08202892B19F68FB7F89410927A0295E04E
S11312F090937F0210927E02F0938402E093830223
S113130022E030E0309382022093810210927C022A
S113131010927D02745F709380028FBF9FB7F89420
S113132080918B028A3071F19FBF9FB7F8948091AE
S1131330B90681112DC081E08093B9064093BA06A5
S113134060937B039FBF81112BC010928202109285
S113135081028CCF40E0C1CFE0912206E43009F451
S11313608CCF909121069F3FA9F0E33108F085CFFF
S1131370F0E0ED5DF94F94E09083909322067DCFE9
S113138064E485CF9FBF10928202109281026ECFD7
S113139080E0D8CF94E090932106909322066DCFFD
S11313A07ECC70916F02472F7C3108F043C0272F09
S11313B030E0EBE7F5E08CE1DF011D928A95E9F777
S11313C021153105F9F050917102ABE7B5E080E0E9
S11313D090E008C07FEF740F6D9301968217930716
S11313E068F4472FE52FF0E0EE53FC4F608144236F
S11313F099F35F5F5A3F71F750E0ECCF509371025D
S113140070936F022FE635E08FEF8093750580931C
S1131410740584E680937A058091F8029091F9022C
S1131420892B29F19FB7F89480912E068F3F61F0A4
S11314309FBF0895EBE7F5E08CE1DF011D928A95EB
S1131440E9F72CE130E0BFCFE0912206EB3081F3E5
S1131450809121068F3F09F459C0E33148F7F0E049
S1131460ED5DF94F8BE0808380932206E1CF3093CA
S1131470F9022093F8028CE180937805809112029E
S1131480882309F440C01092120210929A058091A8
S11314909705843409F477C075E48091980588230E
S11314A099F160919905862F90E0AC015595479587
S11314B05595479555954795559547954370B0E192
S11314C04B9FA0011124082E892F000C881F990B13
S11314D0000C881F991F582F5295550F550F507C9B
S11314E0542B6F70562B1092980580918102909125
S11314F08202892B89F081E0809312021092F90212
S11315001092F8028FCF089550E0EFCF8BE08093D4
S11315102106809322068CCF8FB7F89410927A021A
S113152095E090937F0210927E0230938402209380
S1131530830222E030E030938202209381021092F1
S11315407C0210927D0298E2909380028FBF8FB745
S1131550F89490918B029A30C1F08FBF9FB7F894A2
S11315608091B906811113C081E08093B90650932C
S1131570BA0670937B039FBF81110BC01092820245
S113158010928102B8CF74E488CF8FBFF7CF80E088
S1131590F2CF85CBCF93DF931F92CDB7DEB7909177
S11315A06E02911104C090916F029D3718F52FB708
S11315B0F89490916F029A3FB0F430917002E32F47
S11315C0F0E0EE53FC4F80833F5F3A3FD1F030931D
S11315D070029F5F90936F022FBF80E090E00F90A6
S11315E0DF91CF9108952FBF8FEF9FEF0F90DF9181
S11315F0CF91089591E090936E028983D2DE898120
S1131600D6CF10927002E5CFCF93DF931F92CDB760
S1131610DEB720911202211107C02091F802309107
S1131620F9022817390721F00F90DF91CF9108951F
S11316301092F9021092F8026983FFDD6981611149
S113164007C080916F0281111EC010926E02ECCF10
S11316508FB7F89490912E069F3F11F08FBFE4CF7F
S1131660E0912206EB30D1F3909121069F3F79F06F
S1131670E331A0F7F0E0ED5DF94F9BE090839093A8
S113168022068FBFD1CF0F90DF91CF918ACE9BE0FE
S113169090932106909322068FBFC6CF3F924F921C
S11316A05F926F927F928F929F92AF92BF92CF92EE
S11316B0DF92EF92FF920F931F93CF93DF93FF2458
S11316C0F3948EE0C82E9DE0A92E24E0E22EDD24C2
S11316D0DA9433E0B32E4DE5742E56E0652E60E8BF
S11316E0962E72E0872E23C0893009F4C9C19FEF7A
S11316F0980F933008F4FAC0873009F41BC188307E
S113170009F40BC18823D9F080919902823009F43D
S1131710D6C080917A038230A9F18FB7F894909162
S11317209F02913009F475C0F0929F028FBF80919F
S1131730C103811183C080919D028111D5CF809115
S1131740C002853009F78091C1038111DDCF8091FA
S11317509A028111D9CF8091A6028111D5CF8091AF
S11317607A038111D1CF8091A502823069F6F0927B
S1131770A5028FB7F894909131069F3F09F41FC4D6
S11317808FBFC2CF10927A038091BF02813029F6B5
S11317906091F6027091F7028FB7F8945091E100CE
S11317A04091E2003091E3002091E4008FBF852F47
S11317B0942F2091A602203809F496C12B01481ACF
S11317C0590A27FD6EC1C091A302D091A402809151
S11317D09A02882309F48BC3822F15E08F77813016
S11317E009F4C1C327FD67C31092A6021093DE0457
S11317F0F092A5028FB7F894909131069F3F09F4B7
S113180045C38FBF8FB7F89490919F02913009F030
S11318108BCF10929F028FBFDF91CF911F910F91B9
S1131820FF90EF90DF90CF90BF90AF909F908F90FC
S11318307F906F905F904F903F9008958FB7F8948A
S11318403091E9004091EA005091EB006091EC0086
S11318502091C1031092C1038FBF80919D0227FD87
S113186000C1843009F478C025FF06C0863009F42D
S1131870D8C0882309F4D7C0853009F4E1C020FF1B
S113188005C09091C002923009F436C123FF55CFB0
S1131890863009F052CF809155018F77809355019E
S11318A010929D0280914101877009F448CF809184
S11318B041018091C002853009F026CF44CF1092B7
S11318C0990280919003811124CF10929A02109270
S11318D0A6021092DE04E092A5028FB7F8949091CC
S11318E031069F3F09F4EBC08FBF13CF2EEF280FB3
S11318F0223008F434C1923009F060C1813009F417
S11319001DC1823009F0FBCE8091C002833009F002
S1131910FBCE10924E01D092130210929D028FB70B
S1131920F894909130069F3F09F48AC18FBF80914B
S11319309D02E8CE8091C002813079F38091B60691
S11319408064809348018091C002853031F7E09231
S1131950C00280919D02D3CE21FF91CF9FB7F8940E
S113196080916C029FBF882321F0823009F4BDC2AC
S1131970A19885E08093C00210929D0280919A0202
S1131980833009F4E9C2E091C806F091C906828166
S113199090E0982F88277181872B85FFB5C08774C5
S11319A09C7C8134984809F0AFC0878190E0982FDF
S11319B088277681872B019609F4A6C08091990225
S11319C08111A2C010929003F09299027FB7F8940B
S11319D08FB7F894D091E100C091E200F091E30058
S11319E0E091E4008FBF8D2F9C2FAF2FBE2FCE969A
S11319F0A11DB11DB093F000A093EF009093EE00F1
S1131A008093ED00E092E0008091DF008460809399
S1131A10DF00D09213027FBF80929A0280919D02D0
S1131A2023CF10929D02203209F4E3C0E091FE0618
S1131A30F091FF0684A5897E84A785E080939D02AA
S1131A4024FF3AC0809146019091DC048F71890F84
S1131A5096959695891B8093DC0489E080939D027A
S1131A600ECF982F9B7F933009F461C08A3009F020
S1131A70F8CE85E08093C00210929D0280E0F4CEFF
S1131A8040917B018091460187FDEEC085E0809303
S1131A90C00210929D028091C002853009F034CEBC
S1131AA052CE141415040CF08ECE822F8F77813011
S1131AB009F459C215E003C280919D02E0CEE09181
S1131AC02206EE3009F410CF909121069F3F09F4CD
S1131AD02DC3E33108F008CFF0E0ED5DF94FC0828B
S1131AE0C09222068FBF15CE1092A6028091A50245
S1131AF0823009F012CE7CCE9EEF980F923008F01F
S1131B00C5CEB092C002C2CE10929A021092A60222
S1131B101092DE04E092A5028FB7F89490913106FA
S1131B209F3F09F406C28FBF80919D029DCE85E040
S1131B308093C00288E080939D0296CE9091C0026B
S1131B40933009F0E1CD90934D01999AA198909129
S1131B5039019260909339018093C002DECE2091C6
S1131B60C002213009F4D5C1833009F0C4CE23303A
S1131B7009F0C1CE8091B6068064809348017092CA
S1131B804E01D09213028FB7F894F0928F038FBF57
S1131B909FB7F89480916C029FBF882309F4F9C120
S1131BA080934D0190914A01907F976090934A01F0
S1131BB0999A823009F401C2A198F3C19091C002AC
S1131BC0953009F09BCEB0924D01999AA1988FB7A8
S1131BD0F89410928F038FBFB092420110924E017D
S1131BE01092C103D0921302B092C00280919D0260
S1131BF085CE809146018F7170919602982F970F30
S1131C0076957695971B90939602E091FE06F09157
S1131C10FF0694A5792F726074A730A741A752A735
S1131C2063A730914D0132FD58C134B336953170FC
S1131C303F2535A79660977F906194A787A7FDCE2F
S1131C40E0912206ED3009F471CE909121069F3F78
S1131C5009F472C2E33108F069CEF0E0ED5DF94FAA
S1131C60A082A092220662CE8DEF840F873208F004
S1131C700DCF8091FE069091FF06FC014193CF01A8
S1131C80425050E060E871E00E948D210091FE0610
S1131C901091FF06D80111968C918770823009F457
S1131CA089C2F801808182508B3008F4EFCE9FB74F
S1131CB0F894809108029FBF811182C29FB7F89463
S1131CC081E02091BC04233008F080E09FBF88238A
S1131CD009F4DCCE80919A020091FE061091FF0671
S1131CE0E0917B01F0E0E058FE4F90812801D8019B
S1131CF09E969C939E9795E09093C00210929D02AD
S1131D0011969C9111979770923009F479C18823A8
S1131D1009F4ABC18FB7F8943091E1002091E2004F
S1131D209091E3009091E4008FBFC901C92FD82F8F
S1131D30C8010E94C5028111E696D093F702C093B0
S1131D40F6028FB7F8945091E1004091E20030918F
S1131D50E3002091E4008FBF852F942FBE01681B00
S1131D60790B161617064CF48091A602811144C112
S1131D7080917A03882309F401C2D80119966C91E1
S1131D80199770E0762F662718968C91682B20910E
S1131D909B02422F50E0FA01EE0FFF1FE953FB4F65
S1131DA0808191816817790709F495C190917C032A
S1131DB0E7ECF4E0ABEBB6E020E030E0312C80E07F
S1131DC0A901C191D1916C177D0709F4D4C14D913A
S1131DD0592F541B851710F4322E852F2F5F3F4F38
S1131DE02530310569F730929B02432D50E0FA010A
S1131DF0EE0FFF1FE953FB4F718360839F5F909346
S1131E007C03FA01E554F94F9083FA01E050F94F4D
S1131E101082292F2F772F3709F476C190E020E024
S1131E20D80113968C91FA01992309F4DDC0E25488
S1131E30FB4F9081891719F180839FB7F8948091A3
S1131E40BC048330D8F4E091D904E80FE33008F0FF
S1131E50E350F0E0EE0FFF1FE257FD4F2081318188
S1131E60118300838F5F8093BC048FB7F8944091F3
S1131E7032064F3F09F465C18FBF29019FBF80918E
S1131E809D025092FF064092FE0639CCE091220654
S1131E90EE3009F4B6CC909121069F3F09F465C158
S1131EA0E33108F0AECCF0E0ED5DF94FC082C092B2
S1131EB022068FBFA7CC141415040CF095CC909275
S1131EC0A602F092BF02F0927A03B201882777FD4E
S1131ED08095982F0E94E80289CC30914D01331FE0
S1131EE03327331F35A79660A6CEA19A42CDCE01E3
S1131EF00E943003182F811148C08CA58E7F8CA7B7
S1131F00F0929A02D093C906C093C806B092A60272
S1131F1004CCD0924F0190924E01809139018D7F73
S1131F2080933901D09213028092C00280919D0265
S1131F30E5CCE0912206EE3009F4F5CD909121062E
S1131F409F3FB1F1E33108F0EECDF0E0ED5DF94FE4
S1131F50C082C0922206E7CD10929A02822F80722C
S1131F6025FD61CD8CCC207822602093A6028CE8DC
S1131F7090E00E941906F092BF02F0927A03BC012D
S1131F8080E090E00E94E802C8CB8091A602282F4E
S1131F9025CCA0924D0180914A01807F836080937B
S1131FA04A0160924201E092C00280919D02A6CC57
S1131FB0C0922106C0922206B6CDA19AF2CFE0913A
S1131FC02206EE3009F4DCCB909121069F3F09F400
S1131FD010C1E33108F0D4CBF0E0ED5DF94FC082DD
S1131FE0C09222068FBF90CBE050F94F216020832E
S1131FF0FA01E254FB4F20CF80688093A602BDCE45
S1132000823011F080E03DCFE091C806F091C9061E
S113201013969C9183819813F5CF8091DF008B7F79
S11320208093DF00D092130210929902E091C806C7
S1132030F091C90684A5816084A780919A028823BF
S113204009F41DCF10929A021092A6021092DE0497
S1132050E092A5028FB7F894909131069F3F09F45E
S1132060B5C08FBF80919D020CCF9FB7F89480912B
S113207009029FBF882309F44DCEC8010E94C502FE
S1132080882309F447CE85E08093C1028092C2027E
S11320901092C302F80183818093C4029FB7F8941D
S11320A0809101029FBF82FD76C081E0F80195A571
S11320B0911101C080E08093EE028091ED02846072
S11320C08093ED0281EC92E00E943003811122CED4
S11320D0B0929A021FCE90917C03FA01E554F94F15
S11320E08081891751F09F5F90937C039083892F9F
S11320F08F778F3769F0422F50E0FA01E050F94FA3
S11321002081922F91708CCE8F3708F487CE232DA7
S1132110EBEBF6E0392F307880818F6798133083AA
S1132120319676E0E03CF707B9F7E5CFC092210697
S1132130C09222068FBFEDCAA0922106A092220669
S1132140F5CBE0912206EF3009F496CE40912106BA
S11321504F3F51F1E33108F08FCEF0E0ED5DF94FE0
S11321604FE040834093220687CEC0922106C0925E
S113217022068FBF47CB20939B02AFCFF092BF02C2
S1132180F0927A03882777FD8095982F0E94E802C1
S11321909092A602F2CD81708093EE028091ED02BE
S11321A084608093ED028ECF4FE0409321064093EC
S11321B0220662CE80919A02823009F067CC90CDDB
S11321C0C8010E949D02811179CD60CCE091220664
S11321D0EE3009F446CF909121069F3F81F0E33120
S11321E008F03FCFF0E0ED5DF94FC082C0922206C7
S11321F038CFC0922106C09222068FBF85CAC092F2
S11322002106C09222062DCF9FB7F89480919F0299
S1132210882329F0806880939F029FBF089581E0FE
S113222080939F029FBF3ACA9FB7F89480919F0200
S1132230815080939F02803811F09FBF089581E000
S113224080939F029FBF2ACACF93DF931F92CDB77B
S1132250DEB79FB7F89480919F028F5F80939F02AF
S11322609FBF8091A502882341F085E08983DCDF4C
S113227089810F90DF91CF91089580919D02811102
S1132280F4CF8091C002853011F489E0EFCF83E070
S113229080939D02B9DF85E08093A50280E0E6CFBC
S11322A0FA012D3110F086E00895428150E0542F58
S11322B044279181492BDA01A774BC7CA134B84826
S11322C039F04073552741645868418398E89283F4
S11322D0235F20833FB7F894209106029091070270
S11322E03FBF208791872FB7F894909105022FBFA5
S11322F0948315828387668377838FB7F89490914C
S11323006D0291111FC092E090936D02109202022F
S11323108FBF8FE38287809189028F5F80938902C8
S113232083839FB7F89480919F028F5F80939F026D
S11323309FBF8091A502882381F176DF0E949F08C8
S113234085E008958FBFF093A102E093A0029FB7A8
S1132350F89480916D02882389F08091A2028F3FC6
S113236019F085E09FBF0895809103028823C9F383
S1132370109204021092030280E0F4CF81E0809373
S11323806D02109202028FB7F89420912F062F3F0E
S1132390B9F08FBF9FBF80E00895F0938103E0936D
S11323A0800381E08093A50210927E038FB7F89496
S11323B0909131069F3FB1F08FBF36DF80E00895E2
S11323C0E0912206EC3029F3209121062F3FE1F021
S11323D0E331F8F6F0E0ED5DF94F2CE02083209333
S11323E02206D7CFE0912206EE3031F390912106F8
S11323F09F3F81F0E33100F7F0E0ED5DF94F9EE09F
S1132400908390932206D8CF2CE02093210620932A
S11324102206BFCF9EE09093210690932206CCCF54
S11324204F925F926F927F92BF92CF92DF92EF9220
S1132430FF920F931F93CF93DF93EEEFF2E0C0E090
S1132440D0E0B084B1FE13C04080518062807380BC
S1132450C480D580E680F7808B019C01041915099E
S1132460260937090C151D052E053F0568F521962B
S11324703996C330D10529F78FB7F8949091250682
S11324809F3F79F08FBFDF91CF911F910F91FF9004
S1132490EF90DF90CF90BF907F906F905F904F90C0
S11324A00895E0912206E23069F3909121069F3F5E
S11324B009F467C0E33130F7F0E0ED5DF94F92E0E5
S11324C0908390932206DECFB0FC61C0D301C20199
S11324D08C0D9D1DAE1DBF1D80839183A283B3838C
S11324E0C13009F472C0C23009F055C08091DA04D9
S11324F09091DB040196883E23E0920708F07FC0A8
S11325009093DB048093DA04809188028111B4CF24
S11325108DE993E0892B09F4AFCF9091DA0480918F
S1132520DB0490939E0380939D03809192038062C9
S11325302091930390E0922B8093920390939303C2
S113254080ED8093970387E08093980386E08093DF
S11325509C038091D5049091D604892B09F08CCFEB
S113256081E993E09093D6048093D50481E180932C
S113257091038091000281114DC081E08093880213
S11325807BCF92E090932106909322067BCFE89430
S1132590B1F8B086A5CF9FB7F894809123068F3FFA
S11325A011F09FBF69CFE0912206EE23D1F3809111
S11325B021068F3F49F1E331A0F7F0E0ED5DF94FDB
S11325C01082109222069FBF57CF80917B028823EE
S11325D009F452CF8FB7F89460917E028FBF1092A6
S11325E07B02109282021092810280918302909168
S11325F0840220917C0221113FCF06D83DCF109256
S1132600DB041092DA0480CF109221061092220685
S11326109FBF32CF1092000224E041E953E060ED05
S113262077E086E03DDE882309F4A7CF81E080933C
S113263000021092D6041092D5041ECF8FB7F894DE
S113264008958FBF08951F920F920FB60F92112411
S11326508F938091FA028F5F8093FA028F910F908B
S11326600FBE0F901F9018951F920F920FB60F92E6
S113267011240BB60F922F933F934F935F936F9355
S11326807F938F939F93AF93BF93EF93FF93809127
S1132690DF008E7F8093DF008FEF8093130281E051
S11326A080938E0380918D038823C1F1409185032B
S11326B05091860360918703709188038FB7F894D3
S11326C0F091E100E091E2003091E3002091E40018
S11326D08FBF8F2F9E2FA32FB22F841B950BA60B7A
S11326E0B70B4091890350918A0360918B037091D9
S11326F08C0384179507A607B70780F010928D0303
S11327008091B4029091B502A091B602B091B70243
S1132710892B8A2B8B2BC9F00E94E20410928E0322
S11327200E942E04FF91EF91BF91AF919F918F91E1
S11327307F916F915F914F913F912F910F900BBEBD
S11327400F900FBE0F901F9018958FB7F89490912B
S113275024069F3F11F08FBFE1CFE0912206E130C4
S1132760D1F3909121069F3F59F0E331A0F7F0E0B7
S1132770ED5DF94F91E09083909322068FBFCECF09
S113278091E090932106909322068FBFC7CF1F92AA
S11327900F920FB60F9211240BB60F922F933F9303
S11327A04F935F936F937F938F939F93AF93BF9355
S11327B0EF93FF938091DF008D7F8093DF008FEF95
S11327C08093130278948FB7F89490917A039130A0
S11327D019F492E090937A038FBF16DDFF91EF9185
S11327E0BF91AF919F918F917F916F915F914F9125
S11327F03F912F910F900BBE0F900FBE0F901F9023
S113280018951F920F920FB60F9211240BB60F92C8
S11328102F933F934F935F936F937F938F939F93E4
S1132820AF93BF93EF93FF938091DF008B7F8093EF
S1132830DF008FEF8093130278948FB7F894909110
S11328409902913019F492E0909399028FBFDCDCE5
S1132850FF91EF91BF91AF919F918F917F916F9174
S11328605F914F913F912F910F900BBE0F900FBE30
S11328700F901F9018959FB7F89480916E02813045
S113288089F080916F02811104C09FBF81E090E0C4
S1132890089581E080936E029FBF0E94D10980E079
S11328A090E008959FBF80E090E00895CF9323E0E7
S11328B081399207B9F1FC0184A580FD0AC080E545
S11328C092E09F938F930E949D210F900F90CF9140
S11328D0D2CF84E292E09F938F930E949D21C09176
S11328E0B6061F92CF9384E492E09F938F930E9445
S11328F09D21C1DFCF5F0F900F900F900F900F902D
S11329000F90C43108F0CBE09FB7F89480919F02F8
S11329108F5F80939F029FBF8091A502882329F037
S1132920CF9182CC10928802C6CF85EF8C0F803174
S1132930B8F780919D028111F3CF8091B606C81734
S113294079F3C093B606C7E0C0939D025DDCC093E3
S1132950A502E6CFE82FF0E0EE0FFF1FEB52FB4F8E
S11329601182108291E09093000281110895CB01AD
S11329709DCF2F923F924F925F926F927F928F9250
S11329809F92AF92BF92CF92DF92EF92FF920F93FA
S11329901F93CF93DF9390E08331910508F05FC0DC
S11329A0FC01E05FFE4F0C9447210E9450022FB7B8
S11329B0F89410928D032FBFEEEFF2E020E0442450
S11329C04A94542C642CAFE77A2E308531FF1AC018
S11329D0C080D180E280F3804B015C018C189D089B
S11329E0AE08BF08C480D580E680F780C818D9082F
S11329F0EA08FB08C414D504E604F7041CF4260111
S1132A00370121E0399633E0E931F307F1F6222367
S1132A1031F114141504160417040CF07FC040920D
S1132A20D1045092D2046092D3047092D40421E071
S1132A3020939E02CFB7F8946093B8027093B902C2
S1132A408093BA029093BB024092B4025092B502B2
S1132A506092B6027092B7020E94E204CFBFDF9187
S1132A60CF911F910F91FF90EF90DF90CF90BF9087
S1132A70AF909F908F907F906F905F904F903F901A
S1132A802F9008952091B302222349F3C1E0D1E0AD
S1132A9006C0DD0FC83019F32091B302CF5F3FEFBA
S1132AA03C0F822F8D23A9F3E32FF0E0EE0FFF1FDD
S1132AB0EB52FB4F80819181118210824D2F409502
S1132AC042234093B3023111E4CFF0DEDD0FE4CFB3
S1132AD080910002E82FF0E0EE0FFF1FEB52FB4F56
S1132AE060817181DF91CF911F910F91FF90EF90E1
S1132AF0DF90CF90BF90AF909F908F907F906F901A
S1132B005F904F903F902F9025CFA895A8CF8091AC
S1132B109E02882309F412C30E945002DF91CF91D0
S1132B201F910F91FF90EF90DF90CF90BF90AF90E7
S1132B309F908F907F906F905F904F903F902F90D9
S1132B406FCC2091DD04222309F489CF81E091E048
S1132B505BE007C0990F883009F481CF2091DD0430
S1132B608F5F3FEF380F422F4923A1F3E32FF0E0AB
S1132B70EE0FFF1FE850FD4F11821082492F409540
S1132B8042234093DD043111E5CF2FB7F8943091FF
S1132B902E063F3F09F487C42FBF990FDFCFC091A2
S1132BA01202EC2FF0E0EE0FFF1FE850FD4F1182F0
S1132BB010820E941D09C11152CF8FB7F8949091D1
S1132BC02E069F3F91F4E0912206EB3071F0909134
S1132BD021069F3F09F43FC5E33138F4F0E0ED5D91
S1132BE0F94F9BE09083909322068FBF38CF2FB785
S1132BF0F8941092AA0290918B0288EF890F823088
S1132C0050F410928B02E0919502F0E0EE0FFF1F5A
S1132C10E954F94F10822FBF823008F45AC2992325
S1132C2009F486C590E0CFB7F89480918B028A307E
S1132C3009F474C4CFBF992309F411CF8FB7F89462
S1132C401092CB061092CA0610928A0291E09093D9
S1132C508B028FBF0E94E905882309F400CF8FB748
S1132C60F89499E090938B028FBFDF91CF911F91DD
S1132C700F91FF90EF90DF90CF90BF90AF909F9017
S1132C808F907F906F905F904F903F902F900C9417
S1132C904F068091C1008F7B8093C1008091C10059
S1132CA08F778093C10010927F031092A9028091C4
S1132CB0C10088608093C1009FEF909313028091BC
S1132CC0C10080618093C100909313028091C10080
S1132CD080688093C1008FB7F89410928B02109291
S1132CE09C02109211028FBF81E0809373021092B4
S1132CF07202B5CE8FB7F89490912B069F3F09F0DE
S1132D0074CFE0912206E83009F46FCF9091210648
S1132D109F3F09F460C4E33108F067CFF0E0ED5D54
S1132D20F94F98E09083909322068FBF98CE8091BC
S1132D30C100877F8093C1009FEF9093130280911D
S1132D40C1008F7E8093C100909313028FB7F894D3
S1132D5091E0909311028FBF1092730280917202DE
S1132D60882309F47CCEDF91CF911F910F91FF90BE
S1132D70EF90DF90CF90BF90AF909F908F907F9017
S1132D806F905F904F903F902F900C94EA088FB70C
S1132D90F89420917A0210927A028FBF8091810276
S1132DA090918202029709F05ACE222309F457CE59
S1132DB080917D02882309F4BFC31092820210928D
S1132DC0810210927D02809183029091840220916D
S1132DD07C02211144CE63E0DF91CF911F910F91CA
S1132DE0FF90EF90DF90CF90BF90AF909F908F9027
S1132DF07F906F905F904F903F902F900C94040BB6
S1132E009FB7F89430917802C0917602D0917702FE
S1132E1020917502109197028091BD049FBF845444
S1132E20823008F4F9C180917B02882339F08091C3
S1132E30810290918202029709F44FC38FB7F894EC
S1132E40E12FF0E0EE0FFF1FE45FFD4FD183C0835D
S1132E50909186021111E1C29D7F90938602109297
S1132E6079028FBFFCCD2FE635E08FEF8093750597
S1132E708093740584E680937A058091F80290919A
S1132E80F902892B09F42CC29FB7F89480912E067D
S1132E908F3F09F4C6C19FBFE2CD8FB7F89492E08B
S1132EA090936D028FBF809102028111D8CDE09181
S1132EB0A002F091A1028FE38287809189028F5F43
S1132EC08093890283839FB7F89480919F028F5FD8
S1132ED080939F029FBF8091A502882309F454C365
S1132EE0A3D90E949F086091A0027091A1028091D1
S1132EF000028111B4CD8091D5049091D604681755
S1132F00790709F0ACCD80E0EDCD8091A502109257
S1132F10A502853009F49EC19AEF980F923008F407
S1132F209ECD8093A5029BCD9FB7F89480919F027C
S1132F308F5F80939F029FBFC091A502C13009F4A7
S1132F4041C11092A50270D9C0918003D091810330
S1132F508A858F3309F083CD0E949F0880910002F7
S1132F6081117DCD8091D5049091D604C817D907DD
S1132F7009F075CDBE0180E0B5CD8FB7F89490917E
S1132F80BC04992309F431CE07E512E00FC0809305
S1132F90D9048091BC0481508093BC049FBF8FB737
S1132FA0F8949091BC04992309F41FCEE091D904BC
S1132FB0F0E0EE0FFF1FE257FD4FC081D1818FBFBC
S1132FC08A858F3309F4DAC1CE010E949D029FB72E
S1132FD0F8948091D904E82FF0E0EE0FFF1FE25738
S1132FE0FD4FD183C0838F5F833088F21092D90460
S1132FF0D0CFEFB7F8948091AB029091AC02A0913E
S1133000AD02B091AE021C012D019C01A20160E051
S113301070E080E090E003E00E944D2151016201E4
S1133020E12CF12C00E010E00E94842159016A0196
S11330307B01F82F192F03E00E944D210F2F0E94CE
S1133040842159016A017B01F82F192F03E00E94A2
S11330504D210F2F0E94842159016A017B01F82F11
S1133060192F03E00E944D210F2F0E948421590142
S11330706A017B01F82F192F03E00E944D210F2FC5
S11330800E94842101E00E944D2129013A0100E2BD
S11330900E94682149015A01D301C201B695A7953E
S11330A097958795880D991DAA1DBB1DB7FD85C0F1
S11330B08093AB029093AC02A093AD02B093AE02A6
S11330C0EFBF2FB7F89490938303809382032FBFAD
S11330D0C6CC2FB7F8948091B2028F5F8093B2026E
S11330E080917903833409F4CEC131E0983009F436
S11330F0AEC081E02FBF2FB7F894909187022FBF05
S1133100992309F48EC19FB7F8942AE020938B0287
S11331109FBF90E0882309F486CD8FB7F89430934D
S11331207E0221E020937A028FBF8FB7F89420911A
S11331302C062F3F09F4BEC08FBF75CD4091D1043A
S11331405091D2046091D3047091D4042FB7F894B1
S11331508091B4029091B502A091B602B091B702E9
S1133160C090B802D090B902E090BA02F090BB02CD
S11331708C0D9D1DAE1DBF1D2FBF4093D1045093D8
S1133180D2046093D3047093D40410929E02CFB7F8
S1133190F8948093B8029093B902A093BA02B093C2
S11331A0BB024093B4025093B5026093B60270938D
S11331B0B7020E94E204CFBFAFCCBF770196A11D36
S11331C0B11D76CF80917E038F5F80937E0386301E
S11331D008F0B7CE80918003909181032091A602DC
S11331E0222309F412C285E08093DE0482E08093F6
S11331F0A502DF91CF911F910F91FF90EF90DF9087
S1133200CF90BF90AF909F908F907F906F905F9082
S11332104F903F902F9008C82C3008F40FCE3AA757
S11332200DCEE0912206EB3009F435CE80912106D3
S11332308F3F09F409C2E33108F02DCEF0E0ED5DD3
S1133240F94F8BE08083809322069FBF08CC30E047
S113325081E050CF0E9450026093100370931103D9
S1133260809312039093130388EE93E0A0E0B0E000
S11332708093140390931503A0931603B09317033C
S1133280809118038E7F826080931803DF91CF9121
S11332901F910F91FF90EF90DF90CF90BF90AF9070
S11332A09F908F907F906F905F904F903F902F9062
S11332B00C94F505E0912206E93009F43DCF209104
S11332C021062F3F09F41AC2E33108F035CFF0E0AC
S11332D0ED5DF94F29E02083209322068FBFA3CC14
S11332E03093F9022093F8028CE180937805809161
S11332F01202882309F4B3CB1092120210929A0599
S113330080919705843409F400C265E4809198059E
S1133310882309F497C170919905872F90E0AC0137
S11333205595479555954795559547955595479581
S11333304370E0E14E9FA0011124082E892F000C58
S1133340881F990B000C881F991F582F5295550FF1
S1133350550F507C542B7F70572B109298058091F9
S1133360810290918202892B09F491C181E08093BA
S113337012021092F9021092F80286CD5B856881E0
S11333808F8190E0982F88272E81822B4FB7F89455
S113339020910602309107024FBF8217930719F05C
S11333A0019609F014CE563009F011CE613109F0BE
S11333B00ECE8CA584FDBAC08E8590E0982F882708
S11333C02F85822B9F938F938C8590E0982F88274D
S11333D02D85822B9F938F931F930F93AED74BDA38
S11333E08D850F900F900F900F900F900F9080FF8E
S11333F09BC02D988C8590E0982F88272D85822B53
S113340081FF90C02E988C8590E0982F88272D8579
S1133410822B82FDDEC02F9ADACD9B7F90938602A9
S11334201ECD9FB7F8945091B7066091B9069FBF1F
S11334304FB7F8942091C0069091C1064FBF291749
S113344009F445C0511143C09FB7F89422E020937A
S1133450B7065FB7F8944091C0062091C1065FBFDC
S1133460421709F4D0C0E091C106F0E0E054F94FEE
S113347022812093B80623E42093790310929502C5
S11334809FBF91E047CE8091C1069091C0069817E6
S113349039F08F5F8093C106863010F01092C10618
S11334A080E030E027CEE0912206EB3009F474CBC3
S11334B0309121063F3F09F4A1C0E33108F06CCB01
S11334C0F0E0ED5DF94F50835093220665CB6150D7
S11334D0623008F487C090E01DCE80910F038D7F89
S11334E080930F03E0918302F091840281E083A72B
S11334F010927B0210928202109281028FB7F8948C
S113350060917E028FBF809183029091840220910A
S11335107C02211193CC0E94040B90CC0E94E20601
S1133520CFBF9DCA2E9A6FCF2D9A64CF2FA52F8718
S11335301E8680E090E045CF0E945002609307030E
S1133540709308038093090390930A0382E090E048
S1133550A0E0B0E080930B0390930C03A0930D03C1
S1133560B0930E0380910F038160826080930F03F8
S11335708FB7F894909125069F3F09F473C08FBFCD
S113358081E080937B026BCAF0938103E093800314
S113359081E08093A50210927E038FB7F8949091F6
S11335A031069F3F11F08FBF24CEE0912206EE300A
S11335B0D1F3909121069F3F09F4B3C0E33198F70A
S11335C0F0E0ED5DF94F9EE09083909322068FBF6B
S11335D010CE2F98FCCC98E090932106909322066D
S11335E08FBF3DCA9FB7F89420917B032093790342
S11335F021E0209395029FBF91E08CCD509321064A
S113360050932206C9CA20E034CF20917A032111B5
S1133610EACD9093A4028093A302C093A60286E30A
S113362091E00E941906C093BF02C0937A03BC01C3
S113363080E090E00E94E8021092DE0483E0809330
S1133640A502D7CD50E08BCE8BE0809321068093EA
S113365022069FBF04CA9BE0909321069093220602
S11336608FBFFDC9E0912206E23009F488CF909122
S113367021069F3F09F44DC0E33108F080CFF0E00C
S1133680ED5DF94F92E090839093220678CF4FB787
S1133690F89410927A0285E080937F0210927E0261
S11336A0309384022093830282E090E0909382021C
S11336B08093810210927C0210927D0288E28093B2
S11336C080024FBF8FB7F89490918B029A30F9F033
S11336D08FBF9FB7F8948091B906811120C081E013
S11336E08093B9065093BA0660937B039FBF811100
S11336F0BCCA109282021092810238CE29E0209333
S11337002106209322068FBF8ECA64E4FFCD8FBFAB
S1133710F0CF92E0909321069093220630CF80E080
S1133720E5CF9EE090932106909322068FBF61CD52
S113373030E080E0E0CC809121068F3FA1F0282F7B
S113374030E02F553A4FF901EE57FF4F9081909397
S113375021069F3F51F0F901EE57FF4F9FEF9083F1
S113376008D981E0089580E0089590932206F3CF6C
S11337701F920F920FB60F9211240BB60F922F9334
S11337803F934F935F936F937F938F939F93AF93E5
S1133790BF93EF93FF938091C00087FD13C0FF9107
S11337A0EF91BF91AF919F918F917F916F915F91B5
S11337B04F913F912F910F900BBE0F900FBE0F9022
S11337C01F9018956091C6008091FB029091FC02B5
S11337D0009751F120919F053091A005A9014F5FF9
S11337E05F4F5093A00540939F05FC01E20FF31F28
S11337F0608320919F053091A0058091CC06909123
S1133800CD062817390758F21092FC021092FB02D9
S113381080917F03833019F28091C1008F77809368
S1133820C10010927F03BBCF6E3779F08091740290
S11338306D37A1F081FF05C08D7F8093740280E213
S1133840682780E00E941007AACF8091110281119D
S1133850A6CF60E081E00E941007A1CF8260809330
S113386074029DCF78941F920F920FB60F92112479
S11338700BB60F92FF920F931F932F933F934F9387
S11338805F936F937F938F939F93AF93BF93CF93E4
S1133890DF93EF93FF932091BC023091BD02211579
S11338A0310509F466C08091A7029091A802409165
S11338B0C5045091C6048417950768F5AC014F5FA1
S11338C05F4F5093A8024093A702F901E80FF91F34
S11338D080819FB7F8948093C6008091C000806473
S11338E08093C0009FBFFF91EF91DF91CF91BF9173
S11338F0AF919F918F917F916F915F914F913F9184
S11339002F911F910F91FF900F900BBE0F900FBE40
S11339100F901F9018951092BD021092BC02109245
S1133920A9028091C1008F7B8093C1001FB7F894D6
S11339308091740280FD12C080918B0290E0FC01A2
S11339403197E830F10538F089E080938B020E94CA
S11339504F061FBFC8CFED5DFE4F99C48E7F809385
S11339607402809198028093AF020E9495051FBF54
S1133970BACF8091C1008F7B8093C100B4CF88E01F
S113398080938B02E4CF0E94E905082F87E080939F
S11339908B020111D9CF1FBFA6CF8091CB060E9405
S11339A0D505082F86E080938B02F3CF8091CA0659
S11339B00E94D505082F85E080938B02EACFE09121
S11339C09502F0E0EE0FFF1FE854F94F80810E944A
S11339D0D505082FF0909502CF2DD0E0CC0FDD1F38
S11339E0FE01E854F94F60818091CA069091CB069C
S11339F00E9422039093CB068093CA0680918A0288
S1133A008F5F80938A0291E0F91671F184E08093CC
S1133A108B02BFCF8091B2020E94D505082F83E0AC
S1133A2080938B026091B2028091CA069091CB067A
S1133A300E9422039093CB068093CA06AACF80915A
S1133A4079030E94D505082F82E080938B02609150
S1133A5079038091CA069091CB060E942203909329
S1133A60CB068093CA0695CF90917F02E0918302A2
S1133A70F0918402E90FF11D30819F5F90937F02E2
S1133A8020918002291790F492E09093B90620E0E7
S1133A90FE01E954F94F9081923009F4B7CF8F3F7A
S1133AA009F4B4CFC854D94F288373CF232FF0CF50
S1133AB01F920F920FB60F9211248F938091C8001A
S1133AC087FD8091CE008F910F900FBE0F901F90B5
S1133AD0189578941F920F920FB60F9211240F909D
S1133AE00FBE0F901F9018951F920F920FB60F9252
S1133AF011248F939F938091B0029091B10201960B
S1133B009093B1028093B0029F918F910F900FBE5A
S1133B100F901F9018951F920F920FB60F921124B9
S1133B200F900FBE0F901F9018951F920F920FB613
S1133B300F9211240F900FBE0F901F9018951F9293
S1133B400F920FB60F9211240F900FBE0F901F907B
S1133B5018951F920F920FB60F9211240F900FBE5B
S1133B600F901F90189578941F920F920FB60F9292
S1133B7011240BB60F922F933F934F935F936F9340
S1133B807F938F939F93AF93BF93EF93FF939FB7CD
S1133B90F8948091C10382608093C1039FBF0E9407
S1133BA00411FF91EF91BF91AF919F918F917F91FC
S1133BB06F915F914F913F912F910F900BBE0F909A
S1133BC00FBE0F901F90189578941F920F920FB606
S1133BD00F9211240BB60F922F933F934F935F9341
S1133BE06F937F938F939F93AF93BF93EF93FF93C1
S1133BF09FB7F8948091C10380618093C1039FBFF4
S1133C000E940411FF91EF91BF91AF919F918F9109
S1133C107F916F915F914F913F912F910F900BBEC8
S1133C200F900FBE0F901F9018951F920F920FB612
S1133C300F9211240BB60F922F933F934F935F93E0
S1133C406F937F938F939F93AF93BF93EF93FF9360
S1133C508091C10380628093C10378940E9404110F
S1133C60F894FF91EF91BF91AF919F918F917F91C4
S1133C706F915F914F913F912F910F900BBE0F90D9
S1133C800FBE0F901F90189578941F920F920FB645
S1133C900F9211240BB60F922F933F934F935F9380
S1133CA06F937F938F939F93AF93BF93EF93FF9300
S1133CB09FB7F8948091C10380688093C1039FBF2C
S1133CC00E940411FF91EF91BF91AF919F918F9149
S1133CD07F916F915F914F913F912F910F900BBE08
S1133CE00F900FBE0F901F90189578941F920F920B
S1133CF00FB60F9211240BB60F922F933F934F934D
S1133D005F936F937F938F939F93AF93BF93EF933F
S1133D10FF939FB7F8948091C10381608093C1039E
S1133D209FBF0E940411FF91EF91BF91AF919F91AA
S1133D308F917F916F915F914F913F912F910F9050
S1133D400BBE0F900FBE0F901F90189578941F9282
S1133D500F920FB60F9211240BB60F922F933F932D
S1133D604F935F936F937F938F939F93AF93BF937F
S1133D70EF93FF939FB7F8948091C1038860809379
S1133D80C1039FBF0E940411FF91EF91BF91AF91B6
S1133D909F918F917F916F915F914F913F912F915F
S1133DA00F900BBE0F900FBE0F901F9018951FB76A
S1133DB0F89484B78ABD14BE88E10FB6F894809352
S1133DC06000109260000FBE43E150E06FEF70E0BE
S1133DD083E296E0ABD28FEF809321068093220694
S1133DE08EEC96E09093FF068093FE061092DC041E
S1133DF08AE5809396028091350180618093350134
S1133E008091340180618093340180913301806119
S1133E10809333018091320180618093320185B7B0
S1133E20806885BF85B7806885BF80E8809361001E
S1133E301092610081E08093810090E29093B6003B
S1133E408093B10042E38091B2008111FCCF2091B4
S1133E508400309185008091B2008034E1F7809134
S1133E60840090918500821B930B9093D8048093D7
S1133E70D704415041F71092B10010928100109282
S1133E80B6008091B6008370E1F78091DF008B7FEC
S1133E908093DF009FEF909313028091DC008B7F6F
S1133EA08093DC008091DF008D7F8093DF0090930E
S1133EB013028091DC008D7F8093DC008091800070
S1133EC08C7F8093800080918100807E82608093CB
S1133ED0810080916F00816080936F0080E2809305
S1133EE0B6008091DC0080638093DC009093130221
S1133EF08091DF0088608093DF008091DF008E7FF7
S1133F008093DF00909313028091DC008E7F809376
S1133F10DC0088E10FB6F894809360001092600092
S1133F200FBE29E288E190E00FB6F894A89580933B
S1133F3060000FBE20936000259A269A279A2D9A36
S1133F402E9A2F9AF8DB8111FDCF87EC80934901DB
S1133F5083E080934D01999AA198109245011092A3
S1133F60FD028BE08093B6068091440180628093C9
S1133F7044018091B60680648093480180913901A0
S1133F808260809339018091DC0088608093DC003A
S1133F9081E08093C0022091220230912302C90162
S1133FA00196A0E0B0E08093AB029093AC02A093A2
S1133FB0AD02B093AE028FED94E090938F028093A4
S1133FC08E028FE095E090939102809390028FE3AC
S1133FD095E090939302809392028FEF9FEF9093DA
S1133FE0C8048093C7049093CA048093C90490932F
S1133FF0CC048093CB049093CE048093CD0490930F
S1134000D0048093CF042295207F2093890280934B
S1134010A20284E192E09093080780930707D2E01C
S1134020C6E06091D7047091D80480E090E0B4E8D1
S1134030CB2EB3E0DB2EE12CF12CA701960105D1A8
S1134040215031093093C5002093C400D093C0009F
S1134050C093C2001092C1006091D7047091D8043B
S113406080E090E0A7019601F0D02150310920931F
S1134070CC003093CD00D093C800C093CA001092F6
S1134080C90084E490E09093C4048093C304109224
S1134090B7061092B9068AE080938B0210928A02C6
S11340A0109279031092B2021092CB061092CA06B3
S11340B01092AA02109295021092F2021092F1024A
S11340C094E090939C0210927D031092BE02109291
S11340D0840310928D0210928C021092C1061092E9
S11340E0C00610926E02E5E8F3E0DF011D928A95A6
S11340F0E9F721DB8111FDCF1FBF78940E94EA0804
S11341000E9450026093FE027093FF0280930003AA
S11341109093010380EA9FE0A0E0B0E08093020363
S113412090930303A0930403B093050380910603C3
S11341308E7F8260809306030E94F5050E942411FD
S1134140CFEF07C0F901EE57FF4FC0834FBF0E9466
S1134150B9144FB7F894809121068F3F79F0282F36
S113416030E02F553A4FF901EE57FF4F908190936D
S113417021069F3F39F790932206E4CF80911302E2
S113418087FD11C083B7816083BF78948895F894C4
S113419083B78E7F83BF809121068F3F01F7809183
S11341A0130287FFEFCF80914E0187FD38C095E061
S11341B080916F008E7289F5892F963008F085E022
S11341C09091C10093FD22C09091C10094FD1EC046
S11341D09091C90093FD1AC09091C90094FD16C036
S11341E0863008F085E09091DC0095FD14C0E5E090
S11341F08E1708F4E82FE093130283B7F0E0EA5A2D
S1134200FD4FE491807FE82BE3BFBCCF80E0909129
S1134210DC0095FFECCFE3E0EBCF80E0D1CF92E080
S1134220C7CFAA1BBB1B51E107C0AA1FBB1FA61700
S1134230B70710F0A61BB70B881F991F5A95A9F74B
S113424080959095BC01CD010895A1E21A2EAA1B78
S1134250BB1BFD010DC0AA1FBB1FEE1FFF1FA21732
S1134260B307E407F50720F0A21BB30BE40BF50B2F
S1134270661F771F881F991F1A9469F760957095B8
S1134280809590959B01AC01BD01CF010895EE0F7F
S1134290FF1F0590F491E02D19940F93083090F0CE
S11342A0982F872F762F652F542F432F322F2227B5
S11342B00850F4CF220F331F441F551F661F771F6A
S11342C0881F991F0A95B2F70F91089597FB10F86C
S11342D0169400080F93083098F00850232F342FB9
S11342E0452F562F672F782F892F902DF4CF0594C3
S11342F0979587957795679557954795379527951A
S11343000A95AAF70F9108952A193B094C095D09EA
S11343106E097F09800B910B0895FB01DC0102C03B
S113432001900D9241505040D8F70895DC0101C02E
S11343306D9341505040E0F70895CF93DF93CDB78C
S1134340DEB7FE01369661917191AF018091070746
S11343509091080703D0DF91CF9108952F923F9257
S11343604F925F926F927F928F929F92AF92BF9281
S1134370CF92DF92EF92FF920F931F93CF93DF932D
S1134380CDB7DEB72C970FB6F894DEBF0FBECDBF06
S11343907C016B018A01FC0117821682838181FFF3
S11343A0B0C1CE0101964C01F7019381F60193FD52
S11343B0859193FF81916F01882309F49EC1853211
S11343C039F493FD859193FF81916F01853221F436
S11343D0B70190E0C7D1E8CF512C312C20E0203236
S11343E0A0F48B3269F030F4803259F0833269F4EE
S11343F020612CC08D3239F0803339F4216026C01D
S11344002260246023C0286021C027FD27C030ED2E
S1134410380F3A3078F426FF06C0FAE05F9E300D7C
S11344201124532E13C08AE0389E300D1124332EEC
S113443020620CC08E3221F426FD5FC1206406C0C8
S11344408C3611F4206802C0883641F4F60193FDDD
S1134450859193FF81916F018111C1CF982F9F7D29
S11344609554933028F40C5F1F4FFFE3F9830DC07C
S1134470833631F0833771F0833509F057C021C09A
S1134480F801808189830E5F1F4F44244394512C8B
S1134490540114C03801F2E06F0E711CF801A080C1
S11344A0B18026FF03C0652D70E002C06FEF7FEF7F
S11344B0C5012C874CD12C0183012C852F77222E0A
S11344C016C03801F2E06F0E711CF801A080B180B3
S11344D026FF03C0652D70E002C06FEF7FEFC501BA
S11344E02C872AD12C012C852068222E830123FCC1
S11344F019C0832D90E048165906A0F4B70180E254
S113450090E030D13A94F5CFF50127FC859127FE50
S113451081915F01B70190E025D131103A94F1E027
S11345204F1A51084114510479F7DEC0843611F052
S1134530893631F5F80127FF07C0608171818281D6
S113454093810C5F1F4F08C060817181882777FDBC
S11345508095982F0E5F1F4F2F76B22E97FF09C0BC
S113456090958095709561957F4F8F4F9F4F2068F0
S1134570B22E2AE030E0A40127D1A82EA81843C007
S1134580853729F42F7EB22E2AE030E025C0F22FA1
S1134590F97FBF2E8F36C1F018F4883579F0ADC09D
S11345A0803719F0883721F0A8C02F2F2061B22E50
S11345B0B4FE0DC08B2D8460B82E09C024FF0AC040
S11345C09F2F9660B92E06C028E030E005C020E198
S11345D030E002C020E132E0F801B7FE07C060819C
S11345E07181828193810C5F1F4F06C0608171814C
S11345F080E090E00E5F1F4FA401E6D0A82EA8181B
S1134600FB2DFF77BF2EB6FE0BC02B2D2E7FA514DE
S113461050F4B4FE0AC0B2FC08C02B2D2E7E05C097
S11346207A2C2B2D03C07A2C01C0752C24FF0DC0CD
S1134630FE01EA0DF11D8081803311F4297E09C049
S113464022FF06C07394739404C0822F867809F005
S1134650739423FD12C020FF06C05A2C731418F45F
S1134660530C5718732C731460F4B70180E290E074
S11346702C8778D073942C85F6CF731410F43718E4
S113468001C0312C24FF11C0B70180E390E02C87D6
S113469069D02C8522FF16C021FF03C088E590E075
S11346A002C088E790E0B7010CC0822F867851F0F1
S11346B021FD02C080E201C08BE227FD8DE2B7013B
S11346C090E050D0A51430F4B70180E390E04AD0D4
S11346D05A94F8CFAA94F401EA0DF11D8081B70130
S11346E090E040D0A110F6CF332009F45DCEB7019D
S11346F080E290E037D03A94F7CFF7018681978132
S113470002C08FEF9FEF2C960FB6F894DEBF0FBE5A
S1134710CDBFDF91CF911F910F91FF90EF90DF906C
S1134720CF90BF90AF909F908F907F906F905F904D
S11347304F903F902F900895FC0105906150704078
S11347400110D8F7809590958E0F9F1F0895FC0156
S11347506150704001900110D8F7809590958E0FAC
S11347609F1F08950F931F93CF93DF93182F092F43
S1134770EB018B8181FD03C08FEF9FEF20C082FF8F
S113478010C04E815F812C813D81421753077CF418
S1134790E881F9819F012F5F3F4F3983288310837C
S11347A006C0E885F985812F1995892B29F72E8173
S11347B03F812F5F3F4F3F832E83812F902FDF91C7
S11347C0CF911F910F910895FA01AA27283051F132
S11347D0203181F1E8946F936E7F6E5F7F4F8F4F2E
S11347E09F4FAF4FB1E03ED0B4E03CD0670F781F8D
S11347F0891F9A1FA11D680F791F8A1F911DA11D72
S11348006A0F711D811D911DA11D20D009F46894AA
S11348103F912AE0269F11243019305D3193DEF652
S1134820CF010895462F4770405D4193B3E00FD008
S1134830C9F7F6CF462F4F70405D4A3318F0495DF3
S113484031FD4052419302D0A9F7EACFB4E0A695D6
S11348509795879577956795BA95C9F700976105F8
S1134860710508959B01AC010A2E0694579547954E
S113487037952795BA95C9F7620F731F841F951F43
S10B4880A01D0895F894FFCF78
S11348880102FFFFFF220100010119031903490373
S1134898FF0101FF0000000200000000CA0A000036
S11348A8000001002A2A2A2A2A2A2A2A2A2A2A2A03
S11348B8726563656976652061636B2A2A2A2A2AE8
S11348C82A2A2A006368616E6E656C3A25640A00B8
S11348D86E6F2061636B00636F756E743A25642094
S10F48E82020525353493A25640A000072
S9030000FC
