:020000040800F2
:1000000000C00020090B0008070B0008050B0008C2
:10001000050B0008050B0008050B00080000000098
:10002000000000000000000000000000070B0008B6
:10003000070B000800000000070B0008070B000872
:10004000050B0008050B0008050B00083506000825
:10005000050B0008050B0008050B0008050B000840
:10006000050B0008050B0008050B0008050B000830
:10007000050B0008050B0008050B0008050B000820
:10008000050B0008050B0008050B0008050B000810
:10009000050B0008050B0008050B0008050B000800
:1000A000050B0008050B0008050B0008050B0008F0
:1000B000050B0008050B0008050B0008050B0008E0
:1000C000050B0008050B0008050B0008050B0008D0
:1000D000050B0008050B0008050B0008050B0008C0
:1000E000050B0008050B0008050B0008050B0008B0
:1000F000050B0008050B0008050B0008050B0008A0
:10010000050B0008050B0008050B0008050B00088F
:10011000050B0008050B0008050B0008050B00087F
:10012000050B0008050B0008050B0008050B00086F
:10013000050B0008050B0008050B0008050B00085F
:10014000050B0008050B0008050B0008050B00084F
:10015000000000000000000000000000000000009F
:10016000000000000000000000000000000000008F
:10017000000000000000000000000000000000007F
:10018000000000000000000000000000000000006F
:10019000000000000000000000000000000000005F
:1001A000000000000000000000000000000000004F
:1001B000000000000000000000000000000000003F
:1001C000000000000000000000000000000000002F
:1001D000000000000000000000000000000000001F
:1001E000000000000000000000000000000000000F
:1001F00000000000000000000000000000000000FF
:1002000000000000000000000000000000000000EE
:1002100000000000000000000000000000000000DE
:1002200010B40122EFF3108382F31088032805D85D
:10023000104A111891F88210FF2904D0052083F389
:10024000108810BC704792F881108842F6D092F85E
:100250008040FF2C08D00329F0D8511881F8820083
:1002600082F881000020EAE782F8800082F88100AD
:100270000020E4E700000020F0B40123EFF3108534
:1002800083F310888022C4F2052200241460EFF367
:10029000108783F3108842F61C06C4F2000642F66B
:1002A00018033468C4F200031A68A6B246EA02438F
:1002B00087F310881F1A8F4228D27C1C8C4225D0CD
:1002C00009181D48C0F80811902342F6200442F690
:1002D0002400C4F205230E0CC4F20000C4F2000492
:1002E00089B201271F609422266001600020C4F2B9
:1002F000052218601368002BFCD00421C4F20521EC
:1003000001220A6085F31088F0BC704742F614029F
:10031000C4F200021668052E0CD98027C4F2052706
:100320003C68211C18BF0121013303485918C0F84B
:100330000811C9E70121F7E70000002070B53A4A2B
:1003400092F8143103F00201CDB235B1D2F80C416C
:10035000D2F81011051B8D422ED292F82031324D69
:1003600003F00201C9B231B1D5F81841D5F81C111A
:10037000061B8E4234D292F82C312B4D03F0020131
:10038000C9B231B1D5F82441D5F82811061B8E42E7
:100390002AD292F83831244A03F00201C9B231B1AD
:1003A000D2F83041D2F83411001B884220D201200B
:1003B000BDE87040FFF734BF002002F58672DB070E
:1003C0001AD5117A6FF341011172C0B2022816D00A
:1003D000032825D001281DD00020FFF721FFE6E7E4
:1003E000012005F58C72EAE7022005F59272E6E736
:1003F000032002F59872E2E763181360E5E748F21C
:100400008413C4F221231A68D2F1010138BF0021FC
:100410001960CCE70320FFF703FF48F28813F0E7E9
:1004200048F28013EDE700BF0000002008B5124B32
:1004300093F83C213AB9D3F80801D3F8401183F876
:100440003C21FFF719FF0120EFF3108180F31088A2
:1004500042F61C0242F61803C4F20003C4F2000282
:100460001268186881F3108891B241EA0040BDE833
:100470000840FFF763BF00BF0000002070B40123F5
:10048000EFF3108183F3108842F61C02C4F20002DD
:1004900042F618041068C4F20004256883B243EAE7
:1004A000054081F310880121EFF3108481F3108857
:1004B000042584230022C4F20525C4F205232A6002
:1004C0001A6084F310882D4B93F8141101F0020484
:1004D000E5B2002D4BD0D3F80C21D3F81041851A8A
:1004E000621B6FF00041511A18BF012193F820518F
:1004F000224C05F00205EDB24DB1D4F81861D4F8E4
:100500001C51841B2D1BAA42C4BF2A46012193F80B
:100510002C511A4C05F00205EDB24DB1D4F824610E
:10052000D4F82851841B2D1BAA42C4BF2A4601219E
:1005300093F83851114C05F00205EDB29DB1D4F895
:100540003061D4F83451841B2C1B94420BDA2246C0
:10055000002A10DD1146C3F84021012283F83C2116
:1005600070BCFFF789BE0029F2D170BC70472946E4
:100570006FF00042BAE770BCFFF7E0BE0000002059
:1005800030B40123EFF3108583F3108842F61C0288
:1005900042F61803C4F20002C4F2000314681B6898
:1005A00085F31088094A00EB4000A4B2800044EAB9
:1005B0000344145013181A7A012002F0FE0242F08C
:1005C000020259601A7230BCFFF72ABE0C010020EB
:1005D00010B5174B93F88040FF2C1FD01A1992F8D2
:1005E00082001919FF2808BF83F8810083F8800072
:1005F000FF23012C81F8823016D00BD24FF4C67144
:10060000C4F221210A680120D2F1010338BF00237E
:100610000B6010BD022C03D0012010BD002010BDC6
:10062000FFF704FF012010BDFFF728FF204610BD93
:100630000000002088236846C4F2052320F007014B
:100640001A688D4601B52AB100201860BDE8014046
:10065000854670470121EFF3108081F31088042153
:100660008423C4F20521C4F205230A601A6080F3D2
:1006700010880220FFF7D4FDE8E700BF2DE9F04F16
:1006800001258BB0EFF3108385F31088BE4C4FF437
:10069000E065FF210422C0F2FA5504F182000993BB
:1006A00000F09AF9019540F6FF05C0F23D0502956C
:1006B0000425C4F2010503951025C0F2002500951C
:1006C0004FF44075C4F24225049540F60405C4F287
:1006D0000105059540F60445C4F2010506954FF461
:1006E0008055C4F20105079541F20405C4F20105E5
:1006F00008954FF0FF3584F8805084F881504EF60D
:100700000C5A019DCEF2000A4FF48059CAF80050ED
:10071000C4F2020941F204084EF210004EF2180C25
:100720004FF0810AC9F800A00023CEF20000012595
:10073000C4F20208CEF2000C4FF08009C8F8009015
:100740004EF214070360CCF80050029DCEF2000771
:100750003D6041F2180605270760C4F202063D20FD
:100760003060039D009E049F2E600598069E079DA5
:100770004FF400614FF44062C4F20102C4F201017F
:100780003B604FF4A05B0B6041F2044E03601360CA
:1007900033602B60089FC4F2010BC4F2010E3B6072
:1007A000CBF80030CEF800300B684FF4C67023F45D
:1007B000704646F480550D60C4F2212001684FF464
:1007C0004167D1F1010338BF002303601068C4F210
:1007D000010720F4706646F48075042115603960C5
:1007E0001368022523F0F00040F0100616603D600B
:1007F00013684EF6105123F00F0040F0010616600A
:1008000001223A60CEF2000110270F60FFF7E0FEF0
:100810000028FBD14FF47C7720264FF488614FF4F9
:1008200080650123C4F24221C4F24227C4F20E269D
:10083000C4F2422540F204423B60C4F242223360DB
:100840000B6008602B60106860B94FF4C677C4F283
:1008500021273E68D6F1010138BF002139601568B3
:10086000002DF6D04FF484670122C4F2422740F2F3
:100870003C40902342F60C063A60C4F20523C4F2D1
:100880004220C4F2000694211F2500270260C4F212
:1008900005211A6035601F6008680028FCD0082612
:1008A0000123C4F205264FF461454EF2034748F296
:1008B000441148F2C4023360CEF20005CEF20007C4
:1008C000C4F22021C4F220220820102628603E70A5
:1008D0000B601360FFF77CFE0028FBD1099B83F3BC
:1008E00010884FF4BF71FFF74BFE0120FA21FFF78C
:1008F00047FE02204FF4FA71FFF742FE03204FF447
:100900007A71FFF73DFE4FF0400841F21C0741F2BB
:10091000180541F2140B4EF61056DFF86CA0C4F225
:100920004228C4F20207C4F20205C4F2020BCEF25E
:1009300000060122EFF3108182F3108894F88030D2
:10094000FF2B23D0E01890F88220FF2A08BF8AF8F6
:10095000812084F88020FF20E21882F8820081F351
:100960001088012B35D00AD24FF4C671C4F2212170
:100970000B68D3F1010238BF00220A60D9E7022BCD
:10098000D7D1FFF753FDD4E7000000201020D8F89E
:10099000003073B93A6832F080520AD12B6823F4E0
:1009A000FF7222F0010323B9DBF80020142A08BFEC
:1009B00032602B6823F4FF7222F001022A6020BF0C
:1009C0002B6062B6306072B694F88030FF2BB9D1DC
:1009D000DDE7FFF753FDACE7F0B48407034600F012
:1009E0008D80541E002A00F08780E507CEB211D416
:1009F0001A4602F8016B13461546920710D0621E84
:100A0000002C79D003F8016B14469A071D4607D0D5
:100A1000013CEDE7034603F8016B9A071D46F7D149
:100A2000032C52D9CEB246EA06270F2C47EA0743D9
:100A30002DD9A4F1100217460F2FC2F300162B6018
:100A40006B60AB60EB6005F1100216D93EB1103F50
:100A5000136053609360D36010320F2F0DD9203F85
:100A600002F11006136053609360D3601361536109
:100A70009361D36120320F2FF1D8A4F1100222F03C
:100A80000F0204F00F041032032C15441DD9271F48
:100A90003E462A46032E42F8043BC7F380070DD991
:100AA00027B1043E032E42F8043B07D9174647F806
:100AB000043B083E53603A1D032EF7D8231F23F052
:100AC0000302131D04F00304ED18ACB1C9B2EA43EC
:100AD0002C1905F8011BA318A54203F001020BD045
:100AE0001AB105F8011BA54206D02B4603F8011BDD
:100AF00069705D1CA542F8D1F0BC704705461446EC
:100B00008EE700BFFEE770470023154915485A18C5
:100B1000824204D2144C1A595A500433F5E7134B4D
:100B20009A4203D2002042F8040BF8E7104C114A15
:100B3000944203D254F8041B8847F8E70E4C0F493F
:100B40008C4203D254F8042B9047F8E7FFF796FD48
:100B50000B4C0C48844203D254F8043B9847F8E706
:100B60000000002000000020880B00084401002045
:100B7000880B0008880B0008880B0008880B000809
:080B8000880B0008880B000837
:0400000508000B09DB
:00000001FF
