S01900006275696C642F7470615F63622F6D61696E2E737265638F
S11300002DC200004CC200004AC2000048C20000D9
S113001046C2000044C2000042C2000040C20000C8
S11300203EC200003CC200003AC2000038C20000D8
S113003036C2000034C2000032C2000030C20000E8
S11300400C94AA1C0C948C1C0C94961C0C94A01C50
S11300500C94751C24C2000022C2000020C20000BF
S11300601EC200000C94B91A1AC200000C94331B6F
S113007016C2000014C2000012C2000010C2000028
S11300800EC200000CC200000AC2000008C2000038
S11300900C94591C04C200000C946A1C00C2000099
S11300A0FEC10000FCC10000FAC10000F8C100005C
S11300B0F6C10000F4C10000F2C10000F0C100006C
S11300C0EEC10000ECC10000EAC10000E8C100007C
S11300D0E6C10000E4C10000E2C10000E0C100008C
S11300E0DEC100000C94451DDAC100000C94161DFD
S11300F00C94E51C0C94A71DD2C100000C94B41CF4
S11301000C94761D0C9435120C94C8120C940213A2
S11301100C942412C4C10000C2C10000C0C100007C
S1130120BEC10000BCC10000BAC10000B8C10000DB
S1130130B6C1000000000000000000000000000044
S113014000000000000000000000000000000000AB
S1130150000000000000000000000000000000009B
S1130160000000000000000000000000000000008B
S1130170000000000000000000000000000000007B
S1130180000000000000000000000000000000006B
S1130190000000000000000000000000000000005B
S11301A0000000000000000000000000000000004B
S11301B0000000000000000000000000000000003B
S11301C0000000000000000000000000000000002B
S11301D0000000000000000000000000000000001B
S11301E0000000000000000000000000000000000B
S11301F000000000000000000000000000000000FB
S113020000000000000000000000000000000000EA
S113021000000000000000000000000000000000DA
S11302203E1440148E135A148814B0140215331556
S113023050158015B815EB1505163D164C16751698
S1130240B316FB132114201C0B1CE01BD71BCE1B65
S1130250C41BC01BA81B00020E060C0400002110C6
S1130260422063308440A550C660E770088129911C
S11302704AA16BB18CC1ADD1CEE1EFF131121002C4
S113028073325222B5529442F772D662399318836C
S11302907BB35AA3BDD39CC3FFF3DEE36224433490
S11302A020040114E664C774A44485546AA54BB5BC
S11302B028850995EEE5CFF5ACC58DD55336722664
S11302C011163006D776F6669556B4465BB77AA70C
S11302D019973887DFF7FEE79DD7BCC7C448E558B0
S11302E08668A7784008611802282338CCC9EDD95C
S11302F08EE9AFF9488969990AA92BB9F55AD44A04
S1130300B77A966A711A500A333A122AFDDBDCCBAB
S1130310BFFB9EEB799B588B3BBB1AABA66C877CCF
S1130320E44CC55C222C033C600C411CAEED8FFDFB
S1130330ECCDCDDD2AAD0BBD688D499D977EB66EA3
S1130340D55EF44E133E322E511E700E9FFFBEEF4B
S1130350DDDFFCCF1BBF3AAF599F788F8891A9810D
S1130360CAB1EBA10CD12DC14EF16FE18010A100F7
S1130370C230E3200450254046706760B9839893E7
S1130380FBA3DAB33DC31CD37FE35EF3B102901247
S1130390F322D2323542145277625672EAB5CBA5B3
S11303A0A89589856EF54FE52CD50DC5E234C32497
S11303B0A01481046674476424540544DBA7FAB787
S11303C09987B8975FE77EF71DC73CD7D326F236E7
S11303D09106B01657667676154634564CD96DC9D3
S11303E00EF92FE9C899E9898AB9ABA94458654837
S11303F006782768C018E1088238A3287DCB5CDB27
S11304003FEB1EFBF98BD89BBBAB9ABB754A545A86
S1130410376A167AF10AD01AB32A923A2EFD0FEDF2
S11304206CDD4DCDAABD8BADE89DC98D267C076CD6
S1130430645C454CA23C832CE01CC10C1FEF3EFFC6
S11304405DCF7CDF9BAFBABFD98FF89F176E367E26
S1130450554E745E932EB23ED10EF01E11241FBE73
S1130460CFEFD1E8DEBFCDBF00E00CBF12E0A0E0CB
S1130470B2E0EAE8F6E400E00BBF02C007900D9298
S1130480A834B107D9F726E0A8E4B2E001C01D9270
S1130490A73EB207E1F70E94D81D0C944323B0CDC8
S11304A0CF92DF92EF92FF920F931F932FB7F8949E
S11304B04091D6028FB7F8947091E1006091E20008
S11304C05091E3003091E4008FBFC72ED62EE52E65
S11304D0F32E3091E00033FF10C04F5F8FB7F894D4
S11304E07091E1006091E2005091E3003091E400EA
S11304F08FBFC72ED62EE52EF32E2FBF642F70E0AC
S113050080E090E02AE1660F771F881F991F2A95E3
S1130510D1F79701860146E03695279517950795FB
S11305204A95D1F7602B712B822B932B1F910F913E
S1130530FF90EF90DF90CF900895FC01278130E089
S1130540322F22278681282B4FB7F89480910602F8
S1130550909107024FBF2817390729F02F3F3F4FCB
S113056011F080E00895258130E0322F2227848124
S1130570282B8FB7F894409105028FBF50E081E09B
S11305802417350779F380E0EDCFFC01228130E0B8
S1130590322F22278181282B25FF05C027743C7C1C
S11305A02134384811F080E00895278130E0322F5B
S11305B022278681282B8FB7F89440910602509108
S11305C007028FBF81E02417350771F380E0ECCF79
S11305D00F931F93FB01AFB7F8942FB7F894709162
S11305E0E1006091E2005091E3004091E4002FBFEC
S11305F0072F162F252F342FAF01BC014230510590
S11306006105710520F442E050E060E070E0400FC5
S1130610511F621F731F7093F4006093F300509393
S1130620F2004093F10082E08093E0008091DF00CB
S113063082608093DF008FEF80931302AFBF1F911E
S11306400F910895ECE5F2E06927660FF11DE60FBE
S1130650F11DC895982F802D3196C8959025089541
S1130660CF92DF92EF92FF920F931F93CF93DF937A
S1130670EC0180917902882351F085E0DF91CF91DC
S11306801F910F91FF90EF90DF90CF90089580918C
S11306909C02853091F780919D038111EECF8CA54A
S11306A083FF29C08FA58F709091D902891721F0FB
S11306B08093D902809345018A8190E0982F8827FE
S11306C02981822B87749C7C81349848E1F089E0ED
S11306D0809342018CA5488185FD0FC000E010E0A5
S11306E040938001809141018F71893011F186E03E
S11306F080934201C2CF80E0D7CF8BEF840F8E016D
S1130700080F111DEDCF209146012F7130E040916B
S1130710B8048091720290E0840F911D959587959D
S11307209595879595958795821793070CF4A5CF92
S1130730CECF8CA582FF70C08DA5882309F47DC01F
S113074080914D018C7F816080934D01A198BE0101
S11307506F5F7F4F42508FB7F894EFB7F894509182
S1130760E1003091E2002091E3009091E400EFBFBA
S1130770C52ED32EE22EF92E92E0909342018FBF24
S11307808BE0C80ED11CE11CF11C0115110509F404
S11307905CC0F8012081818190E0A0E0B0E0DC0140
S11307A099278827B22B2381822B2281922B8C19A3
S11307B09D09AE09BF0983839283A183B08350E06E
S11307C081E891E00E948E2086E080934201F80146
S11307D08081418150E060E070E0BA0155274427F0
S11307E0782B8381482B8281582B4C0D5D1D6E1D07
S11307F07F1D43835283618370838CA582608CA7A1
S1130800C8A6D9A6EAA6FBA686E080939C0284E04B
S11308108093790280E032CF8FB7F89490910102EF
S11308208FBF937080914D018C7F892B80934D01F4
S1130830923009F08BCFA19A8ACF80914D018C7FA1
S1130840826080934D01A19A82CF50E081E891E0CB
S11308500E948E2086E080934201CFCFCF92DF9218
S1130860EF92FF920F931F938FB7F8945091E1008A
S11308704091E2003091E3002091E4008FBF852F86
S1130880942FA32FB22F20916903222309F470C05F
S1130890409161035091620360916303709164031A
S11308A06C017D01C41AD50AE60AF70A00916503B2
S11308B0109166032091670330916803C016D10636
S11308C0E206F30608F463C0040F151F261F371F42
S11308D000936103109362032093630330936403D2
S11308E010926503109266031092670310926803D6
S11308F000E010E098014FB7F894E090E100F09028
S1130900E200F091E300E091E4004FBFA7016F2FF4
S11309107E2F4E5F5F4F6F4F7F4F6A017B01C81A76
S1130920D90AEA0AFB0AC016D106E206F30630F435
S1130930B901A801480F591F6A1F7B1F7093F80063
S11309406093F7005093F6004093F50081E08093A4
S1130950E0008091DF0081608093DF008FEF80935F
S113096013021F910F91FF90EF90DF90CF900895A5
S11309708091DF008E7F8093DF008FEF80931302DE
S11309801F910F91FF90EF90DF90CF900895809387
S1130990610390936203A0936303B09364030C19FF
S11309A01D092E093F0900936503109366032093E4
S11309B067033093680337FF9ECF369527951795C5
S11309C0079599CFCF92DF92EF92FF920F931F93E7
S11309D067DD009194021091950220919602309166
S11309E09702C0909002D0909102E0909202F09011
S11309F09302C00ED11EE21EF31E60177107820718
S1130A00930708F464C0C016D106E206F30608F0A2
S1130A1063C097018601061B170B280B390B0130A5
S1130A201105210542E0340708F477C06B017C010D
S1130A304EEFF41AC0929402D0929502E09296027C
S1130A40F0929702325000939002109391022093F7
S1130A5092023093930200E010E020E030E8DC01E1
S1130A60CB01880F991FAA1FBB1F880F991FAA1FAC
S1130A70BB1F880F991FAA1FBB1F880F991FAA1F8E
S1130A80BB1F880F991FAA1FBB1F880F991FAA1F7E
S1130A90BB1F8093610390936203A0936303B0939D
S1130AA064030093650310936603209367033093F4
S1130AB0680381E08093690380916A03882331F19C
S1130AC01F910F91FF90EF90DF90CF900895C01683
S1130AD0D106E206F30630F46C157D058E059F05FC
S1130AE008F497CF00E010E09801C0929402D092ED
S1130AF09502E0929602F092970210929002109260
S1130B0091021092920210929302A9CF1F910F9119
S1130B10FF90EF90DF90CF90A1CEE6E0000F111F81
S1130B20221F331FEA95D1F7E0CF8091980290916C
S1130B309902892B11F085E0089581E090E090936B
S1130B40A2048093A1048BE892E09093990280938D
S1130B509802109284021092830281E080938502AD
S1130B608091C00080648093C0008091C100806443
S1130B708093C10080918302909184029C012F5F35
S1130B803F4F3093840220938302FC01E557FD4FCD
S1130B9080819FB7F8948093C6008091C0008064E0
S1130BA08093C0009FBF80E0089593E8980F92302F
S1130BB018F080938B02B9CF90915002916090937A
S1130BC0500290E29827909374028DE780938B02F1
S1130BD0ACCF9FB7F894809150028E7F80935002DF
S1130BE08EE780938B029FBFA0CF9FB7F89480912C
S1130BF001068F3F19F085E09FBF0895E091FE053F
S1130C00E230C9F38091FD058F3F61F0E33198F73D
S1130C10F0E0E150FA4F82E080838093FE0580E0AB
S1130C209FBF089582E08093FD058093FE0580E0D8
S1130C30F7CFBC014FB7F89480915E0390915F03A6
S1130C409C012F5E3E4F30935F0320935E034FBFA2
S1130C502FB7F89430910F063F3F29F02FBF0E9421
S1130C60122044960895E091FE05E031B9F33091E5
S1130C70FD053F3F71F0E33188F7F0E0E150FA4FB2
S1130C8030E130833093FE052FBF0E94122044963A
S1130C90089530E13093FD053093FE05DFCF8FB723
S1130CA0F89490918602992311F08FBF08952FB77D
S1130CB0F894909104069F3F49F095E02FBF91115D
S1130CC0F4CF91E0909386028FBF0895E091FE05E2
S1130CD0E53099F39091FD059F3F59F0E33168F7B2
S1130CE0F0E0E150FA4F95E090839093FE0590E098
S1130CF0E5CF95E09093FD059093FE0590E0DECF5F
S1130D009091550291113AC0811138C041E040934D
S1130D105502809110028093540230916202832F15
S1130D2081708093730280910A0290910B029093D8
S1130D305302809352028091610280935102809108
S1130D40700280939904232F21702427367EE22F8A
S1130D50F0E0EE0FFF1FE45FFD4F808191819093DF
S1130D600B0280930A02322B309362028FB7F894FD
S1130D70909109069F3F71F08FBF089580916202A0
S1130D8080FF04C08B7F8093620208958D7F8093DF
S1130D9062020895E091FE05EA3071F39091FD0539
S1130DA09F3F51F0E33140F7F0E0E150FA4F9AE011
S1130DB090839093FE05E0CF9AE09093FD05909385
S1130DC0FE05DACF809167028A3021F081E08093BA
S1130DD063020895809178028430C1F78FB7F89444
S1130DE0909106069F3F21F08FBF109263020895F1
S1130DF0E091FE05E730C1F39091FD059F3F51F06E
S1130E00E33190F7F0E0E150FA4F97E0908390934C
S1130E10FE05EACF97E09093FD059093FE05E4CF9D
S1130E201F93CF93DF93C82FD62F909178029130E0
S1130E3009F4AFC008F496C0923009F448C0933066
S1130E4009F06BC0109159031F3F09F466C0882351
S1130E5009F4DAC0123008F43DC08091CD0281114A
S1130E602AC12091D10230E0322F222781E090E084
S1130E70FC01E353FD4F8281282B809168029091FD
S1130E8069028217930731F580E03ADF80919A0274
S1130E90843409F434C11092CE021092CD0284E05D
S1130EA0809378021092590310929A021092600370
S1130EB01092690210926802809150028D7F809393
S1130EC0500280916302882309F448C022C0882319
S1130ED009F48BC01092CE021092CD0284E080936C
S1130EE078021092590310929A02109260031092A1
S1130EF0690210926802809150028D7F80935002A3
S1130F0081E0FEDE80916302882329F184E08093EE
S1130F107802DF91CF911F9155CF1092CE0210929B
S1130F20CD0284E0809378021092590310929A02C1
S1130F30109260031092690210926802809150022C
S1130F408D7F8093500281E0DBDE8091630281110A
S1130F50DDCFCC2319F081E080937802DF91CF912B
S1130F601F9108958823D1F31092CE021092CD02DE
S1130F701092590310929A0210926003109269021F
S1130F801092680281E080937802DF91CF911F91E3
S1130F9008958111E3CF809168029091690252DB38
S1130FA0909369028093680282E080937802D093E0
S1130FB09A028DEB8D0F833008F0AFCF80916202DF
S1130FC080FD70C081FDA9CF826080936202809110
S1130FD06202877E886080936202D09370021092CE
S1130FE061028FEF80931002B9CF60936003809108
S1130FF068029091690226DB9093690280936802EB
S113100083E080937802AACF1230E0F12091CE02DF
S1131010E22FF0E0E353FD4F628130916202832FAF
S1131020869586958695837090E08130910509F4C4
S113103054C00297C9F4809161028832A8F4E09107
S11310400A02F0910B02E80FF11D608380916102A6
S11310508F5F809361022091CE02E22FF0E0E35390
S1131060FD4F6281109159032F5F233098F520932F
S1131070CE028091680290916902E4DA9093690249
S1131080809368028091CD02E82FF0E0E353FD4F96
S1131090D2838F5F833060F01092CD021F5F109374
S11310A059035CCF82FD39CF8460809362028FCF75
S11310B08093CD02F3CF9FEF980FE92FF0E0E35335
S11310C0FD4F228130E0322F2227911135C082E07A
S11310D090E0CECE1092CE02CCCF80917002377EBB
S11310E0306130936202833431F085E08093610291
S11310F060931002B9CF85E080936102B5CF20914F
S11311006003E0919C0630919D0681E08E0F86304D
S113111070F4982F391709F4BECEF0E0E456F94F75
S11311202283863030F480939C06B9DDB4CE90E0FF
S1131130F1CF10929C06F9CF825090E099CE9FB7E0
S1131140F89480914902823019F09FBF81E008959C
S1131150809102028111F9CF809104028F3F79F1CD
S1131160E82FF0E0E258FD4F2081209304022F3F46
S113117019F12FEF20838093020281E080934902CA
S11311808FB7F89420910B062F3F21F08FBF9FBF9C
S113119080E00895E091FE05EC30C1F32091FD0557
S11311A02F3F91F0E33190F7F0E0E150FA4F2CE05B
S11311B020832093FE05EACF20930302DACF8093A5
S11311C0020210924902E3CF2CE02093FD05209304
S11311D0FE05DCCF9FB7F894809167028A3039F01E
S11311E080917802843019F09FBF89E0089580913E
S11311F011028823C9F39FBF8FB7F8949091050615
S11312009F3F19F08FBF80E00895E091FE05E6301E
S1131210C9F39091FD059F3F51F0E33198F7F0E059
S1131220E150FA4F96E090839093FE05EBCF96E061
S11312309093FD059093FE05E5CF10921202E09184
S1131240D402F091D502309721F08091B90480FF47
S113125004C081E0809312020895858190E0982F64
S113126088272681822B71857D3148F08FB7F894C9
S1131270909103069F3F09F46FC08FBF0895868342
S1131280958313A680A5843409F47AC065E481A506
S1131290882309F45FC052A5852F90E09C01359501
S11312A02795359527953595279535952795237059
S11312B040E1249F90011124082E892F000C881FDF
S11312C0990B000C881F991F482F4295440F440F17
S11312D0407C422B5F70452B11A680915D0290915A
S11312E05E02892B19F68FB7F8941092560295E096
S11312F090935B0210925A02F0936002E0935F02B3
S113130022E030E030935E0220935D021092580296
S113131010925902745F70935C028FBF9FB7F89468
S1131320809167028A3071F19FBF9FB7F8948091D2
S1131330950681112DC081E0809395064093960611
S1131340609357039FBF81112BC010925E021092CD
S11313505D028CCF40E0C1CFE091FE05E43009F49A
S11313608CCF9091FD059F3FA9F0E33108F085CF24
S1131370F0E0E150FA4F94E090839093FE057DCF26
S113138064E485CF9FBF10925E0210925D026ECF1F
S113139080E0D8CF94E09093FD059093FE056DCF47
S11313A07ECC3F924F925F926F927F928F929F92E8
S11313B0AF92BF92CF92DF92EF92FF920F931F935F
S11313C0CF93DF93FF24F394BEE0CB2ECDE0AC2E7D
S11313D0D4E0ED2EDD24DA9413E0B12E0DE5702E69
S11313E086E0682E90E8992E22E0822E23C0893070
S11313F009F4C9C19FEF980F933008F4FAC08730FD
S113140009F41BC1883009F40BC18823D9F08091F9
S11314107502823009F4D6C0809156038230A9F156
S11314208FB7F89490917B02913009F475C0F092D3
S11314307B028FBF80919D03811183C080917902CB
S11314408111D5CF80919C02853009F780919D034D
S11314508111DDCF809176028111D9CF80918202F2
S11314608111D5CF809156038111D1CF8091810212
S1131470823069F6F09281028FB7F89490910D064C
S11314809F3F09F41FC48FBFC2CF109256038091AF
S11314909B02813029F66091D2027091D3028FB7FA
S11314A0F8945091E1004091E2003091E3002091E2
S11314B0E4008FBF852F942F20918202203809F4F5
S11314C096C12B01481A590A27FD6EC1C0917F02AB
S11314D0D091800280917602882309F48BC3822FF5
S11314E015E08F77813009F4C1C327FD67C31092DB
S11314F082021093BA04F09281028FB7F89490910B
S11315000D069F3F09F445C38FBF8FB7F8949091A0
S11315107B02913009F08BCF10927B028FBFDF9159
S1131520CF911F910F91FF90EF90DF90CF90BF90DC
S1131530AF909F908F907F906F905F904F903F906F
S113154008958FB7F8943091E9004091EA005091E2
S1131550EB006091EC0020919D0310929D038FBFDE
S11315608091790227FD00C1843009F478C025FFF9
S113157006C0863009F4D8C0882309F4D7C0853062
S113158009F4E1C020FF05C090919C02923009F457
S113159036C123FF55CF863009F052CF80915501D3
S11315A08F77809355011092790280914101877061
S11315B009F448CF8091410180919C02853009F063
S11315C026CF44CF1092750280916C03811124CFF1
S11315D010927602109282021092BA04E092810272
S11315E08FB7F89490910D069F3F09F4EBC08FBF1D
S11315F013CF2EEF280F223008F434C1923009F0B3
S113160060C1813009F41DC1823009F0FBCE8091A4
S11316109C02833009F0FBCE10924E01D09213024B
S1131620109279028FB7F89490910C069F3F09F4B9
S11316308AC18FBF80917902E8CE80919C0281306B
S113164079F38091920680648093480180919C0292
S1131650853031F7E0929C0280917902D3CE21FF4C
S113166091CF9FB7F894809148029FBF882321F0BF
S1131670823009F4BDC2A19885E080939C02109247
S1131680790280917602833009F4E9C2E091A406DC
S1131690F091A506828190E0982F88277181872B8D
S11316A085FFB5C087749C7C8134984809F0AFC02D
S11316B0878190E0982F88277681872B019609F4FB
S11316C0A6C0809175028111A2C010926C03F092A1
S11316D075027FB7F8948FB7F894D091E100C09168
S11316E0E200F091E300E091E4008FBF8D2F9C2F86
S11316F0AF2FBE2FCE96A11DB11DB093F000A093C5
S1131700EF009093EE008093ED00E092E000809172
S1131710DF0084608093DF00D09213027FBF809249
S113172076028091790223CF10927902203209F453
S1131730E3C0E091DA06F091DB0684A5897E84A7F4
S113174085E08093790224FF3AC08091460190910C
S1131750B8048F71890F96959695891B8093B80468
S113176089E0809379020ECF982F9B7F933009F400
S113177061C08A3009F0F8CE85E080939C02109213
S1131780790280E0F4CE40917B018091460187FD8F
S1131790EEC085E080939C021092790280919C02B5
S11317A0853009F034CE52CE141415040CF08ECECC
S11317B0822F8F77813009F459C215E003C28091DA
S11317C07902E0CEE091FE05EE3009F410CF90915D
S11317D0FD059F3F09F42DC3E33108F008CFF0E085
S11317E0E150FA4FC082C092FE058FBF15CE109211
S11317F0820280918102823009F012CE7CCE9EEF6B
S1131800980F923008F0C5CEB0929C02C2CE1092CE
S11318107602109282021092BA04E09281028FB78B
S1131820F89490910D069F3F09F406C28FBF8091F2
S113183079029DCE85E080939C0288E080937902B2
S113184096CE90919C02933009F0E1CD90934D0196
S1131850999AA1989091390192609093390180935B
S11318609C02DECE20919C02213009F4D5C1833044
S113187009F0C4CE233009F0C1CE80919206806471
S11318808093480170924E01D09213028FB7F8945E
S1131890F0926B038FBF9FB7F894809148029FBF6B
S11318A0882309F4F9C180934D0190914A01907FF6
S11318B0976090934A01999A823009F401C2A198E1
S11318C0F3C190919C02953009F09BCEB0924D01EA
S11318D0999AA1988FB7F89410926B038FBFB09226
S11318E0420110924E0110929D03D0921302B092C5
S11318F09C028091790285CE809146018F7170910E
S11319007202982F970F76957695971B9093720293
S1131910E091DA06F091DB0694A5792F726074A742
S113192030A741A752A763A730914D0132FD58C19A
S113193034B3369531703F2535A79660977F906113
S113194094A787A7FDCEE091FE05ED3009F471CE92
S11319509091FD059F3F09F472C2E33108F069CE0E
S1131960F0E0E150FA4FA082A092FE0562CE8DEF26
S1131970840F873208F00DCF8091DA069091DB0650
S1131980FC014193CF01425050E060E871E00E94B5
S11319908E200091DA061091DB06D80111968C9105
S11319A08770823009F489C2F801808182508B30BB
S11319B008F4EFCE9FB7F894809108029FBF81117D
S11319C082C29FB7F89481E020919804233008F0F4
S11319D080E09FBF882309F4DCCE809176020091D9
S11319E0DA061091DB06E0917B01F0E0E058FE4F4F
S11319F090812801D8019E969C939E9795E09093A0
S1131A009C021092790211969C91119797709230D2
S1131A1009F479C1882309F4ABC18FB7F8943091E4
S1131A20E1002091E2009091E3009091E4008FBFE7
S1131A30C901C92FD82FC8010E94C5028111E69699
S1131A40D093D302C093D2028FB7F8945091E1009F
S1131A504091E2003091E3002091E4008FBF852F94
S1131A60942FBE01681B790B161617064CF480914F
S1131A708202811144C180915603882309F401C272
S1131A80D80119966C91199770E0762F66271896ED
S1131A908C91682B20917702422F50E0FA01EE0FCF
S1131AA0FF1FED55FB4F808191816817790709F479
S1131AB095C190915803E3EAF4E0A7E9B6E020E089
S1131AC030E0312C80E0A901C191D1916C177D07E0
S1131AD009F4D4C14D91592F541B851710F4322E9B
S1131AE0852F2F5F3F4F2530310569F730927702FC
S1131AF0432D50E0FA01EE0FFF1FED55FB4F7183AC
S1131B0060839F5F90935803FA01E956F94F9083DD
S1131B10FA01E452F94F1082292F2F772F3709F455
S1131B2076C190E020E0D80113968C91FA019923B4
S1131B3009F4DDC0E656FB4F9081891719F18083C3
S1131B409FB7F894809198048330D8F4E091B50459
S1131B50E80FE33008F0E350F0E0EE0FFF1FE65922
S1131B60FD4F20813181118300838F5F809398041E
S1131B708FB7F89440910E064F3F09F465C18FBFAB
S1131B8029019FBF809179025092DB064092DA06C8
S1131B9039CCE091FE05EE3009F4B6CC9091FD0508
S1131BA09F3F09F465C1E33108F0AECCF0E0E150A9
S1131BB0FA4FC082C092FE058FBFA7CC141415043F
S1131BC00CF095CC90928202F0929B02F092560314
S1131BD0B201882777FD8095982F0E94E80289CC6E
S1131BE030914D01331F3327331F35A79660A6CE9E
S1131BF0A19A42CDCE010E943003182F811148C012
S1131C008CA58E7F8CA7F0927602D093A506C09304
S1131C10A406B092820204CCD0924F0190924E015D
S1131C20809139018D7F80933901D0921302809283
S1131C309C0280917902E5CCE091FE05EE3009F436
S1131C40F5CD9091FD059F3FB1F1E33108F0EECD64
S1131C50F0E0E150FA4FC082C092FE05E7CD109249
S1131C607602822F807225FD61CD8CCC2078226093
S1131C70209382028CE890E00E941906F0929B0265
S1131C80F0925603BC0180E090E00E94E802C8CBC9
S1131C9080918202282F25CCA0924D0180914A0187
S1131CA0807F836080934A0160924201E0929C02AB
S1131CB080917902A6CCC092FD05C092FE05B6CDF6
S1131CC0A19AF2CFE091FE05EE3009F4DCCB9091BD
S1131CD0FD059F3F09F410C1E33108F0D4CBF0E0D7
S1131CE0E150FA4FC082C092FE058FBF90CBE45200
S1131CF0F94F21602083FA01E656FB4F20CF80681C
S1131D0080938202BDCE823011F080E03DCFE0911D
S1131D10A406F091A50613969C9183819813F5CFA0
S1131D208091DF008B7F8093DF00D09213021092AA
S1131D307502E091A406F091A50684A5816084A7AC
S1131D4080917602882309F41DCF109276021092B6
S1131D5082021092BA04E09281028FB7F8949091B3
S1131D600D069F3F09F4B5C08FBF809179020CCF57
S1131D709FB7F894809109029FBF882309F44DCE40
S1131D80C8010E94C502882309F447CE85E08093E8
S1131D909D0280929E0210929F02F801838180939B
S1131DA0A0029FB7F894809101029FBF82FD76C084
S1131DB081E0F80195A5911101C080E08093CA02E9
S1131DC08091C90284608093C9028DE992E00E94E7
S1131DD03003811122CEB09276021FCE9091580327
S1131DE0FA01E956F94F8081891751F09F5F90936A
S1131DF058039083892F8F778F3769F0422F50E0F3
S1131E00FA01E452F94F2081922F91708CCE8F37D2
S1131E1008F487CE232DE7E9F6E0392F3078808166
S1131E208F6798133083319676E0EC39F707B9F76A
S1131E30E5CFC092FD05C092FE058FBFEDCAA0920A
S1131E40FD05A092FE05F5CBE091FE05EF3009F407
S1131E5096CE4091FD054F3F51F1E33108F08FCE0E
S1131E60F0E0E150FA4F4FE040834093FE0587CE07
S1131E70C092FD05C092FE058FBF47CB2093770229
S1131E80AFCFF0929B02F0925603882777FD80959E
S1131E90982F0E94E80290928202F2CD8170809382
S1131EA0CA028091C90284608093C9028ECF4FE038
S1131EB04093FD054093FE0562CE80917602823008
S1131EC009F067CC90CDC8010E949D02811179CDA3
S1131ED060CCE091FE05EE3009F446CF9091FD050B
S1131EE09F3F81F0E33108F03FCFF0E0E150FA4F3B
S1131EF0C082C092FE0538CFC092FD05C092FE0597
S1131F008FBF85CAC092FD05C092FE052DCF9FB735
S1131F10F89480917B02882329F0806880937B0267
S1131F209FBF089581E080937B029FBF3ACA9FB709
S1131F30F89480917B02815080937B02803811F069
S1131F409FBF089581E080937B029FBF2ACACF93ED
S1131F50DF931F92CDB7DEB79FB7F89480917B02D1
S1131F608F5F80937B029FBF80918102882341F021
S1131F7085E08983DCDF89810F90DF91CF9108951B
S1131F80809179028111F4CF80919C02853011F403
S1131F9089E0EFCF83E080937902B9DF85E0809315
S1131FA0810280E0E6CF70914B02472F7C3108F02C
S1131FB043C0272F30E0E7E5F5E08CE1DF011D9217
S1131FC08A95E9F721153105F9F050914D02A7E5FD
S1131FD0B5E080E090E008C07FEF740F6D93019648
S1131FE08217930768F4472FE52FF0E0E256FC4F81
S1131FF06081442399F35F5F5A3F71F750E0ECCF5F
S113200050934D0270934B022BE435E08FEF809395
S113201051058093500584E6809356058091D4023F
S11320209091D502892B29F19FB7F89480910A06E3
S11320308F3F61F09FBF0895E7E5F5E08CE1DF0194
S11320401D928A95E9F72CE130E0BFCFE091FE05BF
S1132050EB3081F38091FD058F3F09F459C0E331E2
S113206048F7F0E0E150FA4F8BE080838093FE055F
S1132070E1CF3093D5022093D4028CE180935405B0
S113208080911202882309F440C010921202109227
S1132090760580917305843409F477C075E48091E2
S11320A07405882399F160917505862F90E0AC0141
S11320B05595479555954795559547955595479504
S11320C04370B0E14B9FA0011124082E892F000C0E
S11320D0881F990B000C881F991F582F5295550F74
S11320E0550F507C542B6F70562B109274058091B1
S11320F05D0290915E02892B89F081E08093120247
S11321001092D5021092D4028FCF089550E0EFCFF1
S11321108BE08093FD058093FE058CCF8FB7F894F8
S11321201092560295E090935B0210925A023093FB
S1132130600220935F0222E030E030935E0220933D
S11321405D02109258021092590298E290935C0238
S11321508FBF8FB7F894909167029A30C1F08FBF08
S11321609FB7F89480919506811113C081E0809304
S1132170950650939606709357039FBF81110BC029
S113218010925E0210925D02B8CF74E488CF8FBFC4
S1132190F7CF80E0F2CF0C944F06CF93DF931F92DA
S11321A0CDB7DEB790914A02911104C090914B02D1
S11321B09D3718F52FB7F89490914B029A3FB0F4DD
S11321C030914C02E32FF0E0E256FC4F80833F5FF6
S11321D03A3FD1F030934C029F5F90934B022FBF54
S11321E080E090E00F90DF91CF9108952FBF8FEFA3
S11321F09FEF0F90DF91CF91089591E090934A0261
S11322008983D1DE8981D6CF10924C02E5CFCF935A
S1132210DF931F92CDB7DEB720911202211107C0C0
S11322202091D4023091D5022817390721F00F905C
S1132230DF91CF9108951092D5021092D402698350
S11322400E941D096981611107C080914B028111AF
S11322501EC010924A02EBCF8FB7F89490910A06F1
S11322609F3F11F08FBFE3CFE091FE05EB30D1F338
S11322709091FD059F3F79F0E331A0F7F0E0E15044
S1132280FA4F9BE090839093FE058FBFD0CF0F90C1
S1132290DF91CF9188CE9BE09093FD059093FE054E
S11322A08FBFC5CF4F925F926F927F92BF92CF92B2
S11322B0DF92EF92FF920F931F93CF93DF93EAED98
S11322C0F2E0C0E0D0E0B084B1FE13C040805180A1
S11322D062807380C480D580E680F7808B019C0186
S11322E004191509260937090C151D052E053F0586
S11322F060F521963996C330D10529F78FB7F89444
S1132300909101069F3F79F08FBFDF91CF911F918C
S11323100F91FF90EF90DF90CF90BF907F906F90E0
S11323205F904F900895E091FE05E23069F390913B
S1132330FD059F3FD9F1E33138F7F0E0E150FA4F62
S113234092E090839093FE05DFCFB0FC35C0D301BB
S1132350C2018C0D9D1DAE1DBF1D80839183A28380
S1132360B383C13009F446C0C23051F58091B6043C
S11323709091B7040196883E23E0920708F054C078
S11323809093B7048093B604809164028111B6CF10
S113239089E793E0892B09F4B1CF9091B604809139
S11323A0B70490937A0380937903A8CF92E0909333
S11323B0FD059093FE05A8CFE894B1F8B086D1CF7F
S11323C09FB7F8948091FF058F3F11F09FBF96CF80
S11323D0E091FE05EE23D1F38091FD058F3F49F195
S11323E0E331A0F7F0E0E150FA4F10821092FE05BD
S11323F09FBF84CF80915702882309F47FCF8FB782
S1132400F89460915A028FBF1092570210925E02A4
S113241010925D0280915F029091600220915802B7
S113242021116CCFF4DE6ACF1092B7041092B60477
S1132430ABCF1092FD051092FE059FBF5FCF8FB703
S1132440F89408958FBF08951F920F920FB60F92BC
S113245011248F938091D6028F5F8093D6028F913F
S11324600F900FBE0F901F9018951F920F920FB6EA
S11324700F9211240BB60F922F933F934F935F93B8
S11324806F937F938F939F93AF93BF93EF93FF9338
S11324908091DF008E7F8093DF008FEF80931302A3
S11324A081E080936A03809169038823C1F140919C
S11324B061035091620360916303709164038FB769
S11324C0F894F091E100E091E2003091E300209172
S11324D0E4008FBF8F2F9E2FA32FB22F841B950B49
S11324E0A60BB70B40916503509166036091670397
S11324F07091680384179507A607B70780F01092B8
S113250069038091900290919102A0919202B091FE
S11325109302892B8A2B8B2BC9F00E94E204109220
S11325206A030E942E04FF91EF91BF91AF919F9196
S11325308F917F916F915F914F913F912F910F9068
S11325400BBE0F900FBE0F901F9018958FB7F89485
S1132550909100069F3F11F08FBFE1CFE091FE05FF
S1132560E130D1F39091FD059F3F59F0E331A0F79D
S1132570F0E0E150FA4F91E090839093FE058FBF15
S1132580CECF91E09093FD059093FE058FBFC7CF0A
S11325901F920F920FB60F9211240BB60F922F9326
S11325A03F934F935F936F937F938F939F93AF93D7
S11325B0BF93EF93FF938091DF008D7F8093DF00C3
S11325C08FEF8093130278948FB7F8949091560309
S11325D0913019F492E0909356038FBF98DCFF91E9
S11325E0EF91BF91AF919F918F917F916F915F9187
S11325F04F913F912F910F900BBE0F900FBE0F90F4
S11326001F9018951F920F920FB60F9211240BB6BC
S11326100F922F933F934F935F936F937F938F9377
S11326209F93AF93BF93EF93FF938091DF008B7FD2
S11326308093DF008FEF8093130278948FB7F89420
S113264090917502913019F492E0909375028FBFC6
S11326505EDCFF91EF91BF91AF919F918F917F913C
S11326606F915F914F913F912F910F900BBE0F90FF
S11326700FBE0F901F9018959FB7F89480914A024F
S1132680813081F080914B02811104C09FBF81E0B1
S113269090E0089581E080934A029FBF84DC80E04B
S11326A090E008959FBF80E090E00895E82FF0E067
S11326B0EE0FFF1FEF54FB4F1182108291E09093B5
S11326C00002811108956D56734049F084E292E04E
S11326D09F938F930E949E200F900F90CDCF1092C6
S11326E0640208952F923F924F925F926F927F926D
S11326F08F929F92AF92BF92CF92DF92EF92FF920E
S11327000F931F93CF93DF9390E08331910508F0EB
S11327105FC0FC01E05FFE4F0C9448200E94500211
S11327202FB7F894109269032FBFEAEDF2E020E08E
S113273044244A94542C642CAFE77A2E308531FF1C
S11327401AC0C080D180E280F3804B015C018C18F8
S11327509D08AE08BF08C480D580E680F780C818FD
S1132760D908EA08FB08C414D504E604F7041CF4E9
S11327702601370121E0399632E0E53FF307F1F60F
S1132780222331F114141504160417040CF07FC02D
S11327904092AD045092AE046092AF047092B004C3
S11327A021E020937A02CFB7F89460939402709357
S11327B095028093960290939702409290025092D1
S11327C0910260929202709293020E94E204CFBF3F
S11327D0DF91CF911F910F91FF90EF90DF90CF90F9
S11327E0BF90AF909F908F907F906F905F904F902D
S11327F03F902F90089520918F02222349F311E0F6
S113280001E0C4E2D2E04FEF410F822F802391F028
S1132810E42FF0E0EE0FFF1FEF54FB4F8081918116
S113282011821082302F3095322330938F0244234B
S113283009F4C9C4000F183059F220918F021F5FA8
S1132840E2CF80910002E82FF0E0EE0FFF1FEF547B
S1132850FB4F60817181DF91CF911F910F91FF90A8
S1132860EF90DF90CF90BF90AF909F908F907F902C
S11328706F905F904F903F902F9018CFA895A8CF5E
S113288080917A02882309F413C30E945002DF91D5
S1132890CF911F910F91FF90EF90DF90CF90BF9059
S11328A0AF909F908F907F906F905F904F903F90EC
S11328B02F90F8CC2091B904222309F489CF81E028
S11328C091E05BE007C0990F883009F481CF209133
S11328D0B9048F5F3FEF380F422F4923A1F3E32F51
S11328E0F0E0EE0FFF1FEC52FD4F11821082492FD2
S11328F0409542234093B9043111E5CF2FB7F894A2
S113290030910A063F3F09F4B3C42FBF990FDFCFBC
S1132910C0911202EC2FF0E0EE0FFF1FEC52FD4FBE
S1132920118210820E941D09C11152CF8FB7F894F1
S113293090910A069F3F91F4E091FE05EB3071F00F
S11329409091FD059F3F09F480C5E33138F4F0E030
S1132950E150FA4F9BE090839093FE058FBF38CFF0
S11329602FB7F894109286029091670288EF890F2E
S1132970823050F410926702E0917102F0E0EE0FA1
S1132980FF1FED56F94F10822FBF823008F45BC24F
S1132990992309F4CEC590E0CFB7F89480916702EB
S11329A08A3009F4A5C4CFBF992309F411CF8FB796
S11329B0F8941092A7061092A6061092660291E06F
S11329C0909367028FBF0E94E905882309F400CF22
S11329D08FB7F89499E0909367028FBFDF91CF91FE
S11329E01F910F91FF90EF90DF90CF90BF90AF9029
S11329F09F908F907F906F905F904F903F902F901B
S1132A000C944F068091C1008F7B8093C10080910C
S1132A10C1008F778093C10010925B0310928502EE
S1132A208091C10088608093C1009FEF909313024E
S1132A308091C10080618093C100909313028091C2
S1132A40C10080688093C1008FB7F8941092670228
S1132A5010927802109211028FBF81E080934F028E
S1132A6010924E02B5CE8FB7F894909107069F3F0F
S1132A7009F074CFE091FE05E83009F46FCF90912E
S1132A80FD059F3F09F491C4E33108F067CFF0E0FE
S1132A90E150FA4F98E090839093FE058FBF98CE53
S1132AA08091C100877F8093C1009FEF90931302B0
S1132AB08091C1008F7E8093C100909313028FB7E1
S1132AC0F89491E0909311028FBF10924F0280917D
S1132AD04E02882309F47CCEDF91CF911F910F9190
S1132AE0FF90EF90DF90CF90BF90AF909F908F902A
S1132AF07F906F905F904F903F902F900C94EA08D6
S1132B008FB7F89420915602109256028FBF80918D
S1132B105D0290915E02029709F05ACE222309F4D5
S1132B2057CE80915902882309F4F0C310925E02B3
S1132B3010925D021092590280915F02909160029E
S1132B4020915802211144CE63E0DF91CF911F916F
S1132B500F91FF90EF90DF90CF90BF90AF909F9038
S1132B608F907F906F905F904F903F902F904FCBBE
S1132B709FB7F89430915402C0915202D0915302FD
S1132B802091510210917302809199049FBF845443
S1132B90823008F4FCC180915702882339F0809177
S1132BA05D0290915E02029709F481C38FB7F89495
S1132BB0E12FF0E0EE0FFF1FE45FFD4FD183C083F0
S1132BC09091620211110EC39D7F90936202109244
S1132BD055028FBFFDCD2BE435E08FEF8093510577
S1132BE08093500584E6809356058091D402909199
S1132BF0D502892B09F42FC29FB7F89480910A0655
S1132C008F3F09F4C9C19FBFE3CD8FB7F89492E019
S1132C10909349028FBF809102028111D9CDE09136
S1132C207C02F0917D028FE38287809165028F5F41
S1132C308093650283839FB7F89480917B028F5FB2
S1132C4080937B029FBF80918102882309F486C30D
S1132C506ED90E949F0860917C0270917D028091E0
S1132C6000028111B5CD8091B1049091B20468172E
S1132C70790709F0ADCD80E0EECD8091810210920C
S1132C808102853009F4A1C19AEF980F923008F4BB
S1132C909FCD809381029CCD9FB7F89480917B0255
S1132CA08F5F80937B029FBFC0918102C13009F482
S1132CB043C1109281023BD9C0915C03D0915D0362
S1132CC08A858F3309F084CD0E949F088091000289
S1132CD081117ECD8091B1049091B204C817D907B7
S1132CE009F076CDBE0180E0B6CD8FB7F89490910F
S1132CF09804992309F432CE0BE212E0B7E0FB2EDC
S1132D000FC08093B50480919804815080939804F7
S1132D109FBF8FB7F89490919804992309F41ECE1D
S1132D20E091B504F0E0EE0FFF1FE659FD4FC081BE
S1132D30D1818FBF8A858F3309F4DBC1CE010E9414
S1132D409D029FB7F8948091B504E82FF0E0EE0F50
S1132D50FF1FE659FD4FD183C0838F5F833088F214
S1132D601092B504D0CFEFB7F89480918702909178
S1132D708802A0918902B0918A021C012D019C0154
S1132D80A20160E070E080E090E003E00E944E2049
S1132D9051016201E12CF12C00E010E00E94852039
S1132DA059016A017B01F82F192F03E00E944E207C
S1132DB00F2F0E94852059016A017B01F82F192FDA
S1132DC003E00E944E200F2F0E94852059016A01C2
S1132DD07B01F82F192F03E00E944E200F2F0E9431
S1132DE0852059016A017B01F82F192F03E00E9405
S1132DF04E200F2F0E94852001E00E944E202901C1
S1132E003A0100E20E94692049015A01D301C2013A
S1132E10B695A79597958795880D991DAA1DBB1DF5
S1132E20B7FD85C08093870290938802A09389029E
S1132E30B0938A02EFBF2FB7F89490935F03809307
S1132E405E032FBFC5CC2FB7F89480918E028F5F9D
S1132E5080938E0280915503833409F4F9C131E0E3
S1132E60983009F4AFC081E02FBF2FB7F894909148
S1132E7063022FBF992309F4B9C19FB7F8942AE0DC
S1132E80209367029FBF90E0882309F485CD8FB714
S1132E90F89430935A0221E0209356028FBF8FB7E3
S1132EA0F894209108062F3F09F4BFC08FBF74CD5A
S1132EB04091AD045091AE046091AF047091B004A0
S1132EC02FB7F8948091900290919102A091920270
S1132ED0B0919302C0909402D0909502E090960233
S1132EE0F09097028C0D9D1DAE1DBF1D2FBF40930A
S1132EF0AD045093AE046093AF047093B004109289
S1132F007A02CFB7F8948093940290939502A09399
S1132F109602B0939702409390025093910260936B
S1132F209202709393020E94E204CFBFAECCBF77AB
S1132F300196A11DB11D76CF80915A038F5F8093B6
S1132F405A03863008F0B5CE80915C0390915D03FE
S1132F5020918202222309F442C285E08093BA04BC
S1132F6082E080938102DF91CF911F910F91FF90B6
S1132F70EF90DF90CF90BF90AF909F908F907F9015
S1132F806F905F904F903F902F900C94970F2C3040
S1132F9008F40CCE3AA70ACEE091FE05EB3009F412
S1132FA032CE8091FD058F3F09F456C2E33108F01B
S1132FB02ACEF0E0E150FA4F8BE080838093FE0547
S1132FC09FBF06CC30E081E04FCF0E945002609357
S1132FD0EC027093ED028093EE029093EF0288EE80
S1132FE093E0A0E0B0E08093F0029093F102A0930C
S1132FF0F202B093F3028091F4028E7F8260809398
S1133000F402DF91CF911F910F91FF90EF90DF9029
S1133010CF90BF90AF909F908F907F906F905F9074
S11330204F903F902F900C94F505E091FE05E93008
S113303009F43CCF2091FD052F3F09F462C2E3312E
S113304008F034CFF0E0E150FA4F29E020832093D8
S1133050FE058FBFA1CC3093D5022093D4028CE11E
S11330608093540580911202882309F4B1CB109205
S113307012021092760580917305843409F43FC2DC
S113308065E480917405882309F4C6C170917505BF
S1133090872F90E0AC0155954795559547955595E3
S11330A04795559547954370E0E14E9FA001112443
S11330B0082E892F000C881F990B000C881F991F5C
S11330C0582F5295550F550F507C542B7F70572B0A
S11330D01092740580915D0290915E02892B09F42F
S11330E0D7C181E0809312021092D5021092D402CB
S11330F083CD5B8568818F8190E0982F88272E810E
S1133100822B4FB7F89420910602309107024FBFEB
S11331108217930719F0019609F013CE563009F07F
S113312010CE613109F00DCE8CA584FDE5C08E85ED
S113313090E0982F88272F85E0909206822B9F930A
S11331408F938C8590E0982F88272D85822B9F93D1
S11331508F931F92EF921F930F93F0D78DDA91E024
S11331609E0D2DB73EB7285F3F4F0FB6F8943EBF74
S11331700FBE2DBF943108F09BE02FB7F8948091D7
S11331807B028F5F80937B022FBF80918102882313
S113319009F444C10E94970F8D8580FFB5C02D9816
S11331A08C8590E0982F88272D85822B81FFAAC0DB
S11331B02E988C8590E0982F88272D85822B82FD70
S11331C0F2C02F9ABECD8D56934009F46BC0DF93A5
S11331D0CF93B4D751DA20918F020F900F90000F44
S11331E01F5F11CB9B7F90936202F1CC9FB7F89441
S11331F050919306609195069FBF4FB7F894209124
S11332009C0690919D064FBF291709F445C05111A2
S113321043C09FB7F89422E0209393065FB7F894D5
S113322040919C0620919D065FBF421709F4D5C0CA
S1133230E0919D06F0E0E456F94F22812093940634
S113324023E420935503109271029FBF91E01CCE9A
S113325080919D0690919C06981739F08F5F80931A
S11332609D06863010F010929D0680E030E0FCCD83
S1133270E091FE05EB3009F448CB3091FD053F3F6A
S113328009F4A6C0E33108F040CBF0E0E150FA4F76
S113329050835093FE0539CB6150623008F48CC0E2
S11332A090E0F2CD10926402232F000F99CF809109
S11332B0EB028D7F8093EB02E0915F02F09160025C
S11332C081E083A71092570210925E0210925D0271
S11332D08FB7F89460915A028FBF80915F029091EA
S11332E0600220915802211161CC0E9407115ECC2A
S11332F00E94E206CFBF6CCA2FA52F871E8680E0EE
S113330090E01ACF2E9A55CF2D9A4ACF0E945002A0
S11333106093E3027093E4028093E5029093E602E3
S113332082E090E0A0E0B0E08093E7029093E802AE
S1133330A093E902B093EA028091EB02816082607B
S11333408093EB028FB7F894909101069F3F09F4A4
S11333508AC08FBF81E0809357023ACAF0935D031D
S1133360E0935C0381E08093810210925A038FB74B
S1133370F89490910D069F3F11F08FBFF4CDE0912A
S1133380FE05EE30D1F39091FD059F3F09F4CAC0CC
S1133390E33198F7F0E0E150FA4F9EE09083909388
S11333A0FE058FBFE0CD2F98CCCC98E09093FD051F
S11333B09093FE058FBF0CCA9FB7F89420915703D2
S11333C02093550321E0209371029FBF91E05CCDCF
S11333D05093FD055093FE0598CA20E02FCF20910D
S11333E056032111BACD9093800280937F02C0933B
S11333F0820286E391E00E941906C0939B02C09367
S11334005603BC0180E090E00E94E8021092BA04E6
S113341083E080938102A7CD50E05CCE85EF890FD5
S1133420803108F0B7CE809179028111B3CE8091BA
S11334309206981709F4AECE90939206F092790210
S11334400E94870FF0928102A5CE9BE09093FD0528
S11334509093FE058FBFBCC98BE08093FD058093DC
S1133460FE059FBFB5C9E091FE05E23009F471CFB6
S11334709091FD059F3F09F44DC0E33108F069CFF9
S1133480F0E0E150FA4F92E090839093FE0561CF13
S11334904FB7F8941092560285E080935B02109225
S11334A05A023093600220935F0282E090E090938E
S11334B05E0280935D02109258021092590288E2D3
S11334C080935C024FBF8FB7F894909167029A3053
S11334D0F9F08FBF9FB7F89480919506811120C0B1
S11334E081E08093950650939606609357039FBF9F
S11334F0811174CA10925E0210925D02F2CD64E4EE
S1133500C0CD29E02093FD052093FE058FBF44CA5A
S11335108FBFF0CF92E09093FD059093FE0519CFF5
S113352080E0E5CF9EE09093FD059093FE058FBF6C
S11335301ACD30E080E099CC8091FD058F3FA1F059
S1133540282F30E023583A4FF901EE57FF4F90816E
S11335509093FD059F3F51F0F901EE57FF4F9FEF08
S11335609083C0D881E0089580E008959093FE058B
S1133570F3CF1F920F920FB60F9211240BB60F9236
S11335802F933F934F935F936F937F938F939F9367
S1133590AF93BF93EF93FF938091C00087FD13C057
S11335A0FF91EF91BF91AF919F918F917F916F9117
S11335B05F914F913F912F910F900BBE0F900FBED3
S11335C00F901F9018956091C6008091D70290913A
S11335D0D802009751F120917B0530917C05A90117
S11335E04F5F5F4F50937C0540937B05FC01E20FD6
S11335F0F31F608320917B0530917C058091A806A0
S11336009091A9062817390758F21092D8021092FF
S1133610D70280915B03833019F28091C1008F77C8
S11336208093C10010925B03BBCF6E3779F0809119
S113363050026D37A1F081FF05C08D7F8093500249
S113364080E2682780E00E941007AACF80911102CF
S11336508111A6CF60E081E00E941007A1CF8260B3
S1133660809350029DCF78941F920F920FB60F92C1
S113367011240BB60F92FF920F931F932F933F9336
S11336804F935F936F937F938F939F93AF93BF9366
S1133690CF93DF93EF93FF93209198023091990297
S11336A02115310509F466C080918302909184024A
S11336B04091A1045091A2048417950768F5AC01C8
S11336C04F5F5F4F5093840240938302F901E80FE8
S11336D0F91F80819FB7F8948093C6008091C00041
S11336E080648093C0009FBFFF91EF91DF91CF91E1
S11336F0BF91AF919F918F917F916F915F914F9106
S11337003F912F911F910F91FF900F900BBE0F903F
S11337100FBE0F901F901895109299021092980264
S1133720109285028091C1008F7B8093C1001FB7E6
S1133730F8948091500280FD12C08091670290E05D
S1133740FC013197E830F10538F089E08093670295
S11337500E944F061FBFC8CFED5DFE4F99C48E7FF8
S1133760809350028091740280938B020E9495058D
S11337701FBFBACF8091C1008F7B8093C100B4CFAB
S113378088E080936702E4CF0E94E905082F87E070
S1133790809367020111D9CF1FBFA6CF8091A706DE
S11337A00E94D505082F86E080936702F3CF8091AD
S11337B0A6060E94D505082F85E080936702EACF0C
S11337C0E0917102F0E0EE0FFF1FEC56F94F80819B
S11337D00E94D505082FF0907102CF2DD0E0CC0FB8
S11337E0DD1FFE01EC56F94F60818091A606909191
S11337F0A7060E9422039093A7068093A6068091B1
S113380066028F5F8093660291E0F91671F184E09D
S113381080936702BFCF80918E020E94D505082F46
S113382083E08093670260918E028091A606909156
S1133830A7060E9422039093A7068093A606AACF08
S1133840809155030E94D505082F82E0809367027A
S1133850609155038091A6069091A7060E942203C9
S11338609093A7068093A60695CF90915B02E09172
S11338705F02F0916002E90FF11D30819F5F909328
S11338805B0220915C02291790F492E090939506D4
S113389020E0FE01ED56F94F9081923009F4B7CF44
S11338A08F3F09F4B4CFCC56D94F288373CF232F3D
S11338B0F0CF1F920F920FB60F9211248F93809125
S11338C0C80087FD8091CE008F910F900FBE0F909E
S11338D01F90189578941F920F920FB60F9211248F
S11338E00F900FBE0F901F9018951F920F920FB656
S11338F00F9211248F939F9380918C0290918D024B
S1133900019690938D0280938C029F918F910F90DA
S11339100FBE0F901F9018951F920F920FB60F9223
S113392011240F900FBE0F901F9018951F920F92A5
S11339300FB60F9211240F900FBE0F901F90189581
S11339401F920F920FB60F9211240F900FBE0F907B
S11339501F9018951F920F920FB60F9211240F907B
S11339600FBE0F901F90189578941F920F920FB668
S11339700F9211240BB60F922F933F934F935F93A3
S11339806F937F938F939F93AF93BF93EF93FF9323
S11339909FB7F89480919D03826080939D039FBF9D
S11339A00E94870FFF91EF91BF91AF919F918F91EB
S11339B07F916F915F914F913F912F910F900BBE2B
S11339C00F900FBE0F901F90189578941F920F922E
S11339D00FB60F9211240BB60F922F933F934F9370
S11339E05F936F937F938F939F93AF93BF93EF9363
S11339F0FF939FB7F89480919D03806180939D030A
S1133A009FBF0E94870FFF91EF91BF91AF919F914C
S1133A108F917F916F915F914F913F912F910F9073
S1133A200BBE0F900FBE0F901F9018951F920F9210
S1133A300FB60F9211240BB60F922F933F934F930F
S1133A405F936F937F938F939F93AF93BF93EF9302
S1133A50FF9380919D03806280939D0378940E94DC
S1133A60870FF894FF91EF91BF91AF919F918F9140
S1133A707F916F915F914F913F912F910F900BBE6A
S1133A800F900FBE0F901F90189578941F920F926D
S1133A900FB60F9211240BB60F922F933F934F93AF
S1133AA05F936F937F938F939F93AF93BF93EF93A2
S1133AB0FF939FB7F89480919D03806880939D0342
S1133AC09FBF0E94870FFF91EF91BF91AF919F918C
S1133AD08F917F916F915F914F913F912F910F90B3
S1133AE00BBE0F900FBE0F901F90189578941F92E5
S1133AF00F920FB60F9211240BB60F922F933F9390
S1133B004F935F936F937F938F939F93AF93BF93E1
S1133B10EF93FF939FB7F89480919D038160809306
S1133B209D039FBF0E94870FFF91EF91BF91AF91BB
S1133B309F918F917F916F915F914F913F912F91C1
S1133B400F900BBE0F900FBE0F901F901895789496
S1133B501F920F920FB60F9211240BB60F922F9350
S1133B603F934F935F936F937F938F939F93AF9301
S1133B70BF93EF93FF939FB7F89480919D03886060
S1133B8080939D039FBF0E94870FFF91EF91BF9188
S1133B90AF919F918F917F916F915F914F913F91E1
S1133BA02F910F900BBE0F900FBE0F901F90189582
S1133BB01FB7F89484B78ABD14BE88E10FB6F89491
S1133BC080936000109260000FBE43E150E06FEFFD
S1133BD070E08FEF95E0ABD28FEF8093FD0580937B
S1133BE0FE058AEA96E09093DB068093DA0610924B
S1133BF0B8048AE5809372028091350180618093D4
S1133C0035018091340180618093340180913301C6
S1133C10806180933301809132018061809332010D
S1133C2085B7806885BF85B7806885BF80E8809345
S1133C3061001092610081E08093810090E2909392
S1133C40B6008093B10042E38091B2008111FCCFB1
S1133C5020918400309185008091B2008034E1F796
S1133C608091840090918500821B930B9093B404FF
S1133C708093B304415041F71092B1001092810037
S1133C801092B6008091B6008370E1F78091DF0056
S1133C908B7F8093DF009FEF909313028091DC0071
S1133CA08B7F8093DC008091DF008D7F8093DF0029
S1133CB0909313028091DC008D7F8093DC008091CF
S1133CC080008C7F8093800080918100807E826060
S1133CD08093810080916F00816080936F0080E207
S1133CE08093B6008091DC0080638093DC00909325
S1133CF013028091DF0088608093DF008091DF00F1
S1133D008E7F8093DF00909313028091DC008E7F7E
S1133D108093DC0088E10FB6F894809360001092E1
S1133D2060000FBE29E288E190E00FB6F894A895F0
S1133D30809360000FBE20936000259A269A279AEC
S1133D402D9A2E9A2F9AF8DB8111FDCF87EC809360
S1133D50490183E080934D01999AA19810924501FD
S1133D601092D9028BE08093920680914401806284
S1133D7080934401809192068064809348018091ED
S1133D8039018260809339018091DC0088608093DE
S1133D90DC0081E080939C02209122023091230276
S1133DA0C9010196A0E0B0E0809387029093880255
S1133DB0A0938902B0938A028BEB94E090936B02F8
S1133DC080936A028BEE94E090936D0280936C0270
S1133DD08BE195E090936F0280936E028FEF9FEFDB
S1133DE09093A4048093A3049093A6048093A504C1
S1133DF09093A8048093A7049093AA048093A904A1
S1133E009093AC048093AB042295207F20936502A9
S1133E1080937E0284E192E09093E4068093E3062B
S1133E20D2E0C6E06091B3047091B40480E090E005
S1133E30B4E8CB2EB3E0DB2EE12CF12CA7019601E4
S1133E4005D1215031093093C5002093C400D0938B
S1133E50C000C093C2001092C1006091B30470917D
S1133E60B40480E090E0A7019601F0D0215031091C
S1133E702093CC003093CD00D093C800C093CA00E7
S1133E801092C90084E490E09093A00480939F046E
S1133E9010929306109295068AE08093670210921E
S1133EA066021092550310928E021092A706109289
S1133EB0A60610928602109271021092CE021092FF
S1133EC0CD0294E0909378021092590310929A02D2
S1133ED010926003109269021092680210929D067B
S1133EE010929C0610924A02E1E6F3E0DF011D9273
S1133EF08A95E9F721DB8111FDCF1FBF78940E94D9
S1133F00EA080E9450026093DA027093DB02809305
S1133F10DC029093DD0280EA9FE0A0E0B0E08093B1
S1133F20DE029093DF02A093E002B093E10280915D
S1133F30E2028E7F82608093E2020E94F5050E9475
S1133F40A70FCFEF07C0F901EE57FF4FC0834FBF54
S1133F500E9472134FB7F8948091FD058F3F79F05A
S1133F60282F30E023583A4FF901EE57FF4F908144
S1133F709093FD059F3F39F79093FE05E4CF809120
S1133F80130287FD11C083B7816083BF789488953D
S1133F90F89483B78E7F83BF8091FD058F3F01F72F
S1133FA08091130287FFEFCF80914E0187FD38C0C7
S1133FB095E080916F008E7289F5892F963008F014
S1133FC085E09091C10093FD22C09091C10094FDC1
S1133FD01EC09091C90093FD1AC09091C90094FD30
S1133FE016C0863008F085E09091DC0095FD14C081
S1133FF0E5E08E1708F4E82FE093130283B7F0E0AE
S1134000EA5AFD4FE491807FE82BE3BFBCCF80E008
S11340109091DC0095FFECCFE3E0EBCF80E0D1CFD3
S113402092E0C7CFAA1BBB1B51E107C0AA1FBB1F4D
S1134030A617B70710F0A61BB70B881F991F5A9530
S1134040A9F780959095BC01CD010895A1E21A2E9F
S1134050AA1BBB1BFD010DC0AA1FBB1FEE1FFF1F28
S1134060A217B307E407F50720F0A21BB30BE40B78
S1134070F50B661F771F881F991F1A9469F76095BF
S11340807095809590959B01AC01BD01CF01089579
S1134090EE0FFF1F0590F491E02D19940F93083053
S11340A090F0982F872F762F652F542F432F322F80
S11340B022270850F4CF220F331F441F551F661FB9
S11340C0771F881F991F0A95B2F70F91089597FBE0
S11340D010F8169400080F93083098F00850232F16
S11340E0342F452F562F672F782F892F902DF4CFFB
S11340F0059497958795779567955795479537953F
S113410027950A95AAF70F9108952A193B094C0996
S11341105D096E097F09800B910B0895FB01DC0199
S113412002C001900D9241505040D8F70895DC012F
S113413001C06D9341505040E0F70895CF93DF9351
S1134140CDB7DEB7FE01369661917191AF018091D2
S1134150E3069091E40603D0DF91CF9108952F9266
S11341603F924F925F926F927F928F929F92AF9203
S1134170BF92CF92DF92EF92FF920F931F93CF9350
S1134180DF93CDB7DEB72C970FB6F894DEBF0FBE22
S1134190CDBF7C016B018A01FC01178216828381E9
S11341A081FFB0C1CE0101964C01F7019381F60164
S11341B093FD859193FF81916F01882309F49EC13A
S11341C0853239F493FD859193FF81916F01853296
S11341D021F4B70190E0C7D1E8CF512C312C20E075
S11341E02032A0F48B3269F030F4803259F08332FB
S11341F069F420612CC08D3239F0803339F42160A8
S113420026C02260246023C0286021C027FD27C067
S113421030ED380F3A3078F426FF06C0FAE05F9E9E
S1134220300D1124532E13C08AE0389E300D112412
S1134230332E20620CC08E3221F426FD5FC120642F
S113424006C08C3611F4206802C0883641F4F601A9
S113425093FD859193FF81916F018111C1CF982FB7
S11342609F7D9554933028F40C5F1F4FFFE3F9832F
S11342700DC0833631F0833771F0833509F057C0B0
S113428021C0F801808189830E5F1F4F4424439429
S1134290512C540114C03801F2E06F0E711CF80166
S11342A0A080B18026FF03C0652D70E002C06FEFCF
S11342B07FEFC5012C874CD12C0183012C852F77EE
S11342C0222E16C03801F2E06F0E711CF801A08096
S11342D0B18026FF03C0652D70E002C06FEF7FEF51
S11342E0C5012C872AD12C012C852068222E83011C
S11342F023FC19C0832D90E048165906A0F4B70199
S113430080E290E030D13A94F5CFF50127FC859115
S113431027FE81915F01B70190E025D131103A94D5
S1134320F1E04F1A51084114510479F7DEC0843684
S113433011F0893631F5F80127FF07C060817181DA
S1134340828193810C5F1F4F08C06081718188272F
S113435077FD8095982F0E5F1F4F2F76B22E97FF13
S113436009C090958095709561957F4F8F4F9F4FB1
S11343702068B22E2AE030E0A40127D1A82EA81884
S113438043C0853729F42F7EB22E2AE030E025C0C1
S1134390F22FF97FBF2E8F36C1F018F4883579F0EB
S11343A0ADC0803719F0883721F0A8C02F2F2061C5
S11343B0B22EB4FE0DC08B2D8460B82E09C024FF2C
S11343C00AC09F2F9660B92E06C028E030E005C0D1
S11343D020E130E002C020E132E0F801B7FE07C07E
S11343E060817181828193810C5F1F4F06C060815F
S11343F0718180E090E00E5F1F4FA401E6D0A82EEB
S1134400A818FB2DFF77BF2EB6FE0BC02B2D2E7FD9
S1134410A51450F4B4FE0AC0B2FC08C02B2D2E7EA5
S113442005C07A2C2B2D03C07A2C01C0752C24FFD7
S11344300DC0FE01EA0DF11D8081803311F4297E47
S113444009C022FF06C07394739404C0822F867837
S113445009F0739423FD12C020FF06C05A2C731474
S113446018F4530C5718732C731460F4B70180E2DA
S113447090E02C8778D073942C85F6CF731410F4C5
S1134480371801C0312C24FF11C0B70180E390E03C
S11344902C8769D02C8522FF16C021FF03C088E534
S11344A090E002C088E790E0B7010CC0822F8678C4
S11344B051F021FD02C080E201C08BE227FD8DE2B4
S11344C0B70190E050D0A51430F4B70180E390E038
S11344D04AD05A94F8CFAA94F401EA0DF11D8081D0
S11344E0B70190E040D0A110F6CF332009F45DCE9F
S11344F0B70180E290E037D03A94F7CFF701868194
S1134500978102C08FEF9FEF2C960FB6F894DEBF11
S11345100FBECDBFDF91CF911F910F91FF90EF9010
S1134520DF90CF90BF90AF909F908F907F906F90CF
S11345305F904F903F902F900895FC01059061503B
S113454070400110D8F7809590958E0F9F1F0895A5
S1134550FC016150704001900110D8F7809590954E
S11345608E0F9F1F08950F931F93CF93DF93182FE0
S1134570092FEB018B8181FD03C08FEF9FEF20C0DA
S113458082FF10C04E815F812C813D814217530709
S11345907CF4E881F9819F012F5F3F4F39832883A1
S11345A0108306C0E885F985812F1995892B29F791
S11345B02E813F812F5F3F4F3F832E83812F902F8A
S11345C0DF91CF911F910F910895FA01AA27283006
S11345D051F1203181F1E8946F936E7F6E5F7F4FCC
S11345E08F4F9F4FAF4FB1E03ED0B4E03CD0670F48
S11345F0781F891F9A1FA11D680F791F8A1F911D9B
S1134600A11D6A0F711D811D911DA11D20D009F4EA
S113461068943F912AE0269F11243019305D31932C
S1134620DEF6CF010895462F4770405D4193B3E015
S11346300FD0C9F7F6CF462F4F70405D4A3318F0BC
S1134640495D31FD4052419302D0A9F7EACFB4E06D
S1134650A6959795879577956795BA95C9F7009725
S11346606105710508959B01AC010A2E06945795C6
S1134670479537952795BA95C9F7620F731F841F1D
S10D4680951FA01D0895F894FFCFC4
S113468A0102FFFFFF2201000101F502F5022503E1
S113469AFF0101FF0000000200000000CD1000002D
S11346AA000001006E6F2061636B006368616E6EC7
S11346BA656C3A256420636F756E743A25642052DA
S10B46CA5353493A25640A0028
S9030000FC
