S01600006275696C642F7470612F6D61696E2E73726563B6
S11300001EC100003BC1000039C1000037C100001F
S113001035C1000033C1000031C100002FC1000010
S11300202DC100002BC1000029C1000027C1000020
S113003025C1000023C1000021C100001FC1000030
S11300401DC100001BC1000019C1000017C1000040
S113005015C1000013C1000011C100000FC1000050
S11300600C94CF110BC1000009C1000007C10000AE
S113007005C1000003C1000001C10000FFC0000071
S1130080FDC00000FBC00000F9C00000F7C0000084
S1130090F5C00000F3C00000F1C00000EFC0000094
S11300A0EDC00000EBC00000E9C00000E7C00000A4
S11300B0E5C00000E3C00000E1C00000DFC00000B4
S11300C0DDC00000DBC00000D9C00000D7C00000C4
S11300D0D5C00000D3C00000D1C00000CFC00000D4
S11300E0CDC000000C940813C9C000000C94D912B0
S11300F00C94A9120C946A13C1C000000C947912D8
S11301000C9439130C94C8100C945B110C94951135
S11301100C94B710B3C00000B1C00000AFC0000021
S113012000000000000000000000000000000000CB
S113013000000000000000000000000000000000BB
S113014000000000000000000000000000000000AB
S1130150000000000000000000000000000000009B
S1130160000000000000000000000000000000008B
S1130170000000000000000000000000000000007B
S1130180000000000000000000000000000000006B
S1130190000000000000000000000000000000005B
S11301A0000000000000000000000000000000004B
S11301B0000000000000000000000000000000003B
S11301C0000000000000000000000000000000002B
S11301D0000000000000000000000000000000001B
S11301E0000000000000000000000000000000000B
S11301F000000000000000000000000000000000FB
S113020000000000000000000000000000000000EA
S113021000000000000000000000000000000000DA
S1130220050E080E4B0D220E360E640E9C0EAB0E00
S1130230210DD40EBC0DE80D00020E060C04112491
S11302401FBECFEFD1E4DEBFCDBF12E0A0E0B2E02D
S1130250ECE7FBE200E00BBF02C007900D92AE306A
S1130260B107D9F724E0AEE0B2E001C01D92A33C8F
S1130270B207E1F70E949B130C94BC15C1CECF9238
S1130280DF92EF92FF920F931F932FB7F894409150
S11302906E028FB7F8947091E1006091E200509182
S11302A0E3003091E4008FBFC72ED62EE52EF32E47
S11302B03091E00033FF10C04F5F8FB7F894709116
S11302C0E1006091E2005091E3003091E4008FBFBF
S11302D0C72ED62EE52EF32E2FBF642F70E080E0BC
S11302E090E02AE1660F771F881F991F2A95D1F79E
S11302F09701860146E036952795179507954A9507
S1130300D1F7602B712B822B932B1F910F91FF90B0
S1130310EF90DF90CF900895FC01278130E0322FD9
S113032022278681282B4FB7F8948091060290915A
S113033007024FBF2817390729F02F3F3F4F11F00D
S113034080E00895258130E0322F22278481282BF4
S11303508FB7F894409105028FBF50E081E02417D5
S1130360350779F380E0EDCFFC01228130E0322FB4
S113037022278181282B25FF05C027743C7C21344A
S1130380384811F080E00895278130E0322F222789
S11303908681282B8FB7F89440910602509107026A
S11303A08FBF81E02417350771F380E0ECCF0F9302
S11303B01F93FB01AFB7F8942FB7F8947091E10045
S11303C06091E2005091E3004091E4002FBF072FB9
S11303D0162F252F342FAF01BC0142305105610582
S11303E0710520F442E050E060E070E0400F511FDE
S11303F0621F731F7093F4006093F3005093F20034
S11304004093F10082E08093E0008091DF008260FD
S11304108093DF008FEF80930B02AFBF1F910F918A
S11304200895CF92DF92EF92FF920F931F93CF9391
S1130430DF93EC0180911D02882351F085E0DF9168
S1130440CF911F910F91FF90EF90DF90CF9008957F
S113045080913902853091F7809199028111EECF14
S11304608CA583FF2FC08FA58F7090916F02891781
S113047051F080936F02806C8093450180916F02EC
S1130480806C809345018A8190E0982F8827298188
S1130490822B87749C7C81349848E1F089E08093B6
S11304A042018CA5488185FD0FC000E010E0409317
S11304B08001809141018F71893011F186E0809330
S11304C04201BCCF80E0D1CF8BEF840F8E01080FA7
S11304D0111DEDCF209146012F7130E04091E102D2
S11304E08091190290E0840F911D959587959595BB
S11304F0879595958795821793070CF49FCFCECF58
S11305008CA582FF76C08DA5882309F489C08091CB
S11305104D018C7F816080934D0180914D018C7FD2
S1130520816080934D01A198BE016F5F7F4F42505F
S11305308FB7F894EFB7F8945091E1003091E2004E
S11305402091E3009091E400EFBFC52ED32EE22E5C
S1130550F92E92E0909342018FBF8BE0C80ED11C1C
S1130560E11CF11C0115110509F468C0F801208192
S1130570818190E0A0E0B0E0DC0199278827B22BCC
S11305802381822B2281922B8C199D09AE09BF09EC
S113059083839283A183B08350E081E891E00E9439
S11305A0AC1586E080934201F8018081418150E0DE
S11305B060E070E0BA0155274427782B8381482BEB
S11305C08281582B4C0D5D1D6E1D7F1D438352830C
S11305D0618370838CA582608CA7C8A6D9A6EAA67D
S11305E0FBA686E08093390284E080931D0280E0BC
S11305F026CF9FB7F894809101029FBF837090919A
S11306004D019C7F982B90934D0190914D019C7FBF
S1130610982B90934D01823009F085CFA19A84CF15
S113062080914D018C7F826080934D0180914D01BA
S11306308C7F826080934D01A19A76CF50E081E84F
S113064091E00E94AC1586E080934201C3CFCF9223
S1130650DF92EF92FF920F931F938FB7F89450910C
S1130660E1004091E2003091E3002091E4008FBF6B
S1130670852F942FA32FB22F20919302222309F4C4
S113068070C040918B0250918C0260918D027091E8
S11306908E026C017D01C41AD50AE60AF70A00919C
S11306A08F02109190022091910230919202C01613
S11306B0D106E206F30608F463C0040F151F261FD3
S11306C0371F00938B0210938C0220938D0230937A
S11306D08E0210928F021092900210929102109248
S11306E0920200E010E098014FB7F894E090E10026
S11306F0F090E200F091E300E091E4004FBFA70125
S11307006F2F7E2F4E5F5F4F6F4F7F4F6A017B01CC
S1130710C81AD90AEA0AFB0AC016D106E206F30689
S113072030F4B901A801480F591F6A1F7B1F709349
S1130730F8006093F7005093F6004093F50081E0D1
S11307408093E0008091DF0081608093DF008FEF71
S113075080930B021F910F91FF90EF90DF90CF9049
S113076008958091DF008E7F8093DF008FEF809368
S11307700B021F910F91FF90EF90DF90CF9008959F
S113078080938B0290938C02A0938D02B0938E027F
S11307900C191D092E093F0900938F021093900232
S11307A0209391023093920237FF9ECF369527957E
S11307B01795079599CFCF92DF92EF92FF920F93FF
S11307C01F935DDD009134021091350220913602B1
S11307D030913702C0902F02D0903002E090310265
S11307E0F0903202C00ED11EE21EF31E6017710794
S11307F08207930708F464C0C016D106E206F30624
S113080008F063C097018601061B170B280B390BF0
S113081001301105210542E0340708F477C06B016B
S11308207C014EEFF41AC0923402D0923502E09269
S11308303602F0923702325000932F0210933002A6
S1130840209331023093320200E010E020E030E8DF
S1130850DC01CB01880F991FAA1FBB1F880F991FAA
S1130860AA1FBB1F880F991FAA1FBB1F880F991FA0
S1130870AA1FBB1F880F991FAA1FBB1F880F991F90
S1130880AA1FBB1F80938B0290938C02A0938D02AE
S1130890B0938E0200938F021093900220939102E2
S11308A03093920281E08093930280919402882392
S11308B031F11F910F91FF90EF90DF90CF90089549
S11308C0C016D106E206F30630F46C157D058E05DC
S11308D09F0508F497CF00E010E09801C09234021D
S11308E0D0923502E0923602F092370210922F0233
S11308F0109230021092310210923202A9CF1F914D
S11309000F91FF90EF90DF90CF90A1CEE6E0000F23
S1130910111F221F331FEA95D1F7E0CFBC014FB757
S1130920F89480918702909188029C012F5E3E4F3B
S113093030938802209387024FBF2FB7F8943091E9
S113094001043F3F29F02FBF0E9452154496089599
S1130950E091F703E930B9F33091F6033F3F71F0CA
S1130960EC3088F7F0E0E850FC4F39E03083309306
S1130970F7032FBF0E9452154496089539E030932F
S1130980F6033093F703DFCF9FB7F89480910F02FB
S1130990823019F09FBF81E0089580910202811195
S11309A0F9CF809104028F3F79F1E82FF0E0ED5CFC
S11309B0FD4F2081209304022F3F19F12FEF208354
S11309C08093020281E080930F028FB7F894209104
S11309D0FD032F3F21F08FBF9FBF80E00895E0917A
S11309E0F703E530C1F32091F6032F3F91F0EC308B
S11309F090F7F0E0E850FC4F25E020832093F703C4
S1130A00EACF20930302DACF8093020210920F02FE
S1130A10E3CF25E02093F6032093F703DCCF3F9246
S1130A204F925F926F927F928F929F92AF92BF92FA
S1130A30CF92DF92EF92FF920F931F93CF93DF93A6
S1130A40FF24F39487E0C82E96E0A92E24E0E22E3A
S1130A50DD24DA9433E0B32E4DE5742E5DE0652E8B
S1130A6060E8962E72E0872E23C0893009F4BCC159
S1130A709FEF980F933008F4FFC0873009F4E8C162
S1130A80883009F410C18823D9F080911A02823089
S1130A9009F4DBC0809182028230A9F18FB7F89407
S1130AA090911F02913009F475C0F0921F028FBF1C
S1130AB080919902811183C080911D028111D5CF4B
S1130AC080913902853009F7809199028111DDCF37
S1130AD080911B028111D9CF809128028111D5CF39
S1130AE0809182028111D1CF80912702823069F6F0
S1130AF0F09227028FB7F8949091FF039F3F09F477
S1130B0029C48FBFC2CF10928202809138028130F3
S1130B1029F660916A0270916B028FB7F894509134
S1130B20E1004091E2003091E3002091E4008FBFA6
S1130B30852F942F20912802203809F4A1C12B017C
S1130B40481A590A27FD61C1C0912502D091260295
S1130B5080911B02882309F498C3822F15E08F77B4
S1130B60813009F4CDC327FD75C310922802109378
S1130B70E302F09227028FB7F8949091FF039F3F0E
S1130B8009F453C38FBF8FB7F89490911F0291302B
S1130B9009F08BCF10921F028FBFDF91CF911F916D
S1130BA00F91FF90EF90DF90CF90BF90AF909F9008
S1130BB08F907F906F905F904F903F9008958FB784
S1130BC0F8943091E9004091EA005091EB00609173
S1130BD0EC0020919902109299028FBF80911D021E
S1130BE027FDF3C0843009F48BC025FF06C086308E
S1130BF009F466C0882309F465C0853009F46FC020
S1130C0020FF05C090913902923009F441C123FFBD
S1130C1055CF863009F052CF809155018F7780935C
S1130C205501809155018F778093550110921D02D3
S1130C3080914101877009F443CF809141018091F3
S1130C403902853009F021CF3FCF10921A028091EA
S1130C50980281111FCF10921B0210922802109249
S1130C60E302E09227028FB7F8949091FF039F3F2D
S1130C7009F4D9C08FBF0ECF2EEF280F223008F40D
S1130C803CC1923009F068C1813009F423C182303B
S1130C9009F0F6CE80913902833009F0F6CE109235
S1130CA04E01D0920B0210921D028FB7F8949091CE
S1130CB0FE039F3F09F494C18FBF80911D02E3CED0
S1130CC010921D02203209F464C1E091BC04F09139
S1130CD0BD0484A5897E84A785E080931D0224FF3A
S1130CE09FC0809146019091E1028F71890F969582
S1130CF09695891B8093E10289E080931D0280CF41
S1130D0021FF7ECF9FB7F89480910E029FBF882366
S1130D1021F0823009F4B7C2A19885E080933902AA
S1130D2010921D0280911B02833009F4E2C2E0910B
S1130D308A04F0918B04828190E0982F8827718136
S1130D40872B85FFADC087749C7C8134984809F05B
S1130D50A7C0878190E0982F88277681872B0196FA
S1130D6009F49EC080911A0281119AC010929802CF
S1130D70F0921A027FB7F8948FB7F894D091E100FB
S1130D80C091E200F091E300E091E4008FBF8D2F69
S1130D909C2FAF2FBE2FCE96A11DB11DB093F00096
S1130DA0A093EF009093EE008093ED00E092E000BA
S1130DB08091DF0084608093DF00D0920B027FBFBC
S1130DC080921B0280911D0210CF982F9B7F93303D
S1130DD009F479C08A3009F005CF85E0809339029F
S1130DE010921D0280E001CF40917B018091460169
S1130DF087FD0AC185E08093390210921D0280911B
S1130E003902853009F041CE5FCE141415040CF07C
S1130E109BCE822F8F77813009F472C215E01EC2F7
S1130E2080911D02EDCEE091F703E73009F422CF63
S1130E309091F6039F3F09F444C3EC3008F01ACFB5
S1130E40F0E0E850FC4FC082C092F7038FBF22CE7F
S1130E5080913902813029F08091840480648093E8
S1130E604801809184048064809348018091390210
S1130E70853009F018CFE092390280911D0200CE2E
S1130E801092280280912702823009F007CE71CE99
S1130E909EEF980F923008F0BACEB0923902B7CED6
S1130EA010921B02109228021092E302E092270291
S1130EB08FB7F8949091FF039F3F09F407C28FBF47
S1130EC080911D0292CE85E08093390288E0809360
S1130ED01D028BCE90913902933009F0D6CD9093B8
S1130EE04D0190934D01999AA19890913901926086
S1130EF09093390180933902D6CE20913902213062
S1130F0009F4D4C1833009F0BCCE233009F0B9CE42
S1130F108091840480648093480170924E01D09241
S1130F200B028FB7F894F09295028FBF9FB7F89495
S1130F3080910E029FBF882309F4F2C180934D0172
S1130F4090914A01907F976090934A01999A8230D8
S1130F5009F4FEC1A198ECC190913902953009F0D1
S1130F6093CEB0924D01B0924D01999AA1988FB74A
S1130F70F894109295028FBFB092420110924E01E4
S1130F8010929902D0920B02B092390280911D0204
S1130F907BCE809146018F7170911902982F970F23
S1130FA076957695971B90931902E091BC04F09185
S1130FB0BD0494A5792F726074A730A741A752A7E6
S1130FC063A730914D0132FD56C134B3369531706B
S1130FD03F2535A79660977F906194A787A77CCE1D
S1130FE0E091F703E63009F467CE9091F6039F3F52
S1130FF009F46DC2EC3008F05FCEF0E0E850FC4F2D
S1131000A082A092F70358CE8DEF840F873208F0A8
S1131010F1CE8091BC049091BD04FC014193CF01B9
S1131020425050E060E871E00E94AC150091BC04AD
S11310301091BD04D80111968C918770823009F407
S113104084C2F801808182508B3008F4D3CE9FB7DC
S1131050F894809108029FBF81117DC29FB7F894D4
S113106081E020919A02233008F080E09FBF88231A
S113107009F4C0CE80911B020091BC041091BD0400
S1131080E0917B01F0E0E058FE4F90812801D80107
S11310909E969C939E9795E09093390210921D0220
S11310A011969C9111979770923009F474C188231A
S11310B009F4A6C18FB7F8943091E1002091E200C1
S11310C09091E3009091E4008FBFC901C92FD82FFC
S11310D0C8014AD98111E696D0936B02C0936A0283
S11310E08FB7F8945091E1004091E2003091E30011
S11310F02091E4008FBF852F942FBE01681B790BCC
S1131100161617064CF480912802811140C1809173
S11311108202882309F4FDC1D80119966C911997AC
S113112070E0762F662718968C91682B20911C020C
S1131130422F50E0FA01EE0FFF1FE056FD4F808171
S113114091816817790709F491C190918302E0EACB
S1131150F2E0A5E8B4E020E030E0312C80E0A90121
S1131160C191D1916C177D0709F4D0C14D91592FCC
S1131170541B851710F4322E852F2F5F3F4F2530D7
S1131180310569F730921C02432D50E0FA01EE0F4D
S1131190FF1FE056FD4F718360839F5F909383022E
S11311A0FA01EB57FB4F9083FA01E254FB4F108294
S11311B0292F2F772F3709F472C190E020E0D8014E
S11311C013968C91FA01992309F4D9C0E556FD4F81
S11311D09081891719F180839FB7F89480919A02BE
S11311E08330D8F4E091E002E80FE33008F0E350F4
S11311F0F0E0EE0FFF1FED5EFD4F20813181118382
S113120000838F5F80939A028FB7F8944091000413
S11312104F3F09F461C18FBF29019FBF80911D0217
S11312205092BD044092BC042BCCE091F703E7300C
S113123009F4A8CC9091F6039F3F09F461C1EC3006
S113124008F0A0CCF0E0E850FC4FC082C092F70355
S11312508FBF99CC141415040CF087CC90922802FB
S1131260F0923802F0928202B201882777FD8095CD
S1131270982F9DD87CCC30914D01331F3327331FD9
S113128035A79660A8CEA19A48CDCE01CAD8182F0A
S1131290811155C08CA58E7F8CA7F0921B02D09330
S11312A08B04C0938A04B0922802F8CBD0924F01E9
S11312B090924E01809139018D7F80933901D092B3
S11312C00B028092390280911D02DECCE091F7037B
S11312D0E73009F4F4CD9091F6039F3FA1F1EC308F
S11312E008F0EDCDF0E0E850FC4FC082C092F70367
S11312F0E6CD10921B02822F807225FDE3CC80CCB8
S113130020782260209328028CE890E007DBF0929A
S11313103802F0928202BC0180E090E048D8BECB53
S113132060924D0180914A01807F836080934A01DD
S1131330A0924201E092390280911D02A5CC8091D5
S11313402802282F0CCCC092F603C092F703B7CD25
S1131350A19AEECFE091F703E73009F4D2CB909154
S1131360F6039F3F09F410C1EC3008F0CACBF0E05B
S1131370E850FC4FC082C092F7038FBF86CBE25483
S1131380FB4F21602083FA01E556FD4F24CF80688E
S113139080932802C1CE823011F080E041CFE091E9
S11313A08A04F0918B0413969C9183819813F5CF52
S11313B08091DF008B7F8093DF00D0920B0210922C
S11313C01A02E0918A04F0918B0484A5816084A7B9
S11313D080911B02882309F421CF10921B021092E2
S11313E028021092E302E09227028FB7F8949091BA
S11313F0FF039F3F09F4B5C08FBF80911D0210CF3A
S11314009FB7F894809109029FBF882309F452CEB4
S1131410C8010E94B401882309F44CCE85E080936E
S11314203A0280923B0210923C02F801838180933D
S11314303D029FB7F894809101029FBF82FD76C060
S113144081E0F80195A5911101C080E080936702C5
S1131450809166028460809366028AE392E00E942F
S11314601102811127CEB0921B0224CE90918302E7
S1131470FA01EB57FB4F8081891751F09F5F9093DE
S113148083029083892F8F778F3769F0422F50E042
S1131490FA01E254FB4F2081922F917090CE8F3746
S11314A008F48BCE232DE5E8F4E0392F30788081E1
S11314B08F6798133083319674E0EA38F707B9F7E9
S11314C0E5CFC092F603C092F7038FBFE3CAA092A0
S11314D0F603A092F703F0CBE091F703E83009F4A8
S11314E09ACE4091F6034F3F51F1EC3008F093CE81
S11314F0F0E0E850FC4F48E040834093F7038BCE84
S1131500C092F603C092F7038FBF3DCB20931C0219
S1131510AFCFF0923802F0928202882777FD80954F
S1131520982F0E94D70190922802F6CD8170809363
S11315306702809166028460809366028ECF48E0E1
S11315404093F6034093F70366CE80911B028230EA
S113155009F050CC95CDC8010E948C0181117ECD3B
S113156049CCE091F703E73009F446CF9091F603B4
S11315709F3F81F0EC3008F03FCFF0E0E850FC4FA3
S1131580C082C092F70338CFC092F603C092F7032B
S11315908FBF7BCAC092F603C092F7032DCF9FB7CB
S11315A0F89480911F02882329F0806880931F0299
S11315B09FBF089581E080931F029FBF30CA9FB7E9
S11315C0F89480911F02815080931F02803811F09B
S11315D09FBF089581E080931F029FBF20CACF93CD
S11315E0DF931F92CDB7DEB79FB7F89480911F02A7
S11315F08F5F80931F029FBF80912702882341F051
S113160085E08983DCDF89810F90DF91CF91089594
S113161080911D028111F4CF80913902853011F43B
S113162089E0EFCF83E080931D02B9DF85E08093EA
S1131630270280E0E6CFFA012D3110F086E008950C
S1131640428150E0542F44279181492BDA01A77439
S1131650BC7CA134B84839F04073552741645868BC
S1131660418398E89283235F20833FB7F8942091C5
S11316700602909107023FBF208791872FB7F89405
S1131680909105022FBF94831582838766837783A5
S11316908FB7F89490910F0291111EC092E090932D
S11316A00F02109202028FBF8FE382878091120291
S11316B08F5F8093120283839FB7F89480911F02F7
S11316C08F5F80931F029FBF80912702882379F147
S11316D076DF5AD985E008958FBFF0932102E09315
S11316E020029FB7F89480910F02882389F080919B
S11316F033028F3F19F085E09FBF08958091030264
S11317008823C9F3109204021092030280E0F4CFFC
S113171081E080930F02109202028FB7F894209117
S1131720FD032F3FB9F08FBF9FBF80E00895F09372
S11317308602E093850281E080932702109284025E
S11317408FB7F8949091FF039F3FB1F08FBF37DFBD
S113175080E00895E091F703E53029F32091F60342
S11317602F3FE1F0EC30F8F6F0E0E850FC4F25E0D4
S113177020832093F703D7CFE091F703E73031F3C9
S11317809091F6039F3F81F0EC3000F7F0E0E850D1
S1131790FC4F97E090839093F703D8CF25E02093F4
S11317A0F6032093F703BFCF97E09093F60390934B
S11317B0F703CCCFE82FF0E0EE0FFF1FE459FD4F05
S11317C01182108291E090930002811103C06E5A3D
S11317D0724009F008951092100208954F925F929A
S11317E06F927F928F929F92AF92BF92CF92DF922D
S11317F0EF92FF920F931F93CF93C0917802C1FF92
S11318001CC04090700250907102609072027090FF
S113181073028090740290907502A0907602B0904A
S113182077026B017C01C418D508E608F708C814D0
S1131830D904EA04FB0408F052C0C0918102C1FD3E
S113184017C08FB7F8949091FA039F3F81F18FBF2F
S1131850CF911F910F91FF90EF90DF90CF90BF90A9
S1131860AF909F908F907F906F905F904F9008956E
S11318704090790250907A0260907B0270907C02D2
S113188080907D0290907E02A0907F02B0908002B2
S11318908B019C0104191509260937090815190536
S11318A02A053B0570F221E0E9E7F2E01BC0E09174
S11318B0F703E23061F29091F6039F3F51F0EC3070
S11318C030F6F0E0E850FC4F92E090839093F703F9
S11318D0BECF92E09093F6039093F703B8CF20E045
S11318E0E0E7F2E0C0FF5FC080858D7F8087213014
S11318F009F03FC080917403909175030196883E6E
S113190023E0920708F05AC0909375038093740300
S113191080911002811195CF8AEB92E0892B09F412
S113192090CF90917403809175039093BB02809340
S1131930BA028FEF8093B4028093B50286E080935D
S1131940B90280916C0290916D02892B09F079CFD4
S11319508EEA92E090936D0280936C028FE0809304
S1131960AE0280910002811134C081E080931002A4
S113197068CF9FB7F8948091F8038F3F11F09FBF11
S113198060CFE091F703EE23D1F38091F6038F3F0C
S1131990D1F0EC30A0F7F0E0E850FC4F1082109248
S11319A0F7039FBF4ECFD301C201880D991DAA1D15
S11319B0BB1D80839183A283B38399CF1092750357
S11319C010927403A5CF1092F6031092F7039FBFF1
S11319D038CF1092000222E04EEA52E06FEF7FEF20
S11319E086E029DE882309F4C0CF81E080930002D9
S11319F010926D0210926C0224CF2F923F924F925C
S1131A005F926F927F928F929F92AF92BF92CF928A
S1131A10DF92EF92FF920F931F93CF93DF9390E0A7
S1131A208C30910508F095C0FC01E05FFE4F0C94EA
S1131A3066158093E00280919A02815080939A0205
S1131A409FBF8FB7F89490919A02992309F476C2B4
S1131A50E091E002F0E0EE0FFF1FED5EFD4FC0816C
S1131A60D1818FBF8A858F3309F402C2CE010E94CF
S1131A708C019FB7F8948091E002E82FF0E0EE0F1C
S1131A80FF1FED5EFD4FD183C0838F5F833088F2EB
S1131A901092E002D0CF0E943F012FB7F894109229
S1131AA093022FBF2091780221FD4AC230E04424E2
S1131AB04A94542C642CEFE77E2E2091810221FF5E
S1131AC0AAC2C0907902D0907A02E0907B02F09092
S1131AD07C024B015C018C189D08AE08BF08C090C5
S1131AE07D02D0907E02E0907F02F0908002C818C0
S1131AF0D908EA08FB08C414D504E604F7040CF07A
S1131B008AC22601370114141504160417040CF0B4
S1131B1086C04092AA025092AB026092AC027092CC
S1131B20AD0221E020931E02CFB7F89460933402F3
S1131B3070933502809336029093370240922F02BD
S1131B405092300260923102709232020E94DB03A2
S1131B50CFBFDF91CF911F910F91FF90EF90DF9056
S1131B60CF90BF90AF909F908F907F906F905F9039
S1131B704F903F902F9008958091E202882349F37B
S1131B8070911002482F21E031E017C0E52FF0E0FA
S1131B90EE0FFF1FE459FD4F808191811182108265
S1131BA0632F60956423511134C28E5A924009F414
S1131BB065C2330F462F2F5F842F5FEF520F932F91
S1131BC0942321F7330F283009F429C2482FF3CF87
S1131BD080910002E82FF0E0EE0FFF1FE459FD4F63
S1131BE060817181DF91CF911F910F91FF90EF90F0
S1131BF0DF90CF90BF90AF909F908F907F906F9029
S1131C005F904F903F902F90D5CD81E08FB9A1CFB9
S1131C1080911E02882309F4B8C10E943F01DF911C
S1131C20CF911F910F91FF90EF90DF90CF90BF90D5
S1131C30AF909F908F907F906F905F904F903F9068
S1131C402F90CCCD8FB7F8941092240210922302D7
S1131C5010922A021092290210928A02109289028A
S1131C6010929702109296028FBF73CF2FB7F894F9
S1131C7082E0809311028CB58F7B8CBD8FEF8093B3
S1131C800B02229A2398219A9A9A2098289A9CB512
S1131C9090619CBD9CB59F779CBD80930B029CB5C5
S1131CA0977F9CBD9CB59B7F9CBD9CB590649CBD5F
S1131CB080930B029DB591609DBD9CB59C7F9CBD9E
S1131CC080930B022FBF45CF8FB7F89492E0909387
S1131CD00F028FBF8091020281113BCFE09120025D
S1131CE0F09121028FE38287809112028F5F8093AB
S1131CF0120283839FB7F89480911F028F5F8093B1
S1131D001F029FBF80912702882309F4BDC157DCBD
S1131D100E94C4046091200270912102809100020B
S1131D20811117CF80916C0290916D026817790729
S1131D3009F00FCF80E056CF80912702109227023E
S1131D40853009F4C7C09AEF980F923008F401CF98
S1131D5080932702FECE9FB7F89480911F028F5F75
S1131D6080931F029FBFC0912702C13009F45CC158
S1131D701092270224DCC0918502D09186028A85C4
S1131D808F3309F0E6CE0E94C404809100028111D1
S1131D90E0CE80916C0290916D02C817D90709F0CA
S1131DA0D8CEBE0180E01ECFEFB7F89480912B020D
S1131DB090912C02A0912D02B0912E021C012D01B4
S1131DC09C01A20160E070E080E090E003E084D632
S1131DD051016201E12CF12C00E010E0B4D659016C
S1131DE06A017B01F82F192F03E076D60F2FABD6AB
S1131DF059016A017B01F82F192F03E06DD60F2FCB
S1131E00A2D659016A017B01F82F192F03E064D689
S1131E100F2F99D659016A017B01F82F192F03E07E
S1131E205BD60F2F90D601E057D629013A0100E284
S1131E306ED649015A01D301C201B695A79597956B
S1131E408795880D991DAA1DBB1DB7FDDDC0809324
S1131E502B0290932C02A0932D02B0932E02EFBF7D
S1131E602FB7F89490938802809387022FBF71CE86
S1131E705B8568818F8190E0982F88272E81822B43
S1131E804FB7F89420910602309107024FBF821792
S1131E90930719F0019609F0ECCD563009F0E9CD1D
S1131EA06F3009F0E6CD8D8580FFECC02D988C85D0
S1131EB090E0982F88272D85822B81FFE1C0A5987B
S1131EC08C8590E0982F88272D85822B82FD00C178
S1131ED0A09ACFCD0E943F016093790270937A0259
S1131EE080937B0290937C028CE291E0A0E0B0E0CE
S1131EF080937D0290937E02A0937F02B093800230
S1131F00809181028E7F8260809381028FB7F894E2
S1131F109091FA039F3F91F4E091F703E23071F05E
S1131F209091F6039F3F09F4F2C0EC3038F4F0E0EE
S1131F30E850FC4F92E090839093F7038FBF09CE53
S1131F40C0907002D0907102E0907202F09073021F
S1131F509B01AC012C193D094E095F0940907402A4
S1131F60509075026090760270907702421A530A7C
S1131F70640A750A31E04FEF4416540664064FE7CD
S1131F80740609F09ACD30E098CD4091AA025091A0
S1131F90AB026091AC027091AD022FB7F8948091BE
S1131FA02F0290913002A0913102B0913202C09080
S1131FB03402D0903502E0903602F09037028C0D56
S1131FC09D1DAE1DBF1D2FBF4093AA025093AB02AF
S1131FD06093AC027093AD0210921E02CFB7F894D6
S1131FE08093340290933502A0933602B093370263
S1131FF040932F0250933002609331027093320267
S11320000E94DB03CFBF09CEBF770196A11DB11D8E
S11320101ECF862FD7CD332309F49BCD74CD809367
S1132020E2027093100295CD809184028F5F8093B9
S11320308402863008F09CCE8091850290918602BD
S113204020912802222309F445C085E08093E3020D
S113205082E080932702DF91CF911F910F91FF902F
S1132060EF90DF90CF90BF90AF909F908F907F9034
S11320706F905F904F903F902F90A1CA70E099CDE0
S1132080A59A1ECF2D9A13CFF0938602E093850272
S113209081E080932702109284028FB7F894909184
S11320A0FF039F3F11F08FBFD6CFE091F703E730D6
S11320B0D1F39091F6039F3F89F1EC30A0F7F0E063
S11320C0E850FC4F97E090839093F7038FBFC3CF02
S11320D0A098CFCC209182022111B7CF90932602F1
S11320E080932502C093280286E391E00E948E0427
S11320F0C0933802C0938202BC0180E090E00E9449
S1132100D7011092E30283E080932702A4CF92E0E8
S11321109093F6039093F7038FBF1BCD97E09093B2
S1132120F6039093F7038FBF96CF8091F6038F3F0A
S1132130A1F0282F30E02A583C4FF901EE57FF4F09
S113214090819093F6039F3F51F0F901EE57FF4FB2
S11321509FEF908352DC81E0089580E0089590938E
S1132160F703F3CF8FB7F89408958FBF08951F92A4
S11321700F920FB60F9211248F9380916E028F5F8E
S113218080936E028F910F900FBE0F901F90189541
S11321901F920F920FB60F9211240BB60F922F932A
S11321A03F934F935F936F937F938F939F93AF93DB
S11321B0BF93EF93FF938091DF008E7F8093DF00C6
S11321C08FEF80930B0281E08093940280919302BD
S11321D08823C1F140918B0250918C0260918D0251
S11321E070918E028FB7F894F091E100E091E200D3
S11321F03091E3002091E4008FBF8F2F9E2FA32FF7
S1132200B22F841B950BA60BB70B40918F025091F4
S11322109002609191027091920284179507A6072B
S1132220B70780F01092930280912F0290913002B0
S1132230A0913102B0913202892B8A2B8B2BC9F0E9
S11322400E94DB03109294020E942703FF91EF91F6
S1132250BF91AF919F918F917F916F915F914F91BA
S11322603F912F910F900BBE0F900FBE0F901F90B8
S113227018958FB7F8949091F9039F3F11F08FBF91
S1132280E1CFE091F703E130D1F39091F6039F3F62
S113229059F0EC30A0F7F0E0E850FC4F91E0908367
S11322A09093F7038FBFCECF91E09093F603909372
S11322B0F7038FBFC7CF1F920F920FB60F9211244F
S11322C00BB60F922F933F934F935F936F937F932C
S11322D08F939F93AF93BF93EF93FF938091DF000E
S11322E08D7F8093DF008FEF80930B0278948FB7FC
S11322F0F89490918202913019F492E090938202C2
S11323008FBF4DD9FF91EF91BF91AF919F918F9165
S11323107F916F915F914F913F912F910F900BBEE1
S11323200F900FBE0F901F9018951F920F920FB62B
S11323300F9211240BB60F922F933F934F935F93F9
S11323406F937F938F939F93AF93BF93EF93FF9379
S11323508091DF008B7F8093DF008FEF80930B02EF
S113236078948FB7F89490911A02913019F492E00E
S113237090931A028FBF13D9FF91EF91BF91AF9140
S11323809F918F917F916F915F914F913F912F9189
S11323900F900BBE0F900FBE0F901F9018951F92B9
S11323A00F920FB60F9211240BB60F922F933F93F7
S11323B04F935F936F937F938F939F93AF93EF9319
S11323C0FF932EB58091230290912402009739F057
S11323D0E0919602F0919702E80FF91F2083809113
S11323E09602909197020196909397028093960299
S11323F08CB58F778CBD8FEF80930B028091960202
S113240090919702E0918902F0918A028E179F07BA
S113241018F1109224021092230210922A021092B0
S1132420290210928A021092890210929702109245
S113243096028EB5FF91EF91AF919F918F917F910D
S11324406F915F914F913F912F910F900BBE0F9021
S11324500FBE0F901F9018952091290230912A02E7
S11324604091230250912402BC01665F7F4FE6171E
S1132470F707A0F16150710986179707C0F5211578
S1132480310539F1F901E80FF91FE081EEBD0DB412
S113249007FEFDCFAEB54115510521F0FA01E80F55
S11324A0F91FA08301968617970748F38CB58068B7
S11324B08CBD8FEF80930B0221153105B1F0F9012A
S11324C0E60FF71F80818EBD70939702609396028A
S11324D0B1CF1EBC0DB407FEFDCFDCCFBF016150F0
S11324E071098617970758F202C01EBCEDCFBC01D4
S11324F0DDCF78941F920F920FB60F9211240BB672
S11325000F922F933F934F935F936F937F938F9388
S11325109F93AF93BF93EF93FF939FB7F8948091EA
S113252099028260809399029FBF39D8FF91EF91FD
S1132530BF91AF919F918F917F916F915F914F91D7
S11325403F912F910F900BBE0F900FBE0F901F90D5
S1132550189578941F920F920FB60F9211240BB610
S11325600F922F933F934F935F936F937F938F9328
S11325709F93AF93BF93EF93FF939FB7F89480918A
S113258099028061809399029FBF09D8FF91EF91CE
S1132590BF91AF919F918F917F916F915F914F9177
S11325A03F912F910F900BBE0F900FBE0F901F9075
S11325B018951F920F920FB60F9211240BB60F921B
S11325C02F933F934F935F936F937F938F939F9337
S11325D0AF93BF93EF93FF938091990280628093AE
S11325E0990278940E94CF0AF894FF91EF91BF91D9
S11325F0AF919F918F917F916F915F914F913F9197
S11326002F910F900BBE0F900FBE0F901F90189537
S113261078941F920F920FB60F9211240BB60F925B
S11326202F933F934F935F936F937F938F939F93D6
S1132630AF93BF93EF93FF939FB7F8948091990260
S11326408068809399029FBF0E94CF0AFF91EF9107
S1132650BF91AF919F918F917F916F915F914F91B6
S11326603F912F910F900BBE0F900FBE0F901F90B4
S1132670189578941F920F920FB60F9211240BB6EF
S11326800F922F933F934F935F936F937F938F9307
S11326909F93AF93BF93EF93FF939FB7F894809169
S11326A099028160809399029FBF0E94CF0AFF9193
S11326B0EF91BF91AF919F918F917F916F915F91B6
S11326C04F913F912F910F900BBE0F900FBE0F9023
S11326D01F90189578941F920F920FB60F921124A1
S11326E00BB60F922F933F934F935F936F937F9308
S11326F08F939F93AF93BF93EF93FF939FB7F894F8
S1132700809199028860809399029FBF0E94CF0AAA
S1132710FF91EF91BF91AF919F918F917F916F91B5
S11327205F914F913F912F910F900BBE0F900FBE71
S11327300F901F901895CFB7F89484B78ABD14BE34
S113274088E10FB6F89480936000109260000FBE89
S11327504CE050E06FEF70E088EF93E006D28FEF2B
S11327608093F6038093F7038CE894E09093BD0480
S11327708093BC041092E1028AE58093190280914F
S113278035018061809335018091340180618093AB
S1132790340180913301806180933301809132014F
S11327A080618093320185B7806885BF85B7806872
S11327B085BF80E8809361001092610081E080937E
S11327C0810090E29093B6008093B10042E380913F
S11327D0B2008111FCCF209184003091850080915A
S11327E0B2008034E1F78091840090918500821BCF
S11327F0930B9093DF028093DE02415041F71092D5
S1132800B100109281001092B6008091B6008370DE
S1132810E1F78091DF008B7F8093DF008FEF80935F
S11328200B029091DC009B7F9093DC009091DF0081
S11328309D7F9093DF0080930B029091DC009D7F3D
S11328409093DC0090E29093B6009091DC0090634A
S11328509093DC0080930B029091DF00986090933A
S1132860DF009091DF009E7F9093DF0080930B0246
S11328708091DC008E7F8093DC00809A81E08FB9A8
S1132880259A9D9A989A2D9AA59AA09A4EDC811120
S1132890FDCF87EC8093490183E080934D01999AA1
S11328A0A19880EC8093450110926F0288E1809397
S11328B08404809144018062809344018091840463
S11328C0806480934801809139018260809339014A
S11328D08091DC0088608093DC0081E08093390281
S11328E020910C0230910D02C9010196A0E0B0E0E4
S11328F080932B0290932C02A0932D02B0932E026E
S113290084EE92E0909314028093130284E193E0A6
S1132910909316028093150284E493E09093180236
S1132920809317028FEF9FEF9093A1028093A002F0
S11329309093A3028093A2029093A5028093A40291
S11329409093A7028093A6029093A9028093A80271
S11329502295207F209312028093330280932202D7
S11329608AE0EBE8F2E0DF011D928A95E9F7DDDB0E
S11329708111FDCFCFBF78940E943F016093700214
S11329807093710280937202909373028EE791E0C8
S1132990A0E0B0E08093740290937502A093760255
S11329A0B0937702809178028E7F82608093780260
S11329B09FB7F8948091FA038F3F09F459C09FBFE1
S11329C00E94EF0ACFEF06C0F901EE57FF4FC08314
S11329D04FBF13D84FB7F8948091F6038F3F79F027
S11329E0282F30E02A583C4FF901EE57FF4F9081D1
S11329F09093F6039F3F41F79093F703E5CF8091BF
S1132A000B0287FD11C083B7816083BF78948895DA
S1132A10F89483B78E7F83BF8091F6038F3F01F7CD
S1132A2080910B0287FFEFCF80914E0187FD1EC07E
S1132A3085E00CB406FC18C0863008F085E090915F
S1132A40DC0095FF0FC0E3E08E1708F4E82FE09355
S1132A500B0283B7F0E0E85CFD4FE491807FE82B44
S1132A60E3BFD1CFE5E0F0CF80E0E9CF82E0E1CF72
S1132A70E091F703E23009F4A2CF8091F6038F3F8F
S1132A8059F0EC3008F09BCFF0E0E850FC4F82E0C6
S1132A9080838093F70393CF82E08093F60380933F
S1132AA0F7038DCFAA1BBB1B51E107C0AA1FBB1F95
S1132AB0A617B70710F0A61BB70B881F991F5A95C6
S1132AC0A9F780959095BC01CD010895EE0FFF1FE5
S1132AD00590F491E02D09940F93083090F0982F0D
S1132AE0872F762F652F542F432F322F22270850FC
S1132AF0F4CF220F331F441F551F661F771F881FF3
S1132B00991F0A95B2F70F91089597FB10F8169440
S1132B1000080F93083098F00850232F342F452FC6
S1132B20562F672F782F892F902DF4CF05949795E2
S1132B3087957795679557954795379527950A957E
S1132B40AAF70F9108952A193B094C095D096E09EA
S1132B507F09800B910B0895FB01DC0102C00190F9
S1132B600D9241505040D8F70895DC0101C06D9397
S10F2B7041505040E0F70895F894FFCF66
S1112B7C0102FFFFFF2201000101FFFF010023
S9030000FC
