S01600006275696C642F7470612F6D61696E2E73726563B6
S113000012C100002FC100002DC100002BC100004F
S113001029C1000027C1000025C1000023C1000040
S113002021C100001FC100001DC100001BC1000050
S113003019C1000017C1000015C1000013C1000060
S113004011C100000FC100000DC100000BC1000070
S113005009C1000007C1000005C1000003C1000080
S11300600C942E10FFC00000FDC00000FBC0000077
S1130070F9C00000F7C00000F5C00000F3C00000A4
S1130080F1C00000EFC00000EDC00000EBC00000B4
S1130090E9C00000E7C00000E5C00000E3C00000C4
S11300A0E1C00000DFC00000DDC00000DBC00000D4
S11300B0D9C00000D7C00000D5C00000D3C00000E4
S11300C0D1C00000CFC00000CDC00000CBC00000F4
S11300D0C9C00000C7C00000C5C00000C3C0000004
S11300E0C1C000000C946311BDC000000C94351114
S11300F00C9405110C94C311B5C000000C94D510D8
S11301000C9493110C94440F0C94BA0F0C94F40FA8
S11301100C94330FA7C00000A5C00000A3C00000CA
S113012000000000000000000000000000000000CB
S113013000000000000000000000000000000000BB
S113014000000000000000000000000000000000AB
S1130150000000000000000000000000000000009B
S1130160000000000000000000000000000000008B
S1130170000000000000000000000000000000007B
S1130180000000000000000000000000000000006B
S1130190000000000000000000000000000000005B
S11301A0000000000000000000000000000000004B
S11301B0000000000000000000000000000000003B
S11301C0000000000000000000000000000000002B
S11301D0000000000000000000000000000000001B
S11301E0000000000000000000000000000000000B
S11301F000000000000000000000000000000000FB
S113020000000000000000000000000000000000EA
S113021000000000000000000000000000000000DA
S113022000020E060C0411241FBECFEFD1E4DEBF82
S1130230CDBF12E0A0E0B2E0E2E3F8E200E00BBFE1
S113024002C007900D92AE30B107D9F724E0AEE0BA
S1130250B2E001C01D92A33CB207E1F70E94F31182
S11302600C941714CDCE9FB7F8948C3038F4E82F43
S1130270F0E0E850FC4F20812F3F19F085E09FBF4C
S11302800895E091F7038E17C9F32091F6032F3FE9
S113029051F0EC3098F7F0E0E850FC4F8083809305
S11302A0F70380E0ECCF8093F6038093F70380E0BC
S11302B0E6CF0F931F932FB7F89400916E028FB778
S11302C0F8946091E1005091E2004091E300309194
S11302D0E4008FBF862F952FA42FB32F3091E00019
S11302E033FF10C00F5F8FB7F8946091E100509115
S11302F0E2004091E3003091E4008FBF862F952FF8
S1130300A42FB32F2FBF10E020E030E04AE1000F0C
S1130310111F221F331F4A95D1F756E0B695A795B2
S1130320979587955A95D1F7082B192B2A2B3B2B98
S1130330B801C9011F910F910895FC01978180E0D4
S11303402681822B4FB7F894209106023091070240
S11303504FBF8217930721F0019611F080E00895B2
S1130360958180E02481AC01422B8FB7F8942091D1
S113037005028FBF30E081E04217530781F380E02C
S1130380EECFFC01328120E08181282B25FF05C0BE
S113039027743C7C2134384811F080E0089597811B
S11303A080E02681AC01422B8FB7F894209106029D
S11303B0309107028FBF81E04217530779F380E041
S11303C0EDCF0F931F93FB01AFB7F8942FB7F894B9
S11303D07091E1006091E2005091E3004091E400EB
S11303E02FBF072F162F252F342FAF01BC0142300A
S11303F051056105710520F442E050E060E070E0D1
S1130400400F511F621F731F7093F4006093F30039
S11304105093F2004093F10082E08093E0008091D9
S1130420DF0082608093DF008FEF80930B02AFBF09
S11304301F910F9108950F931F93CF93DF938C0116
S11304402FB7F894C0918702D0918802CE018F5EB5
S11304509E4F90938802809387022FBF89E003DF29
S1130460CE01B8010E9487139C012C5E3F4FC90145
S1130470DF91CF911F910F910895CF92DF92EF9268
S1130480FF920F931F93CF93DF93EC0180911D0292
S1130490882351F085E0DF91CF911F910F91FF9058
S11304A0EF90DF90CF90089580913902853091F7D5
S11304B0809199028111EECF8CA583FF2AC08FA56C
S11304C08F7090916F02891739F080936F02806C5E
S11304D080934501809345019A8180E02981822B94
S11304E087749C7C81349848E1F089E080934201D0
S11304F08CA5488185FD0FC000E010E04093800189
S1130500809141018F71893011F186E0809342011D
S1130510C1CF80E0D6CF842F85508E01080F111DE6
S1130520EDCF209146012F7130E04091E10280919E
S1130530190290E0840F911D95958795959587955F
S113054095958795821793070CF4A4CFCECF8CA5ED
S113055082FF7BC08DA5882309F48EC080914D0154
S11305608C7F816080934D0180914D018C7F8160EF
S113057080934D01A1989E012F5F3F4F42505FB77A
S1130580F8948FB7F894F091E100E091E200709153
S1130590E3006091E4008FBF8F2F9E2FA72FB62F0B
S11305A062E0609342015FBF5BE0C52ED12CE12C79
S11305B0F12CC80ED91EEA1EFB1E0115110509F403
S11305C069C0F8015081818190E0A0E0B0E0DC01D5
S11305D099278827B52B5381852B5281952B8C190C
S11305E09D09AE09BF0983839283A183B08350E040
S11305F0B90181E891E00E94071486E080934201EA
S1130600F8018081418150E060E070E0BA01552733
S11306104427782B8381482B8281582B4C0D5D1DF8
S11306206E1D7F1D43835283618370838CA582601A
S11306308CA7C8A6D9A6EAA6FBA686E080933902B1
S113064084E080931D0280E026CF9FB7F8948091C8
S113065001029FBF837090914D019C7F982B9093D2
S11306604D0190914D019C7F982B90934D018230C8
S113067009F080CFA19A7FCF80914D018C7F826059
S113068080934D0180914D018C7F826080934D0158
S1130690A19A71CF50E0B90181E891E00E9407145A
S11306A086E080934201C2CFCF92DF92EF92FF9215
S11306B00F931F938FB7F8945091E1004091E2009B
S11306C03091E3002091E4008FBF852F942FA32F56
S11306D0B22F20919302222309F470C040918B021F
S11306E050918C0260918D0270918E026C017D019B
S11306F0C41AD50AE60AF70A00918F0210919002F3
S11307002091910230919202C016D106E206F306BE
S113071008F463C0040F151F261F371F00938B02B4
S113072010938C0220938D0230938E0210928F02CC
S113073010929002109291021092920200E010E046
S113074098014FB7F894E090E100F090E200F09146
S1130750E300E091E4004FBFA7016F2F7E2F4E5FAF
S11307605F4F6F4F7F4F6A017B01C81AD90AEA0AAB
S1130770FB0AC016D106E206F30630F4B901A8015B
S1130780480F591F6A1F7B1F7093F8006093F7008E
S11307905093F6004093F50081E08093E00080914F
S11307A0DF0081608093DF008FEF80930B021F9145
S11307B00F91FF90EF90DF90CF9008958091DF002C
S11307C08E7F8093DF008FEF80930B021F910F9138
S11307D0FF90EF90DF90CF90089580938B029093D9
S11307E08C02A0938D02B0938E020C191D092E0960
S11307F03F0900938F02109390022093910230934B
S1130800920237FF9ECF369527951795079599CF76
S1130810CF93CFB7F89480910F02823021F0CFBFED
S113082081E0CF910895809102028111F8CF8091E7
S113083004028F3FC1F0E82FF0E0ED5CFD4F9081A2
S1130840909304029F3F61F09FEF90838093020294
S113085081E080930F0285E006DDCFBF80E0E1CF29
S113086090930302F1CF8093020210920F02F5CF0E
S1130870CF92DF92EF92FF920F931F931ADD0091B4
S11308803402109135022091360230913702C09023
S11308902F02D0903002E0903102F0903202C00E6C
S11308A0D11EE21EF31E601771078207930708F436
S11308B082C0C016D106E206F30608F451C06C15D6
S11308C07D058E059F0508F44BC000E010E09801FB
S11308D0C0923402D0923502E0923602F09237028E
S11308E010922F02109230021092310210923202B2
S11308F0DC01CB01880F991FAA1FBB1F880F991F0A
S1130900AA1FBB1F880F991FAA1FBB1F880F991FFF
S1130910AA1FBB1F880F991FAA1FBB1F880F991FEF
S1130920AA1FBB1F80938B0290938C02A0938D020D
S1130930B0938E0200938F02109390022093910241
S11309403093920281E0809393028091940281110A
S11309503FC01F910F91FF90EF90DF90CF90A4CEF6
S113096097018601061B170B280B390B0130110563
S1130970210542E0340798F1C12CD12CE12C52E03E
S1130980F52EC60ED71EE81EF91EC0923402D09270
S11309903502E0923602F0923702325000932F0271
S11309A010933002209331023093320200E010E0C1
S11309B020E030E89DCFC016D106E206F30608F029
S11309C084CF6C157D058E059F0508F07ECFC8CFBA
S11309D01F910F91FF90EF90DF90CF900895000F3B
S11309E0111F221F331F000F111F221F331F000F5F
S11309F0111F221F331F000F111F221F331F000F4F
S1130A00111F221F331F000F111F221F331F60CF1E
S1130A1080912702823009F0089581E080932702B3
S1130A2087E021CC2F923F924F925F926F927F92F8
S1130A308F929F92AF92BF92CF92DF92EF92FF92EA
S1130A400F931F93CF93DF93CDB7DEB72A970FB6DB
S1130A50F894DEBF0FBECDBF94E0E92EDD24DA9416
S1130A6023E0B22ECC24C39430E8932E45E0F42E38
S1130A7059E0A52E24C0893009F4A7C1982F9150BC
S1130A80933008F4EEC0873009F4C5C1883009F406
S1130A90FFC08823E1F080911A02823009F4D0C0AB
S1130AA080918202823009F46EC08FB7F8949091DD
S1130AB01F02913009F4A8C0C0921F028FBF809119
S1130AC0990281111AC080911D028111D4CF8091A5
S1130AD03902853001F7809199028111DCCF809130
S1130AE01B028111D8CF809128028111D4CF80912B
S1130AF082028111D0CF8CDFCECF8FB7F894709063
S1130B00E9001091EA000091EB008090EC007091F4
S1130B109902109299028FBF80911D0277FD45C101
S1130B20843009F4DBC075FF06C0863009F4B7C011
S1130B30882309F4B6C0853009F4BFC070FF05C02E
S1130B4090913902923009F47BC173FFBECF863095
S1130B5009F0BBCF809155018F7780935501809127
S1130B6055018F778093550110921D0280914101A8
S1130B70877009F4ACCF80914101809139028530AE
S1130B8009F089CFA8CF1092820280913802813077
S1130B9009F08BCF60906A0270906B028FB7F89463
S1130BA05091E1004091E2003091E3002091E40093
S1130BB08FBF852F942F681A790A90912802903854
S1130BC009F450C397FD16C12091250230912602E5
S1130BD080911B02882309F402C315E0892F8F77C3
S1130BE0813009F4EBC397FD26C3109228021093B9
S1130BF0E302C092270287E036DB8FB7F894909126
S1130C001F02913009F058CF10921F028FBF2A960D
S1130C100FB6F894DEBF0FBECDBFDF91CF911F9109
S1130C200F91FF90EF90DF90CF90BF90AF909F9087
S1130C308F907F906F905F904F903F902F9008958A
S1130C4010921A028091980281112ACF10921B02ED
S1130C50109228021092E302E092270287E003DB5D
S1130C601FCF282F2250223008F414C1923009F0EB
S1130C7041C1813009F4FBC0823009F007CF809173
S1130C803902833009F007CF10924E01D0920B0243
S1130C9010921D0286E0E7DA80911D02FACE1092CE
S1130CA01D02703209F443C1E091BC04F091BD040B
S1130CB084A5897E84A7F0921D0274FF98C0809158
S1130CC046019091E1028F71890F96959695891B43
S1130CD08093E102A0921D0289E030CF71FF85C0AC
S1130CE09FB7F89480910E029FBF882321F0823031
S1130CF009F48EC2A198F092390210921D028091DB
S1130D001B02833009F4A8C2E0918A04F0918B0499
S1130D103280212C81819101282BC90185FF98C043
S1130D2087749C7C8134984809F092C047814A8337
S1130D301982868129813A81282BC901019609F4F7
S1130D4087C080911A02811183C010929802C092C8
S1130D501A022FB7F8948FB7F8946091E10050917C
S1130D60E2004091E3003091E4008FBF862F952F7D
S1130D70A42FB32FCE96A11DB11DB093F000A09364
S1130D80EF009093EE008093ED00E092E0008091FC
S1130D90DF0084608093DF00D0920B022FBF42E01B
S1130DA040931B0280911D02BECE833071F18730C7
S1130DB061F1843009F492CF8A3009F0B4CEF09214
S1130DC0390210921D0280E0AECE40917B018091E9
S1130DD0460187FDD3C0F092390210921D02809122
S1130DE03902853009F057CE76CE84E09CCE8091CE
S1130DF01D02A4CE161417040CF0E6CE892F8F77AB
S1130E00813009F4DBC215E01AC2F092390288E09D
S1130E1080931D0288CE80913902909184048130A0
S1130E2021F0292F20642093480190649093480175
S1130E30853009F02DCFE092390280911D0226CE33
S1130E40982F9250923008F080CEB09239027DCE25
S1130E5010921B02109228021092E302E0922702E1
S1130E6087E0798700DA80911D0279855CCE9091C4
S1130E703902933009F00FCE90934D0190934D01B8
S1130E80999AA19890913901926090933901809335
S1130E903902FECE20913902213009F4BBC18330DE
S1130EA009F0E4CE233009F0E1CE8091840480641B
S1130EB0809348014DE540934E01D0920B028FB7C9
S1130EC0F894C09295028FBF9FB7F89480910E0258
S1130ED09FBF882309F4CAC180934D0190914A01B0
S1130EE0907F976090934A01999A823009F4CFC118
S1130EF0A198C5C190913902953009F0BACEB0924B
S1130F004D01B0924D01999AA1988FB7F89410921F
S1130F1095028FBFB092420110924E011092990235
S1130F20D0920B02B092390280911D02A2CE809120
S1130F3046018F7120911902982F920F26952695BC
S1130F40921B90931902E091BC04F091BD0494A506
S1130F50292F226024A770A611A702A783A6209197
S1130F604D0122FD34C124B3269521702C2525A7DB
S1130F709660977F906194A787A79DCE433008F42D
S1130F802ACF842F90E08A970CF025CFE091BC04FF
S1130F90F091BD044193425050E060E871E0CF010C
S1130FA00E9407142091BC043091BD0438872F831C
S1130FB0D9011296BC91BC831B82F90181812B81DA
S1130FC03C81282BC90187709927029709F433C201
S1130FD0AF81B8858C9182508B3008F4FCCE9FB7DA
S1130FE0F894809108029FBF81112BC29FB7F89497
S1130FF081E020919A02233008F080E09FBF88238B
S113100009F4E9CE20911B024091BC045091BD0427
S113101058874F83E0917B01F0E0E058FE4F8081D8
S11310206F807884D3019E968C939E97F0923902B8
S113103010921D021296BC91BE831D82F301818120
S11310404D815E81482BCA0187709927029709F464
S11310502CC1222309F44FC18FB7F8943091E100D9
S11310602091E2009091E3009091E4008FBFC901C8
S1131070092F182F8F81988584D9882311F00A5C51
S11310801F4F10936B0200936A028FB7F89450912C
S1131090E1004091E2003091E3002091E4008FBF31
S11310A0852F942FB801681B790B161617064CF47C
S11310B0809128028111F5C080918202882309F46D
S11310C0A4C1AF81B88519965C901997412C1896E4
S11310D08C91B201682B80901C02282D30E0F9011C
S11310E0EE0FFF1FE056FD4F4081518100918302B6
S11310F06417750709F436C1E0EAF2E0A5E8B4E044
S113110080E090E0812C10E09C01419151916417A2
S1131110750709F467C12D91302F321B131710F492
S1131120882E132F01968530910571F780921C0249
S1131130282D30E0F901EE0FFF1FE056FD4F7183BB
S113114060830F5F00938302F901EB57FB4F008329
S1131150F901E254FB4F1082802F8F778F3709F407
S113116016C190E040E0AF81B88513968C91F901E7
S1131170992309F48EC0E556FD4F9081891701F13A
S113118080831FB7F89480919A028330C0F4E09171
S1131190E002E80FE33008F0E350F0E0EE0FFF1F49
S11311A0ED5EFD4F808001812F813885318320835E
S11311B08F5F80939A0288E056D8682C702E1FBFE8
S11311C080911D027092BD046092BC045FCC20919A
S11311D04D01221F2227221F25A79660CACEC901CE
S11311E029873A874AD9182F29853A858111F7C06A
S11311F0D9019C968C919C978E7F9C968C93C092DF
S11312001B0230938B0420938A04B09228024DCCA5
S1131210A19A71CDD0924F0190924E0180913901E3
S11312208D7F80933901D0920B0232E030933902E2
S113123080911D021ECD161417040CF0D6CC90928A
S11312402802C0923802C0928202B301882777FD37
S11312508095982FB6D8CBCC10921B0275FD21CD6A
S113126080E06CCC10922802D3DB1FCC5DE050935D
S11312704D0180914A01807F836080934A0186E01A
S113128080934201E092390280911D02F2CCA19A2E
S1131290F6CFE254FB4F41604083F901E556FD4F20
S11312A06FCF8068809328020CCF223011F080E049
S11312B089CFE0918A04F0918B04D30113969C9119
S11312C083819813F4CF8091DF008B7F8093DF00BC
S11312D0D0920B0210921A0284A5816084A7109206
S11312E01B02109228021092E302E092270287E088
S11312F00E94330165CF9FB7F894809109029FBF84
S1131300882309F4A9CE8F8198853BD8882309F4D2
S1131310A3CEF0923A02B2E0B0933B0210923C02A8
S1131320EF81F885838180933D029FB7F894809183
S113133001029FBF82FD76C081E0EF81F88595A50B
S1131340911101C080E080936702809166028460FD
S1131350809366028AE392E090D881117DCEB092A8
S11313601B027ACEF901EB57FB4F8081801741F0C5
S11313700F5F009383020083802F8F778F3751F0A4
S1131380F901E254FB4F4081942F9170ECCE1F374A
S113139008F4E7CEE5E8F4E0802F80782F813885E3
S11313A090819F6709138083319644E0EA38F407FB
S11313B0B9F738872F83282D30E0E2CF90789260F8
S11313C0909328028CE890E036D8C0923802C092FC
S11313D08202BC0180E090E00E94E10166CB909122
S11313E02802FCCB80931C02FC01EB57FB4F40818D
S11313F0401731F20F5F009383020083402F4F7731
S11314004F3709F0BDCF882EC5CFC0923802C092A5
S11314108202882777FD8095982F0E94E10190929F
S113142028024FCE817080936702809166028460A7
S1131430809366028FCF20911B02223009F0CBCC1F
S1131440E9CD8F8198850E949D018111CFCDC3CCB8
S11314509FB7F89480911F02882329F080688093B5
S11314601F029FBF089581E080931F029FBFDACAC5
S11314709FB7F89480911F02815080931F02803897
S113148011F09FBF089581E080931F029FBFCACAD5
S1131490CF93FA012D3118F086E0CF91089552814F
S11314A040E09181492BDA01A774BC7CA134B8488F
S11314B039F04073552741645868418398E8928312
S11314C0235F20833FB7F89420910602909107028E
S11314D03FBF208791872FB7F894909105022FBFC3
S11314E0948315828387668377838FB7F89490916A
S11314F00F0291111FC092E090930F02109202020A
S11315008FBF8FE38287809112028F5F80931202D4
S113151083839FB7F89480911F028F5F80931F028B
S11315209FBF80912702882371F1A2DF71D985E0E2
S1131530CF9108958FBFF0932102E0932002CFB79B
S1131540F89480910F02882399F0809133028F3FA1
S113155021F085E0CFBFCF910895809103028823C5
S1131560C1F3109204021092030280E0CFBFF3CFC4
S113157081E080930F021092020285E00E94330101
S1131580CFBF80E08ACFF0938602E093850281E0AA
S1131590809327021092840287E00E94330168DF5F
S11315A080E07BCF1F93CF93DF93182FEB01E82FBD
S11315B0F0E0EE0FFF1FE459FD4F118210821092EC
S11315C00002E0916C02F0916D02309721F080915D
S11315D0E20280FF12C081E080930002111103C077
S11315E0CE5AD24021F0DF91CF911F9108951092ED
S11315F01002DF91CF911F91089520812D507781A2
S113160060E08681682BAF01838542DF882331F354
S11316108BE00E943301E2CF4F925F926F927F92F0
S11316208F929F92AF92BF92CF92DF92EF92FF92EE
S11316300F931F93CF93C0917802C1FF1BC080907A
S1131640700290907102A0907202B0907302409068
S113165074025090750260907602709077026B016C
S11316607C01C818D908EA08FB08C414D504E604A8
S1131670F70488F5C0918102C1FF1BC080907902F4
S113168090907A02A0907B02B0907C0240907D0200
S113169050907E0260907F02709080028B019C01CA
S11316A0081919092A093B090415150526053705E2
S11316B000F582E0CF911F910F91FF90EF90DF90A2
S11316C0CF90BF90AF909F908F907F906F905F90DE
S11316D04F900C94330120E0E0E7F2E0C0FF0DC02E
S11316E080858D7F8087213099F080E00E943301CE
S11316F0E0CF21E0E9E7F2E0F1CFD301C201880DA8
S1131700991DAA1DBB1D80839183A283B383EBCF54
S113171080917403909175030196883E23E09207AB
S113172090F5909375038093740380E283B980915C
S113173010028111BECF9091740380917503909330
S1131740BB028093BA028FEF8093B4028093B502F8
S113175086E08093B90280916C0290916D02892B8E
S113176009F0A7CF8EEA92E090936D0280936C0209
S11317708FE08093AE0280910002811109C081E064
S11317808093100296CF1092750310927403CDCFFC
S11317901092000222E04EEA52E06FEF7FEF86E003
S11317A077DE882361F381E08093000210926D025A
S11317B010926C027ECFCF93DF931F92CDB7DEB72A
S11317C09FB7F89480911F028F5F80931F029FBF81
S11317D080912702882341F085E0898349DE89814D
S11317E00F90DF91CF91089580911D028111F4CF64
S11317F080913902853011F489E0EFCF83E0809342
S11318001D0226DE85E08093270280E0E6CF3F922A
S11318104F925F926F927F928F929F92AF92BF92FC
S1131820CF92DF92EF92FF920F931F93CF93DF93A8
S1131830853009F41DC1E8F0883009F454C008F07B
S11318407FC0863009F408C2873009F4DCC1DF9117
S1131850CF911F910F91FF90EF90DF90CF90BF90A9
S1131860AF909F908F907F906F905F904F903F903C
S11318700895823009F436C108F486C0833009F42F
S1131880E0C0843021F72FB7F89482E080931102EE
S11318908CB58F7B8CBD8FEF80930B02229A23989B
S11318A0219A9A9A2098289A9CB590619CBD9CB5DF
S11318B09F779CBD9CB5977F9CBD9CB59B7F9CBD31
S11318C09CB590649CBD9DB591609DBD9CB59C7F6D
S11318D09CBD2FBFBCCF8093E00280919A028150BF
S11318E080939A029FBF8FB7F89490919A0299239C
S11318F009F4F6C0E091E002F0E0EE0FFF1FED5EA8
S1131900FD4FC081D1818FBF8A858F33A9F0CE016D
S11319100E949D019FB7F8948091E002E82FF0E0C7
S1131920EE0FFF1FED5EFD4FD183C0838F5F8330C9
S113193090F21092E002D1CF8FB7F8948FBFEACF24
S11319408A3009F42EC108F43EC08B3009F07FCFF1
S113195080910002E82FF0E0EE0FFF1FE459FD4FE5
S113196060817181DF91CF911F910F91FF90EF9072
S1131970DF90CF90BF90AF909F908F907F906F90AB
S11319805F904F903F900ECE882309F46EC0813053
S113199009F05DCF80911E02882309F491C10E9451
S11319A05901DF91CF911F910F91FF90EF90DF903C
S11319B0CF90BF90AF909F908F907F906F905F90EB
S11319C04F903F9029CE3FB6F89480912B0290918E
S11319D02C02A0912D02B0912E02CEE4AC2ED3E8BD
S11319E0BD2EC12CD12CE12CF12C00E010E09C0187
S11319F0AD0160E070E080E090E09DD629013A01FD
S1131A0000E2EAD649015A01D301C201B695A7956D
S1131A1097958795880D991DAA1DBB1DB7FD8FC18C
S1131A2080932B0290932C02A0932D02B0932E024C
S1131A303FBE2FB7F89490938802809387022FBFFC
S1131A4006CF8FB7F89410922402109223021092BA
S1131A502A021092290210928A021092890210928C
S1131A609702109296028FBFF2CE81E08FB9EFCE2B
S1131A708FB7F89492E090930F028FBF8091020287
S1131A808111E5CEE0912002F09121028FE382875B
S1131A90809112028F5F8093120283839FB7F89420
S1131AA080911F028F5F80931F029FBF8091270246
S1131AB0882309F48BC1DCDC0E94080460912002B5
S1131AC070912102809100028111C1CE80916C023B
S1131AD090916D026817790709F0B9CE80E042CF82
S1131AE08FBFB5CE0E9459012FB7F894109293027C
S1131AF02FBF2091780221FDBFC030E044244A94D6
S1131B00542C642C2FE7722E2091810221FF1EC1D8
S1131B10C0907902D0907A02E0907B02F0907C022F
S1131B204B015C018C189D08AE08BF08C0907D0273
S1131B30D0907E02E0907F02F0908002C818D9080D
S1131B40EA08FB08C414D504E604F7040CF0FEC04C
S1131B502601370114141504160417040CF021CFC0
S1131B604092AA025092AB026092AC027092AD0213
S1131B7021E020931E02CFB7F8946093340270934F
S1131B803502809336029093370240922F0250928E
S1131B90300260923102709232020E943804CFBF48
S1131BA056CE4091E202442309F451CE70911002C2
S1131BB0542F21E031E0622F6150842F8323D9F028
S1131BC0E62FF0E0EE0FFF1FE459FD4F8081918175
S1131BD011821082532F5095542361110CC08E5AD8
S1131BE0924009F4B1C0330F2F5F452F622F61502B
S1131BF0842F832329F7330F2830B1F75093E2025F
S1131C007093100224CE9FB7F89480911F028F5FC7
S1131C1080931F029FBF80912702813009F49AC0EC
S1131C201092270225DCC0918502D09186028A8514
S1131C308F3309F00CCE0E940804809100028111B8
S1131C4006CE80916C0290916D02C817D90709F0F5
S1131C50FECDBE0180E086CE80912702109227023D
S1131C60853009F4A1C0863009F4F1CD873009F438
S1131C70EECD80932702EBCDC0907002D09071021C
S1131C80E0907202F09073029B01AC012C193D09A3
S1131C904E095F094090740250907502609076027C
S1131CA070907702421A530A640A750A3FEF43168A
S1131CB0530663063FE7730609F074C030E024CF8F
S1131CC04091AA025091AB026091AC027091AD02B6
S1131CD02FB7F89480912F0290913002A091310295
S1131CE0B0913202C0903402D0903502E0903602B6
S1131CF0F09037028C0D9D1DAE1DBF1D2FBF40936C
S1131D00AA025093AB026093AC027093AD0210929E
S1131D101E02CFB7F8948093340290933502A093B7
S1131D203602B093370240932F02509330026093EF
S1131D303102709332020E943804CFBF30CEBF7795
S1131D400196A11DB11D6CCE70E04DCF332309F473
S1131D507ECD00CF809184028F5F80938402863091
S1131D6008F05ECF8091850290918602209128022E
S1131D702223C9F185E08093E30282E08093270265
S1131D80DF91CF911F910F91FF90EF90DF90CF9053
S1131D90BF90AF909F908F907F906F905F904F9087
S1131DA03F9066CB31E0B0CEDF91CF911F910F9180
S1131DB0FF90EF90DF90CF90BF90AF909F908F9067
S1131DC07F906F905F904F903F90F5CCF093860298
S1131DD0E093850281E0809327021092840287E0D9
S1131DE00E943301CDCF209182022111C3CF909361
S1131DF0260280932502C1E0C093280286E391E085
S1131E000E941B02C0933802C0938202BC0180E08E
S1131E1090E00E94E1011092E30283E080932702A4
S1131E20AFCF8091F6038F3FA1F0282F30E02A58DE
S1131E303C4FF901EE57FF4F90819093F6039F3F7B
S1131E4051F0F901EE57FF4F9FEF9083E0DC81E002
S1131E50089580E008959093F703F3CF8FB7F89433
S1131E6008958FBF08951F920F920FB60F921124F9
S1131E708F9380916E028F5F80936E028F910F908B
S1131E800FBE0F901F9018951F920F920FB60F92CE
S1131E9011240BB60F922F933F934F935F936F933D
S1131EA07F938F939F93AF93BF93EF93FF9380910F
S1131EB0DF008E7F8093DF008FEF80930B0281E041
S1131EC08093940280919302882341F140918B0284
S1131ED050918C0260918D0270918E028FB7F894AC
S1131EE0F091E100E091E2003091E3002091E40000
S1131EF08FBF8F2F9E2FA32FB22F841B950BA60B62
S1131F00B70B40918F0250919002609191027091B1
S1131F10920284179507A607B707B8F410929402A3
S1131F200E945403FF91EF91BF91AF919F918F91C4
S1131F307F916F915F914F913F912F910F900BBEC5
S1131F400F900FBE0F901F901895109293028091DE
S1131F502F0290913002A0913102B0913202892B6C
S1131F608A2B8B2B19F00E943804D8CF81E00E9471
S1131F703301D4CF1F920F920FB60F9211240BB6D8
S1131F800F922F933F934F935F936F937F938F930E
S1131F909F93AF93BF93EF93FF938091DF008D7F67
S1131FA08093DF008FEF80930B0278948FB7F894BF
S1131FB090918202913019F492E0909382028FBF43
S1131FC047DAFF91EF91BF91AF919F918F917F91EC
S1131FD06F915F914F913F912F910F900BBE0F9096
S1131FE00FBE0F901F9018951F920F920FB60F926D
S1131FF011240BB60F922F933F934F935F936F93DC
S11320007F938F939F93AF93BF93EF93FF938091AD
S1132010DF008B7F8093DF008FEF80930B02789437
S11320208FB7F89490911A02913019F492E090933A
S11320301A028FBF0DDAFF91EF91BF91AF919F917B
S11320408F917F916F915F914F913F912F910F905D
S11320500BBE0F900FBE0F901F9018951F920F92FA
S11320600FB60F9211240BB60F922F933F934F93F9
S11320705F936F937F938F939F93AF93BF93EF93EC
S1132080FF932EB58091230290912402009739F09A
S1132090E0919602F0919702E80FF91F2083A09136
S11320A09602B0919702AD014F5F5F4F5093970234
S11320B0409396028CB58F778CBD8FEF80930B0283
S11320C0CA01E0918902F0918A024E175F0720F15C
S11320D0109224021092230210922A0210922902D2
S11320E010928A021092890210929702109296021C
S11320F08EB5FF91EF91BF91AF919F918F917F9199
S11321006F915F914F913F912F910F900BBE0F9064
S11321100FBE0F901F9018952091290230912A022A
S113212060912302709124021B96EA17FB0798F131
S113213011974A175B07B8F52115310539F1F901F3
S1132140E80FF91F40814EBD0DB407FEFDCF4EB51B
S11321506115710521F0FB01E80FF91F4083019619
S11321608A179B0748F38CB580688CBD8FEF8093EA
S11321700B0221153105A9F0F901EA0FFB1F80813B
S11321808EBDB0939702A0939602B3CF1EBC0DB43C
S113219007FEFDCFDCCFDF0111974A175B0760F222
S11321A002C01EBCEECFDA01DECF78941F920F92EC
S11321B00FB60F9211240BB60F922F933F934F93A8
S11321C05F936F937F938F939F93AF93BF93EF939B
S11321D0FF939FB7F894809199028260809399024B
S11321E09FBF36D9FF91EF91BF91AF919F918F918E
S11321F07F916F915F914F913F912F910F900BBE03
S11322000F900FBE0F901F90189578941F920F9205
S11322100FB60F9211240BB60F922F933F934F9347
S11322205F936F937F938F939F93AF93BF93EF933A
S1132230FF939FB7F89480919902806180939902EB
S11322409FBF06D9FF91EF91BF91AF919F918F915D
S11322507F916F915F914F913F912F910F900BBEA2
S11322600F900FBE0F901F9018951F920F920FB6EC
S11322700F9211240BB60F922F933F934F935F93BA
S11322806F937F938F939F93AF93BF93EF93FF933A
S1132290809199028062809399027894D9D8F894B5
S11322A0FF91EF91BF91AF919F918F917F916F912A
S11322B05F914F913F912F910F900BBE0F900FBEE6
S11322C00F901F90189578941F920F920FB60F924B
S11322D011240BB60F922F933F934F935F936F93F9
S11322E07F938F939F93AF93BF93EF93FF939FB786
S11322F0F894809199028068809399029FBFA8D82E
S1132300FF91EF91BF91AF919F918F917F916F91C9
S11323105F914F913F912F910F900BBE0F900FBE85
S11323200F901F90189578941F920F920FB60F92EA
S113233011240BB60F922F933F934F935F936F9398
S11323407F938F939F93AF93BF93EF93FF939FB725
S1132350F894809199028160809399029FBF78D804
S1132360FF91EF91BF91AF919F918F917F916F9169
S11323705F914F913F912F910F900BBE0F900FBE25
S11323800F901F90189578941F920F920FB60F928A
S113239011240BB60F922F933F934F935F936F9338
S11323A07F938F939F93AF93BF93EF93FF939FB7C5
S11323B0F894809199028860809399029FBF48D8CD
S11323C0FF91EF91BF91AF919F918F917F916F9109
S11323D05F914F913F912F910F900BBE0F900FBEC5
S11323E00F901F901895CFB7F89484B78ABD14BE88
S11323F088E10FB6F89480936000109260000FBEDD
S11324004CE050E06FEF70E088EF93E009D28FEF7B
S11324108093F6038093F7038CE894E09093BD04D3
S11324208093BC041092E1028AE5809319028091A2
S113243035018061809335018091340180618093FE
S113244034018091330180618093330180913201A2
S113245080618093320185B7806885BF85B78068C5
S113246085BF80E8809361001092610081E08093D1
S1132470810090E29093B6008093B10050E04EEF5B
S11324808091B2008111FCCF2091840030918500AD
S11324908091B2008034E1F78091840090918500AE
S11324A0821B930B9093DF028093DE025F5F5233B3
S11324B011F0415029F71092B1001092810010924E
S11324C0B6008091B6008370E1F78091DF008B7FC6
S11324D08093DF008FEF80930B029091DC009B7F51
S11324E09093DC009091DF009D7F9093DF009091AA
S11324F0DC009D7F9093DC0090E29093B600909175
S1132500DC0090639093DC009091DF0098609093DE
S1132510DF009091DF009E7F9093DF008091DC00CC
S11325208E7F8093DC00809A81E08FB9259A9D9AF2
S1132530989A2D9AA59AA09A74DC8111FDCF87EC04
S11325408093490183E080934D01999AA19880EC8E
S11325508093450110926F0288E1809384048091F6
S1132560440180628093440188E58093480180910E
S113257039018260809339018091DC008860809306
S1132580DC0081E08093390220910C0230910D022D
S1132590C9010196A0E0B0E080932B0290932C0235
S11325A0A0932D02B0932E0284EE92E09093140235
S11325B08093130284E193E09093160280931502B2
S11325C084E493E090931802809317028FEF9FEFB7
S11325D09093A1028093A0029093A3028093A202FD
S11325E09093A5028093A4029093A7028093A602DD
S11325F09093A9028093A8022295207F209312022F
S11326008FEF80933302809322028AE0EBE8F2E0BA
S1132610DF011D928A95E9F704DC8111FDCFCFBF5C
S113262078940E94590160937002709371028093B0
S11326307202909373028EE791E0A0E0B0E0809381
S1132640740290937502A0937602B09377028091FE
S113265078028E7F82608093780282E00E94330148
S1132660AAD8CFEF06C0F901EE57FF4FC0834FBF82
S1132670CED84FB7F8948091F6038F3F79F0282F86
S113268030E02A583C4FF901EE57FF4F9081909368
S1132690F6039F3F41F79093F703E5CF80910B0238
S11326A087FD11C083B7816083BF78948895F894BF
S11326B083B78E7F83BF8091F6038F3F01F78091AC
S11326C00B0287FFEFCF80914E0187FD1EC085E08E
S11326D00CB406FC18C0863008F085E09091DC004C
S11326E095FF0FC0E3E08E1708F4E82FE0930B0288
S11326F083B7F0E0E05EFD4FE491807FE82BE3BF19
S1132700D1CFE5E0F0CF80E0E9CF82E0E1CFAA1BB2
S1132710BB1B51E107C0AA1FBB1FA617B70710F0C8
S1132720A61BB70B881F991F5A95A9F780959095FA
S1132730BC01CD010895DF93CF931F930F939A9D0E
S1132740F02D219FF00D8B9DF00D8A9DE02DF10D54
S1132750039FF00D029FE00DF11D4E9DE00DF11D54
S11327605E9DF00D4F9DF00D7F936F93BF92AF92DE
S11327705F934F93D5013FD08B01AC01D7013BD080
S1132780EB01E80FF91FD6011FD02F913F91D6011D
S113279032D0C60FD71FE81FF91FAF91BF9114D0D5
S11327A02F913F9128D0C60FD71FE81FF91FD601DC
S11327B022D0E60FF71F9801BE01CF0111240F911B
S11327C01F91CF91DF91089516D0460F571FC81F50
S11327D0D91F08F4319608950F930F7351F096950D
S11327E087957795679557954795379527950A95D2
S11327F0B1F70F910895A29FB001B39FC001A39FA9
S113280001D0B29F700D811D1124911D0895FB010B
S1132810DC0102C001900D9241505040D8F7089558
S1132820DC0101C06D9341505040E0F70895F894E5
S1052830FFCFD4
S11128320102FFFFFF2201000101FFFF010070
S9030000FC
