S01900006275696C642F7470615F63622F6D61696E2E737265638F
S11300001CC100003BC1000039C1000037C1000021
S113001035C1000033C1000031C100002FC1000010
S11300202DC100002BC1000029C1000027C1000020
S113003025C1000023C1000021C100001FC1000030
S11300401DC100001BC1000019C1000017C1000040
S113005015C1000013C1000011C100000FC1000050
S11300600DC100000BC1000009C1000007C1000060
S113007005C1000003C1000001C10000FFC0000071
S1130080FDC00000FBC00000F9C00000F7C0000084
S1130090F5C00000F3C00000F1C00000EFC0000094
S11300A0EDC00000EBC00000E9C00000E7C00000A4
S11300B0E5C00000E3C00000E1C00000DFC00000B4
S11300C0DDC00000DBC00000D9C00000D7C00000C4
S11300D0D5C00000D3C00000D1C00000CFC00000D4
S11300E0CDC000000C94E511C9C000000C94B711F8
S11300F00C9487110C944512C1C000000C94571144
S11301000C9415120C9450100C94E3100C941D11C3
S11301100C943F10B3C00000B1C00000AFC0000099
S1130120ADC00000ABC00000A9C00000A7C0000023
S1130130A5C0000000000000000000000000000056
S113014000000000000000000000000000000000AB
S1130150000000000000000000000000000000009B
S1130160000000000000000000000000000000008B
S1130170000000000000000000000000000000007B
S1130180000000000000000000000000000000006B
S1130190000000000000000000000000000000005B
S11301A0000000000000000000000000000000004B
S11301B0000000000000000000000000000000003B
S11301C0000000000000000000000000000000002B
S11301D0000000000000000000000000000000001B
S11301E0000000000000000000000000000000000B
S11301F000000000000000000000000000000000FB
S113020000000000000000000000000000000000EA
S113021000000000000000000000000000000000DA
S1130220D30DD50D190D2C0E640E730EEF0C9C0E10
S11302308A0DB60D00020E060C0411241FBECFEF6A
S1130240D1E8DEBFCDBF00E00CBF12E0A0E0B2E019
S1130250EAE3F9E200E00BBF02C007900D92AE3072
S1130260B107D9F724E0AEE0B2E001C01D92A73B8C
S1130270B207E1F70E9475120C949B14C1CECF9281
S1130280DF92EF92FF920F931F932FB7F894409150
S113029068028FB7F8947091E1006091E200509188
S11302A0E3003091E4008FBFC72ED62EE52EF32E47
S11302B03091E00033FF10C04F5F8FB7F894709116
S11302C0E1006091E2005091E3003091E4008FBFBF
S11302D0C72ED62EE52EF32E2FBF642F70E080E0BC
S11302E090E02AE1660F771F881F991F2A95D1F79E
S11302F09701860146E036952795179507954A9507
S1130300D1F7602B712B822B932B1F910F91FF90B0
S1130310EF90DF90CF900895FC01278130E0322FD9
S113032022278681282B4FB7F8948091060290915A
S113033007024FBF2817390729F02F3F3F4F11F00D
S113034080E00895258130E0322F22278481282BF4
S11303508FB7F894409105028FBF50E081E02417D5
S1130360350779F380E0EDCFFC01228130E0322FB4
S113037022278181282B25FF05C027743C7C21344A
S1130380384811F080E00895278130E0322F222789
S11303908681282B8FB7F89440910602509107026A
S11303A08FBF81E02417350771F380E0ECCF0F9302
S11303B01F93FB01AFB7F8942FB7F8947091E10045
S11303C06091E2005091E3004091E4002FBF072FB9
S11303D0162F252F342FAF01BC0142305105610582
S11303E0710520F442E050E060E070E0400F511FDE
S11303F0621F731F7093F4006093F3005093F20034
S11304004093F10082E08093E0008091DF008260FD
S11304108093DF008FEF80930A02AFBF1F910F918B
S11304200895CF92DF92EF92FF920F931F93CF9391
S1130430DF93EC0180911C02882351F085E0DF9169
S1130440CF911F910F91FF90EF90DF90CF9008957F
S113045080913302853091F780918F028111EECF24
S11304608CA583FF29C08FA58F709091690289178D
S113047021F080936902809345018A8190E0982F4E
S113048088272981822B87749C7C81349848E1F0E9
S113049089E0809342018CA5488185FD0FC000E06E
S11304A010E040938001809141018F71893011F1F6
S11304B086E080934201C2CF80E0D7CF8BEF840FD8
S11304C08E01080F111DEDCF209146012F7130E0F0
S11304D04091D7028091180290E0840F911D959568
S11304E087959595879595958795821793070CF42D
S11304F0A5CFCECF8CA582FF70C08DA5882309F42B
S11305007DC080914D018C7F816080934D01A198C5
S1130510BE016F5F7F4F42508FB7F894EFB7F894E6
S11305205091E1003091E2002091E3009091E400C9
S1130530EFBFC52ED32EE22EF92E92E09093420106
S11305408FBF8BE0C80ED11CE11CF11C01151105F5
S113055009F45CC0F8012081818190E0A0E0B0E062
S1130560DC0199278827B22B2381822B2281922BAD
S11305708C199D09AE09BF0983839283A183B0833B
S113058050E081E891E00E948B1486E08093420160
S1130590F8018081418150E060E070E0BA015527A4
S11305A04427782B8381482B8281582B4C0D5D1D69
S11305B06E1D7F1D43835283618370838CA582608B
S11305C08CA7C8A6D9A6EAA6FBA686E08093330228
S11305D084E080931C0280E032CF8FB7F89490912E
S11305E001028FBF937080914D018C7F892B809382
S11305F04D01923009F08BCFA19A8ACF80914D01A1
S11306008C7F826080934D01A19A82CF50E081E873
S113061091E00E948B1486E080934201CFCFCF9269
S1130620DF92EF92FF920F931F938FB7F89450913C
S1130630E1004091E2003091E3002091E4008FBF9B
S1130640852F942FA32FB22F20918B02222309F4FC
S113065070C0409183025091840260918502709130
S113066086026C017D01C41AD50AE60AF70A0091D4
S11306708702109188022091890230918A02C01663
S1130680D106E206F30608F463C0040F151F261F03
S1130690371F0093830210938402209385023093C2
S11306A08602109287021092880210928902109298
S11306B08A0200E010E098014FB7F894E090E1005E
S11306C0F090E200F091E300E091E4004FBFA70155
S11306D06F2F7E2F4E5F5F4F6F4F7F4F6A017B01FD
S11306E0C81AD90AEA0AFB0AC016D106E206F306BA
S11306F030F4B901A801480F591F6A1F7B1F70937A
S1130700F8006093F7005093F6004093F50081E001
S11307108093E0008091DF0081608093DF008FEFA1
S113072080930A021F910F91FF90EF90DF90CF907A
S113073008958091DF008E7F8093DF008FEF809398
S11307400A021F910F91FF90EF90DF90CF900895D0
S11307508093830290938402A0938502B0938602CF
S11307600C191D092E093F09009387021093880272
S11307702093890230938A0237FF9ECF36952795BE
S11307801795079599CFCF92DF92EF92FF920F932F
S11307901F9375DD00912E0210912F0220913002DB
S11307A030913102C0902A02D0902B02E0902C02AA
S11307B0F0902D02C00ED11EE21EF31E60177107C9
S11307C08207930708F464C0C016D106E206F30654
S11307D008F063C097018601061B170B280B390B21
S11307E001301105210542E0340708F477C06B019C
S11307F07C014EEFF41AC0922E02D0922F02E092A6
S11308003002F0923102325000932A0210932B02EC
S113081020932C0230932D0200E010E020E030E819
S1130820DC01CB01880F991FAA1FBB1F880F991FDA
S1130830AA1FBB1F880F991FAA1FBB1F880F991FD0
S1130840AA1FBB1F880F991FAA1FBB1F880F991FC0
S1130850AA1FBB1F8093830290938402A0938502F6
S1130860B093860200938702109388022093890232
S113087030938A0281E080938B0280918C028823DA
S113088031F11F910F91FF90EF90DF90CF90089579
S1130890C016D106E206F30630F46C157D058E050C
S11308A09F0508F497CF00E010E09801C0922E0253
S11308B0D0922F02E0923002F092310210922A027A
S11308C010922B0210922C0210922D02A9CF1F918C
S11308D00F91FF90EF90DF90CF90A1CEE6E0000F54
S11308E0111F221F331FEA95D1F7E0CFBC014FB788
S11308F0F89480918102909182029C012F5E3E4F78
S113090030938202209381024FBF2FB7F894309125
S1130910F5033F3F29F02FBF0E94311444960895F8
S1130920E091ED03E730B9F33091EC033F3F71F010
S1130930EA3088F7F0E0E251FC4F37E0308330933F
S1130940ED032FBF0E9431144496089537E030938D
S1130950EC033093ED03DFCF9FB7F89480910F023F
S1130960823019F09FBF81E00895809102028111C5
S1130970F9CF809104028F3F79F1E82FF0E0EF5D29
S1130980FD4F2081209304022F3F19F12FEF208384
S11309908093020281E080930F028FB7F894209134
S11309A0F1032F3F21F08FBF9FBF80E00895E091B6
S11309B0ED03E330C1F32091EC032F3F91F0EA30D3
S11309C090F7F0E0E251FC4F23E020832093ED0305
S11309D0EACF20930302DACF8093020210920F022F
S11309E0E3CF23E02093EC032093ED03DCCF3F928D
S11309F04F925F926F927F928F929F92AF92BF922B
S1130A00CF92DF92EF92FF920F931F93CF93DF93D6
S1130A10FF24F39485E0E82E94E0D92ECC24CA94E4
S1130A2023E0B22E3DE5732E46E0942E5DE0652E64
S1130A3060E8A62E72E0872E23C0893009F4C6C16F
S1130A409FEF980F933008F4FAC0873009F41BC164
S1130A50883009F40BC18823D9F0809119028230BF
S1130A6009F4D6C080917C028230A9F18FB7F89442
S1130A7090911E02913009F475C0F0921E028FBF4E
S1130A8080918F02811183C080911C028111D5CF86
S1130A9080913302853009F780918F028111DDCF77
S1130AA080911A028111D9CF809125028111D5CF6D
S1130AB080917C028111D1CF80912402823069F629
S1130AC0F09224028FB7F8949091F3039F3F09F4B6
S1130AD014C48FBFC2CF10927C0280913202813045
S1130AE029F660916402709165028FB7F894509171
S1130AF0E1004091E2003091E3002091E4008FBFD7
S1130B00852F942F20912502203809F492C12B01BE
S1130B10481A590A27FD6AC1C0912202D0912302C2
S1130B2080911A02882309F483C3822F15E08F77FA
S1130B30813009F4B8C327FD60C3109225021093D5
S1130B40D902F09224028FB7F8949091F3039F3F57
S1130B5009F43EC38FBF8FB7F89490911E02913071
S1130B6009F08BCF10921E028FBFDF91CF911F919E
S1130B700F91FF90EF90DF90CF90BF90AF909F9038
S1130B808F907F906F905F904F903F9008958FB7B4
S1130B90F8943091E9004091EA005091EB006091A3
S1130BA0EC0020918F0210928F028FBF80911C0263
S1130BB027FDFEC0843009F478C025FF06C08630C6
S1130BC009F4D7C0882309F4D6C0853009F4DFC0FE
S1130BD020FF05C090913302923009F432C123FF03
S1130BE055CF863009F052CF809155018F7780938D
S1130BF0550110921C0280914101877009F448CF7D
S1130C008091410180913302853009F026CF44CF91
S1130C101092190280918E02811124CF10921A022F
S1130C20109225021092D902D09224028FB7F89420
S1130C309091F3039F3F09F4E7C08FBF13CF2EEFCA
S1130C40280F223008F42FC1923009F05BC18130A3
S1130C5009F418C1823009F0FBCE8091330283304D
S1130C6009F0FBCE10924E01C0920A0210921C02AF
S1130C708FB7F8949091F2039F3F09F485C18FBF19
S1130C8080911C02E8CE80913302813079F3809107
S1130C90780480648093480180913302853031F771
S1130CA0D092330280911C02D3CE21FF91CF9FB703
S1130CB0F89480910E029FBF882321F0823009F4BA
S1130CC0B5C2A198E092330210921C0280911A02DC
S1130CD0833009F4E1C2E0917E04F0917F048281C3
S1130CE090E0982F88277181872B85FFB2C0877485
S1130CF09C7C8134984809F0ACC0878190E0982F9F
S1130D0088277681872B019609F4A3C08091190264
S1130D1081119FC010928E02F09219027FB7F8944D
S1130D208FB7F894D091E100C091E200F091E30014
S1130D30E091E4008FBF8D2F9C2FAF2FBE2FCE9656
S1130D40A11DB11DB093F000A093EF009093EE00AD
S1130D508093ED00D092E0008091DF008460809366
S1130D60DF00C0920A027FBF80921A0280911C02A7
S1130D7024CF10921C02203209F4DFC0E091B004A9
S1130D80F091B10484A5897E84A7E0921C0224FF1B
S1130D9038C0809146019091D7028F71890F969542
S1130DA09695891B8093D70289E080931C0210CF0B
S1130DB0982F9B7F933009F45FC08A3009F0FACEF4
S1130DC0E092330210921C0280E0F7CE40917B0146
S1130DD08091460187FDECC0E092330210921C0220
S1130DE080913302853009F038CE56CE14141504A0
S1130DF00CF092CE822F8F77813009F454C215E023
S1130E0000C280911C02E4CEE091ED03E53009F4C8
S1130E1014CF9091EC039F3F09F424C3EA3008F007
S1130E200CCFF0E0E251FC4FE082E092ED038FBF83
S1130E3019CE1092250280912402823009F016CE38
S1130E4080CE9EEF980F923008F0C9CEB092330254
S1130E50C6CE10921A02109225021092D902D09294
S1130E6024028FB7F8949091F3039F3F09F401C2D1
S1130E708FBF80911C02A1CEE092330288E0809360
S1130E801C029BCE90913302933009F0E6CD9093EF
S1130E904D01999AA19890913901926090933901EA
S1130EA080933302E3CE20913302213009F4D1C17F
S1130EB0833009F0C9CE233009F0C6CE809178047E
S1130EC080648093480170924E01C0920A028FB7E9
S1130ED0F894F0928D028FBF9FB7F89480910E0220
S1130EE09FBF882309F4F3C180934D0190914A0177
S1130EF0907F976090934A01999A823009F4FBC1DC
S1130F00A198EDC190913302953009F0A0CEB09232
S1130F104D01999AA1988FB7F89410928D028FBFC2
S1130F20B092420110924E0110928F02C0920A02B6
S1130F30B092330280911C028ACE809146018F7157
S1130F4070911802982F970F76957695971B90932A
S1130F501802E091B004F091B10494A5792F726065
S1130F6074A730A741A752A763A730914D0132FD62
S1130F7055C134B3369531703F2535A79660977FB8
S1130F80906194A787A701CFE091ED03E43009F4C1
S1130F9076CE9091EC039F3F09F46AC2EA3008F0E0
S1130FA06ECEF0E0E251FC4FD082D092ED0367CEDA
S1130FB08DEF840F873208F00FCF8091B0049091A9
S1130FC0B104FC014193CF01425050E060E871E06C
S1130FD00E948B140091B0041091B104D8011196B1
S1130FE08C918770823009F47FC2F801808182502D
S1130FF08B3008F4F1CE9FB7F894809108029FBF1C
S1131000811178C29FB7F89481E020919002233037
S113101008F080E09FBF882309F4DECE80911A0295
S11310200091B0041091B104E0917B01F0E0E0582C
S1131030FE4F90812801D8019E969C939E97E09242
S1131040330210921C0211969C9111979770923062
S113105009F474C1882309F4A6C18FB7F8943091B8
S1131060E1002091E2009091E3009091E4008FBFB1
S1131070C901C92FD82FC80177D98111E696D09319
S11310806502C09364028FB7F8945091E1004091D7
S1131090E2003091E3002091E4008FBF852F942F6C
S11310A0BE01681B790B161617064CF480912502B5
S11310B0811140C180917C02882309F4FAC1D801CE
S11310C019966C91199770E0762F662718968C9173
S11310D0682B20911B02422F50E0FA01EE0FFF1FF4
S11310E0EA56FD4F808191816817790709F48FC111
S11310F090917D02E6E9F2E0A9E7B4E020E030E077
S1131100312C80E0A901C191D1916C177D0709F4BC
S1131110CDC14D91592F541B851710F4322E852FB4
S11311202F5F3F4F2530310569F730921B02432D65
S113113050E0FA01EE0FFF1FEA56FD4F7183608302
S11311409F5F90937D02FA01E758FB4F9083FA0169
S1131150EE54FB4F1082292F2F772F3709F470C1DB
S113116090E020E0D80113968C91FA01992309F4B8
S1131170D9C0EF56FD4F9081891719F180839FB72D
S1131180F894809190028330D8F4E091D602E80F6D
S1131190E33008F0E350F0E0EE0FFF1FEE5EFD4F8A
S11311A020813181118300838F5F809390028FB7F8
S11311B0F8944091F4034F3F09F45FC18FBF2901B4
S11311C09FBF80911C025092B1044092B00440CC65
S11311D0E091ED03E53009F4BDCC9091EC039F3F21
S11311E009F45EC1EA3008F0B5CCF0E0E251FC4FFE
S11311F0E082E092ED038FBFAECC141415040CF022
S11312009CCCA0922502F0923202F0927C02B201B0
S1131210882777FD8095982FCAD891CC30914D01BD
S1131220331F3327331F35A79660A9CEA19A4ACD21
S1131230CE01F7D8182F811146C08CA58E7F8CA7BC
S1131240F0921A02D0937F04C0937E04B0922502D8
S11312500DCCC0924F01A0924E01809139018D7F37
S113126080933901C0920A028092330280911C0259
S1131270EECCE091ED03E53009F4FACD9091EC0366
S11312809F3FA1F1EA3008F0F3CDF0E0E251FC4FCA
S1131290E082E092ED03ECCD10921A02822F80726C
S11312A025FD69CD95CC20782260209325028CE819
S11312B090E01CDBF0923202F0927C02BC0180E0F0
S11312C090E075D8D3CB80912502282F30CC609242
S11312D04D0180914A01807F836080934A019092FE
S11312E04201D092330280911C02B1CCE092EC0313
S11312F0E092ED03BDCDA19AF2CFE091ED03E5308C
S113130009F4E7CB9091EC039F3F09F40CC1EA3058
S113131008F0DFCBF0E0E251FC4FE082E092ED0315
S11313208FBF9BCBEE54FB4F21602083FA01EF5615
S1131330FD4F24CF806880932502C1CE823011F006
S113134080E041CFE0917E04F0917F0413969C915C
S113135083819813F5CF8091DF008B7F8093DF002A
S1131360C0920A0210921902E0917E04F0917F0467
S113137084A5816084A780911A02882309F421CF6F
S113138010921A02109225021092D902D0922402CD
S11313908FB7F8949091F3039F3F09F4B1C08FBFC6
S11313A080911C0210CF9FB7F894809109029FBFCF
S11313B0882309F452CEC8010E94B401882309F499
S11313C04CCEE09234028092350210923602F8013B
S11313D08381809337029FB7F894809101029FBF65
S11313E082FD74C081E0F80195A5911101C080E0EF
S11313F0809361028091600284608093600284E340
S113140092E00FD8811129CEB0921A0226CE909183
S11314107D02FA01E758FB4F8081891751F09F5FE5
S113142090937D029083892F8F778F3769F0422FB5
S113143050E0FA01EE54FB4F2081922F917092CE2E
S11314408F3708F48DCE232DE9E7F4E0392F307877
S113145080818F6798133083319674E0EE37F707F5
S1131460B9F7E5CFE092EC03E092ED038FBFFACA3F
S1131470D092EC03D092ED0302CCE091ED03E63080
S113148009F49CCE4091EC034F3F49F1EA3008F057
S113149095CEF0E0E251FC4F90829092ED038ECE17
S11314A0E092EC03E092ED038FBF55CB20931B0237
S11314B0B0CFF0923202F0927C02882777FD8095BB
S11314C0982F0E94D701A0922502F9CD81708093B4
S11314D061028091600284608093600290CF909258
S11314E0EC039092ED036ACE80911A02823009F0E7
S11314F073CC9ACDC8010E948C01811183CD6CCC30
S1131500E091ED03E53009F44ACF9091EC039F3F5D
S113151081F0EA3008F043CFF0E0E251FC4FE08282
S1131520E092ED033CCFE092EC03E092ED038FBF39
S113153094CAE092EC03E092ED0331CF9FB7F894A4
S113154080911E02882329F0806880931E029FBF29
S1131550089581E080931E029FBF49CA9FB7F89403
S113156080911E02815080931E02803811F09FBF2B
S1131570089581E080931E029FBF39CACF93DF9301
S11315801F92CDB7DEB79FB7F89480911E028F5F8C
S113159080931E029FBF80912402882341F085E03E
S11315A08983DCDF89810F90DF91CF910895809149
S11315B01C028111F4CF80913302853011F489E04B
S11315C0EFCF83E080931C02B9DF85E0809324028F
S11315D080E0E6CFFA012D3110F086E008954281D3
S11315E050E0542F44279181492BDA01A774BC7C25
S11315F0A134B84839F04073552741645868418391
S113160098E89283235F20833FB7F89420910602E1
S1131610909107023FBF208791872FB7F89490914C
S113162005022FBF948315828387668377838FB7E0
S1131630F89490910F0291111EC092E090930F02C2
S1131640109202028FBF8FE38287809111028F5F15
S11316508093110283839FB7F89480911E028F5F59
S113166080931E029FBF80912402882379F176DF44
S113167073D985E008958FBFF0932002E0931F0291
S11316809FB7F89480910F02882389F080912102FA
S11316908F3F19F085E09FBF08958091030288234E
S11316A0C9F3109204021092030280E0F4CF81E0A7
S11316B080930F02109202028FB7F8942091F103E5
S11316C02F3FB9F08FBF9FBF80E00895F093800251
S11316D0E0937F0281E08093240210927E028FB710
S11316E0F8949091F3039F3FB1F08FBF37DF80E010
S11316F00895E091ED03E33029F32091EC032F3FAB
S1131700E1F0EA30F8F6F0E0E251FC4F23E0208308
S11317102093ED03D7CFE091ED03E53031F39091C1
S1131720EC039F3F81F0EA3000F7F0E0E251FC4F18
S113173095E090839093ED03D8CF23E02093EC03BE
S11317402093ED03BFCF95E09093EC039093ED03CA
S1131750CCCFE82FF0E0EE0FFF1FEA59FD4F1182C6
S1131760108291E090930002811103C0645A724088
S113177009F008951092100208954F925F926F92AB
S11317807F928F929F92AF92BF92CF92DF92EF920D
S1131790FF920F931F93CF93C0917202C1FF1CC09D
S11317A040906A0250906B0260906C0270906D02DF
S11317B080906E0290906F02A0907002B0907102BF
S11317C06B017C01C418D508E608F708C814D904CD
S11317D0EA04FB0408F052C0C0917B02C1FD17C0AB
S11317E08FB7F8949091F0039F3F81F18FBFCF9111
S11317F01F910F91FF90EF90DF90CF90BF90AF902B
S11318009F908F907F906F905F904F90089540903D
S1131810730250907402609075027090760280900A
S1131820770290907802A0907902B0907A028B01AE
S11318309C010419150926093709081519052A05F3
S11318403B0570F221E0E3E7F2E01BC0E091ED0319
S1131850E23061F29091EC039F3F51F0EA3030F6B0
S1131860F0E0E251FC4F92E090839093ED03BECF01
S113187092E09093EC039093ED03B8CF20E0EAE676
S1131880F2E0C0FF5FC080858D7F8087213009F042
S11318903FC080916A0390916B030196883E23E0D8
S11318A0920708F05AC090936B0380936A03809167
S11318B01002811195CF80EB92E0892B09F490CF2F
S11318C090916A0380916B039093B1028093B0026C
S11318D08FEF8093AA028093AB0286E08093AF02DD
S11318E08091660290916702892B09F079CF84EA8E
S11318F092E090936702809366028FE08093A40243
S113190080910002811134C081E08093100268CF7D
S11319109FB7F8948091EE038F3F11F09FBF60CF83
S1131920E091ED03EE23D1F38091EC038F3FD1F0EE
S1131930EA30A0F7F0E0E251FC4F10821092ED0380
S11319409FBF4ECFD301C201880D991DAA1DBB1D97
S113195080839183A283B38399CF10926B031092F7
S11319606A03A5CF1092EC031092ED039FBF38CF0A
S11319701092000222E044EA52E06FEF7FEF86E02B
S113198029DE882309F4C0CF81E0809300021092FD
S113199067021092660224CF2F923F924F925F9279
S11319A06F927F928F929F92AF92BF92CF92DF926B
S11319B0EF92FF920F931F93CF93DF9390E08A30BF
S11319C0910508F094C0FC01E05FFE4F5EC7809370
S11319D0D602809190028150809390029FBF8FB76E
S11319E0F89490919002992309F474C2E091D6027C
S11319F0F0E0EE0FFF1FEE5EFD4FC081D1818FBF7F
S1131A008A858F3309F400C2CE010E948C019FB7EE
S1131A10F8948091D602E82FF0E0EE0FFF1FEE5EFF
S1131A20FD4FD183C0838F5F833088F21092D6023A
S1131A30D0CF0E943F012FB7F89410928B022FBF92
S1131A402091720221FD48C230E044244A94542C6F
S1131A50642CEFE77E2E20917B0221FF64C2C090AC
S1131A607302D0907402E0907502F09076024B01FC
S1131A705C018C189D08AE08BF08C0907702D09016
S1131A807802E0907902F0907A02C818D908EA083E
S1131A90FB08C414D504E604F7040CF044C2260180
S1131AA0370114141504160417040CF0C2C0409234
S1131AB0A0025092A1026092A2027092A30221E0BD
S1131AC020931D02CFB7F89460932E0270932F02D7
S1131AD0809330029093310240922A0250922B025A
S1131AE060922C0270922D020E94C303CFBFDF913B
S1131AF0CF911F910F91FF90EF90DF90CF90BF9007
S1131B00AF909F908F907F906F905F904F903F9099
S1131B102F9008958091D802882349F37091100280
S1131B20482F31E021E017C0E62FF0E0EE0FFF1F51
S1131B30EA59FD4F8081918111821082522F509574
S1131B4054236111EEC1845A924009F41FC2220F3A
S1131B50452F3F5F842F6FEF630F922F942321F75C
S1131B60220F383009F4E3C1482FF3CF80910002EB
S1131B70E82FF0E0EE0FFF1FEA59FD4F60817181FD
S1131B80DF91CF911F910F91FF90EF90DF90CF9055
S1131B90BF90AF909F908F907F906F905F904F9089
S1131BA03F902F90D6CDA895A2CF80911D02811190
S1131BB03EC04091A0025091A1026091A202709196
S1131BC0A3022FB7F89480912A0290912B02A0913E
S1131BD02C02B0912D02C0902E02D0902F02E090E2
S1131BE03002F09031028C0D9D1DAE1DBF1D2FBF24
S1131BF04093A0025093A1026093A2027093A302A7
S1131C0010921D02CFB7F89480932E0290932F0266
S1131C10A0933002B093310240932A0250932B02D6
S1131C2060932C0270932D020E94C303CFBF0E94C5
S1131C303F01DF91CF911F910F91FF90EF90DF90C3
S1131C40CF90BF90AF909F908F907F906F905F9058
S1131C504F903F902F9091CD8FB7F89492E090934E
S1131C600F028FBF80910202811141CFE0911F02C8
S1131C70F09120028FE38287809111028F5F80931D
S1131C80110283839FB7F89480911E028F5F809323
S1131C901E029FBF80912402882309F47DC15EDC6B
S1131CA00E94AC0460911F02709120028091000296
S1131CB081111DCF809166029091670268177907A0
S1131CC009F015CF80E05CCF8091240210922402A9
S1131CD0853009F4CBC09AEF980F923008F407CFFF
S1131CE08093240204CF9FB7F89480911E028F5FE3
S1131CF080931E029FBFC0912402C13009F41CC10D
S1131D00109224022BDCC0917F02D09180028A853C
S1131D108F3309F0ECCE0E94AC0480910002811153
S1131D20E6CE8091660290916702C817D90709F040
S1131D30DECEBE0180E024CFEFB7F8948091260276
S1131D4090912702A0912802B09129021C012D0133
S1131D509C01A20160E070E080E090E003E09BD58C
S1131D6051016201E12CF12C00E010E0CBD55901C6
S1131D706A017B01F82F192F03E08DD50F2FC2D5EF
S1131D8059016A017B01F82F192F03E084D50F2F25
S1131D90B9D559016A017B01F82F192F03E07BD5CE
S1131DA00F2FB0D559016A017B01F82F192F03E0D9
S1131DB072D50F2FA7D501E06ED529013A0100E2B3
S1131DC085D549015A01D301C201B695A7959795C6
S1131DD08795880D991DAA1DBB1DB7FF04C0BF7749
S1131DE00196A11DB11D8093260290932702A09312
S1131DF02802B0932902EFBF2FB7F8949093820280
S1131E00809381022FBF73CE5B8568818F8190E0C0
S1131E10982F88272E81822B4FB7F89420910602A1
S1131E20309107024FBF8217930719F0019609F00A
S1131E30EECD563009F0EBCD6F3009F0E8CD8D854D
S1131E4080FFA8C02D988C8590E0982F88272D8539
S1131E50822B81FF9DC02E988C8590E0982F882737
S1131E602D85822B82FDBCC02F9AD1CD0E943F01CB
S1131E706093730270937402809375029093760258
S1131E808CE291E0A0E0B0E0809377029093780236
S1131E90A0937902B0937A0280917B028E7F826054
S1131EA080937B028FB7F8949091F0039F3F91F455
S1131EB0E091ED03E23071F09091EC039F3F09F45F
S1131EC0AEC0EA3038F4F0E0E251FC4F92E0908387
S1131ED09093ED038FBF0BCEC0906A02D0906B023B
S1131EE0E0906C02F0906D029B01AC012C193D094D
S1131EF04E095F0940906E0250906F02609070022C
S1131F0070907102421A530A640A750A31E04FEF65
S1131F104416540664064FE7740609F09CCD30E07D
S1131F209ACD852F1DCE332309F4E1CDBACD80930C
S1131F30D80270931002DBCD80917E028F5F809374
S1131F407E02863008F0DCCE80917F029091800280
S1131F5020912502222309F445C085E08093D9020B
S1131F6082E080932402DF91CF911F910F91FF9023
S1131F70EF90DF90CF90BF90AF909F908F907F9025
S1131F806F905F904F903F902F90E8CA70E0DFCD44
S1131F902E9A62CF2D9A57CFF0938002E0937F025E
S1131FA081E08093240210927E028FB7F89490917E
S1131FB0F3039F3F11F08FBFD6CFE091ED03E530DF
S1131FC0D1F39091EC039F3F89F1EA30A0F7F0E060
S1131FD0E251FC4F95E090839093ED038FBFC3CF04
S1131FE02F9815CD20917C022111B7CF9093230215
S1131FF080932202C093250286E391E00E94760436
S1132000C0933202C0937C02BC0180E090E00E9445
S1132010D7011092D90283E080932402A4CF92E0E6
S11320209093EC039093ED038FBF61CD95E0909373
S1132030EC039093ED038FBF96CF8091EC038F3F19
S1132040A1F0282F30E024593C4FF901EE57FF4FFF
S113205090819093EC039F3F51F0F901EE57FF4FAD
S11320609FEF908399DC81E0089580E00895909338
S1132070ED03F3CF8FB7F89408958FBF08951F929F
S11320800F920FB60F9211248F93809168028F5F85
S1132090809368028F910F900FBE0F901F90189538
S11320A01F920F920FB60F9211240BB60F922F931B
S11320B03F934F935F936F937F938F939F93AF93CC
S11320C0BF93EF93FF938091DF008E7F8093DF00B7
S11320D08FEF80930A0281E080938C0280918B02BF
S11320E08823C1F14091830250918402609185025A
S11320F0709186028FB7F894F091E100E091E200CC
S11321003091E3002091E4008FBF8F2F9E2FA32FE7
S1132110B22F841B950BA60BB70B409187025091ED
S113212088026091890270918A0284179507A60734
S1132130B70780F010928B0280912A0290912B02B3
S1132140A0912C02B0912D02892B8A2B8B2BC9F0E4
S11321500E94C30310928C020E940F03FF91EF911F
S1132160BF91AF919F918F917F916F915F914F91AB
S11321703F912F910F900BBE0F900FBE0F901F90A9
S113218018958FB7F8949091EF039F3F11F08FBF8C
S1132190E1CFE091ED03E130D1F39091EC039F3F67
S11321A059F0EA30A0F7F0E0E251FC4F91E090835F
S11321B09093ED038FBFCECF91E09093EC03909377
S11321C0ED038FBFC7CF1F920F920FB60F9211244A
S11321D00BB60F922F933F934F935F936F937F931D
S11321E08F939F93AF93BF93EF93FF938091DF00FF
S11321F08D7F8093DF008FEF80930A0278948FB7EE
S1132200F89490917C02913019F492E090937C02BE
S11322108FBF94D9FF91EF91BF91AF919F918F910F
S11322207F916F915F914F913F912F910F900BBED2
S11322300F900FBE0F901F9018951F920F920FB61C
S11322400F9211240BB60F922F933F934F935F93EA
S11322506F937F938F939F93AF93BF93EF93FF936A
S11322608091DF008B7F8093DF008FEF80930A02E1
S113227078948FB7F89490911902913019F492E000
S1132280909319028FBF5AD9FF91EF91BF91AF91EB
S11322909F918F917F916F915F914F913F912F917A
S11322A00F900BBE0F900FBE0F901F90189578944F
S11322B01F920F920FB60F9211240BB60F922F9309
S11322C03F934F935F936F937F938F939F93AF93BA
S11322D0BF93EF93FF939FB7F89480918F0282602E
S11322E080938F029FBF2AD9FF91EF91BF91AF9145
S11322F09F918F917F916F915F914F913F912F911A
S11323000F900BBE0F900FBE0F901F9018957894EE
S11323101F920F920FB60F9211240BB60F922F93A8
S11323203F934F935F936F937F938F939F93AF9359
S1132330BF93EF93FF939FB7F89480918F028061CE
S113234080938F029FBFFAD8FF91EF91BF91AF9115
S11323509F918F917F916F915F914F913F912F91B9
S11323600F900BBE0F900FBE0F901F9018951F92E9
S11323700F920FB60F9211240BB60F922F933F9327
S11323804F935F936F937F938F939F93AF93BF9379
S1132390EF93FF9380918F02806280938F027894F1
S11323A0CDD8F894FF91EF91BF91AF919F918F9108
S11323B07F916F915F914F913F912F910F900BBE41
S11323C00F900FBE0F901F90189578941F920F9244
S11323D00FB60F9211240BB60F922F933F934F9386
S11323E05F936F937F938F939F93AF93BF93EF9379
S11323F0FF939FB7F89480918F02806880938F0237
S11324009FBF9CD8FF91EF91BF91AF919F918F9106
S11324107F916F915F914F913F912F910F900BBEE0
S11324200F900FBE0F901F90189578941F920F92E3
S11324300FB60F9211240BB60F922F933F934F9325
S11324405F936F937F938F939F93AF93BF93EF9318
S1132450FF939FB7F89480918F02816080938F02DD
S11324609FBF6CD8FF91EF91BF91AF919F918F91D6
S11324707F916F915F914F913F912F910F900BBE80
S11324800F900FBE0F901F90189578941F920F9283
S11324900FB60F9211240BB60F922F933F934F93C5
S11324A05F936F937F938F939F93AF93BF93EF93B8
S11324B0FF939FB7F89480918F02886080938F0276
S11324C09FBF3CD8FF91EF91BF91AF919F918F91A6
S11324D07F916F915F914F913F912F910F900BBE20
S11324E00F900FBE0F901F901895CFB7F89484B734
S11324F08ABD14BE88E10FB6F894809360001092F0
S113250060000FBE4AE050E06FEF70E08EEE93E0A3
S11325100BD28FEF8093EC038093ED0380E894E07B
S11325209093B1048093B0041092D7028AE580930B
S113253018028091350180618093350180913401C6
S113254080618093340180913301806180933301F1
S11325508091320180618093320185B7806885BFA4
S113256085B7806885BF80E8809361001092610020
S113257081E08093810090E29093B6008093B10053
S113258042E38091B2008111FCCF2091840030910C
S113259085008091B2008034E1F7809184009091AD
S11325A08500821B930B9093D5028093D4024150F3
S11325B041F71092B100109281001092B600809100
S11325C0B6008370E1F78091DF008B7F8093DF009A
S11325D08FEF80930A029091DC009B7F9093DC0044
S11325E09091DF009D7F9093DF0080930A02909189
S11325F0DC009D7F9093DC0090E29093B600909174
S1132600DC0090639093DC0080930A029091DF00D9
S113261098609093DF009091DF009E7F9093DF009D
S113262080930A028091DC008E7F8093DC0088E135
S11326300FB6F89480936000109260000FBE29E2F8
S113264088E190E00FB6F894A895809360000FBEDF
S113265020936000259A269A279A2D9A2E9A2F9ACB
S1132660ECDC8111FDCF87EC8093490183E08093FA
S11326704D01999AA198109245011092690288E13E
S11326808093780480914401806280934401809116
S1132690780480648093480180913901826080933A
S11326A039018091DC0088608093DC0081E08093B4
S11326B0330220910B0230910C02C9010196A0E073
S11326C0B0E08093260290932702A0932802B0934F
S11326D029028AED92E090931302809312028AE019
S11326E093E090931502809314028AE393E090930D
S11326F01702809316028FEF9FEF909397028093B7
S11327009602909399028093980290939B028093EF
S11327109A0290939D0280939C0290939F028093CF
S11327209E022295207F20931102809321028AE049
S1132730E3E8F2E0DF011D928A95E9F77EDC81117E
S1132740FDCFCFBF78940E943F0160936A027093DB
S11327506B0280936C0290936D0280EA9FE0A0E08C
S1132760B0E080936E0290936F02A0937002B093D6
S11327707102809172028E7F8260809372029FB791
S1132780F8948091F0038F3F09F451C09FBF0E94D9
S1132790BE0ACFEF06C0F901EE57FF4FC0834FBF0B
S11327A0FBD84FB7F8948091EC038F3F79F0282F32
S11327B030E024593C4FF901EE57FF4F908190933C
S11327C0EC039F3F41F79093ED03E5CF80910A021C
S11327D087FD11C083B7816083BF78948895F8948E
S11327E083B78E7F83BF8091EC038F3F01F7809185
S11327F00A0287FFEFCF80914E0187FD16C085E066
S11328009091DC0095FF0FC0E3E08E1708F4E82FE9
S1132810E0930A0283B7F0E0EC5CFD4FE491807F23
S1132820E82BE3BFD7CFE5E0F0CF82E0E9CFE0913A
S1132830ED03E23009F4AACF8091EC038F3F59F005
S1132840EA3008F0A3CFF0E0E251FC4F82E080834D
S11328508093ED039BCF82E08093EC038093ED03A0
S113286095CFAA1BBB1B51E107C0AA1FBB1FA6170C
S1132870B70710F0A61BB70B881F991F5A95A9F725
S113288080959095BC01CD010895EE0FFF1F059032
S1132890F491E02D19940F93083090F0982F872F1E
S11328A0762F652F542F432F322F22270850F4CF31
S11328B0220F331F441F551F661F771F881F991F40
S11328C00A95B2F70F91089597FB10F81694000833
S11328D00F93083098F00850232F342F452F562F8C
S11328E0672F782F892F902DF4CF0594979587958E
S11328F07795679557954795379527950A95AAF73C
S11329000F9108952A193B094C095D096E097F0945
S1132910800B910B0895FB01DC0102C001900D9224
S113292041505040D8F70895DC0101C06D934150E7
S10D29305040E0F70895F894FFCF3B
S111293A0102FFFFFF2201000101FF01000066
S9030000FC
