S01600006275696C642F7470612F6D61696E2E73726563B6
S11300002FC200004CC200004AC2000048C20000D7
S113001046C2000044C2000042C2000040C20000C8
S11300203EC200003CC200003AC2000038C20000D8
S113003036C2000034C2000032C2000030C20000E8
S11300400C94A11E0C94831E0C948D1E0C94971E6C
S11300500C946C1E24C2000022C2000020C20000C6
S11300600C9442140C94B01C1AC200000C942A1D67
S113007016C2000014C2000012C2000010C2000028
S11300800EC200000CC200000AC2000008C2000038
S11300900C94501E04C200000C94611E00C20000A7
S11300A0FEC10000FCC10000FAC10000F8C100005C
S11300B0F6C10000F4C10000F2C10000F0C100006C
S11300C0EEC10000ECC10000EAC10000E8C100007C
S11300D0E6C10000E4C10000E2C10000E0C100008C
S11300E0DEC100000C943C1FDAC100000C940D1F0B
S11300F00C94DC1E0C949E1FD2C100000C94AB1E09
S11301000C946D1F0C943B130C94CE130C94081494
S11301100C942A13C4C10000C2C10000C0C1000075
S113012000000000000000000000000000000000CB
S113013000000000000000000000000000000000BB
S113014000000000000000000000000000000000AB
S1130150000000000000000000000000000000009B
S1130160000000000000000000000000000000008B
S1130170000000000000000000000000000000007B
S1130180000000000000000000000000000000006B
S1130190000000000000000000000000000000005B
S11301A0000000000000000000000000000000004B
S11301B0000000000000000000000000000000003B
S11301C0000000000000000000000000000000002B
S11301D0000000000000000000000000000000001B
S11301E0000000000000000000000000000000000B
S11301F000000000000000000000000000000000FB
S113020000000000000000000000000000000000EA
S113021000000000000000000000000000000000DA
S1130220F717E8189B176D19A0183F19D11649172D
S113023018178318E8164A181718CE189A168B162A
S1130240621626167A150016FA17171E021ED71DF7
S1130250CE1DC51DBB1DB71D9F1D00020E060C043F
S113026000002110422063308440A550C660E7702E
S1130270088129914AA16BB18CC1ADD1CEE1EFF1D6
S11302803112100273325222B5529442F772D6627E
S1130290399318837BB35AA3BDD39CC3FFF3DEE326
S11302A06224433420040114E664C774A4448554CE
S11302B06AA54BB528850995EEE5CFF5ACC58DD576
S11302C05336722611163006D776F6669556B4461E
S11302D05BB77AA719973887DFF7FEE79DD7BCC7C6
S11302E0C448E5588668A77840086118022823386E
S11302F0CCC9EDD98EE9AFF9488969990AA92BB916
S1130300F55AD44AB77A966A711A500A333A122ABD
S1130310FDDBDCCBBFFB9EEB799B588B3BBB1AAB65
S1130320A66C877CE44CC55C222C033C600C411C0D
S1130330AEED8FFDECCDCDDD2AAD0BBD688D499DB5
S1130340977EB66ED55EF44E133E322E511E700E5D
S11303509FFFBEEFDDDFFCCF1BBF3AAF599F788F05
S11303608891A981CAB1EBA10CD12DC14EF16FE1E5
S11303708010A100C230E32004502540467067601D
S1130380B9839893FBA3DAB33DC31CD37FE35EF335
S1130390B1029012F322D23235421452776256726D
S11303A0EAB5CBA5A89589856EF54FE52CD50DC585
S11303B0E234C324A01481046674476424540544BD
S11303C0DBA7FAB79987B8975FE77EF71DC73CD7D5
S11303D0D326F2369106B01657667676154634560D
S11303E04CD96DC90EF92FE9C899E9898AB9ABA925
S11303F04458654806782768C018E1088238A3285D
S11304007DCB5CDB3FEB1EFBF98BD89BBBAB9ABB74
S1130410754A545A376A167AF10AD01AB32A923AAC
S11304202EFD0FED6CDD4DCDAABD8BADE89DC98DC4
S1130430267C076C645C454CA23C832CE01CC10CFC
S11304401FEF3EFF5DCF7CDF9BAFBABFD98FF89F14
S1130450176E367E554E745E932EB23ED10EF01E4C
S113046011241FBECFEFD1E4DEBFCDBF12E0A0E068
S1130470B2E0EEE0FBE400E00BBF02C007900D9297
S1130480AE35B107D9F727E0AEE5B2E001C01D9261
S1130490A930B207E1F70E94CF1F0C948525B0CD97
S11304A0CF92DF92EF92FF920F931F932FB7F8949E
S11304B04091F2028FB7F8947091E1006091E200EC
S11304C05091E3003091E4008FBFC72ED62EE52E65
S11304D0F32E3091E00033FF10C04F5F8FB7F894D4
S11304E07091E1006091E2005091E3003091E400EA
S11304F08FBFC72ED62EE52EF32E2FBF642F70E0AC
S113050080E090E02AE1660F771F881F991F2A95E3
S1130510D1F79701860146E03695279517950795FB
S11305204A95D1F7602B712B822B932B1F910F913E
S1130530FF90EF90DF90CF900895FC01278130E089
S1130540322F22278681282B4FB7F89480910602F8
S1130550909107024FBF2817390729F02F3F3F4FCB
S113056011F080E00895258130E0322F2227848124
S1130570282B8FB7F894409105028FBF50E081E09B
S11305802417350779F380E0EDCFFC01228130E0B8
S1130590322F22278181282B25FF05C027743C7C1C
S11305A02134384811F080E00895278130E0322F5B
S11305B022278681282B8FB7F89440910602509108
S11305C007028FBF81E02417350771F380E0ECCF79
S11305D00F931F93FB01AFB7F8942FB7F894709162
S11305E0E1006091E2005091E3004091E4002FBFEC
S11305F0072F162F252F342FAF01BC014230510590
S11306006105710520F442E050E060E070E0400FC5
S1130610511F621F731F7093F4006093F300509393
S1130620F2004093F10082E08093E0008091DF00CB
S113063082608093DF008FEF80931402AFBF1F911D
S11306400F910895E0E6F2E06927660FF11DE60FC9
S1130650F11DC895982F802D3196C8959025089541
S1130660CF92DF92EF92FF920F931F93CF93DF937A
S1130670EC0180919002882351F085E0DF91CF91C5
S11306801F910F91FF90EF90DF90CF90089580918C
S1130690B802853091F78091BD038111EECF8CA50E
S11306A083FF2FC08FA58F709091F502891751F0A9
S11306B08093F502806C809345018091F502806CF3
S11306C0809345018A8190E0982F88272981822B85
S11306D087749C7C81349848E1F089E080934201DE
S11306E08CA5488185FD0FC000E010E04093800197
S11306F0809141018F71893011F186E0809342012C
S1130700BCCF80E0D1CF8BEF840F8E01080F111D79
S1130710EDCF209146012F7130E04091D8048091B3
S1130720890290E0840F911D9595879595958795FD
S113073095958795821793070CF49FCFCECF8CA500
S113074082FF76C08DA5882309F489C080914D016C
S11307508C7F816080934D0180914D018C7F8160FD
S113076080934D01A198BE016F5F7F4F42508FB7B8
S1130770F894EFB7F8945091E1003091E2002091A1
S1130780E3009091E400EFBFC52ED32EE22EF92EA4
S113079092E0909342018FBF8BE0C80ED11CE11C04
S11307A0F11C0115110509F468C0F801208181814B
S11307B090E0A0E0B0E0DC0199278827B22B2381E8
S11307C0822B2281922B8C199D09AE09BF09838348
S11307D09283A183B08350E081E891E00E94A32238
S11307E086E080934201F8018081418150E060E01D
S11307F070E0BA0155274427782B8381482B8281E6
S1130800582B4C0D5D1D6E1D7F1D438352836183E8
S113081070838CA582608CA7C8A6D9A6EAA6FBA67D
S113082086E08093B80284E08093900280E026CF33
S11308309FB7F894809101029FBF837090914D01FE
S11308409C7F982B90934D0190914D019C7F982B08
S113085090934D01823009F085CFA19A84CF809185
S11308604D018C7F826080934D0180914D018C7F7E
S1130870826080934D01A19A76CF50E081E891E0A7
S11308800E94A32286E080934201C3CFCF92DF92DD
S1130890EF92FF920F931F938FB7F8945091E1005A
S11308A04091E2003091E3002091E4008FBF852F56
S11308B0942FA32FB22F20918703222309F470C011
S11308C040917F0350918003609181037091820372
S11308D06C017D01C41AD50AE60AF70A0091830364
S11308E0109184032091850330918603C016D106AC
S11308F0E206F30608F463C0040F151F261F371F12
S113090000937F0310938003209381033093820329
S1130910109283031092840310928503109286032D
S113092000E010E098014FB7F894E090E100F090F7
S1130930E200F091E300E091E4004FBFA7016F2FC4
S11309407E2F4E5F5F4F6F4F7F4F6A017B01C81A46
S1130950D90AEA0AFB0AC016D106E206F30630F405
S1130960B901A801480F591F6A1F7B1F7093F80033
S11309706093F7005093F6004093F50081E0809374
S1130980E0008091DF0081608093DF008FEF80932F
S113099014021F910F91FF90EF90DF90CF90089574
S11309A08091DF008E7F8093DF008FEF80931402AD
S11309B01F910F91FF90EF90DF90CF900895809357
S11309C07F0390938003A0938103B09382030C1957
S11309D01D092E093F090093830310938403209378
S11309E085033093860337FF9ECF36952795179559
S11309F0079599CFCF92DF92EF92FF920F931F93B7
S1130A004FDD0091B0021091B1022091B2023091F9
S1130A10B302C090AB02D090AC02E090AD02F09073
S1130A20AE02C00ED11EE21EF31E601771078207CC
S1130A30930708F464C0C016D106E206F30608F072
S1130A4063C097018601061B170B280B390B013075
S1130A501105210542E0340708F477C06B017C01DD
S1130A604EEFF41AC092B002D092B102E092B202F8
S1130A70F092B30232500093AB021093AC02209375
S1130A80AD023093AE0200E010E020E030E8DC017B
S1130A90CB01880F991FAA1FBB1F880F991FAA1F7C
S1130AA0BB1F880F991FAA1FBB1F880F991FAA1F5E
S1130AB0BB1F880F991FAA1FBB1F880F991FAA1F4E
S1130AC0BB1F80937F0390938003A0938103B09313
S1130AD0820300938303109384032093850330934C
S1130AE0860381E08093870380918803882331F112
S1130AF01F910F91FF90EF90DF90CF900895C01653
S1130B00D106E206F30630F46C157D058E059F05CB
S1130B1008F497CF00E010E09801C092B002D092A0
S1130B20B102E092B202F092B3021092AB021092C0
S1130B30AC021092AD021092AE02A9CF1F910F9198
S1130B40FF90EF90DF90CF90A1CEE6E0000F111F51
S1130B50221F331FEA95D1F7E0CF8091B402909120
S1130B60B502892B11F085E0089581E090E090931F
S1130B70C2048093C10486EA92E09093B502809304
S1130B80B40210929F0210929E0281E08093A00210
S1130B908091C00080648093C0008091C100806413
S1130BA08093C10080919E0290919F029C012F5FCF
S1130BB03F4F30939F0220939E02FC01EA55FD4F64
S1130BC080819FB7F8948093C6008091C0008064B0
S1130BD08093C0009FBF80E0089593E8980F9230FF
S1130BE018F08093A602B9CF909166029160909319
S1130BF0660290E2982790938B028DE78093A60279
S1130C00ACCF9FB7F894809166028E7F8093660282
S1130C108EE78093A6029FBFA0CFBC014FB7F89484
S1130C2080917A0390917B039C012F5E3E4F309319
S1130C307B0320937A034FBF2FB7F894309131068A
S1130C403F3F29F02FBF0E94272244960895E09148
S1130C501E06E231B9F330911D063F3F71F0E531D4
S1130C6088F7F0E0E15EF94F32E1308330931E06FD
S1130C702FBF0E9427224496089532E130931D0627
S1130C8030931E06DFCF8FB7F8949091A102992379
S1130C9011F08FBF08952FB7F894909126069F3FC7
S1130CA049F095E02FBF9111F4CF91E09093A10208
S1130CB08FBF0895E0911E06E73099F390911D06C9
S1130CC09F3F59F0E53168F7F0E0E15EF94F97E0B6
S1130CD0908390931E0690E0E5CF97E090931D06D5
S1130CE090931E0690E0DECF90916B0291113AC072
S1130CF0811138C041E040936B02809110028093CF
S1130D006A0230917802832F817080938A028091E5
S1130D100A0290910B029093690280936802809179
S1130D20770280936702809187028093B904232F0E
S1130D3021702427367EE22FF0E0EE0FFF1FE45FE0
S1130D40FD4F8081918190930B0280930A02322B94
S1130D50309378028FB7F89490912B069F3F71F0EF
S1130D608FBF08958091780280FF04C08B7F8093A9
S1130D70780208958D7F809378020895E0911E068D
S1130D80EC3071F390911D069F3F51F0E53140F72F
S1130D90F0E0E15EF94F9CE0908390931E06E0CF73
S1130DA09CE090931D0690931E06DACF80917E02FC
S1130DB08A3021F081E080937902089580918F0236
S1130DC08430C1F78FB7F894909128069F3F21F0A3
S1130DD08FBF109279020895E0911E06E930C1F3A5
S1130DE090911D069F3F51F0E53190F7F0E0E15EF0
S1130DF0F94F99E0908390931E06EACF99E090937F
S1130E001D0690931E06E4CF1F93CF93DF93C82F44
S1130E10D62F90918F02913009F4AFC008F496C098
S1130E20923009F448C0933009F06BC010917503F7
S1130E301F3F09F466C0882309F4DAC0123008F4AD
S1130E403DC08091E90281112AC12091ED0230E078
S1130E50322F222781E090E0FC01E751FD4F82818F
S1130E60282B80917F02909180028217930731F59D
S1130E7080E03ADF8091B602843409F434C11092E0
S1130E80EA021092E90284E080938F0210927503C3
S1130E901092B60210927C031092800210927F028C
S1130EA0809166028D7F8093660280917902882307
S1130EB009F448C022C0882309F48BC01092EA02C6
S1130EC01092E90284E080938F02109275031092CD
S1130ED0B60210927C031092800210927F028091DD
S1130EE066028D7F8093660281E0FEDE8091790246
S1130EF0882329F184E080938F02DF91CF911F91A1
S1130F0055CF1092EA021092E90284E080938F0296
S1130F10109275031092B60210927C031092800214
S1130F2010927F02809166028D7F8093660281E039
S1130F30DBDE809179028111DDCFCC2319F081E0D1
S1130F4080938F02DF91CF911F9108958823D1F36D
S1130F501092EA021092E902109275031092B602FE
S1130F6010927C031092800210927F0281E08093A1
S1130F708F02DF91CF911F9108958111E3CF80916A
S1130F807F02909180025EDB9093800280937F02C7
S1130F9082E080938F02D093B6028DEB8D0F833065
S1130FA008F0AFCF8091780280FD70C081FDA9CF99
S1130FB082608093780280917802877E8860809333
S1130FC07802D0938702109277028FEF80931002F9
S1130FD0B9CF60937C0380917F029091800232DBD1
S1130FE09093800280937F0283E080938F02AACF44
S1130FF01230E0F12091EA02E22FF0E0E751FD4FD8
S1131000628130917802832F8695869586958370C8
S113101090E08130910509F454C00297C9F480919D
S113102077028832A8F4E0910A02F0910B02E80FEB
S1131030F11D6083809177028F5F80937702209106
S1131040EA02E22FF0E0E751FD4F6281109175034F
S11310502F5F233098F52093EA0280917F029091CC
S11310608002F0DA9093800280937F028091E902FB
S1131070E82FF0E0E751FD4FD2838F5F833060F0BB
S11310801092E9021F5F109375035CCF82FD39CF84
S11310908460809378028FCF8093E902F3CF9FEF2F
S11310A0980FE92FF0E0E751FD4F228130E0322F15
S11310B02227911135C082E090E0CECE1092EA0250
S11310C0CCCF80918702377E3061309378028334AD
S11310D031F085E08093770260931002B9CF85E008
S11310E080937702B5CF20917C03E091BE063091C6
S11310F0BF0681E08E0F863070F4982F391709F4FB
S1131100BECEF0E0E254F94F2283863030F480936F
S1131110BE06B9DDB4CE90E0F1CF1092BE06F9CF91
S1131120825090E099CE9FB7F89480915F0282300C
S113113019F09FBF81E00895809102028111F9CFD7
S1131140809104028F3F79F1E82FF0E0E155FD4FE3
S11311502081209304022F3F19F12FEF20838093E5
S1131160020281E080935F028FB7F89420912D06EC
S11311702F3F21F08FBF9FBF80E00895E0911E06AE
S1131180EE30C1F320911D062F3F91F0E53190F729
S1131190F0E0E15EF94F2EE0208320931E06EACFB3
S11311A020930302DACF8093020210925F02E3CF0E
S11311B02EE020931D0620931E06DCCF9FB7F894E3
S11311C080917E028A3039F080918F02843019F048
S11311D09FBF89E00895809111028823C9F39FBFBE
S11311E08FB7F894909127069F3F19F08FBF80E046
S11311F00895E0911E06E830C9F390911D069F3FC3
S113120051F0E53198F7F0E0E15EF94F98E0908312
S113121090931E06EBCF98E090931D0690931E06C4
S1131220E5CF10921202E091F002F091F1023097B2
S113123021F08091D90480FF04C081E080931202E0
S11312400895858190E0982F88272681822B7185C7
S11312507D3148F08FB7F894909125069F3F09F4AB
S11312606FC08FBF08958683958313A680A58434A9
S113127009F47AC065E481A5882309F45FC052A506
S1131280852F90E09C0135952795359527953595C3
S1131290279535952795237040E1249F90011124CB
S11312A0082E892F000C881F990B000C881F991F8A
S11312B0482F4295440F440F407C422B5F70452BCE
S11312C011A68091730290917402892B19F68FB73D
S11312D0F89410926C0295E090937102109270024F
S11312E0F0937602E093750222E030E030937402CA
S11312F02093730210926E0210926F02745F7093C7
S113130072028FBF9FB7F89480917E028A3071F188
S11313109FBF9FB7F8948091B70681112DC081E0DB
S11313208093B7064093B806609373039FBF8111FF
S11313302BC010927402109273028CCF40E0C1CF84
S1131340E0911E06E63009F48CCF90911D069F3F74
S1131350A9F0E53108F085CFF0E0E15EF94F96E0C1
S1131360908390931E067DCF64E485CF9FBF109237
S11313707402109273026ECF80E0D8CF96E09093FF
S11313801D0690931E066DCF7ECC70916102472F8F
S11313907C3108F043C0272F30E0E7E7F5E08CE12B
S11313A0DF011D928A95E9F721153105F9F0509175
S11313B06302A7E7B5E080E090E008C07FEF740F18
S11313C06D9301968217930768F4472FE52FF0E099
S11313D0E254FC4F6081442399F35F5F5A3F71F7F5
S11313E050E0ECCF50936302709361022BE635E03A
S11313F08FEF809371058093700584E68093760562
S11314008091F0029091F102892B29F19FB7F89411
S113141080912C068F3F61F09FBF0895E7E7F5E0C8
S11314208CE1DF011D928A95E9F72CE130E0BFCF12
S1131430E0911E06ED3081F380911D068F3F09F483
S113144059C0E53148F7F0E0E15EF94F8DE0808363
S113145080931E06E1CF3093F1022093F0028CE1D9
S11314608093740580911202882309F440C010927D
S113147012021092960580919305843409F477C082
S113148075E480919405882399F160919505862FE0
S113149090E0AC01559547955595479555954795D9
S11314A0559547954370B0E14B9FA0011124082E38
S11314B0892F000C881F990B000C881F991F582F27
S11314C05295550F550F507C542B6F70562B10921C
S11314D094058091730290917402892B89F081E0C4
S11314E0809312021092F1021092F0028FCF0895AD
S11314F050E0EFCF8DE080931D0680931E068CCFC5
S11315008FB7F89410926C0295E090937102109248
S11315107002309376022093750222E030E030931B
S113152074022093730210926E0210926F0298E27A
S1131530909372028FBF8FB7F89490917E029A3085
S1131540C1F08FBF9FB7F8948091B706811113C083
S113155081E08093B7065093B806709373039FBFDE
S113156081110BC01092740210927302B8CF74E40C
S113157088CF8FBFF7CF80E0F2CF85CBCF93DF93B7
S11315801F92CDB7DEB790916002911104C0909183
S113159061029D3718F52FB7F894909161029A3F34
S11315A0B0F430916202E32FF0E0E254FC4F808308
S11315B03F5F3A3FD1F0309362029F5F90936102A4
S11315C02FBF80E090E00F90DF91CF9108952FBF5F
S11315D08FEF9FEF0F90DF91CF91089591E090935B
S11315E060028983D2DE8981D6CF10926202E5CF70
S11315F0CF93DF931F92CDB7DEB720911202211152
S113160007C02091F0023091F1022817390721F028
S11316100F90DF91CF9108951092F1021092F00291
S11316206983FFDD6981611107C0809161028111C5
S11316301EC010926002ECCF8FB7F89490912C06E4
S11316409F3F11F08FBFE4CFE0911E06ED30D1F340
S113165090911D069F3F79F0E531A0F7F0E0E15E3F
S1131660F94F9DE0908390931E068FBFD1CF0F90CA
S1131670DF91CF918ACE9DE090931D0690931E0634
S11316808FBFC6CF3F924F925F926F927F928F929D
S11316909F92AF92BF92CF92DF92EF92FF920F93FD
S11316A01F93CF93DF93FF24F39480E1C82E9FE030
S11316B0A92E24E0E22EDD24DA9433E0B32E4DE5A6
S11316C0842E56E0752E6DE0662E70E8972E23C0AA
S11316D0893009F4BDC19FEF980F933008F4FFC01F
S11316E0873009F4E9C1883009F410C18823D9F09E
S11316F080918C02823009F4DBC0809172038230C5
S1131700A9F18FB7F89490919202913009F475C0C1
S1131710F09292028FBF8091BD03811183C08091AA
S113172090028111D5CF8091B802853009F780915C
S1131730BD038111DDCF80918D028111D9CF8091BC
S11317409B028111D5CF809172038111D1CF8091F9
S11317509A02823069F6F0929A028FB7F8949091C7
S11317602F069F3F09F430C48FBFC2CF109272037B
S11317708091B702813029F66091EE027091EF02F8
S11317808FB7F8945091E1004091E2003091E3006A
S11317902091E4008FBF852F942F20919B02203845
S11317A009F4A2C12B01481A590A27FD62C1C0914C
S11317B09802D091990280918D02882309F49BC3E9
S11317C0822F15E08F77813009F4D2C327FD77C3C8
S11317D010929B021093DA04F0929A028FB7F89455
S11317E090912F069F3F09F455C38FBF8FB7F8948C
S11317F090919202913009F08BCF109292028FBF98
S1131800DF91CF911F910F91FF90EF90DF90CF90D8
S1131810BF90AF909F908F907F906F905F904F900C
S11318203F9008958FB7F8943091E9004091EA0011
S11318305091EB006091EC002091BD031092BD0328
S11318408FBF8091900227FDF4C0843009F48BC0CF
S113185025FF06C0863009F466C0882309F465C0F4
S1131860853009F46FC020FF05C09091B802923012
S113187009F442C123FF55CF863009F052CF80913D
S113188055018F7780935501809155018F7780930F
S113189055011092900280914101877009F443CF61
S11318A0809141018091B802853009F021CF3FCF6A
S11318B010928C0280918C0381111FCF10928D02A3
S11318C010929B021092DA04E0929A028FB7F89475
S11318D090912F069F3F09F4DAC08FBF0ECF2EEFF1
S11318E0280F223008F43DC1923009F069C18130DB
S11318F009F424C1823009F0F6CE8091B802833015
S113190009F0F6CE10924E01D09214021092900279
S11319108FB7F89490912E069F3F09F495C18FBF1D
S113192080919002E3CE10929002203209F465C1B6
S1131930E091FC06F091FD0684A5897E84A785E0EC
S11319408093900224FFA0C0809146019091D80416
S11319508F71890F96959695891B8093D80489E099
S11319608093900280CF21FF7ECF9FB7F89480911F
S11319705E029FBF882321F0823009F4BAC2A19885
S113198085E08093B8021092900280918D0283309A
S113199009F4E7C2E091C606F091C706828190E09F
S11319A0982F88277181872B85FFAEC087749C7C14
S11319B08134984809F0A8C0878190E0982F88273F
S11319C07681872B019609F49FC080918C02811146
S11319D09BC010928C03F0928C027FB7F8948FB75F
S11319E0F894D091E100C091E200F091E300E0911D
S11319F0E4008FBF8D2F9C2FAF2FBE2FCE96A11D3D
S1131A00B11DB093F000A093EF009093EE0080938B
S1131A10ED00E092E0008091DF0084608093DF00BD
S1131A20D09214027FBF82E080938D028091900255
S1131A300FCF982F9B7F933009F479C08A3009F037
S1131A4004CF85E08093B8021092900280E000CF2A
S1131A5040917B018091460187FD0AC185E0809316
S1131A60B802109290028091B802853009F040CEFD
S1131A705ECE141415040CF09ACE822F8F77813029
S1131A8009F476C215E01FC280919002ECCEE09179
S1131A901E06E03109F421CF90911D069F3F09F401
S1131AA04BC3E53108F019CFF0E0E15EF94FC08295
S1131AB0C0921E068FBF21CE8091B802813029F0DA
S1131AC08091B4068064809348018091B406806458
S1131AD0809348018091B802853009F017CFE092D5
S1131AE0B80280919002FFCD10929B0280919A02DD
S1131AF0823009F006CE70CE9EEF980F923008F037
S1131B00B9CEB092B802B6CE10928D0210929B025A
S1131B101092DA04E0929A028FB7F89490912F060B
S1131B209F3F09F40BC28FBF8091900291CE85E054
S1131B308093B80288E0809390028ACE9091B80294
S1131B40933009F0D5CD90934D0190934D01999A1E
S1131B50A198909139019260909339018093B802D1
S1131B60D5CE2091B802213009F4D7C1833009F0D1
S1131B70BBCE233009F0B8CE8091B4068064809344
S1131B80480180924E01D09214028FB7F894F092DB
S1131B9089038FBF9FB7F89480915E029FBF88230B
S1131BA009F4F8C180934D0190914A01907F9760A8
S1131BB090934A01999A823009F404C2A198F2C11F
S1131BC09091B802953009F092CEB0924D01B09246
S1131BD04D01999AA1988FB7F894109289038FBFF9
S1131BE0B092420110924E011092BD03D0921402A1
S1131BF0B092B802809190027ACE809146018F71A2
S1131C0070918902982F970F76957695971B9093EC
S1131C108902E091FC06F091FD0694A5792F72608B
S1131C2074A730A741A752A763A730914D0132FD95
S1131C3058C134B3369531703F2535A79660977FE8
S1131C40906194A787A77BCEE0911E06EF3009F43C
S1131C5066CE90911D069F3F09F474C2E53108F0E9
S1131C605ECEF0E0E15EF94FA082A0921E0657CE50
S1131C708DEF840F873208F0F1CE8091FC069091AD
S1131C80FD06FC014193CF01425050E060E871E051
S1131C900E94A3220091FC061091FD06D801119622
S1131CA08C918770823009F48BC2F8018081825054
S1131CB08B3008F4D3CE9FB7F894809108029FBF6D
S1131CC0811184C29FB7F89481E02091B804233035
S1131CD008F080E09FBF882309F4C0CE80918D0274
S1131CE00091FC061091FD06E0917B01F0E0E058C4
S1131CF0FE4F90812801D8019E969C939E9795E073
S1131D009093B8021092900211969C91119797703B
S1131D10923009F47AC1882309F4ACC18FB7F894DE
S1131D203091E1002091E2009091E3009091E40071
S1131D308FBFC901C92FD82FC8010E94C5028111C4
S1131D40E696D093EF02C093EE028FB7F8945091C9
S1131D50E1004091E2003091E3002091E4008FBF64
S1131D60852F942FBE01681B790B161617064CF4A9
S1131D7080919B02811145C180917203882309F4EB
S1131D8003C2D80119966C91199770E0762F6627D3
S1131D9018968C91682B20918E02422F50E0FA0104
S1131DA0EE0FFF1FED53FB4F808191816817790778
S1131DB009F497C190917403E3ECF4E0A9EBB6E065
S1131DC020E030E0312C80E0A901C191D1916C1761
S1131DD07D0709F4D6C14D91592F541B851710F472
S1131DE0322E852F2F5F3F4F2530310569F7309212
S1131DF08E02432D50E0FA01EE0FFF1FED53FB4F0F
S1131E00718360839F5F90937403FA01E754F94FE1
S1131E109083FA01E250F94F1082292F2F772F3740
S1131E2009F478C190E020E0D80113968C91FA016E
S1131E30992309F4DEC0E654FB4F9081891719F108
S1131E4080839FB7F8948091B8048330D8F4E091EC
S1131E50D504E80FE33008F0E350F0E0EE0FFF1F85
S1131E60EF57FD4F20813181118300838F5F809371
S1131E70B8048FB7F894409130064F3F09F467C116
S1131E808FBF29019FBF809190025092FD0640921E
S1131E90FC0629CCE0911E06E03109F4A6CC909111
S1131EA01D069F3F09F467C1E53108F09ECCF0E0C0
S1131EB0E15EF94FC082C0921E068FBF97CC141406
S1131EC015040CF085CC90929B02F092B702F0922C
S1131ED07203B201882777FD8095982F0E94E8024B
S1131EE079CC30914D01331F3327331F35A79660CA
S1131EF0A6CEA19A45CDCE010E943003182F8111A0
S1131F0058C08CA58E7F8CA7F0928D02D093C70603
S1131F10C093C606B0929B02F4CBD0924F0190922C
S1131F204E01809139018D7F80933901D092140242
S1131F3082E08093B80280919002D9CCE0911E0691
S1131F40E03109F4F0CD90911D069F3FB1F1E531E8
S1131F5008F0E9CDF0E0E15EF94FC082C0921E06C0
S1131F60E2CD10928D02822F807225FDDECC7BCCD7
S1131F702078226020939B028CE890E00E940D065A
S1131F80F092B702F0927203BC0180E090E00E94EC
S1131F90E802B7CB60924D0180914A01807F836053
S1131FA080934A0170924201E092B80280919002BB
S1131FB09ECC80919B02282F05CCC0921D06C09216
S1131FC01E06B1CDA19AEECFE0911E06E03109F4D0
S1131FD0CBCB90911D069F3F09F411C1E53108F068
S1131FE0C3CBF0E0E15EF94FC082C0921E068FBF02
S1131FF07FCBE250F94F21602083FA01E654FB4F76
S11320001FCF806880939B02BCCE823011F080E0A9
S11320103CCFE091C606F091C70613969C9183814C
S11320209813F5CF8091DF008B7F8093DF00D092EF
S1132030140210928C02E091C606F091C70684A5A2
S1132040816084A780918D02882309F41CCF1092AB
S11320508D0210929B021092DA04E0929A028FB7DA
S1132060F89490912F069F3F09F4B6C08FBF8091DA
S113207090020BCF9FB7F894809109029FBF8823E9
S113208009F44CCEC8010E94C502882309F446CE47
S113209085E08093B90282E08093BA021092BB0279
S11320A0F80183818093BC029FB7F8948091010268
S11320B09FBF82FD76C081E0F80195A5911101C012
S11320C080E08093E6028091E50284608093E502DB
S11320D089EB92E00E943003811120CEB0928D02F0
S11320E01DCE90917403FA01E754F94F808189174A
S11320F051F09F5F909374039083892F8F778F376C
S113210069F0422F50E0FA01E250F94F2081922FFA
S113211091708ACE8F3708F485CE232DE9EBF6E053
S1132120392F307880818F6798133083319676E029
S1132130EE3BF707B9F7E5CFC0921D06C0921E0625
S11321408FBFDBCAA0921D06A0921E06E8CBE091C9
S11321501E06E13109F494CE40911D064F3F51F122
S1132160E53108F08DCEF0E0E15EF94F41E14083C6
S113217040931E0685CEC0921D06C0921E068FBFD8
S113218035CB20938E02AFCFF092B702F092720358
S1132190882777FD8095982F0E94E80290929B02F1
S11321A0F0CD81708093E6028091E5028460809393
S11321B0E5028ECF41E140931D0640931E0660CE9A
S11321C080918D02823009F049CC8ECDC8010E94E5
S11321D09D02811177CD42CCE0911E06E03109F4D5
S11321E045CF90911D069F3F81F0E53108F03ECF29
S11321F0F0E0E15EF94FC082C0921E0637CFC09274
S11322001D06C0921E068FBF73CAC0921D06C092DF
S11322101E062CCF9FB7F89480919202882329F050
S11322208068809392029FBF089581E08093920218
S11322309FBF28CA9FB7F8948091920281508093DF
S11322409202803811F09FBF089581E0809392023A
S11322509FBF18CACF93DF931F92CDB7DEB79FB746
S1132260F894809192028F5F809392029FBF809135
S11322709A02882341F085E08983DCDF89810F900D
S1132280DF91CF910895809190028111F4CF8091D4
S1132290B802853011F489E0EFCF83E08093900297
S11322A0B9DF85E080939A0280E0E6CFFA012D3110
S11322B010F086E00895428150E0542F4427918124
S11322C0492BDA01A774BC7CA134B84839F04073B7
S11322D0552741645868418398E89283235F20839B
S11322E03FB7F89420910602909107023FBF2087E0
S11322F091872FB7F894909105022FBF948315828C
S11323008387668377838FB7F89490915F029111E6
S11323101FC092E090935F02109202028FBF8FE37E
S1132320828780917C028F5F80937C0283839FB736
S1132330F894809192028F5F809392029FBF809164
S11323409A02882381F176DF0E94930885E008953C
S11323508FBFF0939402E09393029FB7F894809117
S11323605F02882389F08091AF028F3F19F085E0E6
S11323709FBF0895809103028823C9F31092040239
S11323801092030280E0F4CF81E080935F02109208
S113239002028FB7F89420912D062F3FB9F08FBF1A
S11323A09FBF80E00895F0937903E093780381E080
S11323B080939A02109276038FB7F89490912F0627
S11323C09F3FB1F08FBF36DF80E00895E0911E0695
S11323D0EE3029F320911D062F3FE1F0E531F8F6A8
S11323E0F0E0E15EF94F2EE0208320931E06D7CF64
S11323F0E0911E06E03131F390911D069F3F81F07C
S1132400E53100F7F0E0E15EF94F90E190839093BD
S11324101E06D8CF2EE020931D0620931E06BFCFA4
S113242090E190931D0690931E06CCCF4F925F923D
S11324306F927F92BF92CF92DF92EF92FF920F93AF
S11324401F93CF93DF93E6EFF2E0C0E0D0E0B084D7
S1132450B1FE13C04080518062807380C480D580F7
S1132460E680F7808B019C010419150926093709B8
S11324700C151D052E053F0568F521963996C330C8
S1132480D10529F78FB7F894909121069F3F79F0F1
S11324908FBFDF91CF911F910F91FF90EF90DF904D
S11324A0CF90BF907F906F905F904F900895E09190
S11324B01E06E23069F390911D069F3F09F467C040
S11324C0E53130F7F0E0E15EF94F92E090839093CC
S11324D01E06DECFB0FC61C0D301C2018C0D9D1D70
S11324E0AE1DBF1D80839183A283B383C13009F4E1
S11324F072C0C23009F055C08091D6049091D704BF
S11325000196883E23E0920708F080C09093D70498
S11325108093D60480917A028111B4CF89E993E043
S1132520892B09F4AFCF9091D6048091D70490936E
S11325309A038093990380918E03806220918F0384
S113254090E0922B80938E0390938F0380ED809381
S1132550930387E08093940386E0809398038091AB
S1132560D1049091D204892B09F08CCF8DE893E0AB
S11325709093D2048093D10481E180938D03809160
S1132580000281114EC081E080937A027BCF92E0F9
S113259090931D0690931E067BCFE894B1F8B08605
S11325A0A5CF9FB7F89480911F068F3F11F09FBF6E
S11325B069CFE0911E06EE23D1F380911D068F3F73
S11325C051F1E531A0F7F0E0E15EF94F108210928D
S11325D01E069FBF57CF80916D02882309F452CF06
S11325E08FB7F894609170028FBF10926D021092B1
S11325F07402109273028091750290917602209178
S11326006E0221113FCF0E94F80A3CCF1092D704EA
S11326101092D6047FCF10921D0610921E069FBF03
S113262031CF1092000224E04DE853E060ED77E0F2
S113263086E03CDE882309F4A6CF81E08093000283
S11326401092D2041092D1041DCF8FB7F89408953C
S11326508FBF08951F920F920FB60F9211248F937C
S11326608091F2028F5F8093F2028F910F900FBEE0
S11326700F901F9018951F920F920FB60F9211246E
S11326800BB60F922F933F934F935F936F937F9368
S11326908F939F93AF93BF93EF93FF938091DF004A
S11326A08E7F8093DF008FEF8093140281E080930C
S11326B08803809187038823C1F140917F0350915F
S11326C0800360918103709182038FB7F894F09135
S11326D0E100E091E2003091E3002091E4008FBF3B
S11326E08F2F9E2FA32FB22F841B950BA60BB70BF6
S11326F04091830350918403609185037091860314
S113270084179507A607B70780F010928703809176
S1132710AB029091AC02A091AD02B091AE02892BB4
S11327208A2B8B2BC9F00E94FA04109288030E9412
S11327304604FF91EF91BF91AF919F918F917F914B
S11327406F915F914F913F912F910F900BBE0F901E
S11327500FBE0F901F9018958FB7F8949091200694
S11327609F3F11F08FBFE1CFE0911E06E130D1F31E
S113277090911D069F3F59F0E531A0F7F0E0E15E2E
S1132780F94F91E0908390931E068FBFCECF91E0D6
S113279090931D0690931E068FBFC7CF1F920F9272
S11327A00FB60F9211240BB60F922F933F934F93B2
S11327B05F936F937F938F939F93AF93BF93EF93A5
S11327C0FF938091DF008D7F8093DF008FEF8093F4
S11327D0140278948FB7F89490917203913019F49D
S11327E092E0909372038FBF15DDFF91EF91BF913B
S11327F0AF919F918F917F916F915F914F913F9195
S11328002F910F900BBE0F900FBE0F901F90189535
S11328101F920F920FB60F9211240BB60F922F93A3
S11328203F934F935F936F937F938F939F93AF9354
S1132830BF93EF93FF938091DF008B7F8093DF0042
S11328408FEF8093140278948FB7F89490918C0250
S1132850913019F492E090938C028FBFDBDCFF91EE
S1132860EF91BF91AF919F918F917F916F915F9104
S11328704F913F912F910F900BBE0F900FBE0F9071
S11328801F9018951F920F920FB60F9211240BB63A
S11328900F922F933F934F935F936F937F938F93F5
S11328A09F93AF93EF93FF932EB5809196029091EF
S11328B09702009739F0E0918A03F0918B03E80FB7
S11328C0F91F208380918A0390918B030196909342
S11328D08B0380938A038CB58F778CBD8FEF8093A5
S11328E0140280918A0390918B03E0917D03F0910F
S11328F07E038E179F0718F110929702109296028A
S113290010929D0210929C0210927E0310927D03FD
S113291010928B0310928A038EB5FF91EF91AF91C1
S11329209F918F917F916F915F914F913F912F91E3
S11329300F900BBE0F900FBE0F901F901895209113
S11329409C0230919D024091960250919702BC01E5
S1132950665F7F4FE617F707A0F16150710986178C
S11329609707C0F52115310539F1F901E80FF91F71
S1132970E081EEBD0DB407FEFDCFAEB541155105A6
S113298021F0FA01E80FF91FA08301968617970733
S113299048F38CB580688CBD8FEF809314022115A9
S11329A03105B1F0F901E60FF71F80818EBD7093F8
S11329B08B0360938A03B1CF1EBC0DB407FEFDCF19
S11329C0DCCFBF01615071098617970758F202C026
S11329D01EBCEDCFBC01DDCF9FB7F894809160029F
S11329E0813089F080916102811104C09FBF81E030
S11329F090E0089581E0809360029FBF0E94C50922
S1132A0080E090E008959FBF80E090E00895CF9328
S1132A1023E08D38920759F1FC0184A580FD06C09E
S1132A2083E492E00E94C422CF91D6CFC091B40631
S1132A301F92CF9385E292E09F938F930E94B322DB
S1132A40CBDFCF5F0F900F900F900F90C83108F03D
S1132A50CBE09FB7F894809192028F5F80939202AB
S1132A609FBF80919A02882329F0CF91E3CB1092E3
S1132A707A02D2CF85EF8C0F8031B8F78091900223
S1132A808111F3CF8091B406C81779F3C093B406CB
S1132A90C7E0C0939002BEDBC0939A02E6CFE82F52
S1132AA0F0E0EE0FFF1FEF52FB4F1182108291E016
S1132AB09093000281110895CB01A9CF2F923F92E8
S1132AC04F925F926F927F928F929F92AF92BF923A
S1132AD0CF92DF92EF92FF920F931F93CF93DF93E6
S1132AE090E08531910508F078C0FC01E05FFE4F6D
S1132AF00C945D22EFB7F8948091A2029091A30206
S1132B00A091A402B091A5021C012D019C01A20177
S1132B1060E070E080E090E003E00E9463225101F5
S1132B206201E12CF12C00E010E00E949A2259018C
S1132B306A017B01F82F192F03E00E9463220F2FF3
S1132B400E949A2259016A017B01F82F192F03E090
S1132B500E9463220F2F0E949A2259016A017B016D
S1132B60F82F192F03E00E9463220F2F0E949A224C
S1132B7059016A017B01F82F192F03E00E94632297
S1132B800F2F0E949A2201E00E94632229013A0138
S1132B9000E20E947E2249015A01D301C201B69586
S1132BA0A79597958795880D991DAA1DBB1DB7FFFD
S1132BB004C0BF770196A11DB11D8093A20290931A
S1132BC0A302A093A402B093A502EFBF2FB7F89479
S1132BD090937B0380937A032FBFDF91CF911F9152
S1132BE00F91FF90EF90DF90CF90BF90AF909F90A8
S1132BF08F907F906F905F904F903F902F900895AB
S1132C002091AA02222349F3C1E0D1E006C0DD0FDE
S1132C10C83019F32091AA02CF5F3FEF3C0F822FF7
S1132C208D23A9F3E32FF0E0EE0FFF1FEF52FB4FCC
S1132C3080819181118210824D2F409542234093CF
S1132C40AA023111E4CFE3DEDD0FE4CF8FB7F894AD
S1132C509091B804992309F4B9C00AE412E00FC0B2
S1132C608093D5048091B80481508093B8049FBFA9
S1132C708FB7F8949091B804992309F4A7C0E09110
S1132C80D504F0E0EE0FFF1FEF57FD4FC081D18157
S1132C908FBF8A858F3309F460C3CE010E949D02E1
S1132CA09FB7F8948091D504E82FF0E0EE0FFF1F52
S1132CB0EF57FD4FD183C0838F5F833088F210922A
S1132CC0D504D0CF9FB7F894809192028F5F809300
S1132CD092029FBFC0919A02C13009F4DCC31092E2
S1132CE09A02A8DAC0917803D09179038A858F3348
S1132CF009F073CF0E9493088091000281116DCF77
S1132D008091D1049091D204C817D90709F065CFF6
S1132D10BE0180E079C180919A0210929A028530B6
S1132D2009F46AC49AEF980F923008F456CF80934E
S1132D309A0253CF8FB7F89492E090935F028FBFBB
S1132D4080910202811149CFE0919302F0919402A3
S1132D508FE3828780917C028F5F80937C028383E0
S1132D609FB7F894809192028F5F809392029FBFE5
S1132D7080919A02882309F4D0C45CDA0E949308F3
S1132D80609193027091940280910002811125CF89
S1132D908091D1049091D2046817790709F01DCF6E
S1132DA0B8CFC0911202EC2FF0E0EE0FFF1FE051FC
S1132DB0FD4F118210820E941109C1110ECF8FB7ED
S1132DC0F89490912C069F3F09F4B1C28FBF05CFB0
S1132DD08091C100877F8093C1009FEF909314027C
S1132DE08091C1008F7E8093C100909314028FB7AD
S1132DF0F89491E0909311028FBF10926502809134
S1132E006402882309F4E9CEDF91CF911F910F91D9
S1132E10FF90EF90DF90CF90BF90AF909F908F90F6
S1132E207F906F905F904F903F902F900C94DE08AE
S1132E308091C1008F7B8093C1008091C1008F7706
S1132E408093C100109277031092A0028091C10078
S1132E5088608093C1009FEF909314028091C10019
S1132E6080618093C100909314028091C1008068B6
S1132E708093C1008FB7F89410927E0210928F0253
S1132E80109211028FBF81E0809365021092640258
S1132E90A4CE2FB7F8941092A10290917E0288EFED
S1132EA0890F823050F410927E02E0918802F0E0A3
S1132EB0EE0FFF1FEB54F94F10822FBF823008F43E
S1132EC09CC2992309F42CC590E0CFB7F894809163
S1132ED07E028A3009F48CC3CFBF992309F47DCED6
S1132EE08FB7F8941092C9061092C80610927D020A
S1132EF091E090937E028FBF0E940106882309F41B
S1132F006CCE8FB7F89499E090937E028FBFDF91D7
S1132F10CF911F910F91FF90EF90DF90CF90BF90D2
S1132F20AF909F908F907F906F905F904F903F9065
S1132F302F900C9443060E9450022FB7F8941092DD
S1132F4087032FBFE6EFF2E020E044244A94542C98
S1132F50642CAFE77A2E308531FF1AC0C080D1804F
S1132F60E280F3804B015C018C189D08AE08BF0819
S1132F70C480D580E680F780C818D908EA08FB0821
S1132F80C414D504E604F7041CF42601370121E037
S1132F90399633E0E131F307F1F6222309F41DCE2B
S1132FA014141504160417040CF056C14092CD04F1
S1132FB05092CE046092CF047092D00421E020930A
S1132FC09102CFB7F8946093B0027093B1028093EA
S1132FD0B2029093B3024092AB025092AC02609260
S1132FE0AD027092AE020E94FA04CFBFF6CD81E02A
S1132FF08FB9F3CD80910002E82FF0E0EE0FFF1FB0
S1133000EF52FB4F60817181DF91CF911F910F913E
S1133010FF90EF90DF90CF90BF90AF909F908F90F4
S11330207F906F905F904F903F902F9038CD9FB7D7
S1133030F89430916A02C0916802D091690220919B
S1133040670210918A028091B9049FBF8454823030
S113305008F44CC280916D02882339F08091730288
S113306090917402029709F4A2C28FB7F894E12FE9
S1133070F0E0EE0FFF1FE45FFD4FD183C08390911A
S11330807802111104C29D7F9093780210926B0212
S11330908FBFA3CD8FB7F89420916C0210926C026D
S11330A08FBF8091730290917402029709F095CDBD
S11330B0222309F492CD80916F02882309F452C32C
S11330C0109274021092730210926F028091750232
S11330D09091760220916E0221117FCD63E0DF9101
S11330E0CF911F910F91FF90EF90DF90CF90BF9001
S11330F0AF909F908F907F906F905F904F903F9094
S11331002F900C94F80A8FB7F894909129069F3F5A
S113311009F05CCEE0911E06EA3009F457CE909196
S11331201D069F3F09F448C3E53108F04FCEF0E097
S1133130E15EF94F9AE0908390931E068FBF4DCDC8
S11331402FB7F89482E080937B028CB58F7B8CBD83
S11331508FEF80931402229A2398219A9A9A2098A6
S1133160289A9CB590619CBD9CB59F779CBD80932B
S113317014029CB5977F9CBD9CB59B7F9CBD9CB560
S113318090649CBD809314029DB591609DBD9CB5D7
S11331909C7F9CBD809314022FBF1FCD2BE635E08E
S11331A08FEF809371058093700584E68093760594
S11331B08091F0029091F102892B09F456C29FB7D5
S11331C0F89480912C068F3F09F49BC09FBF05CDD6
S11331D08091910281113EC04091CD045091CE0462
S11331E06091CF047091D0042FB7F8948091AB0212
S11331F09091AC02A091AD02B091AE02C090B00229
S1133200D090B102E090B202F090B3028C0D9D1DFB
S1133210AE1DBF1D2FBF4093CD045093CE046093C9
S1133220CF047093D00410929102CFB7F894809396
S1133230B0029093B102A093B202B093B302409350
S1133240AB025093AC026093AD027093AE020E9445
S1133250FA04CFBF0E945002DF91CF911F910F91CA
S1133260FF90EF90DF90CF90BF90AF909F908F90A2
S11332707F906F905F904F903F902F90D7C8209190
S1133280D904222309F4A9CC81E091E05DE007C0D0
S1133290990F883009F4A1CC2091D9048F5F4FEFA6
S11332A0480F322F3923A1F3E42FF0E0EE0FFF1F74
S11332B0E051FD4F11821082392F30953223309323
S11332C0D9044111E5CF2FB7F89430912C063F3F34
S11332D009F453C12FBF990FDFCF8FB7F894109221
S11332E097021092960210929D0210929C021092E4
S11332F07E0310927D0310928B0310928A038FBF7A
S11333006CCCE0911E06ED3009F460CF80911D066F
S11333108F3F09F4A6C2E53108F058CFF0E0E15E32
S1133320F94F8DE0808380931E069FBF56CCE091B9
S11333301E06ED3009F44ACD90911D069F3F09F415
S113334089C2E53108F042CDF0E0E15EF94F9DE03D
S1133350908390931E068FBF40CC5B8568818F81DC
S113336090E0982F88272E81822B4FB7F8942091D4
S11333700602309107024FBF8217930719F0019696
S113338009F08ECC563009F08BCC613109F088CC31
S11333908CA584FDBCC18E8590E0982F88272F854D
S11333A0822B9F938F938C8590E0982F88272D856F
S11333B0822B9F938F931F930F930E94B3220CDB56
S11333C08D850F900F900F900F900F900F9080FFAE
S11333D09CC12D988C8590E0982F88272D85822B71
S11333E081FF91C1A5988C8590E0982F88272D8521
S11333F0822B82FDDFC1A09A53CC2FB7F894809121
S1133400A9028F5F8093A90280917103833409F428
S1133410A4C031E0983021F181E02FBF2FB7F89498
S1133420909179022FBF992309F465C09FB7F8944E
S11334302AE020937E029FBF90E0882309F445CDC3
S11334408FB7F8943093700221E020936C028FBF01
S11334508FB7F89420912A062F3F29F08FBF35CDDE
S113346030E081E0DACFE0911E06EB30B9F3209131
S11334701D062F3F09F435C2E53180F7F0E0E15E27
S1133480F94F2BE0208320931E068FBF1ECD9B7F18
S113349090937802FBCD809176038F5F80937603BF
S11334A0863008F01CCC80917803909179032091A8
S11334B09B02222309F498C185E08093DA0482E018
S11334C080939A02DF91CF911F910F91FF90EF901B
S11334D0DF90CF90BF90AF909F908F907F906F9030
S11334E05F904F903F902F900C941A112C3008F459
S11334F0BCCD3AA7BACD9FB7F8945091B506609168
S1133500B7069FBF4FB7F8942091BE069091BF06AF
S11335104FBF291709F445C0511143C09FB7F89410
S113352022E02093B5065FB7F8944091BE0620913F
S1133530BF065FBF421709F474C1E091BF06F0E013
S1133540E254F94F22812093B60623E420937103B9
S1133550109288029FBF91E070CF8091BF06909136
S1133560BE06981739F08F5F8093BF06863010F03F
S11335701092BF0680E030E050CFE0911E06ED309F
S113358009F4A8CE30911D063F3F09F428C1E53166
S113359008F0A0CEF0E0E15EF94F508350931E0690
S11335A099CE6150623008F40EC190E046CF80910C
S11335B007038D7F80930703E0917502F0917602F3
S11335C081E083A710926D0210927402109273022C
S11335D08FB7F894609170028FBF809175029091BB
S11335E0760220916E02211140CD0E94F80A3DCD51
S11335F00E94D606CFBFF1CA0E945002609308030E
S11336007093090380930A0390930B0388EE93E06D
S1133610A0E0B0E080930C0390930D03A0930E03FD
S1133620B0930F03809110038E7F82608093100308
S11336308FB7F894909121069F3F09F0C7CBE09192
S11336401E06E23009F4C2CB90911D069F3F09F497
S113365053C1E53108F0BACBF0E0E15EF94F92E0F6
S1133660908390931E068FBFB8CA3093F1022093C3
S1133670F0028CE18093740580911202882309F48E
S1133680ACCA10921202109296058091930584346C
S113369009F425C165E480919405882309F4C3C025
S11336A070919505872F90E0AC01559547955595F8
S11336B0479555954795559547954370E0E14E9F3D
S11336C0A0011124082E892F000C881F990B000CCF
S11336D0881F991F582F5295550F550F507C542B06
S11336E07F70572B1092940580917302909174020D
S11336F0892B09F4BDC081E0809312021092F1027B
S11337001092F0025CCDA59A6ECE2D9A63CE2FA5B1
S11337102F871E8680E090E043CEF0937903E093F8
S1133720780381E080939A02109276038FB7F8941D
S113373090912F069F3F11F08FBFC4CEE0911E06DB
S1133740E031D1F390911D069F3F09F4E2C0E531C9
S113375098F7F0E0E15EF94F90E1908390931E06B4
S11337608FBFB0CE0E9450026093FF02709300039B
S1133770809301039093020382E090E0A0E0B0E024
S11337808093030390930403A0930503B09306036B
S11337908091070381608260809307038FB7F89458
S11337A0909121069F3F09F440C08FBF81E0809330
S11337B06D0213CAA09874CA9AE090931D06909360
S11337C01E068FBF0ACA9FB7F894209173032093F3
S11337D0710321E0209388029FBF91E02ECE509385
S11337E01D0650931E0676CD20917203211164CEDE
S11337F09093990280939802C0939B0286E391E090
S11338000E940D06C093B702C0937203BC0180E00E
S113381090E00E94E8021092DA0483E080939A0216
S113382051CE20E090CE50E05FCFE0911E06E23012
S113383009F4BBCF90911D069F3F09F464C0E531A4
S113384008F0B3CFF0E0E15EF94F92E090839093FB
S11338501E06ABCF9DE090931D0690931E068FBF6E
S1133860BCC98DE080931D0680931E069FBFB5C919
S11338704FB7F89410926C0285E080937102109215
S11338807002309376022093750282E090E0909368
S113389074028093730210926E0210926F0288E297
S11338A0809372024FBF8FB7F89490917E029A3042
S11338B0F9F08FBF9FB7F8948091B70681111AC0B1
S11338C081E08093B7065093B806609373039FBF5B
S11338D081111DCB10927402109273020CCF64E418
S11338E0DACE2BE020931D0620931E068FBFEDCA6F
S11338F08FBFF0CF80E0EBCF92E090931D069093C2
S11339001E068FBF6AC992E090931D0690931E060F
S11339104CCF90E190931D0690931E068FBFD2CD9D
S113392030E080E07BCD80911D068F3FA1F0282FF1
S113393030E023563A4FF901EE57FF4F90819093B0
S11339401D069F3F51F0F901EE57FF4F9FEF908303
S1133950B5D881E0089580E0089590931E06F3CFD2
S11339601F920F920FB60F9211240BB60F922F9342
S11339703F934F935F936F937F938F939F93AF93F3
S1133980BF93EF93FF938091C00087FD13C0FF9115
S1133990EF91BF91AF919F918F917F916F915F91C3
S11339A04F913F912F910F900BBE0F900FBE0F9030
S11339B01F9018956091C6008091F3029091F402D3
S11339C0009751F120919B0530919C05A9014F5F0F
S11339D05F4F50939C0540939B05FC01E20FF31F3E
S11339E0608320919B0530919C058091CA0690913B
S11339F0CB062817390758F21092F4021092F302FA
S1133A0080917703833019F28091C1008F7780937E
S1133A10C10010927703BBCF6E3779F080916602B4
S1133A206D37A1F081FF05C08D7F8093660280E22F
S1133A30682780E00E940407AACF809111028111B7
S1133A40A6CF60E081E00E940407A1CF826080934A
S1133A5066029DCF78941F920F920FB60F92112495
S1133A600BB60F92FF920F931F932F933F934F9395
S1133A705F936F937F938F939F93AF93BF93CF93F2
S1133A80DF93EF93FF932091B4023091B502211597
S1133A90310509F466C080919E0290919F02409185
S1133AA0C1045091C2048417950768F5AC014F5FB7
S1133AB05F4F50939F0240939E02F901E80FF91F54
S1133AC080819FB7F8948093C6008091C000806481
S1133AD08093C0009FBFFF91EF91DF91CF91BF9181
S1133AE0AF919F918F917F916F915F914F913F9192
S1133AF02F911F910F91FF900F900BBE0F900FBE4F
S1133B000F901F9018951092B5021092B402109263
S1133B10A0028091C1008F7B8093C1001FB7F894ED
S1133B208091660280FD12C080917E0290E0FC01CB
S1133B303197E830F10538F089E080937E020E94E5
S1133B4043061FBFC8CFEB5DFE4FB7C48E7F809383
S1133B50660280918B028093A6020E94AD051FBF6E
S1133B60BACF8091C1008F7B8093C100B4CF88E02D
S1133B7080937E02E4CF0E940106082F87E08093A1
S1133B807E020111D9CF1FBFA6CF8091C9060E9422
S1133B90ED05082F86E080937E02F3CF8091C8065E
S1133BA00E94ED05082F85E080937E02EACFE09124
S1133BB08802F0E0EE0FFF1FEA54F94F80810E9463
S1133BC0ED05082FF0908802CF2DD0E0CC0FDD1F3B
S1133BD0FE01EA54F94F60818091C8069091C906AC
S1133BE00E9422039093C9068093C80680917D02A7
S1133BF08F5F80937D0291E0F91671F184E08093E8
S1133C007E02BFCF8091A9020E94ED05082F83E0B8
S1133C1080937E026091A9028091C8069091C906A2
S1133C200E9422039093C9068093C806AACF80916C
S1133C3071030E94ED05082F82E080937E0260915B
S1133C4071038091C8069091C9060E942203909343
S1133C50C9068093C80695CF90917102E0917502D0
S1133C60F0917602E90FF11D30819F5F909371020C
S1133C7020917202291790F492E09093B70620E005
S1133C80FE01EB54F94F9081923009F4B7CF8F3F86
S1133C9009F4B4CFCA54D94F288373CF232FF0CF5C
S1133CA01F920F920FB60F9211248F938091C80028
S1133CB087FD8091CE008F910F900FBE0F901F90C3
S1133CC0189578941F920F920FB60F9211240F90AB
S1133CD00FBE0F901F9018951F920F920FB60F9260
S1133CE011248F939F938091A7029091A80201962B
S1133CF09093A8028093A7029F918F910F900FBE7B
S1133D000F901F9018951F920F920FB60F921124C7
S1133D100F900FBE0F901F9018951F920F920FB621
S1133D200F9211240F900FBE0F901F9018951F92A1
S1133D300F920FB60F9211240F900FBE0F901F9089
S1133D4018951F920F920FB60F9211240F900FBE69
S1133D500F901F90189578941F920F920FB60F92A0
S1133D6011240BB60F922F933F934F935F936F934E
S1133D707F938F939F93AF93BF93EF93FF939FB7DB
S1133D80F8948091BD0382608093BD039FBF0E941D
S1133D900A11FF91EF91BF91AF919F918F917F9104
S1133DA06F915F914F913F912F910F900BBE0F90A8
S1133DB00FBE0F901F90189578941F920F920FB614
S1133DC00F9211240BB60F922F933F934F935F934F
S1133DD06F937F938F939F93AF93BF93EF93FF93CF
S1133DE09FB7F8948091BD0380618093BD039FBF0A
S1133DF00E940A11FF91EF91BF91AF919F918F9112
S1133E007F916F915F914F913F912F910F900BBED6
S1133E100F900FBE0F901F9018951F920F920FB620
S1133E200F9211240BB60F922F933F934F935F93EE
S1133E306F937F938F939F93AF93BF93EF93FF936E
S1133E408091BD0380628093BD0378940E940A111F
S1133E50F894FF91EF91BF91AF919F918F917F91D2
S1133E606F915F914F913F912F910F900BBE0F90E7
S1133E700FBE0F901F90189578941F920F920FB653
S1133E800F9211240BB60F922F933F934F935F938E
S1133E906F937F938F939F93AF93BF93EF93FF930E
S1133EA09FB7F8948091BD0380688093BD039FBF42
S1133EB00E940A11FF91EF91BF91AF919F918F9151
S1133EC07F916F915F914F913F912F910F900BBE16
S1133ED00F900FBE0F901F90189578941F920F9219
S1133EE00FB60F9211240BB60F922F933F934F935B
S1133EF05F936F937F938F939F93AF93BF93EF934E
S1133F00FF939FB7F8948091BD0381608093BD03B4
S1133F109FBF0E940A11FF91EF91BF91AF919F91B2
S1133F208F917F916F915F914F913F912F910F905E
S1133F300BBE0F900FBE0F901F90189578941F9290
S1133F400F920FB60F9211240BB60F922F933F933B
S1133F504F935F936F937F938F939F93AF93BF938D
S1133F60EF93FF939FB7F8948091BD03886080938B
S1133F70BD039FBF0E940A11FF91EF91BF91AF91C2
S1133F809F918F917F916F915F914F913F912F916D
S1133F900F900BBE0F900FBE0F901F9018950FB788
S1133FA0F89484B78ABD14BE88E10FB6F894809360
S1133FB06000109260000FBE45E150E06FEF70E0CA
S1133FC08FE196E0C9D28FEF80931D0680931E0681
S1133FD08CEC96E09093FD068093FC061092D80436
S1133FE08AE580938902809135018061809335014F
S1133FF08091340180618093340180913301806128
S1134000809333018091320180618093320185B7BE
S1134010806885BF85B7806885BF80E8809361002C
S11340201092610081E08093810090E29093B60049
S11340308093B10042E38091B2008111FCCF2091C2
S11340408400309185008091B2008034E1F7809142
S1134050840090918500821B930B9093D4048093E9
S1134060D304415041F71092B10010928100109294
S1134070B6008091B6008370E1F78091DF008B7FFA
S11340808093DF009FEF909314028091DC008B7F7C
S11340908093DC008091DF008D7F8093DF0090931C
S11340A014028091DC008D7F8093DC00809180007D
S11340B08C7F8093800080918100807E82608093D9
S11340C0810080916F00816080936F0080E2809313
S11340D0B6008091DC0080638093DC00909314022E
S11340E08091DF0088608093DF008091DF008E7F05
S11340F08093DF00909314028091DC008E7F809384
S1134100DC00809A81E08FB9259A9D9A989A2D9A1D
S1134110A59AA09A08DC8111FDCF87EC8093490110
S113412083E080934D01999AA19880EC8093450196
S11341301092F5028BE08093B40680914401806272
S1134140809344018091B4068064809348018091F7
S113415039018260809339018091DC00886080930A
S1134160DC0081E08093B802209123023091240284
S1134170C9010196A0E0B0E08093A2029093A3024B
S1134180A093A402B093A5028BED94E090938202D5
S1134190809381028BE095E0909384028093830264
S11341A08BE395E090938602809385028FEF9FEFD7
S11341B09093C4048093C3049093C6048093C5046D
S11341C09093C8048093C7049093CA048093C9044D
S11341D09093CC048093CB042295207F20937C027F
S11341E0CFEFC093AF0285E192E0909306078093EE
S11341F0050712E0D6E06091D3047091D40480E006
S113420090E0B4E8CB2EB3E0DB2EE12CF12CA70137
S1134210960131D1215031093093C5002093C40057
S11342201093C000D093C2001092C1006091D304D7
S11342307091D40480E090E0A70196011CD1215034
S113424031092093CC003093CD001093C800D09353
S1134250CA001092C90084E490E09093C004809353
S1134260BF041092B5061092B7068AE080937E02CE
S113427010927D02109271031092A9021092C90645
S11342801092C8061092A102109288021092EA02BB
S11342901092E90294E090938F02109275031092A9
S11342A0B60210927C031092800210927F02109248
S11342B0BF061092BE0610926002C0939502EFE70B
S11342C0F3E0DF011D928A95E9F72DDB8111FDCF23
S11342D00FBF78940E94DE080E9450026093F60299
S11342E07093F7028093F8029093F9028EE791E0BD
S11342F0A0E0B0E08093FA029093FB02A093FC024A
S1134300B093FD028091FE028E7F82608093FE0254
S11343109FB7F894809121068F3F09F47EC09FBF18
S11343200E942A11CFEF07C0F901EE57FF4FC08357
S11343304FBF0E945E154FB7F89480911D068F3FC2
S113434079F0282F30E023563A4FF901EE57FF4F0A
S1134350908190931D069F3F39F790931E06E4CFFA
S11343608091140287FD11C083B7816083BF789464
S11343708895F89483B78E7F83BF80911D068F3F05
S113438001F78091140287FFEFCF80914E0187FDE2
S113439042C095E080916F008E72D9F5892F9630D6
S11343A008F085E09091C10093FD28C09091C10070
S11343B094FD24C09091C90093FD20C09091C90040
S11343C094FD1CC0863008F085E00CB406FC1AC0CD
S11343D0863008F085E09091DC0095FD18C0E5E09A
S11343E08E1708F4E82FE093140283B7F0E0E65A3E
S11343F0FD4FE491807FE82BE3BFB6CF80E00CB49F
S113440006FEE6CF80E09091DC0095FFE8CFE3E084
S1134410E7CF80E0C7CF92E0BDCFE0911E06E23047
S113442009F47DCF80911D068F3F59F0E53108F0E6
S113443076CFF0E0E15EF94F82E0808380931E0640
S11344406ECF82E080931D0680931E0668CFAA1B60
S1134450BB1B51E107C0AA1FBB1FA617B70710F06B
S1134460A61BB70B881F991F5A95A9F7809590959D
S1134470BC01CD010895A1E21A2EAA1BBB1BFD01AC
S11344800DC0AA1FBB1FEE1FFF1FA217B307E4072F
S1134490F50720F0A21BB30BE40BF50B661F771F87
S11344A0881F991F1A9469F7609570958095909567
S11344B09B01AC01BD01CF010895EE0FFF1F0590D4
S11344C0F491E02D09940F93083090F0982F872FE2
S11344D0762F652F542F432F322F22270850F4CFE5
S11344E0220F331F441F551F661F771F881F991FF4
S11344F00A95B2F70F91089597FB10F816940008E7
S11345000F93083098F00850232F342F452F562F3F
S1134510672F782F892F902DF4CF05949795879541
S11345207795679557954795379527950A95AAF7EF
S11345300F9108952A193B094C095D096E097F09F9
S1134540800B910B0895FB01DC0102C001900D92D8
S113455041505040D8F70895DC0101C06D9341509B
S11345605040E0F70895CF93DF93CDB7DEB7FE0157
S1134570359661917191AF0180910507909106077D
S113458030D0DF91CF9108950F931F93CF93DF9392
S1134590E0910507F0910607238121FF1BC0EC0180
S11345A000E010E089916091050770910607DB0136
S11345B01896ED91FC911997882331F00995892B70
S11345C089F30FEF1FEFEECF8AE00995892B11F4E1
S11345D0C80102C08FEF9FEFDF91CF911F910F9120
S11345E008952F923F924F925F926F927F928F9293
S11345F09F92AF92BF92CF92DF92EF92FF920F936E
S11346001F93CF93DF93CDB7DEB72C970FB6F894F3
S1134610DEBF0FBECDBF7C016B018A01FC01178296
S11346201682838181FFB0C1CE0101964C01F7014E
S11346309381F60193FD859193FF81916F01882306
S113464009F49EC1853239F493FD859193FF8191DC
S11346506F01853221F4B70190E0C7D1E8CF512C26
S1134660312C20E02032A0F48B3269F030F4803217
S113467059F0833269F420612CC08D3239F08033D3
S113468039F4216026C02260246023C0286021C040
S113469027FD27C030ED380F3A3078F426FF06C0E6
S11346A0FAE05F9E300D1124532E13C08AE0389E29
S11346B0300D1124332E20620CC08E3221F426FDDD
S11346C05FC1206406C08C3611F4206802C08836AD
S11346D041F4F60193FD859193FF81916F0181115E
S11346E0C1CF982F9F7D9554933028F40C5F1F4FB2
S11346F0FFE3F9830DC0833631F0833771F08335DE
S113470009F057C021C0F801808189830E5F1F4FD3
S113471044244394512C540114C03801F2E06F0E28
S1134720711CF801A080B18026FF03C0652D70E0E4
S113473002C06FEF7FEFC5012C874CD12C018301A0
S11347402C852F77222E16C03801F2E06F0E711CD3
S1134750F801A080B18026FF03C0652D70E002C07F
S11347606FEF7FEFC5012C872AD12C012C8520689F
S1134770222E830123FC19C0832D90E0481659068C
S1134780A0F4B70180E290E030D13A94F5CFF5017E
S113479027FC859127FE81915F01B70190E025D127
S11347A031103A94F1E04F1A51084114510479F749
S11347B0DEC0843611F0893631F5F80127FF07C0D1
S11347C060817181828193810C5F1F4F08C0608179
S11347D07181882777FD8095982F0E5F1F4F2F7664
S11347E0B22E97FF09C090958095709561957F4F83
S11347F08F4F9F4F2068B22E2AE030E0A40127D1CA
S1134800A82EA81843C0853729F42F7EB22E2AE09B
S113481030E025C0F22FF97FBF2E8F36C1F018F497
S1134820883579F0ADC0803719F0883721F0A8C0F9
S11348302F2F2061B22EB4FE0DC08B2D8460B82EB4
S113484009C024FF0AC09F2F9660B92E06C028E035
S113485030E005C020E130E002C020E132E0F801A0
S1134860B7FE07C060817181828193810C5F1F4F05
S113487006C06081718180E090E00E5F1F4FA4014B
S1134880E6D0A82EA818FB2DFF77BF2EB6FE0BC0CE
S11348902B2D2E7FA51450F4B4FE0AC0B2FC08C020
S11348A02B2D2E7E05C07A2C2B2D03C07A2C01C013
S11348B0752C24FF0DC0FE01EA0DF11D80818033AB
S11348C011F4297E09C022FF06C07394739404C0B6
S11348D0822F867809F0739423FD12C020FF06C04E
S11348E05A2C731418F4530C5718732C731460F463
S11348F0B70180E290E02C8778D073942C85F6CFB2
S1134900731410F4371801C0312C24FF11C0B701FF
S113491080E390E02C8769D02C8522FF16C021FF0C
S113492003C088E590E002C088E790E0B7010CC0BE
S1134930822F867851F021FD02C080E201C08BE213
S113494027FD8DE2B70190E050D0A51430F4B701F3
S113495080E390E04AD05A94F8CFAA94F401EA0D87
S1134960F11D8081B70190E040D0A110F6CF332033
S113497009F45DCEB70180E290E037D03A94F7CFE6
S1134980F7018681978102C08FEF9FEF2C960FB6B7
S1134990F894DEBF0FBECDBFDF91CF911F910F9171
S11349A0FF90EF90DF90CF90BF90AF909F908F904B
S11349B07F906F905F904F903F902F900895FC01EF
S11349C00590615070400110D8F7809590958E0F36
S11349D09F1F0895FC016150704001900110D8F7A9
S11349E0809590958E0F9F1F08950F931F93CF93DB
S11349F0DF93182F092FEB018B8181FD03C08FEF0B
S1134A009FEF20C082FF10C04E815F812C813D81C9
S1134A10421753077CF4E881F9819F012F5F3F4FD0
S1134A2039832883108306C0E885F985812F099589
S1134A30892B29F72E813F812F5F3F4F3F832E83A0
S1134A40812F902FDF91CF911F910F910895FA013B
S1134A50AA27283051F1203181F1E8946F936E7FB9
S1134A606E5F7F4F8F4F9F4FAF4FB1E03ED0B4E0AA
S1134A703CD0670F781F891F9A1FA11D680F791FEB
S1134A808A1F911DA11D6A0F711D811D911DA11DFC
S1134A9020D009F468943F912AE0269F112430190C
S1134AA0305D3193DEF6CF010895462F4770405DA7
S1134AB04193B3E00FD0C9F7F6CF462F4F70405D56
S1134AC04A3318F0495D31FD4052419302D0A9F7B1
S1134AD0EACFB4E0A6959795879577956795BA95AB
S1134AE0C9F700976105710508959B01AC010A2E71
S1134AF006945795479537952795BA95C9F7620F48
S1114B00731F841F951FA01D0895F894FFCF06
S1134B0E0102FFFFFF220100010111031103410302
S1134B1EFF0101FFFF0000000200000000BE0A00BA
S1134B2E00000001002A7265636569766520616381
S1134B3E6B212A202020206368616E6E656C3A25F5
S1134B4E640A006E6F2061636B00636F756E743A56
S1114B5E2564202020525353493A25640A004E
S9030000FC
