S01600006275696C642F7470612F6D61696E2E73726563B6
S11300002EC200004BC2000049C2000047C20000DB
S113001045C2000043C2000041C200003FC20000CC
S11300203DC200003BC2000039C2000037C20000DC
S113003035C2000033C2000031C200002FC20000EC
S11300400C9419210C94FB200C9405210C940F2181
S11300500C94E42023C2000021C200001FC200004F
S11300600C940C1D0C94281F19C200000C94A21FA0
S113007015C2000013C2000011C200000FC200002C
S11300800DC200000BC2000009C2000007C200003C
S11300900C94C82003C200000C94D920FFC10000B6
S11300A0FDC10000FBC10000F9C10000F7C1000060
S11300B0F5C10000F3C10000F1C10000EFC1000070
S11300C0EDC10000EBC10000E9C10000E7C1000080
S11300D0E5C10000E3C10000E1C10000DFC1000090
S11300E0DDC100000C946E1ED9C100000C94321EB8
S11300F00C94F41D0C94EA1ED1C100000C94B61D9E
S11301000C94AC1E0C94E91B0C947C1C0C94C41C25
S11301100C94D81BC3C10000C1C10000BFC10000C2
S113012000000000000000000000000000000000CB
S113013000000000000000000000000000000000BB
S113014000000000000000000000000000000000AB
S1130150000000000000000000000000000000009B
S1130160000000000000000000000000000000008B
S1130170000000000000000000000000000000007B
S1130180000000000000000000000000000000006B
S1130190000000000000000000000000000000005B
S11301A0000000000000000000000000000000004B
S11301B0000000000000000000000000000000003B
S11301C0000000000000000000000000000000002B
S11301D0000000000000000000000000000000001B
S11301E0000000000000000000000000000000000B
S11301F000000000000000000000000000000000FB
S113020000000000000000000000000000000000EA
S113021000000000000000000000000000000000DA
S1130220E910EC10D30FA00E720E2F10190E530FFD
S11302301C0FC40EB40ED80D930D1F0DCE0C9B0CC9
S1130240940C650C3B0C43118F207A204F204620E0
S11302503D2033202F20172000020E060C0400003E
S11302602110422063308440A550C660E7700881A5
S113027029914AA16BB18CC1ADD1CEE1EFF131121C
S1130280100273325222B5529442F772D6623993F5
S113029018837BB35AA3BDD39CC3FFF3DEE362246C
S11302A0433420040114E664C774A44485546AA545
S11302B04BB528850995EEE5CFF5ACC58DD55336FC
S11302C0722611163006D776F6669556B4465BB795
S11302D07AA719973887DFF7FEE79DD7BCC7C448CC
S11302E0E5588668A7784008611802282338CCC9E5
S11302F0EDD98EE9AFF9488969990AA92BB9F55A5C
S1130300D44AB77A966A711A500A333A122AFDDB34
S1130310DCCBBFFB9EEB799B588B3BBB1AABA66C2B
S1130320877CE44CC55C222C033C600C411CAEED84
S11303308FFDECCDCDDD2AAD0BBD688D499D977E3B
S1130340B66ED55EF44E133E322E511E700E9FFFD4
S1130350BEEFDDDFFCCF1BBF3AAF599F788F88918A
S1130360A981CAB1EBA10CD12DC14EF16FE180106E
S1130370A100C230E3200450254046706760B98371
S11303809893FBA3DAB33DC31CD37FE35EF3B102BE
S11303909012F322D2323542145277625672EAB581
S11303A0CBA5A89589856EF54FE52CD50DC5E2340E
S11303B0C324A01481046674476424540544DBA751
S11303C0FAB79987B8975FE77EF71DC73CD7D3265E
S11303D0F2369106B01657667676154634564CD9E1
S11303E06DC90EF92FE9C899E9898AB9ABA94458AE
S11303F0654806782768C018E1088238A3287DCBB1
S11304005CDB3FEB1EFBF98BD89BBBAB9ABB754AFD
S1130410545A376A167AF10AD01AB32A923A2EFD40
S11304200FED6CDD4DCDAABD8BADE89DC98D267C4D
S1130430076C645C454CA23C832CE01CC10C1FEF90
S11304403EFF5DCF7CDF9BAFBABFD98FF89F176E9D
S1130450367E554E745E932EB23ED10EF01E11249C
S11304601FBECFEFD1E4DEBFCDBF12E0A0E0B2E00B
S1130470EEE9F8E400E00BBF02C007900D92AA3148
S1130480B107D9F72FE0AAE1B2E001C01D92A93665
S1130490B207E1F70E9423210C944D24B1CD84319D
S11304A038F4E82FF0E0E75AF14F90819F3F11F0C4
S11304B080E00895E091580E8E17D1F39091570E75
S11304C09F3F51F0E431A0F7F0E0E75AF14F808309
S11304D08093580E81E008958093570E8093580EB0
S11304E081E00895CF92DF92EF92FF920F931F93D2
S11304F02FB7F89440910A038FB7F8947091E100F4
S11305006091E2005091E3003091E4008FBFC72E68
S1130510D62EE52EF32E3091E00033FF10C04F5F4E
S11305208FB7F8947091E1006091E2005091E3007C
S11305303091E4008FBFC72ED62EE52EF32E2FBFA9
S1130540642F70E080E090E02AE1660F771F881F37
S1130550991F2A95D1F79701860146E0369527958C
S1130560179507954A95D1F7602B712B822B932B06
S11305701F910F91FF90EF90DF90CF9008950F930C
S11305801F93FB01AFB7F8942FB7F8947091E10073
S11305906091E2005091E3004091E4002FBF072FE7
S11305A0162F252F342FAF01BC01423051056105B0
S11305B0710520F442E050E060E070E0400F511F0C
S11305C0621F731F7093F4006093F3005093F20062
S11305D04093F10082E08093E0008091DF0082602C
S11305E08093DF008FEF80931602AFBF1F910F91AE
S11305F00895FC01278130E0322F22278681282BA1
S11306004FB7F89480911102909112024FBF2817AE
S1130610390729F02F3F3F4F11F080E008952581DD
S113062030E0322F22278481282B8FB7F894409111
S113063010028FBF50E081E02417350779F380E082
S1130640EDCFFC01228130E0322F22278181282B3B
S113065025FF05C027743C7C2134384811F080E024
S11306600895278130E0322F22278681282B8FB7E7
S1130670F89440911102509112028FBF81E0241727
S1130680350771F380E0ECCFEEE5F2E06927660F01
S1130690F11DE60FF11DC895982F802D3196C89550
S11306A0902508958F929F92AF92BF92EF92FF92FE
S11306B00F931F93CF93DF93EC0180914F02882314
S11306C061F085E0DF91CF911F910F91FF90EF9042
S11306D0BF90AF909F908F90089580918E02853047
S11306E081F780914F088111ECCF8E01085A1F4F7A
S11306F0F801808183FF31C0329681818F7090919F
S11307000E03891751F080930E03806C809345018A
S113071080910E03806C809345018A8190E0982F2C
S113072088272981822B87749C7C81349848E9F03E
S113073089E080934201F8018081488185FD0FC0E2
S1130740E12CF12C40938001809141018F7189301B
S113075011F186E080934201B4CF80E0D0CF8BEFDB
S1130760840F7E01E80EF11CEDCF209146012F711C
S113077030E04091BD0C8091480290E0840F911DBF
S11307809595879595958795959587958217930760
S11307900CF497CFCDCFF801808182FF7CC0FE019D
S11307A0E75AFF4F8081882309F48CC080914D0162
S11307B08C7F816080934D0180914D018C7F81609D
S11307C080934D01A198BE016F5F7F4F42508FB758
S11307D0F894EFB7F8945091E1003091E200209141
S11307E0E3009091E400EFBF852E932EA22EB92E44
S11307F092E0909342018FBFFBE08F0E911CA11CED
S1130800B11CE114F10409F46BC0F701208181816A
S113081090E0A0E0B0E0DC0199278827B22B238187
S1130820822B2281922B88199909AA09BB098383F7
S11308309283A183B08350E081E891E00E943D243B
S113084086E080934201F7018081418150E060E0BD
S113085070E0BA0155274427782B8381482B828185
S1130860582B480D591D6A1D7B1D43835283618398
S11308707083F801808182608083CC5ADF4F888244
S11308809982AA82BB8286E080938E0284E0809360
S11308904F0280E017CF9FB7F894809108029FBF62
S11308A0837090914D019C7F982B90934D01909172
S11308B04D019C7F982B90934D01823009F082CF9B
S11308C0A19A81CF80914D018C7F826080934D01EC
S11308D080914D018C7F826080934D01A19A73CFEA
S11308E050E081E891E00E943D2486E0809342013B
S11308F0C0CFCF92DF92EF92FF920F931F938FB7E7
S1130900F8945091E1004091E2003091E30020918D
S1130910E4008FBF852F942FA32FB22F2091F903CA
S1130920222309F470C04091F1035091F2036091C5
S1130930F3037091F4036C017D01C41AD50AE60A2D
S1130940F70A0091F5031091F6032091F703309113
S1130950F803C016D106E206F30608F463C0040FD8
S1130960151F261F371F0093F1031093F2032093E2
S1130970F3033093F4031092F5031092F6031092EC
S1130980F7031092F80300E010E098014FB7F894D1
S1130990E090E100F090E200F091E300E091E400E7
S11309A04FBFA7016F2F7E2F4E5F5F4F6F4F7F4F5B
S11309B06A017B01C81AD90AEA0AFB0AC016D106E1
S11309C0E206F30630F4B901A801480F591F6A1F63
S11309D07B1F7093F8006093F7005093F6004093E8
S11309E0F50081E08093E0008091DF0081608093D6
S11309F0DF008FEF809316021F910F91FF90EF900D
S1130A00DF90CF9008958091DF008E7F8093DF0088
S1130A108FEF809316021F910F91FF90EF90DF905C
S1130A20CF9008958093F1039093F203A093F3037E
S1130A30B093F4030C191D092E093F090093F50323
S1130A401093F6032093F7033093F80337FF9ECFF8
S1130A50369527951795079599CFCF92DF92EF9208
S1130A60FF920F931F933EDD00918602109187023F
S1130A702091880230918902C0908102D090820234
S1130A80E0908302F0908402C00ED11EE21EF31E99
S1130A90601771078207930708F464C0C016D10673
S1130AA0E206F30608F063C097018601061B170BE4
S1130AB0280B390B01301105210542E0340708F4F5
S1130AC077C06B017C014EEFF41AC0928602D0927B
S1130AD08702E0928802F0928902325000938102E8
S1130AE010938202209383023093840200E010E08A
S1130AF020E030E8DC01CB01880F991FAA1FBB1F3F
S1130B00880F991FAA1FBB1F880F991FAA1FBB1FFD
S1130B10880F991FAA1FBB1F880F991FAA1FBB1FED
S1130B20880F991FAA1FBB1F8093F1039093F203B0
S1130B30A093F303B093F4030093F5031093F60327
S1130B402093F7033093F80381E08093F9038091B5
S1130B50FA03882331F11F910F91FF90EF90DF90FA
S1130B60CF900895C016D106E206F30630F46C1552
S1130B707D058E059F0508F497CF00E010E09801ED
S1130B80C0928602D0928702E0928802F092890293
S1130B9010928102109282021092830210928402B7
S1130BA0A9CF1F910F91FF90EF90DF90CF90A1CE2E
S1130BB0E6E0000F111F221F331FEA95D1F7E0CFA3
S1130BC080918A0290918B02892B11F085E008951F
S1130BD081E090E09093AA0C8093A90C8CE792E0BA
S1130BE090938B0280938A02109275021092740281
S1130BF081E0809376028091C00080648093C0007D
S1130C008091C10080648093C100809174029091AE
S1130C1075029C012F5F3F4F30937502209374023D
S1130C20FC01E458FD4F80819FB7F8948093C6007F
S1130C308091C00080648093C0009FBF80E00895CD
S1130C4093E8980F923018F080937C02B9CF90917A
S1130C501C02916090931C0290E2982790934A02A0
S1130C608DE780937C02ACCF9FB7F89480911C02EF
S1130C708E7F80931C028EE780937C029FBFA0CF5F
S1130C809FB7F89480915F0E8F3F19F085E09FBF66
S1130C900895E091580EE630C9F38091570E8F3FC6
S1130CA061F0E43198F7F0E0E75AF14F86E0808391
S1130CB08093580E80E09FBF089586E08093570E7E
S1130CC08093580E80E0F7CF9FB7F8948091640E1C
S1130CD08F3F19F085E09FBF0895E091580EEB30E7
S1130CE0C9F38091570E8F3F61F0E43198F7F0E03B
S1130CF0E75AF14F8BE080838093580E80E09FBFCA
S1130D0008958BE08093570E8093580E80E0F7CFC0
S1130D109FB7F8948091620E8F3F19F085E09FBFD2
S1130D200895E091580EE930C9F38091570E8F3F32
S1130D3061F0E43198F7F0E0E75AF14F89E08083FD
S1130D408093580E80E09FBF089589E08093570EEA
S1130D508093580E80E0F7CF9FB7F8948091600E8F
S1130D608F3F19F085E09FBF0895E091580EE7305A
S1130D70C9F38091570E8F3F61F0E43198F7F0E0AA
S1130D80E75AF14F87E080838093580E80E09FBF3D
S1130D90089587E08093570E8093580E80E0F7CF34
S1130DA0611118C05FB7F8944091EB03E42FF0E0B1
S1130DB0EE0FFF1FED5AFD4F2081318128173907AF
S1130DC021F15FBF8FB7F89490915E0E9F3F51F071
S1130DD08FBF089581E082BB8FB7F89490915E0E27
S1130DE09F3FB1F7E091580EE53091F39091570E83
S1130DF09F3FB9F0E43160F7F0E0E75AF14F95E036
S1130E0090839093580E8FBF08954F5F4C3078F4C1
S1130E104093EB0380917D02882399F210927D0226
S1130E20D0CF95E09093570E9093580ED1CF109257
S1130E30EB03F0CFBC014FB7F8948091EC03909191
S1130E40ED039C012F5E3E4F3093ED032093EC03A2
S1130E504FBF2FB7F8943091660E3F3F29F02FBF54
S1130E600E94AE2344960895E091580EED30B9F3F4
S1130E703091570E3F3F71F0E43188F7F0E0E75AC4
S1130E80F14F3DE030833093580E2FBF0E94AE23C4
S1130E90449608953DE03093570E3093580EDFCFBB
S1130EA08FB7F89490917702992311F08FBF08952A
S1130EB02FB7F8949091670E9F3F49F095E02FBFAC
S1130EC09111F4CF91E0909377028FBF0895E09150
S1130ED0580EEE3099F39091570E9F3F59F0E4313C
S1130EE068F7F0E0E75AF14F9EE090839093580E34
S1130EF090E0E5CF9EE09093570E9093580E90E0CB
S1130F00DECF9091210291113AC0811138C041E0A5
S1130F1040932102809106028093200230912E0298
S1130F20832F817080934902809100029091010285
S1130F3090931F0280931E0280912D0280931D02C4
S1130F408091460280935108232F21702427367EF6
S1130F50E22FF0E0EE0FFF1FEE5FFD4F80819181E5
S1130F609093010280930002322B30932E028FB7AC
S1130F70F89490916C0E9F3F71F08FBF089580910B
S1130F802E0280FF04C08B7F80932E0208958D7FF4
S1130F9080932E020895E091580EE33171F39091FD
S1130FA0570E9F3F51F0E43140F7F0E0E75AF14F1C
S1130FB093E190839093580EE0CF93E19093570E72
S1130FC09093580EDACF809137028A3021F081E075
S1130FD080932F02089580914E028430C1F78FB719
S1130FE0F8949091690E9F3F21F08FBF10922F02C9
S1130FF00895E091580EE031C1F39091570E9F3F50
S113100051F0E43190F7F0E0E75AF14F90E190832A
S11310109093580EEACF90E19093570E9093580E08
S1131020E4CF1F93CF93DF93C82FD62F90914E0216
S1131030913009F4AFC008F496C0923009F448C066
S1131040933009F06BC01091E6031F3F09F466C0AA
S1131050882309F4DAC0123008F43DC08091EB0211
S113106081112AC12091EF0230E0322F222781E042
S113107090E0FC01E551FD4F8281282B80913902DB
S113108090913A028217930731F580E03ADF80911C
S11310908C02843409F434C11092EC021092EB02F5
S11310A084E080934E021092E60310928C02109218
S11310B0EE0310923A021092390280911C028D7F45
S11310C080931C0280912F02882309F448C022C017
S11310D0882309F48BC01092EC021092EB0284E096
S11310E080934E021092E60310928C021092EE034B
S11310F010923A021092390280911C028D7F8093E3
S11311001C0281E0FEDE80912F02882329F184E015
S113111080934E02DF91CF911F9155CF1092EC0234
S11311201092EB0284E080934E021092E603109238
S11311308C021092EE0310923A02109239028091BE
S11311401C028D7F80931C0281E0DBDE80912F02E4
S11311508111DDCFCC2319F081E080934E02DF9121
S1131160CF911F9108958823D1F31092EC0210922D
S1131170EB021092E60310928C021092EE0310928E
S11311803A021092390281E080934E02DF91CF91AE
S11311901F9108958111E3CF8091390290913A0211
S11311A073DA90933A028093390282E080934E027C
S11311B0D0938C028DEB8D0F833008F0AFCF8091EC
S11311C02E0280FD70C081FDA9CF826080932E0223
S11311D080912E02877E886080932E02D0934602EF
S11311E010922D028FEF80930602B9CF6093EE0325
S11311F08091390290913A0247DA90933A028093AF
S1131200390283E080934E02AACF1230E0F120919C
S1131210EC02E22FF0E0E551FD4F628130912E02A5
S1131220832F869586958695837090E0813091050D
S113123009F454C00297C9F480912D028235A8F4B0
S1131240E0910002F0910102E80FF11D60838091AA
S11312502D028F5F80932D022091EC02E22FF0E0AB
S1131260E551FD4F62811091E6032F5F233098F51D
S11312702093EC028091390290913A0205DA90931E
S11312803A02809339028091EB02E82FF0E0E551B5
S1131290FD4FD2838F5F833060F01092EB021F5FAB
S11312A01093E6035CCF82FD39CF846080932E02D5
S11312B08FCF8093EB02F3CF9FEF980FE92FF0E0ED
S11312C0E551FD4F228130E0322F2227911135C0A4
S11312D082E090E0CECE1092EC02CCCF8091460218
S11312E0377E306130932E02833431F085E0809371
S11312F02D0260930602B9CF85E080932D02B5CF0D
S11313002091EE03E091F70E3091F80E81E08E0FFC
S1131310863070F4982F391709F4BECEF0E0E95006
S1131320F14F2283863030F48093F70EB9DDB4CECA
S113133090E0F1CF1092F70EF9CF825090E099CE61
S11313409FB7F89480913302823019F09FBF81E0F7
S1131350089580910D028111F9CF80910F028F3F82
S113136079F1E82FF0E0EB57FD4F208120930F0235
S11313702F3F19F12FEF208380930D0281E080939A
S113138033028FB7F8942091610E2F3F21F08FBF65
S11313909FBF80E00895E091580EE830C1F320919A
S11313A0570E2F3F91F0E43190F7F0E0E75AF14FF8
S11313B028E020832093580EEACF20930E02DACF40
S11313C080930D0210923302E3CF28E02093570E4E
S11313D02093580EDCCF9FB7F894809137028A305F
S11313E039F080914E02843019F09FBF89E008954E
S11313F0809107028823C9F39FBF8FB7F894909117
S1131400680E9F3F19F08FBF80E00895E091580E59
S1131410EF30C9F39091570E9F3F51F0E43198F7A4
S1131420F0E0E75AF14F9FE090839093580EEBCF92
S11314309FE09093570E9093580EE5CF80914F0202
S1131440882311F085E0089580918E02853011F48F
S113145089E0089583E080934F028FB7F8949091C8
S1131460600E9F3F19F08FBF80E00895E091580E01
S1131470E730C9F39091570E9F3F51F0E43198F74C
S1131480F0E0E75AF14F97E090839093580EEBCF3A
S113149097E09093570E9093580EE5CFCF93DF9338
S11314A0DFB7F89420917D02211122C020914502DA
S11314B030E0F901EE0FFF1FED5AFD4FC08141816D
S11314C080839183C90101966CE070E00E94C2237D
S11314D0809345029091EB03981721F18091BC0C05
S11314E0882381F0DFBF8C2F942FDF91CF91089553
S11314F021E022BBC82F492FDFBF8C2F942FDF910F
S1131500CF9108958FB7F89490915E0E9F3F91F01C
S11315108FBF81E08093BC0CDFBF8C2F942FDF91B1
S1131520CF91089581E080937D028091BC0C81115C
S1131530D9CFE8CFE091580EE53051F39091570E92
S11315409F3F51F0E43120F7F0E0E75AF14F95E086
S113155090839093580EDCCF95E09093570E909320
S1131560580ED6CF4F925F926F927F92BF92CF92D6
S1131570DF92EF92FF920F931F93CF93DF93EFE0ED
S1131580F3E0C0E0D0E0B084B1FE13C040805180ED
S113159062807380C480D580E680F7808B019C01D3
S11315A004191509260937090C151D052E053F05D3
S11315B060F521963996C330D10529F78FB7F89491
S11315C090915B0E9F3F79F08FBFDF91CF911F9178
S11315D00F91FF90EF90DF90CF90BF907F906F902E
S11315E05F904F900895E091580EE23069F3909126
S11315F0570E9F3FA1F1E43138F7F0E0E75AF14F7D
S113160092E090839093580EDFCFB0FC2EC0D301AC
S1131610C2018C0D9D1DAE1DBF1D80839183A283CD
S1131620B383C13009F440C0C23019F5809123025C
S1131630882321F28FB7F894609126028FBF10920D
S1131640230210922A021092290280912B02909177
S11316502C02209124022111B1CFA2DBAFCF92E062
S11316609093570E9093580EAFCFE894B1F8B0868C
S1131670D8CF9FB7F8948091590E8F3F11F09FBF38
S11316809DCFE091580EEE23D1F38091570E8F3FFA
S113169009F43EC0E43198F7F0E0E75AF14F1082C4
S11316A01092580E9FBF8ACF809143028D3021F152
S11316B0873131F1823241F1813219F484E280932D
S11316C043028FB7F8949091620E9F3F11F08FBF41
S11316D075CFE091580EE930D1F39091570E9F3FAA
S11316E0E9F0E431A0F7F0E0E75AF14F99E0908394
S11316F09093580E8FBF62CF84E180934302E1CF71
S11317008AE080934302DDCF83E280934302D9CF02
S11317101092570E1092580E9FBF50CF99E090939D
S1131720570E9093580E8FBF49CF2F923F924F92EE
S11317305F926F927F928F929F92AF92BF92CF925D
S1131740DF92EF92FF920F931F93CF93DF9390E07A
S11317508431910508F07CC0FC01E05FFE4F0C94DD
S1131760F72390E0962B435F40834FB7F894309172
S11317701102209112024FBF308721873FB7F8949E
S1131780209110023FBF2483158253877683978369
S11317908FB7F8949091330291110C94ED1392E069
S11317A09093330210920D028FBF8FE38287809152
S11317B035028F5F809335028383809143028D309D
S11317C011F40C94B415873111F40C94B4158A30C7
S11317D011F40C9489149AEE980F923010F40C942E
S11317E089148B3011F40C94101994EF980F9230E3
S11317F010F40C945217843111F40C94521785315F
S113180009F04FC38DE18093430280910B029091C4
S11318100C028230910510F40C94AD168D939C93B8
S1131820878190E0982F88272681822B019639F0B2
S113183081818062228190E0922B81839283F09354
S1131840D40DE093D30D81E080933B0280E283B911
S1131850DF91CF911F910F91FF90EF90DF90CF9088
S1131860BF90AF909F908F907F906F905F904F90BC
S11318703F902F9008958FB7F894209122021092F0
S113188022028FBF8091290290912A02029701F7C8
S11318902223F1F280912502882311F40C9445153A
S11318A010922A0210922902109225028091240299
S11318B08111CECF81E082BB8FB7F89490915E0EF8
S11318C09F3F09F413C58FBFC3CF8091C100877FA9
S11318D08093C1009FEF909316028091C1008F7E88
S11318E08093C100909316028FB7F89491E090937F
S11318F007028FBF10921B0280911A02882309F4F9
S1131900A7CFDF91CF911F910F91FF90EF90DF90C0
S1131910CF90BF90AF909F908F907F906F905F908B
S11319204F903F902F9057CDCFB7F89481E10E940C
S11319304F02CFBF8DCF8091C1008F7B8093C100B8
S11319408091C1008F778093C1001092E8031092B8
S113195076028091C10088608093C1009FEF9093CC
S113196016028091C10080618093C1009093160299
S11319708091C10080688093C1008FB7F894109261
S1131980370210924E02109207028FBF10927D020E
S113199081E080931B0210921A025ACF2FB7F89459
S11319A0109277029091370288EF890F823050F4B9
S11319B010923702E0914702F0E0EE0FFF1FE25170
S11319C0F14F10822FBF823008F40EC5992311F411
S11319D00C94B11B90E0CFB7F894809137028A3011
S11319E009F468C7CFBF992309F432CF8FB7F894AD
S11319F01092020F1092010F1092360291E0909310
S1131A0037028FBF31D9882309F422CF8FB7F894D6
S1131A1099E0909337028FBFDF91CF911F910F917F
S1131A20FF90EF90DF90CF90BF90AF909F908F90FA
S1131A307F906F905F904F903F902F9031CAEFB797
S1131A40F8948091780290917902A0917A02B091F1
S1131A507B021C012D019C01A20160E070E080E08A
S1131A6090E003E00E94FD2351016201E12CF12C7E
S1131A7000E010E00E94342459016A017B01F82F30
S1131A80192F03E00E94FD230F2F0E9434245901D3
S1131A906A017B01F82F192F03E00E94FD230F2F09
S1131AA00E94342459016A017B01F82F192F03E0A5
S1131AB00E94FD230F2F0E94342459016A017B01E7
S1131AC0F82F192F03E00E94FD230F2F0E943424C6
S1131AD001E00E94FD2329013A0100E20E9418243A
S1131AE049015A01D301C201B695A79597958795E7
S1131AF0880D991DAA1DBB1DB7FF04C0BF770196B1
S1131B00A11DB11D8093780290937902A0937A026B
S1131B10B0937B02EFBF2FB7F8949093ED038093BB
S1131B20EC032FBF95CE8FB7F8949091500899236A
S1131B3009F4C9CE02E01DE00FC02093BB0C8091D4
S1131B4050088150809350083FBF8FB7F89490910C
S1131B505008992309F4B7CEE091BB0CF0E0EE0FE6
S1131B60FF1FE35CFD4FC081D1818FBF8091430291
S1131B70843109F4F1C38D3009F4F0C38A858F33BD
S1131B8009F42CC4CE010E94F902CE013FB7F894A7
S1131B902091BB0CE22FF0E0EE0FFF1FE35CFD4F42
S1131BA0808391832F5F233040F21092BB0CC7CF08
S1131BB0C0917002C13009F400C510927002809186
S1131BC0BE0CE091E903F091EA0380933B0281119A
S1131BD0A3C3DF01AE5ABF4F8D919C91892B09F4A9
S1131BE09BC380914302833209F496C3828190E0BF
S1131BF0982F88272181822B85FF05C0E85AFF4F43
S1131C00808180FD89C381E280934302DF91CF917B
S1131C101F910F91FF90EF90DF90CF90BF90AF9006
S1131C209F908F907F906F905F904F903F902F90F8
S1131C306FC88FB7F894209138029091680F2913D8
S1131C4005C090914402992309F4ADC58FBFE0917A
S1131C50680FF0E0EE0FFF1FE051FD4F0190F0819F
S1131C60E02D418565817681878190E0982F8827D2
S1131C702085822B53852181207330E021643868CC
S1131C80218328E82283DF01AE5ABF4F11961C92AC
S1131C901E92EF01C85ADF4F18828087918747341C
S1131CA008F45FCD81E082BB8FB7F89490915F0E0A
S1131CB09F3F09F008CEE091580EE63009F403CEB8
S1131CC09091570E9F3F11F40C945C17E43108F087
S1131CD0FACDF0E0E75AF14F96E090839093580ED6
S1131CE08FBFB6CD2FB7F89482E0809334028CB5C1
S1131CF08F7B8CBD8FEF80931602229A2398219AB2
S1131D009A9A2098289A9CB590619CBD9CB59F771F
S1131D109CBD809316029CB5977F9CBD9CB59B7F10
S1131D209CBD9CB590649CBD809316029DB591604A
S1131D309DBD9CB59C7F9CBD809316022FBF88CD12
S1131D408FB7F89410926D0210926C021092730285
S1131D50109272021092F0031092EF031092FD039E
S1131D601092FC038FBF74CD8091700210927002A8
S1131D70853009F4A4C5863009F4A5C5873009F473
S1131D8067CD8093700264CD809143028A3009F458
S1131D90F2C38E3109F4EFC3843109F4AAC481304B
S1131DA009F4A7C4843009F4B6C7833009F469C6BA
S1131DB08C3009F400C6863109F4A4C6803209F4D3
S1131DC04AC7813211F40C941217843209F040CDC1
S1131DD08DE0809343028091310290913202892BED
S1131DE011F00C949C1910913B02C091D30DD09129
S1131DF0D40D8A858F3309F02BCDA2DA11110C94FE
S1131E004D1B3FB7F8942091680FE22FF0E0EE0FDE
S1131E10FF1FE051FD4F80819181C817D90711F44C
S1131E200C94651B3FBF9FB7F89480915F0E8F3F62
S1131E3009F47BC29FBF0CCD8FB7F89492E09093C6
S1131E4033028FBF80910D02811102CDE0915102C6
S1131E50F09152028FE38287809135028F5F8093E5
S1131E6035028383809143028D3009F4A6C48731FF
S1131E7009F4A3C48A3009F415C49AEE980F923079
S1131E8008F410C48B3009F4D9C694EF980F92303B
S1131E9008F424C6843109F421C6853111F40C9464
S1131EA0781A4EDAFFCE80914F088111E7C28091F3
S1131EB04F02882309F421C3893009F4D6C59FEF62
S1131EC0980F933008F4A9C4873009F47FC688308A
S1131ED009F4BBC4882309F410C380914B028230F7
S1131EE009F432C48091E303823009F0B1CC10923A
S1131EF0E30380918D02813009F0AACC609108033C
S1131F00709109038FB7F8945091E1004091E20079
S1131F103091E3002091E4008FBF852F942F20910E
S1131F207102203809F46BC67B01E81AF90A27FD0F
S1131F3001C6C0916E02D0916F0280914C02882339
S1131F4011F40C941B19822F15E08F77813011F452
S1131F500C948C1A27FF02C00C941519109271026C
S1131F601093BE0C81E0809370028FB7F894909127
S1131F70640E9F3F09F0A7CCE091580EEB3009F4B2
S1131F80A2CC9091570E9F3F11F40C94451BE43161
S1131F9008F099CCF0E0E75AF14F9BE090839093DE
S1131FA0580E8FBF55CC0E9472022FB7F89410922E
S1131FB0F9032FBFEFE0F3E020E044244A94542CCB
S1131FC0642C3FE7732E308531FF1AC0C080D18066
S1131FD0E280F3804B015C018C189D08AE08BF08B9
S1131FE0C480D580E680F780C818D908EA08FB08C1
S1131FF0C414D504E604F7041CF42601370121E0D7
S1132000399633E0EA32F307F1F6222309F420CCBF
S113201014141504160417040CF022C14092B50CD4
S11320205092B60C6092B70C7092B80C21E02093D9
S11320305002CFB7F894609386027093870280931E
S113204088029093890240928102509282026092A7
S11320508302709284020E942D05CFBFF9CB8FB703
S1132060F894209145029091EB03291305C09091B7
S11320707D02992309F493C38FBFE091EB03F0E051
S1132080EE0FFF1FED5AFD4F0190F081E02D4081CE
S113209023EF240F20930D036385778116818185B7
S11320A090E0982F88273085832B3481DF011596A3
S11320B057E0ED0119925A95E9F7808797833287A3
S11320C0E091EB03F0E0EE0FFF1FED5AFD4F01909E
S11320D0F081E02D273408F0EDCB90E0972B1683A8
S11320E0958363872187DF01AB5ABF4F1C921397F7
S11320F08C91843409F4F6C475E4DF01AD5ABF4F02
S11321008C91882309F4AEC3EF01CC5ADF4F688168
S1132110862F90E09C013595279535952795359523
S11321202795359527952370D0E12D9F9001112493
S1132130082E892F000C881F990B000C881F991FEB
S1132140582F5295550F550F507C522B6F70562BAC
S11321501C928091290290912A02892B09F0AACB22
S11321608FB7F8941092220295E090932702109270
S11321702602F0932C02E0932B0222E030E030930D
S11321802A0220932902109224021092250241501F
S1132190409328028FBF8FB7F894909137029A30FA
S11321A009F4DFC58FBF9FB7F8948091F00E8111B9
S11321B07EC681E08093F00E5093F10E7093E40399
S11321C09FBF81110C94551A10922A021092290271
S11321D071CB81E08FB93CCB8091500281113EC01C
S11321E04091B50C5091B60C6091B70C7091B80C3D
S11321F02FB7F8948091810290918202A09183027A
S1132200B0918402C0908602D0908702E090880248
S1132210F09089028C0D9D1DAE1DBF1D2FBF4093F4
S1132220B50C5093B60C6093B70C7093B80C109225
S11322305002CFB7F8948093860290938702A093BC
S11322408802B09389024093810250938202609382
S11322508302709384020E942D05CFBF0E947202F4
S1132260DF91CF911F910F91FF90EF90DF90CF906E
S1132270BF90AF909F908F907F906F905F904F90A2
S11322803F902F906FC99FB7F89430912002C0916E
S11322901E02D0911F0220911D02109149028091CB
S11322A051089FBF8454823008F49DC18091230259
S11322B0882339F08091290290912A02029709F427
S11322C0D3C28FB7F894E12FF0E0EE0FFF1FEE5F5B
S11322D0FD4FD183C08390912E02111148C19D7F7F
S11322E090932E02109221028FBFB2CAE091580E31
S11322F0E53009F4E8CA9091570E9F3F09F463C78B
S1132300E43108F0E0CAF0E0E75AF14F95E0908339
S11323109093580E8FBF9CCA809120038D7F809329
S1132320200384E28093430271CCE091580EE6309E
S113233009F480CD8091570E8F3F11F40C94A91BA2
S1132340E43108F077CDF0E0E75AF14F86E080837E
S11323508093580E9FBF7CCA109343028091310230
S113236090913202892B09F409CCC0900902D090D3
S11323700A02E12CF12C0E947202609318037093FC
S1132380190380931A0390931B03C0921C03D092E9
S11323901D03E0921E03F0921F03809120038160CD
S11323A08260809320038FB7F89490915B0E9F3FD7
S11323B011F08FBFE3CBE091580EE230D1F390914E
S11323C0570E9F3F09F44BC3E43198F7F0E0E75A06
S11323D0F14F00830093580E8FBFD0CB4FB7F894C2
S11323E04FBFCE015BD8D2CB2FB7F8948091800237
S11323F08F5F809380028091E203833409F494C157
S113240031E0983021F181E02FBF2FB7F8949091FB
S11324102F022FBF992309F413C19FB7F8942AE020
S1132420209337029FBF90E0882309F4D4CA8FB762
S1132430F8943093260221E0209322028FBF8FB7B5
S1132440F89420916B0E2F3F29F08FBFC4CA30E05F
S113245081E0DACFE091580EE231B9F32091570EC2
S11324602F3F09F4D5C6E43180F7F0E0E75AF14F85
S113247022E120832093580E8FBFADCA8FB7F89402
S1132480D091E9001091EA000091EB00F090EC008B
S1132490C0914F0810924F088FBF80914F02C7FD23
S11324A0CFC2843009F450C2C5FF06C0863009F497
S11324B035C2882309F434C2853009F440C2C0FF10
S11324C005C090918E02923009F4BCC3C3FFF1CCD5
S11324D0863009F0EECC809155018F7780935501B9
S11324E0809155018F778093550110924F0280910E
S11324F04101877011F08091410180918E028530F5
S113250009F0EBCC80914F088111E7CC80914C020B
S11325108111E3CC809171028111DFCC8091E303BE
S11325208111DBCC80917002823009F0D6CC81E03D
S1132530809370029FB7F8948091640E8F3F11F0DE
S11325409FBFCBCCE091580EEB30D1F38091570E66
S11325508F3F11F40C94A11BE43190F7F0E0E75A9B
S1132560F14F8BE080838093580E9FBFB6CC9B7F46
S113257090932E02B7CE80917002882309F4B4C2DE
S11325809FB7F8948091620E8F3F09F053CCE0918D
S1132590580EE93009F44ECC8091570E8F3F09F460
S11325A02FC6E43108F046CCF0E0E75AF14F89E059
S11325B080838093580E9FBF4BC98091E7038F5F40
S11325C08093E703863008F0F8CA8091E90390917C
S11325D0EA0320917102222309F432C485E0809336
S11325E0BE0C82E0CECB2C3008F46BCEFE01EC5A4C
S11325F0FF4F30830FB7F89480914402811171C367
S113260080913802E82FF0E0EE0FFF1FE051FD4FFC
S1132610E080F180D183C0838F5F8C3008F449C49B
S11326201092380280E09091680F891709F45DC612
S113263080913C02882309F44FC6E7010FBF41CEC5
S11326409FB7F8945091EE0E6091F00E9FBF4FB774
S1132650F8942091F70E9091F80E4FBF291709F4C2
S1132660A6C05111A4C09FB7F89422E02093EE0EA7
S11326705FB7F8944091F70E2091F80E5FBF4217B0
S113268009F40EC4E091F80EF0E0E950F14F228114
S11326902093EF0E23E42093E203109247029FBF9E
S11326A091E0C2CE8EE18093430280910B0290911F
S11326B00C028230910508F4FAC0DF01AE5ABF4F14
S11326C08D939C93878190E0982F88272681822B75
S11326D0019639F081818062228190E0922B81837E
S11326E09283F093D40DE093D30D81E080933B0269
S11326F0AFC880917002811143CF80914F02811144
S11327003FCF80918E02813009F43ACF81E08093EB
S11327104F020E94AC0686E08093700280914302CF
S11327208F5F8093430294C88091F80E9091F70EC6
S1132730981739F08F5F8093F80E863010F010925E
S1132740F80E80E030E060CE10924B028091FE03E0
S11327508111C8CB10924C02109271021092BE0CDF
S113276084E0809370028FB7F8949091640E9F3F39
S113277011F08FBFB7CBE091580EEB30D1F39091AD
S1132780570E9F3F09F4B8C6E43198F7F0E0E75AD2
S1132790F14F9BE090839093580E8FBFA3CB109280
S11327A0BC0C8FBF55C810923C028FBF51C86150FA
S11327B0623008F4EAC190E037CE809120038D7F27
S11327C0809320038FB7F8949091620E9F3F09F491
S11327D0E8C18FBF809143024DCB8FBFF09352026B
S11327E0E09351028FB7F89490913302992309F43E
S11327F045C3909185029F3F31F095E08FBF9923A7
S113280009F424C84FCA90910E029923B1F310928F
S11328100F0210920E0290E0F1CF2EEF280F22301B
S113282008F4A6C2923009F0DDC2813009F482C2F4
S1132830823009F04CCB80918E02833009F04DCB6D
S113284010924E018FEF8093160210924F028FB7B1
S1132850F8949091630E9F3F09F485C38FBF8091D4
S11328604F0238CB50E075CC809129038D7F809343
S11328702903E0912B02F0912C02EB5AFF4F81E0E7
S113288080831092230210922A02109229028FB799
S1132890F894609126028FBF80912B0290912C02B4
S11328A02091240221110DCD0E94D0060ACD80E092
S11328B090E003CF0E94E307CFBF0C94280C8091D3
S11328C043028F5FA1C9809143028F5F80934302CB
S11328D08FB7F8949091620E9F3F11F00C94630CA3
S11328E0E091580EE93011F40C94630C9091570E5A
S11328F09F3F09F409C6E43110F00C94630CF0E036
S1132900E75AF14F99E090839093580E8FBF0C943F
S1132910280C8EE1809343020C94050C10924F0214
S1132920C03209F4D1C2E091610FF091620FE85A0C
S1132930FF4F8081897E808385E080934F02C4FDB0
S1132940D4C180914F02BBCDC1FFB9CD9FB7F894DC
S1132950809130029FBF882321F0823009F4ABC5F7
S1132960A19885E080938E0210924F0280914C02D0
S1132970833009F4C2C4E091FF0EF091000F82810C
S113298090E0982F88272181822B85FF06C08774C9
S11329909C7C8134984809F400C610924C02109231
S11329A071021092BE0C84E0809370020E9464064F
S11329B080914F0279CD8DE0809343028091310262
S11329C090913202892B11F40C94280C0E9472020B
S11329D0609318037093190380931A0390931B0355
S11329E085E090E0A0E0B0E080931C0390931D0389
S11329F0A0931E03B0931F03809120038160826023
S1132A00809320039FB7F89480915B0E8F3F09F069
S1132A1011CAE091580EE23009F40CCA8091570EA5
S1132A208F3F09F4A7C5E43108F004CAF0E0E75A7F
S1132A30F14F82E080838093580E9FBF0C94280C42
S1132A40982F9B7F933009F45FC18A3009F029CD18
S1132A5085E080938E0210924F0280E025CD009392
S1132A60570E0093580E8FBF89C820917B01809127
S1132A70460187FD8DC285E080938E0210924F023D
S1132A803CCD109243020C94280C0E947202609375
S1132A90210370932203809323039093240382E001
S1132AA090E0A0E0B0E08093250390932603A093E8
S1132AB02703B09328038091290381608260809367
S1132AC029038FB7F89490915B0E9F3F09F436C2A7
S1132AD08FBF81E0809323020C94280C80E28093C2
S1132AE04302E3CD74E409CB0E941E0A811148CD50
S1132AF085E080937002809143028F5F809343024C
S1132B000C94280CC0913102D0913202209709F420
S1132B10C5C187E1809343020E9472026093180347
S1132B207093190380931A0390931B03CE01A0E0C2
S1132B30B0E05ACF1E141F040CF0FBC9822F8F770C
S1132B40813009F4E9C415E080E88093710281E0E2
S1132B5080938D028093E303B701882777FD8095E6
S1132B60982F0E94BF02FCC9809120038D7F80931F
S1132B7020038FB7F8949091620E9F3F09F42BC302
S1132B808FBF809143020C94E70B9FB7F894209178
S1132B90E4032093E20321E0209347029FBF91E0E6
S1132BA043CCA091580EA93009F413CE9091570E3E
S1132BB09F3F09F482C4A43108F00BCEB0E0A75AB9
S1132BC0B14F99E09C939093580E03CE80918E025E
S1132BD0813029F08091ED0E8064809348018091CA
S1132BE0ED0E80648093480180918E02853009F057
S1132BF02CCE84E080938E0280914F0268C910929B
S1132C00710280917002823011F00C94280C81E0E2
S1132C1080937002DF91CF911F910F91FF90EF90FD
S1132C20DF90CF90BF90AF909F908F907F906F90E8
S1132C305F904F903F902F900C9464068FE18093A7
S1132C40430233CD9EEF980F923008F03FCC93E0CF
S1132C5090938E023BCCE091D30DF091D40DEE5ABB
S1132C60FF4FC081D181209721F481E280934302F8
S1132C7087CC0E94720260931803709319038093A7
S1132C801A0390931B03CE010A96A0E0B0E0809350
S1132C901C0390931D03A0931E03B0931F03809104
S1132CA0200381608260809320039FB7F894809111
S1132CB05B0E8F3F11F09FBFD8CFE091580EE230EA
S1132CC0D1F38091570E8F3F09F417C5E43198F77B
S1132CD0F0E0E75AF14F82E080838093580E9FBF63
S1132CE0C4CF81E082BB0FBFECCA809146019091B2
S1132CF0BD0C8F71890F96959695891B8093BD0C99
S1132D0089E080934F02DBCB85E080938E0288E0DC
S1132D1080934F02C9CB8AE0809343029FB7F89413
S1132D208091620E8F3F09F4AAC29FBF10924402A1
S1132D300C94280C90918E02933009F0CEC8909395
S1132D404D0190934D01999AA19890913901926007
S1132D509093390180938E0278CD80E090E00C94BA
S1132D600E0C8FBF10922A02109229020C945A0C56
S1132D7020918E02213009F497C2833009F052CD9C
S1132D80233009F04FCD8091ED0E8064809348018B
S1132D908DE580934E018FEF809316028FB7F894E0
S1132DA091E09093FB038FBF8FB7F894909130021A
S1132DB08FBF992309F4D4C390934D0180914A01A4
S1132DC0807F876080934A01999A923009F455C4B0
S1132DD0A19886E08093420184E080938E028091E2
S1132DE04F0223CD90918E02953009F01ECD83E0E1
S1132DF080934D0180934D01999AA1988FB7F894CF
S1132E001092FB038FBF83E08093420110924E0126
S1132E1010924F089FEF9093160280938E02809138
S1132E204F0203CD8091D30D9091D40D2091700267
S1132E30222309F469C285E080933B0284E216CF21
S1132E402091E3032111CACB90936F0280936E0209
S1132E50C093710284E690E00E941A07C0938D0229
S1132E60C093E303BC0180E090E00E94BF02109293
S1132E70BE0C83E0809370020C94280C91E0909334
S1132E80330210920D022FB7F8949091610E9F3F78
S1132E9009F4BDC22FBF8FBF0C94260C8AE0E6CE86
S1132EA020E0F6CB80E2809343020C94050C80E092
S1132EB087C980933802B7CB96E09093570E9093CE
S1132EC0580E8FBF0C94280C309146013F7190919D
S1132ED04802832F890F96959695891B8093480203
S1132EE08091610F9091620FFC01E85AFF4F20819D
S1132EF0422F42604083DC01AC5ABF4FDC931196F1
S1132F001C93119712960C9312971396FC92139795
S1132F1040914D0142FFA7C140914D01441F4427F8
S1132F20441F15964C93266020832081277F2061BF
S1132F302083FC01E65AFF4F3183FECCE091580E0A
S1132F40E23009F4C5CD9091570E9F3F09F466C352
S1132F50E43108F0BDCDF0E0E75AF14F92E0908300
S1132F609093580EB5CDE091580EEA3009F476CC22
S1132F709091570E9F3F09F405C3E43108F06ECCDD
S1132F80F0E0E75AF14F9AE090839093580E66CCA4
S1132F908DEF820F813508F06ECD8091610F909195
S1132FA0620FDC012D93CD012250422F50E060E8E6
S1132FB071E00E943D24C091610FD091620F89811C
S1132FC08770823009F4AEC3888182508B3008F454
S1132FD052CD9FB7F894809113029FBF81119CC377
S1132FE09FB7F89481E020915008233008F080E0E6
S1132FF09FBF882309F43FCD80914C02C091610F9B
S1133000D091620FE0917B01F0E0E058FE4F908197
S11330107E01FE01E65AFF4F908395E090938E0265
S113302010924F0299819770923009F4C1C188239C
S113303009F402C28FB7F8943091E1002091E200C4
S11330409091E3009091E4008FBFC901092F182FDC
S1133050CE010E942103882311F00A5C1F4F1093B4
S11330600903009308034FB7F8943091E1002091CD
S1133070E2009091E3008091E4004FBF432F522F70
S1133080B801641B750B161617064CF48091710277
S113309081112FC18091E303882309F4C5C22985D6
S11330A030E0322F22278885282B80914D02482F2B
S11330B050E0FA01EE0FFF1FE555F34F6081718177
S11330C02617370709F4FFC17091E503ABEABCE0AA
S11330D0E2EFFEE080E090E060E010E04D915D9171
S11330E02417350709F4AFC24191572F541B151704
S11330F010F4682F152F01968530910579F76093A8
S11331004D02862F90E0FC01EE0FFF1FE555F34FB3
S1133110318320837F5F7093E503FC01EE50F14F10
S11331207083FC01ED59F04F1082872F8F778F3712
S1133130C9F1862F9B81E82FF0E0DF01AD59B04F34
S11331408C9180FFC4C0EE5AF74F8081981711F11B
S113315090831FB7F894809150088330D0F4E091A5
S1133160BB0CE80FE33008F0E350F0E0EE0FFF1F74
S1133170E35CFD4FD0800181D183C0838F5F809356
S11331805008CFB7F8948CE00E944F02CFBFED2CCB
S1133190F02E1FBFF092620FE092610F80914F02F8
S11331A00C94670F1F3728F2CB01E2EFFEE0392FB2
S11331B0307820812F67921330833196AEE0E73F59
S11331C0FA07B9F7B7CF95E09093570E9093580E3E
S11331D08FBF0C94280CC091580EC93009F4D0CC80
S11331E09091570E9F3F09F43CC2C43108F0C8CCFB
S11331F0D0E0C75AD14F99E098839093580EC0CC31
S113320089E08093570E8093580E9FBF0C94280C2E
S113321022E12093570E2093580E8FBF0C94EB0C91
S11332208FE1809343020C94050C1E141F040CF4CC
S11332308BCC0C94AE0FCE010E945203182F811137
S1133240A7C1FE01E85AFF4F80818E7F808381E011
S113325080934C02D093000FC093FF0E83E08093C1
S113326071020C94280C44B34695417051E04527F3
S1133270DC01A75ABF4F4C932660208356CEE091C1
S1133280580EE93009F451CD8091570E8F3F09F45F
S1133290F6C1E43108F049CDF0E0E75AF14F89E096
S11332A080838093580E41CD9FEF90934F0180E827
S11332B080934E01809139018D7F809339019093E1
S11332C0160282E080938E0280914F02AECA816022
S11332D08C93EE5AF74F3CCF0E94400681E08093D6
S11332E03C02E7010FBF0C94611181E0809344021A
S11332F09FC9806880937102D2CE10924C028C2FA9
S11333008072C5FD0DCBDBC89093EA038093E9037B
S113331081E0809370021092E7039FB7F894809144
S1133320640E8F3F09F4BDC19FBF10923B0282E23D
S1133330809343020C94280CC0900902D0900A0296
S1133340E12CF12C0E94720260931803709319030C
S113335080931A0390931B03C0921C03D0921D0305
S1133360E0921E03F0921F0380912003816082602B
S1133370809320039FB7F89480915B0E8F3F19F0E0
S11333809FBF0C94F30EE091580EE230C9F3809184
S1133390570E8F3F09F4B8C1E43190F7F0E0E75AD3
S11333A0F14F82E080838093580E9FBF0C94F30EFC
S11333B0823009F0EFCEE091FF0EF091000F9B8177
S11333C083819813E7CE8091DF008B7F8093DF00A9
S11333D08FEF8093160210924B02E091FF0EF09152
S11333E0000FE85AFF4F80818160808380914C02F6
S11333F0882309F4CFCE10924C02109271021092DD
S1133400BE0C84E0809370020E946406C3CEE091F7
S1133410580EE83009F43ECD9091570E9F3F09F4C1
S113342026C1E43108F036CDF0E0E75AF14F98E0D8
S113343090839093580E2ECD9FB7F89480911402E8
S11334409FBF882309F4F6CDCE010E94210388236F
S113345009F4F0CD85E080938F0282E0809390029E
S1133460109291028B81809392029FB7F89480917D
S113347008029FBF82FD5CC181E0FE01E75AFF4F55
S11334809081911101C080E08093E8028091E7026D
S113349084608093E7028FE892E00E9452038111D6
S11334A0C9CD83E080934C02C5CD0E94500780E2D1
S11334B082BB0C94280CA19A54CA99E09093570E9D
S11334C09093580E86C99091E503FA01EE50F14F9E
S11334D02081291709F42ECE9F5F9093E5039083F2
S11334E09091E503292F2F772F3709F023CE5DCE56
S11334F08DE180934302D9C89BE09093570E90933B
S1133500580E8FBF0C94720F99E09093570E9093BE
S1133510580E8FBF0C94280C2078226020937102DF
S113352088EC90E00E941A07BC0181E080938D0230
S11335308093E30380E090E0DF91CF911F910F919E
S1133540FF90EF90DF90CF90BF90AF909F908F90BF
S11335507F906F905F904F903F902F900C94BF029C
S11335608DE080934D0180914A01807F8360809338
S11335704A012FCC82E08093570E8093580E9FBF50
S11335800C94280C9AE09093570E9093580E66C9A9
S113359080917102282F0C94A50F878190E0982FB9
S11335A088272681822B019609F4F7C980914B0262
S11335B08111F3C91092FE0381E080934B022FB76F
S11335C0F8948FB7F8946091E1005091E200409133
S11335D0E3003091E4008FBF862F952FA42FB32FE3
S11335E0CE96A11DB11DB093F000A093EF0090936F
S11335F0EE008093ED0084E08093E0008091DF0092
S113360084608093DF008FEF809316022FBF82E0E7
S113361080934C0280914F020C94541292E0909348
S1133620570E9093580E54CA81E080938D02809374
S1133630E303882777FD8095982F0E94BF0280E8D6
S1133640809371022CCD80934D02FC01EE50F14F1A
S11336502081721709F46ECD7F5F7093E503708348
S11336603FCF99E09093570E9093580E89CA98E0F3
S11336709093570E9093580E0DCCA19AAACB89E043
S11336808093570E8093580E50CB9BE09093570E27
S11336909093580E8FBF0C94280C81E082BB0C943D
S11336A0130FE091580EEB3009F43ECE8091570E83
S11336B08F3FE9F0E43108F037CEF0E0E75AF14FFC
S11336C08BE080838093580E2FCE81E0820F80930D
S11336D0680F8C3010F01092680F80914402882398
S11336E011F40C94120F109244020C94120F8BE0FC
S11336F08093570E8093580E17CE82E08093570E16
S11337008093580E9FBFB1CA82E08093570E809376
S1133710580E9FBF0C94F30ECE010E94F902811142
S11337205FCCA9C980914C02823009F0A4C96ACC4B
S113373081708093E8028091E70284608093E702BD
S1133740AACE8BE08093570E8093580E9FBF0C94A3
S11337506D0F86E08093570E8093580E9FBF0C9494
S1133760280C30E080E00C9405128091570E8F3FB6
S1133770A9F0282F30E02952324FF901EE57FF4FBC
S113378090819093570E9F3F59F0F901EE57FF4FE8
S11337909FEF90830E94950B81E0089580E0089547
S11337A09093580EF2CF8FB7F89408958FBF089571
S11337B01F920F920FB60F9211248F9380910A03D8
S11337C08F5F80930A038F910F900FBE0F901F900D
S11337D018951F920F920FB60F9211240BB60F92E9
S11337E02F933F934F935F936F937F938F939F9305
S11337F0AF93BF93EF93FF938091DF008E7F80930D
S1133800DF008FEF8093160281E08093FA038091AA
S1133810F9038823C1F14091F1035091F2036091BF
S1133820F3037091F4038FB7F894F091E100E09101
S1133830E2003091E3002091E4008FBF8F2F9E2F90
S1133840A32FB22F841B950BA60BB70B4091F50346
S11338505091F6036091F7037091F803841795076C
S1133860A607B70780F01092F90380918102909126
S11338708202A0918302B0918402892B8A2B8B2B24
S1133880C9F00E942D051092FA030E947904FF9159
S1133890EF91BF91AF919F918F917F916F915F91C4
S11338A04F913F912F910F900BBE0F900FBE0F9031
S11338B01F9018958FB7F89490915A0E9F3F11F06E
S11338C08FBFE1CFE091580EE130D1F39091570EC4
S11338D09F3F59F0E431A0F7F0E0E75AF14F91E04F
S11338E090839093580E8FBFCECF91E09093570E54
S11338F09093580E8FBFC7CF1F920F920FB60F929F
S113390011240BB60F928F939F93EF93FF938091A3
S1133910DF008D7F8093DF008FEF80931602789411
S11339208FB7F8949091E303913019F492E0909357
S1133930E3038FBF8FB7F8949091600E9F3F61F0BF
S11339408FBFFF91EF919F918F910F900BBE0F90BE
S11339500FBE0F901F901895E091580EE73081F339
S11339609091570E9F3F51F0E43150F7F0E0E75A41
S1133970F14F97E090839093580EE2CF97E09093A5
S1133980570E9093580EDCCF1F920F920FB60F92E2
S113399011240BB60F928F939F93EF93FF93809113
S11339A0DF008B7F8093DF008FEF80931602789483
S11339B08FB7F89490914B02913019F492E0909360
S11339C04B028FBF8FB7F8949091600E9F3F61F0C8
S11339D08FBFFF91EF919F918F910F900BBE0F902E
S11339E00FBE0F901F901895E091580EE73081F3A9
S11339F09091570E9F3F51F0E43150F7F0E0E75AB1
S1133A00F14F97E090839093580EE2CF97E0909314
S1133A10570E9093580EDCCF1F920F920FB60F9251
S1133A2011240BB60F922F933F934F935F936F9391
S1133A307F938F939F93AF93EF93FF932EB58091D2
S1133A406C0290916D02009739F0E091FC03F091C3
S1133A50FD03E80FF91F20838091FC039091FD037F
S1133A6001969093FD038093FC038CB58F778CBDF6
S1133A708FEF809316028091FC039091FD03E091F7
S1133A80EF03F091F0038E179F0718F110926D0267
S1133A9010926C0210927302109272021092F00350
S1133AA01092EF031092FD031092FC038EB5FF9168
S1133AB0EF91AF919F918F917F916F915F914F9112
S1133AC03F912F910F900BBE0F900FBE0F901F9040
S1133AD01895209172023091730240916C025091BA
S1133AE06D02BC01665F7F4FE617F707A0F16150D6
S1133AF0710986179707C0F52115310539F1F901C8
S1133B00E80FF91FE081EEBD0DB407FEFDCFAEB5A1
S1133B104115510521F0FA01E80FF91FA083019620
S1133B208617970748F38CB580688CBD8FEF809318
S1133B30160221153105B1F0F901E60FF71F808156
S1133B408EBD7093FD036093FC03B1CF1EBC0DB416
S1133B5007FEFDCFDCCFBF016150710986179707BF
S1133B6058F202C01EBCEDCFBC01DDCF78941F9289
S1133B700F920FB60F9211240BB60F928F939F934F
S1133B80EF93FF939FB7F89480914F0882608093DE
S1133B904F089FBF8FB7F8949091600E9F3F61F0DC
S1133BA08FBFFF91EF919F918F910F900BBE0F905C
S1133BB00FBE0F901F901895E091580EE73081F3D7
S1133BC09091570E9F3F51F0E43150F7F0E0E75ADF
S1133BD0F14F97E090839093580EE2CF97E0909343
S1133BE0570E9093580EDCCF78941F920F920FB615
S1133BF00F9211240BB60F928F939F93EF93FF9321
S1133C009FB7F89480914F08806180934F089FBFBD
S1133C108FB7F8949091600E9F3F61F08FBFFF9132
S1133C20EF919F918F910F900BBE0F900FBE0F904D
S1133C301F901895E091580EE73081F39091570E3C
S1133C409F3F51F0E43150F7F0E0E75AF14F97E02D
S1133C5090839093580EE2CF97E09093570E9093F1
S1133C60580EDCCF1F920F920FB60F9211240BB691
S1133C700F928F939F93EF93FF9380914F088062ED
S1133C8080934F0878948FB7F8949091600E9F3F7B
S1133C9069F08FBFF894FF91EF919F918F910F90EE
S1133CA00BBE0F900FBE0F901F901895E091580E09
S1133CB0E73079F39091570E9F3F51F0E43148F784
S1133CC0F0E0E75AF14F97E090839093580EE1CFDC
S1133CD097E09093570E9093580EDBCF78941F92F1
S1133CE00F920FB60F9211240BB60F928F939F93DE
S1133CF0EF93FF939FB7F89480914F088068809367
S1133D004F089FBF8FB7F8949091600E9F3F61F06A
S1133D108FBFFF91EF919F918F910F900BBE0F90EA
S1133D200FBE0F901F901895E091580EE73081F365
S1133D309091570E9F3F51F0E43150F7F0E0E75A6D
S1133D40F14F97E090839093580EE2CF97E09093D1
S1133D50570E9093580EDCCF78941F920F920FB6A3
S1133D600F9211240BB60F928F939F93EF93FF93AF
S1133D709FB7F89480914F08816080934F089FBF4C
S1133D808FB7F8949091600E9F3F61F08FBFFF91C1
S1133D90EF919F918F910F900BBE0F900FBE0F90DC
S1133DA01F901895E091580EE73081F39091570ECB
S1133DB09F3F51F0E43150F7F0E0E75AF14F97E0BC
S1133DC090839093580EE2CF97E09093570E909380
S1133DD0580EDCCF78941F920F920FB60F921124D5
S1133DE00BB60F928F939F93EF93FF939FB7F89423
S1133DF080914F08886080934F089FBF8FB7F894D5
S1133E009091600E9F3F61F08FBFFF91EF919F9162
S1133E108F910F900BBE0F900FBE0F901F901895AF
S1133E20E091580EE73081F39091570E9F3F51F087
S1133E30E43150F7F0E0E75AF14F97E09083909324
S1133E40580EE2CF97E09093570E9093580EDCCF24
S1133E501F920F920FB60F9211240BB60F922F934D
S1133E603F934F935F936F937F938F939F93AF93FE
S1133E70BF93EF93FF938091C00087FD13C0FF9120
S1133E80EF91BF91AF919F918F917F916F915F91CE
S1133E904F913F912F910F900BBE0F900FBE0F903B
S1133EA01F9018956091C60080910B0390910C03AC
S1133EB0009751F12091D50D3091D60DA9014F5F96
S1133EC05F4F5093D60D4093D50DFC01E20FF31FC5
S1133ED060832091D50D3091D60D8091030F909180
S1133EE0040F2817390758F210920C0310920B0391
S1133EF08091E803833019F28091C1008F77809319
S1133F00C1001092E803BBCF6E3779F080911C0298
S1133F106D37A1F081FF05C08D7F80931C0280E284
S1133F20682780E00E941108AACF809107028111BE
S1133F30A6CF60E081E00E941108A1CF8260809347
S1133F401C029DCF78941F920F920FB60F921124EA
S1133F500BB60F92FF920F931F932F933F934F93A0
S1133F605F936F937F938F939F93AF93BF93CF93FD
S1133F70DF93EF93FF9320918A0230918B022115F6
S1133F80310509F466C080917402909175024091E4
S1133F90A90C5091AA0C8417950768F5AC014F5FE2
S1133FA05F4F5093750240937402F901E80FF91FB3
S1133FB080819FB7F8948093C6008091C00080648C
S1133FC08093C0009FBFFF91EF91DF91CF91BF918C
S1133FD0AF919F918F917F916F915F914F913F919D
S1133FE02F911F910F91FF900F900BBE0F900FBE5A
S1133FF00F901F90189510928B0210928A021092C3
S113400076028091C1008F7B8093C1001FB7F89422
S113401080911C0280FD12C08091370290E0FC0167
S11340203197E830F10538F089E0809337020E9437
S113403050071FBFC8CFEC5DFE4FD9C38E7F80935E
S11340401C0280914A0280937C020E94E0051FBFFB
S1134050BACF8091C1008F7B8093C100B4CF88E038
S113406080933702E4CF0E943406082F87E08093C0
S113407037020111D9CF1FBFA6CF8091020F0E9432
S11340802006082F86E080933702F3CF8091010F3A
S11340900E942006082F85E080933702EACFE09142
S11340A04702F0E0EE0FFF1FE151F14F80810E94C3
S11340B02006082FF0904702CF2DD0E0CC0FDD1F53
S11340C0FE01E151F14F60818091010F9091020F47
S11340D00E9444039093020F8093010F8091360253
S11340E08F5F8093360291E0F91671F184E080933A
S11340F03702BFCF809180020E942006082F83E000
S113410080933702609180028091010F9091020F99
S11341100E9444039093020F8093010FAACF8091D1
S1134120E2030E942006082F82E080933702609108
S1134130E2038091010F9091020F0E944403909337
S1134140020F8093010F95CF90912702E0912B02EB
S1134150F0912C02E90FF11D30819F5F90932702AB
S113416020912802291790F492E09093F00E20E019
S1134170FE01E251F14F9081923009F4B7CF8F3FA5
S113418009F4B4CFC151D14F288373CF232FF0CF7B
S11341901F920F920FB60F9211248F938091C80033
S11341A087FD8091CE008F910F900FBE0F901F90CE
S11341B0189578941F920F920FB60F9211240F90B6
S11341C00FBE0F901F9018951F920F920FB60F926B
S11341D011248F939F9380917E0290917F02019688
S11341E090937F0280937E029F918F910F900FBED8
S11341F00F901F9018951F920F920FB60F921124D3
S11342000F900FBE0F901F9018951F920F920FB62C
S11342100F9211240F900FBE0F901F9018951F92AC
S11342200F920FB60F9211240F900FBE0F901F9094
S113423018951F920F920FB60F9211240F900FBE74
S11342400F901F901895DFB7F89484B78ABD14BEF9
S113425088E10FB6F89480936000109260000FBE5E
S113426044E150E06FEF70E089E59EE00FD38FEFFB
S11342708093570E8093580E85E09FE09093620FD1
S11342808093610F1092BD0C8AE58093480280915F
S11342903501806180933501809134018061809380
S11342A03401809133018061809333018091320124
S11342B080618093320185B7806885BF85B7806847
S11342C085BF80E8809361001092610081E0809353
S11342D0810090E29093B6008093B10042E3809114
S11342E0B2008111FCCF209184003091850080912F
S11342F0B2008034E1F78091840090918500821BA4
S1134300930B9093BA0C8093B90C415041F71092DF
S1134310B100109281001092B6008091B6008370B3
S1134320E1F7809180008C7F8093800080918100F0
S1134330807E82608093810080916F008160809391
S11343406F008091DF008B7F8093DF008FEF80937D
S113435016029091DC009B7F9093DC009091DF002B
S11343609D7F9093DF00809316029091DC009D7FE7
S11343709093DC0090E29093B6009091DC009063FF
S11343809093DC00809316029091DF0098609093E4
S1134390DF009091DF009E7F9093DF0080931602F0
S11343A08091DC008E7F8093DC00809A81E08FB95D
S11343B0259A9D9A989A2D9AA59AA09AD6D9811150
S11343C0FDCF12E0C6E06091B90C7091BA0C80E0A8
S11343D090E044E8C42E43E0D42EE12CF12CA70154
S11343E09601E3D1215031093093C5002093C400D4
S11343F01093C000C093C2001092C1006091B90C28
S11344007091BA0C80E090E0A7019601CED12150C2
S113441031092093CC003093CD001093C800C09391
S1134420CA001092C90084E490E09093A80C809391
S1134430A70C1092EE0E1092F00E4AE04093370251
S1134440109236021092E203109280021092020F30
S11344501092010F10927702109247021092EC0210
S11344601092EB0284E080934E021092E6031092C5
S11344708C021092EE0310923A02109239021092BA
S1134480F80E1092F70E87EC8093490183E0809335
S11344904D01999AA19880EC8093450110920E03E6
S11344A081E18093ED0E8091440180628093440108
S11344B08091ED0E8064809348018091390182607F
S11344C0809339018091DC0088608093DC0081E076
S11344D080938E022091170230911802C90101962F
S11344E0A0E0B0E08093780290937902A0937A02DE
S11344F0B0937B028FEB9CE090933E0280933D024D
S11345008BE19DE09093400280933F0287E79DE01A
S113451090934202809341028FEF9FEF9093AC0CF3
S11345208093AB0C9093AE0C8093AD0C9093B00C35
S11345308093AF0C9093B20C8093B10C9093B40C15
S11345408093B30C2295207F2093350280938502BB
S113455080936B02E1EFF3E0DF011D924A95E9F7E6
S113456004D98111FDCFDFBF78940E947202609359
S11345700F037093100380931103909312038EE73B
S113458091E0A0E0B0E08093130390931403A09310
S11345901503B0931603809117038E7F8260809376
S11345A017039FB7F89480915B0E8F3F09F458C0AE
S11345B09FBF87E598E0E3E5F2E081939193845A05
S11345C09F4FBCE0873A9B07C1F71092EB03109210
S11345D045021092BC0C81E080937D028FEF93E042
S11345E0E0EFF2E081939193845A9F4F28E08F3457
S11345F09207C1F71092680F1092380210923C0291
S113460081E08093440280914302843029F088231E
S113461009F49EC0109244020E94EB09893011F4FF
S113462010927D02CFEF07C0F901EE57FF4FC08310
S11346304FBF0E94950B4FB7F8948091570E8F3F50
S113464049F1282F30E02952324FF901EE57FF4F3C
S113465090819093570E9F3F39F79093580EE4CF73
S1134660E091580EE23009F4A3CF8091570E8F3FAA
S113467059F0E43108F09CCFF0E0E75AF14F82E0C2
S113468080838093580E94CF82E08093570E80935A
S1134690580E8ECF8091160287FD11C083B78160BA
S11346A083BF78948895F89483B78E7F83BF809175
S11346B0570E8F3F31F68091160287FFEFCF80911E
S11346C06F008E7209F442C080E09091C10093FDA6
S11346D02DC09091C10094FD29C09091C90093FD13
S11346E025C09091C90094FD21C090914E0197FD81
S11346F022C095E00CB406FC22C0863008F085E0A8
S1134700981708F4892F9091DC0095FD1DC0E5E011
S11347108E1708F4E82FE093160283B7F0E0E85A06
S1134720FD4FE491807FE82BE3BFB8CF80E0909108
S11347304E0197FFDECF92E00CB406FEDECF80E0A0
S11347409091DC0095FFE3CFE3E0E2CF85E0BDCFBD
S113475084E0809343020E9488065ECFAA1BBB1BA1
S113476051E107C0AA1FBB1FA617B70710F0A61B6D
S1134770B70B881F991F5A95A9F780959095BC018E
S1134780CD01089597FB072E16F4009406D077FD0B
S113479008D0E4DF07FC05D03EF4909581959F4F47
S11347A00895709561957F4F0895A1E21A2EAA1B72
S11347B0BB1BFD010DC0AA1FBB1FEE1FFF1FA217CD
S11347C0B307E407F50720F0A21BB30BE40BF50BCA
S11347D0661F771F881F991F1A9469F76095709553
S11347E0809590959B01AC01BD01CF010895EE0F1A
S11347F0FF1F0590F491E02D09940F93083090F079
S1134800982F872F762F652F542F432F322F22274F
S11348100850F4CF220F331F441F551F661F771F04
S1134820881F991F0A95B2F70F91089597FB10F806
S1134830169400080F93083098F00850232F342F53
S1134840452F562F672F782F892F902DF4CF05945D
S113485097958795779567955795479537952795B4
S11348600A95AAF70F9108952A193B094C095D0985
S11348706E097F09800B910B0895FB01DC0102C0D6
S113488001900D9241505040D8F70895DC0101C0C9
S11148906D9341505040E0F70895F894FFCF27
S113489E2A032A038603FF01022A00F401FFFFFF05
S10D48AE2201000101FFFF010000D8
S9030000FC
